{
	"src/nftMarketPlace.sol": {
		"NFTMarketplace": {
			"abi": [
				{
					"inputs": [],
					"stateMutability": "nonpayable",
					"type": "constructor"
				},
				{
					"inputs": [],
					"name": "OnlyOwnerCanUpDatePrice",
					"type": "error"
				},
				{
					"inputs": [],
					"name": "notAskingPrice",
					"type": "error"
				},
				{
					"inputs": [],
					"name": "priceMustBeEqualToListingPrice",
					"type": "error"
				},
				{
					"inputs": [],
					"name": "priceMustBeGreaterThanOneGwei",
					"type": "error"
				},
				{
					"inputs": [],
					"name": "priceMustEqualListingPrice",
					"type": "error"
				},
				{
					"anonymous": false,
					"inputs": [
						{
							"indexed": true,
							"internalType": "uint256",
							"name": "itemId",
							"type": "uint256"
						},
						{
							"indexed": true,
							"internalType": "address",
							"name": "nftContract",
							"type": "address"
						},
						{
							"indexed": true,
							"internalType": "uint256",
							"name": "tokenId",
							"type": "uint256"
						},
						{
							"indexed": false,
							"internalType": "address",
							"name": "seller",
							"type": "address"
						},
						{
							"indexed": false,
							"internalType": "address",
							"name": "owner",
							"type": "address"
						},
						{
							"indexed": false,
							"internalType": "uint256",
							"name": "price",
							"type": "uint256"
						},
						{
							"indexed": false,
							"internalType": "bool",
							"name": "sold",
							"type": "bool"
						}
					],
					"name": "MarketItemCreated",
					"type": "event"
				},
				{
					"inputs": [
						{
							"internalType": "address",
							"name": "nftContract",
							"type": "address"
						},
						{
							"internalType": "uint256",
							"name": "tokenId",
							"type": "uint256"
						},
						{
							"internalType": "uint256",
							"name": "price",
							"type": "uint256"
						}
					],
					"name": "createMarketItem",
					"outputs": [],
					"stateMutability": "payable",
					"type": "function"
				},
				{
					"inputs": [
						{
							"internalType": "address",
							"name": "nftContract",
							"type": "address"
						},
						{
							"internalType": "uint256",
							"name": "itemId",
							"type": "uint256"
						}
					],
					"name": "createMarketSale",
					"outputs": [],
					"stateMutability": "payable",
					"type": "function"
				},
				{
					"inputs": [],
					"name": "fetchItemListed",
					"outputs": [
						{
							"components": [
								{
									"internalType": "uint256",
									"name": "itemId",
									"type": "uint256"
								},
								{
									"internalType": "address",
									"name": "nftContract",
									"type": "address"
								},
								{
									"internalType": "uint256",
									"name": "tokenId",
									"type": "uint256"
								},
								{
									"internalType": "address payable",
									"name": "seller",
									"type": "address"
								},
								{
									"internalType": "address payable",
									"name": "owner",
									"type": "address"
								},
								{
									"internalType": "uint256",
									"name": "price",
									"type": "uint256"
								},
								{
									"internalType": "bool",
									"name": "sold",
									"type": "bool"
								}
							],
							"internalType": "struct NFTMarketplace.MarketItem[]",
							"name": "",
							"type": "tuple[]"
						}
					],
					"stateMutability": "view",
					"type": "function"
				},
				{
					"inputs": [],
					"name": "fetchMarketItems",
					"outputs": [
						{
							"components": [
								{
									"internalType": "uint256",
									"name": "itemId",
									"type": "uint256"
								},
								{
									"internalType": "address",
									"name": "nftContract",
									"type": "address"
								},
								{
									"internalType": "uint256",
									"name": "tokenId",
									"type": "uint256"
								},
								{
									"internalType": "address payable",
									"name": "seller",
									"type": "address"
								},
								{
									"internalType": "address payable",
									"name": "owner",
									"type": "address"
								},
								{
									"internalType": "uint256",
									"name": "price",
									"type": "uint256"
								},
								{
									"internalType": "bool",
									"name": "sold",
									"type": "bool"
								}
							],
							"internalType": "struct NFTMarketplace.MarketItem[]",
							"name": "",
							"type": "tuple[]"
						}
					],
					"stateMutability": "view",
					"type": "function"
				},
				{
					"inputs": [],
					"name": "fetchMyNfts",
					"outputs": [
						{
							"components": [
								{
									"internalType": "uint256",
									"name": "itemId",
									"type": "uint256"
								},
								{
									"internalType": "address",
									"name": "nftContract",
									"type": "address"
								},
								{
									"internalType": "uint256",
									"name": "tokenId",
									"type": "uint256"
								},
								{
									"internalType": "address payable",
									"name": "seller",
									"type": "address"
								},
								{
									"internalType": "address payable",
									"name": "owner",
									"type": "address"
								},
								{
									"internalType": "uint256",
									"name": "price",
									"type": "uint256"
								},
								{
									"internalType": "bool",
									"name": "sold",
									"type": "bool"
								}
							],
							"internalType": "struct NFTMarketplace.MarketItem[]",
							"name": "",
							"type": "tuple[]"
						}
					],
					"stateMutability": "view",
					"type": "function"
				},
				{
					"inputs": [],
					"name": "listingPrice",
					"outputs": [
						{
							"internalType": "uint256",
							"name": "",
							"type": "uint256"
						}
					],
					"stateMutability": "view",
					"type": "function"
				},
				{
					"inputs": [
						{
							"internalType": "uint256",
							"name": "_listingprice",
							"type": "uint256"
						}
					],
					"name": "updateListingPrice",
					"outputs": [],
					"stateMutability": "payable",
					"type": "function"
				}
			],
			"devdoc": {
				"kind": "dev",
				"methods": {},
				"version": 1
			},
			"evm": {
				"assembly": "    /* \"src/nftMarketPlace.sol\":361:5621  contract NFTMarketplace is ReentrancyGuard{... */\n  mstore(0x40, 0x80)\n    /* \"src/nftMarketPlace.sol\":632:643  0.015 ether */\n  0x354a6ba7a18000\n    /* \"src/nftMarketPlace.sol\":602:643  uint256 public listingPrice = 0.015 ether */\n  0x03\n  sstore\n    /* \"src/nftMarketPlace.sol\":1446:1504  constructor() {... */\n  callvalue\n  dup1\n  iszero\n  tag_1\n  jumpi\n  0x00\n  dup1\n  revert\ntag_1:\n  pop\n    /* \"https://github.com/OpenZeppelin/openzeppelin-contracts/contracts/security/ReentrancyGuard.sol\":1701:1702  1 */\n  0x01\n    /* \"https://github.com/OpenZeppelin/openzeppelin-contracts/contracts/security/ReentrancyGuard.sol\":1806:1813  _status */\n  0x00\n    /* \"https://github.com/OpenZeppelin/openzeppelin-contracts/contracts/security/ReentrancyGuard.sol\":1806:1828  _status = _NOT_ENTERED */\n  dup2\n  swap1\n  sstore\n  pop\n    /* \"src/nftMarketPlace.sol\":1486:1496  msg.sender */\n  caller\n    /* \"src/nftMarketPlace.sol\":1470:1475  owner */\n  0x04\n  0x00\n    /* \"src/nftMarketPlace.sol\":1470:1497  owner = payable(msg.sender) */\n  0x0100\n  exp\n  dup2\n  sload\n  dup2\n  0xffffffffffffffffffffffffffffffffffffffff\n  mul\n  not\n  and\n  swap1\n  dup4\n  0xffffffffffffffffffffffffffffffffffffffff\n  and\n  mul\n  or\n  swap1\n  sstore\n  pop\n    /* \"src/nftMarketPlace.sol\":361:5621  contract NFTMarketplace is ReentrancyGuard{... */\n  dataSize(sub_0)\n  dup1\n  dataOffset(sub_0)\n  0x00\n  codecopy\n  0x00\n  return\nstop\n\nsub_0: assembly {\n        /* \"src/nftMarketPlace.sol\":361:5621  contract NFTMarketplace is ReentrancyGuard{... */\n      mstore(0x40, 0x80)\n      jumpi(tag_1, lt(calldatasize, 0x04))\n      shr(0xe0, calldataload(0x00))\n      dup1\n      0xae677aa3\n      gt\n      tag_9\n      jumpi\n      dup1\n      0xae677aa3\n      eq\n      tag_5\n      jumpi\n      dup1\n      0xc23b139e\n      eq\n      tag_6\n      jumpi\n      dup1\n      0xc78f19f9\n      eq\n      tag_7\n      jumpi\n      dup1\n      0xe1791445\n      eq\n      tag_8\n      jumpi\n      jump(tag_1)\n    tag_9:\n      dup1\n      0x0f08efe0\n      eq\n      tag_2\n      jumpi\n      dup1\n      0x128ae712\n      eq\n      tag_3\n      jumpi\n      dup1\n      0x58eb2df5\n      eq\n      tag_4\n      jumpi\n    tag_1:\n      0x00\n      dup1\n      revert\n        /* \"src/nftMarketPlace.sol\":3317:4003  function fetchMarketItems() public view returns (MarketItem [] memory){... */\n    tag_2:\n      callvalue\n      dup1\n      iszero\n      tag_10\n      jumpi\n      0x00\n      dup1\n      revert\n    tag_10:\n      pop\n      tag_11\n      tag_12\n      jump\t// in\n    tag_11:\n      mload(0x40)\n      tag_13\n      swap2\n      swap1\n      tag_14\n      jump\t// in\n    tag_13:\n      mload(0x40)\n      dup1\n      swap2\n      sub\n      swap1\n      return\n        /* \"src/nftMarketPlace.sol\":4010:4794  function fetchMyNfts() public view returns (MarketItem[] memory){... */\n    tag_3:\n      callvalue\n      dup1\n      iszero\n      tag_15\n      jumpi\n      0x00\n      dup1\n      revert\n    tag_15:\n      pop\n      tag_16\n      tag_17\n      jump\t// in\n    tag_16:\n      mload(0x40)\n      tag_18\n      swap2\n      swap1\n      tag_14\n      jump\t// in\n    tag_18:\n      mload(0x40)\n      dup1\n      swap2\n      sub\n      swap1\n      return\n        /* \"src/nftMarketPlace.sol\":1778:2583  function createMarketItem(address nftContract, uint256 tokenId, uint256 price) public payable nonReentrant {... */\n    tag_4:\n      tag_19\n      0x04\n      dup1\n      calldatasize\n      sub\n      dup2\n      add\n      swap1\n      tag_20\n      swap2\n      swap1\n      tag_21\n      jump\t// in\n    tag_20:\n      tag_22\n      jump\t// in\n    tag_19:\n      stop\n        /* \"src/nftMarketPlace.sol\":1622:1771  function updateListingPrice(uint256 _listingprice)... */\n    tag_5:\n      tag_23\n      0x04\n      dup1\n      calldatasize\n      sub\n      dup2\n      add\n      swap1\n      tag_24\n      swap2\n      swap1\n      tag_25\n      jump\t// in\n    tag_24:\n      tag_26\n      jump\t// in\n    tag_23:\n      stop\n        /* \"src/nftMarketPlace.sol\":2719:3311  function createMarketSale(address nftContract, uint256 itemId) public payable nonReentrant {... */\n    tag_6:\n      tag_27\n      0x04\n      dup1\n      calldatasize\n      sub\n      dup2\n      add\n      swap1\n      tag_28\n      swap2\n      swap1\n      tag_29\n      jump\t// in\n    tag_28:\n      tag_30\n      jump\t// in\n    tag_27:\n      stop\n        /* \"src/nftMarketPlace.sol\":602:643  uint256 public listingPrice = 0.015 ether */\n    tag_7:\n      callvalue\n      dup1\n      iszero\n      tag_31\n      jumpi\n      0x00\n      dup1\n      revert\n    tag_31:\n      pop\n      tag_32\n      tag_33\n      jump\t// in\n    tag_32:\n      mload(0x40)\n      tag_34\n      swap2\n      swap1\n      tag_35\n      jump\t// in\n    tag_34:\n      mload(0x40)\n      dup1\n      swap2\n      sub\n      swap1\n      return\n        /* \"src/nftMarketPlace.sol\":4797:5617  function fetchItemListed () public view returns (MarketItem[] memory ){... */\n    tag_8:\n      callvalue\n      dup1\n      iszero\n      tag_36\n      jumpi\n      0x00\n      dup1\n      revert\n    tag_36:\n      pop\n      tag_37\n      tag_38\n      jump\t// in\n    tag_37:\n      mload(0x40)\n      tag_39\n      swap2\n      swap1\n      tag_14\n      jump\t// in\n    tag_39:\n      mload(0x40)\n      dup1\n      swap2\n      sub\n      swap1\n      return\n        /* \"src/nftMarketPlace.sol\":3317:4003  function fetchMarketItems() public view returns (MarketItem [] memory){... */\n    tag_12:\n        /* \"src/nftMarketPlace.sol\":3366:3386  MarketItem [] memory */\n      0x60\n        /* \"src/nftMarketPlace.sol\":3397:3414  uint256 itemCount */\n      0x00\n        /* \"src/nftMarketPlace.sol\":3417:3435  _itemIds.current() */\n      tag_41\n        /* \"src/nftMarketPlace.sol\":3417:3425  _itemIds */\n      0x01\n        /* \"src/nftMarketPlace.sol\":3417:3433  _itemIds.current */\n      tag_42\n        /* \"src/nftMarketPlace.sol\":3417:3435  _itemIds.current() */\n      jump\t// in\n    tag_41:\n        /* \"src/nftMarketPlace.sol\":3397:3435  uint256 itemCount = _itemIds.current() */\n      swap1\n      pop\n        /* \"src/nftMarketPlace.sol\":3445:3466  uint unsoldItemsCount */\n      0x00\n        /* \"src/nftMarketPlace.sol\":3493:3513  _itemsSold.current() */\n      tag_43\n        /* \"src/nftMarketPlace.sol\":3493:3503  _itemsSold */\n      0x02\n        /* \"src/nftMarketPlace.sol\":3493:3511  _itemsSold.current */\n      tag_42\n        /* \"src/nftMarketPlace.sol\":3493:3513  _itemsSold.current() */\n      jump\t// in\n    tag_43:\n        /* \"src/nftMarketPlace.sol\":3470:3488  _itemIds.current() */\n      tag_44\n        /* \"src/nftMarketPlace.sol\":3470:3478  _itemIds */\n      0x01\n        /* \"src/nftMarketPlace.sol\":3470:3486  _itemIds.current */\n      tag_42\n        /* \"src/nftMarketPlace.sol\":3470:3488  _itemIds.current() */\n      jump\t// in\n    tag_44:\n        /* \"src/nftMarketPlace.sol\":3469:3515  (_itemIds.current()) - (_itemsSold.current() ) */\n      tag_45\n      swap2\n      swap1\n      tag_46\n      jump\t// in\n    tag_45:\n        /* \"src/nftMarketPlace.sol\":3445:3515  uint unsoldItemsCount = (_itemIds.current()) - (_itemsSold.current() ) */\n      swap1\n      pop\n        /* \"src/nftMarketPlace.sol\":3525:3542  uint currentIndex */\n      0x00\n        /* \"src/nftMarketPlace.sol\":3556:3581  MarketItem[] memory items */\n      dup1\n        /* \"src/nftMarketPlace.sol\":3601:3617  unsoldItemsCount */\n      dup3\n        /* \"src/nftMarketPlace.sol\":3584:3618  new MarketItem[](unsoldItemsCount) */\n      0xffffffffffffffff\n      dup2\n      gt\n      iszero\n      tag_47\n      jumpi\n      tag_48\n      tag_49\n      jump\t// in\n    tag_48:\n    tag_47:\n      mload(0x40)\n      swap1\n      dup1\n      dup3\n      mstore\n      dup1\n      0x20\n      mul\n      0x20\n      add\n      dup3\n      add\n      0x40\n      mstore\n      dup1\n      iszero\n      tag_50\n      jumpi\n      dup2\n      0x20\n      add\n    tag_51:\n      tag_52\n      tag_53\n      jump\t// in\n    tag_52:\n      dup2\n      mstore\n      0x20\n      add\n      swap1\n      0x01\n      swap1\n      sub\n      swap1\n      dup2\n      tag_51\n      jumpi\n      swap1\n      pop\n    tag_50:\n      pop\n        /* \"src/nftMarketPlace.sol\":3556:3618  MarketItem[] memory items = new MarketItem[](unsoldItemsCount) */\n      swap1\n      pop\n        /* \"src/nftMarketPlace.sol\":3632:3638  uint i */\n      0x00\n        /* \"src/nftMarketPlace.sol\":3628:3974  for(uint i =0; i < itemCount; i ++){... */\n    tag_54:\n        /* \"src/nftMarketPlace.sol\":3647:3656  itemCount */\n      dup5\n        /* \"src/nftMarketPlace.sol\":3643:3644  i */\n      dup2\n        /* \"src/nftMarketPlace.sol\":3643:3656  i < itemCount */\n      lt\n        /* \"src/nftMarketPlace.sol\":3628:3974  for(uint i =0; i < itemCount; i ++){... */\n      iszero\n      tag_55\n      jumpi\n        /* \"src/nftMarketPlace.sol\":3719:3720  0 */\n      0x00\n        /* \"src/nftMarketPlace.sol\":3680:3721  idToMarketItem[i + 1].owner == address(0) */\n      0xffffffffffffffffffffffffffffffffffffffff\n      and\n        /* \"src/nftMarketPlace.sol\":3680:3694  idToMarketItem */\n      0x05\n        /* \"src/nftMarketPlace.sol\":3680:3701  idToMarketItem[i + 1] */\n      0x00\n        /* \"src/nftMarketPlace.sol\":3699:3700  1 */\n      0x01\n        /* \"src/nftMarketPlace.sol\":3695:3696  i */\n      dup5\n        /* \"src/nftMarketPlace.sol\":3695:3700  i + 1 */\n      tag_57\n      swap2\n      swap1\n      tag_58\n      jump\t// in\n    tag_57:\n        /* \"src/nftMarketPlace.sol\":3680:3701  idToMarketItem[i + 1] */\n      dup2\n      mstore\n      0x20\n      add\n      swap1\n      dup2\n      mstore\n      0x20\n      add\n      0x00\n      keccak256\n        /* \"src/nftMarketPlace.sol\":3680:3707  idToMarketItem[i + 1].owner */\n      0x04\n      add\n      0x00\n      swap1\n      sload\n      swap1\n      0x0100\n      exp\n      swap1\n      div\n      0xffffffffffffffffffffffffffffffffffffffff\n      and\n        /* \"src/nftMarketPlace.sol\":3680:3721  idToMarketItem[i + 1].owner == address(0) */\n      0xffffffffffffffffffffffffffffffffffffffff\n      and\n      eq\n        /* \"src/nftMarketPlace.sol\":3677:3964  if(idToMarketItem[i + 1].owner == address(0)){... */\n      iszero\n      tag_59\n      jumpi\n        /* \"src/nftMarketPlace.sol\":3740:3757  uint256 currentId */\n      0x00\n        /* \"src/nftMarketPlace.sol\":3760:3774  idToMarketItem */\n      0x05\n        /* \"src/nftMarketPlace.sol\":3760:3781  idToMarketItem[i + 1] */\n      0x00\n        /* \"src/nftMarketPlace.sol\":3779:3780  1 */\n      0x01\n        /* \"src/nftMarketPlace.sol\":3775:3776  i */\n      dup5\n        /* \"src/nftMarketPlace.sol\":3775:3780  i + 1 */\n      tag_60\n      swap2\n      swap1\n      tag_58\n      jump\t// in\n    tag_60:\n        /* \"src/nftMarketPlace.sol\":3760:3781  idToMarketItem[i + 1] */\n      dup2\n      mstore\n      0x20\n      add\n      swap1\n      dup2\n      mstore\n      0x20\n      add\n      0x00\n      keccak256\n        /* \"src/nftMarketPlace.sol\":3760:3788  idToMarketItem[i + 1].itemId */\n      0x00\n      add\n      sload\n        /* \"src/nftMarketPlace.sol\":3740:3788  uint256 currentId = idToMarketItem[i + 1].itemId */\n      swap1\n      pop\n        /* \"src/nftMarketPlace.sol\":3806:3836  MarketItem storage currentItem */\n      0x00\n        /* \"src/nftMarketPlace.sol\":3839:3853  idToMarketItem */\n      0x05\n        /* \"src/nftMarketPlace.sol\":3839:3864  idToMarketItem[currentId] */\n      0x00\n        /* \"src/nftMarketPlace.sol\":3854:3863  currentId */\n      dup4\n        /* \"src/nftMarketPlace.sol\":3839:3864  idToMarketItem[currentId] */\n      dup2\n      mstore\n      0x20\n      add\n      swap1\n      dup2\n      mstore\n      0x20\n      add\n      0x00\n      keccak256\n        /* \"src/nftMarketPlace.sol\":3806:3864  MarketItem storage currentItem = idToMarketItem[currentId] */\n      swap1\n      pop\n        /* \"src/nftMarketPlace.sol\":3904:3915  currentItem */\n      dup1\n        /* \"src/nftMarketPlace.sol\":3882:3915  items[currentIndex] = currentItem */\n      mload(0x40)\n      dup1\n      0xe0\n      add\n      0x40\n      mstore\n      swap1\n      dup2\n      0x00\n      dup3\n      add\n      sload\n      dup2\n      mstore\n      0x20\n      add\n      0x01\n      dup3\n      add\n      0x00\n      swap1\n      sload\n      swap1\n      0x0100\n      exp\n      swap1\n      div\n      0xffffffffffffffffffffffffffffffffffffffff\n      and\n      0xffffffffffffffffffffffffffffffffffffffff\n      and\n      0xffffffffffffffffffffffffffffffffffffffff\n      and\n      dup2\n      mstore\n      0x20\n      add\n      0x02\n      dup3\n      add\n      sload\n      dup2\n      mstore\n      0x20\n      add\n      0x03\n      dup3\n      add\n      0x00\n      swap1\n      sload\n      swap1\n      0x0100\n      exp\n      swap1\n      div\n      0xffffffffffffffffffffffffffffffffffffffff\n      and\n      0xffffffffffffffffffffffffffffffffffffffff\n      and\n      0xffffffffffffffffffffffffffffffffffffffff\n      and\n      dup2\n      mstore\n      0x20\n      add\n      0x04\n      dup3\n      add\n      0x00\n      swap1\n      sload\n      swap1\n      0x0100\n      exp\n      swap1\n      div\n      0xffffffffffffffffffffffffffffffffffffffff\n      and\n      0xffffffffffffffffffffffffffffffffffffffff\n      and\n      0xffffffffffffffffffffffffffffffffffffffff\n      and\n      dup2\n      mstore\n      0x20\n      add\n      0x05\n      dup3\n      add\n      sload\n      dup2\n      mstore\n      0x20\n      add\n      0x06\n      dup3\n      add\n      0x00\n      swap1\n      sload\n      swap1\n      0x0100\n      exp\n      swap1\n      div\n      0xff\n      and\n      iszero\n      iszero\n      iszero\n      iszero\n      dup2\n      mstore\n      pop\n      pop\n        /* \"src/nftMarketPlace.sol\":3882:3887  items */\n      dup5\n        /* \"src/nftMarketPlace.sol\":3888:3900  currentIndex */\n      dup7\n        /* \"src/nftMarketPlace.sol\":3882:3901  items[currentIndex] */\n      dup2\n      mload\n      dup2\n      lt\n      tag_61\n      jumpi\n      tag_62\n      tag_63\n      jump\t// in\n    tag_62:\n    tag_61:\n      0x20\n      mul\n      0x20\n      add\n      add\n        /* \"src/nftMarketPlace.sol\":3882:3915  items[currentIndex] = currentItem */\n      dup2\n      swap1\n      mstore\n      pop\n        /* \"src/nftMarketPlace.sol\":3948:3949  1 */\n      0x01\n        /* \"src/nftMarketPlace.sol\":3933:3949  currentIndex +=1 */\n      dup6\n      tag_64\n      swap2\n      swap1\n      tag_58\n      jump\t// in\n    tag_64:\n      swap5\n      pop\n        /* \"src/nftMarketPlace.sol\":3722:3964  {... */\n      pop\n      pop\n        /* \"src/nftMarketPlace.sol\":3677:3964  if(idToMarketItem[i + 1].owner == address(0)){... */\n    tag_59:\n        /* \"src/nftMarketPlace.sol\":3658:3662  i ++ */\n      dup1\n      dup1\n      tag_65\n      swap1\n      tag_66\n      jump\t// in\n    tag_65:\n      swap2\n      pop\n      pop\n        /* \"src/nftMarketPlace.sol\":3628:3974  for(uint i =0; i < itemCount; i ++){... */\n      jump(tag_54)\n    tag_55:\n      pop\n        /* \"src/nftMarketPlace.sol\":3990:3995  items */\n      dup1\n        /* \"src/nftMarketPlace.sol\":3983:3995  return items */\n      swap5\n      pop\n      pop\n      pop\n      pop\n      pop\n        /* \"src/nftMarketPlace.sol\":3317:4003  function fetchMarketItems() public view returns (MarketItem [] memory){... */\n      swap1\n      jump\t// out\n        /* \"src/nftMarketPlace.sol\":4010:4794  function fetchMyNfts() public view returns (MarketItem[] memory){... */\n    tag_17:\n        /* \"src/nftMarketPlace.sol\":4054:4073  MarketItem[] memory */\n      0x60\n        /* \"src/nftMarketPlace.sol\":4084:4103  uint totalItemCount */\n      0x00\n        /* \"src/nftMarketPlace.sol\":4106:4124  _itemIds.current() */\n      tag_68\n        /* \"src/nftMarketPlace.sol\":4106:4114  _itemIds */\n      0x01\n        /* \"src/nftMarketPlace.sol\":4106:4122  _itemIds.current */\n      tag_42\n        /* \"src/nftMarketPlace.sol\":4106:4124  _itemIds.current() */\n      jump\t// in\n    tag_68:\n        /* \"src/nftMarketPlace.sol\":4084:4124  uint totalItemCount = _itemIds.current() */\n      swap1\n      pop\n        /* \"src/nftMarketPlace.sol\":4134:4148  uint itemCount */\n      0x00\n        /* \"src/nftMarketPlace.sol\":4162:4179  uint currentIndex */\n      dup1\n        /* \"src/nftMarketPlace.sol\":4197:4203  uint i */\n      0x00\n        /* \"src/nftMarketPlace.sol\":4193:4347  for(uint i =0; i < totalItemCount; i++){... */\n    tag_69:\n        /* \"src/nftMarketPlace.sol\":4212:4226  totalItemCount */\n      dup4\n        /* \"src/nftMarketPlace.sol\":4208:4209  i */\n      dup2\n        /* \"src/nftMarketPlace.sol\":4208:4226  i < totalItemCount */\n      lt\n        /* \"src/nftMarketPlace.sol\":4193:4347  for(uint i =0; i < totalItemCount; i++){... */\n      iszero\n      tag_70\n      jumpi\n        /* \"src/nftMarketPlace.sol\":4280:4290  msg.sender */\n      caller\n        /* \"src/nftMarketPlace.sol\":4249:4290  idToMarketItem[i + 1].owner == msg.sender */\n      0xffffffffffffffffffffffffffffffffffffffff\n      and\n        /* \"src/nftMarketPlace.sol\":4249:4263  idToMarketItem */\n      0x05\n        /* \"src/nftMarketPlace.sol\":4249:4270  idToMarketItem[i + 1] */\n      0x00\n        /* \"src/nftMarketPlace.sol\":4268:4269  1 */\n      0x01\n        /* \"src/nftMarketPlace.sol\":4264:4265  i */\n      dup5\n        /* \"src/nftMarketPlace.sol\":4264:4269  i + 1 */\n      tag_72\n      swap2\n      swap1\n      tag_58\n      jump\t// in\n    tag_72:\n        /* \"src/nftMarketPlace.sol\":4249:4270  idToMarketItem[i + 1] */\n      dup2\n      mstore\n      0x20\n      add\n      swap1\n      dup2\n      mstore\n      0x20\n      add\n      0x00\n      keccak256\n        /* \"src/nftMarketPlace.sol\":4249:4276  idToMarketItem[i + 1].owner */\n      0x04\n      add\n      0x00\n      swap1\n      sload\n      swap1\n      0x0100\n      exp\n      swap1\n      div\n      0xffffffffffffffffffffffffffffffffffffffff\n      and\n        /* \"src/nftMarketPlace.sol\":4249:4290  idToMarketItem[i + 1].owner == msg.sender */\n      0xffffffffffffffffffffffffffffffffffffffff\n      and\n      eq\n        /* \"src/nftMarketPlace.sol\":4246:4337  if(idToMarketItem[i + 1].owner == msg.sender){... */\n      iszero\n      tag_73\n      jumpi\n        /* \"src/nftMarketPlace.sol\":4321:4322  1 */\n      0x01\n        /* \"src/nftMarketPlace.sol\":4309:4322  itemCount +=1 */\n      dup4\n      tag_74\n      swap2\n      swap1\n      tag_58\n      jump\t// in\n    tag_74:\n      swap3\n      pop\n        /* \"src/nftMarketPlace.sol\":4246:4337  if(idToMarketItem[i + 1].owner == msg.sender){... */\n    tag_73:\n        /* \"src/nftMarketPlace.sol\":4228:4231  i++ */\n      dup1\n      dup1\n      tag_75\n      swap1\n      tag_66\n      jump\t// in\n    tag_75:\n      swap2\n      pop\n      pop\n        /* \"src/nftMarketPlace.sol\":4193:4347  for(uint i =0; i < totalItemCount; i++){... */\n      jump(tag_69)\n    tag_70:\n      pop\n        /* \"src/nftMarketPlace.sol\":4356:4381  MarketItem[] memory items */\n      0x00\n        /* \"src/nftMarketPlace.sol\":4401:4410  itemCount */\n      dup3\n        /* \"src/nftMarketPlace.sol\":4384:4411  new MarketItem[](itemCount) */\n      0xffffffffffffffff\n      dup2\n      gt\n      iszero\n      tag_76\n      jumpi\n      tag_77\n      tag_49\n      jump\t// in\n    tag_77:\n    tag_76:\n      mload(0x40)\n      swap1\n      dup1\n      dup3\n      mstore\n      dup1\n      0x20\n      mul\n      0x20\n      add\n      dup3\n      add\n      0x40\n      mstore\n      dup1\n      iszero\n      tag_78\n      jumpi\n      dup2\n      0x20\n      add\n    tag_79:\n      tag_80\n      tag_53\n      jump\t// in\n    tag_80:\n      dup2\n      mstore\n      0x20\n      add\n      swap1\n      0x01\n      swap1\n      sub\n      swap1\n      dup2\n      tag_79\n      jumpi\n      swap1\n      pop\n    tag_78:\n      pop\n        /* \"src/nftMarketPlace.sol\":4356:4411  MarketItem[] memory items = new MarketItem[](itemCount) */\n      swap1\n      pop\n        /* \"src/nftMarketPlace.sol\":4425:4431  uint i */\n      0x00\n        /* \"src/nftMarketPlace.sol\":4421:4766  for(uint i = 0; i < totalItemCount; i++){... */\n    tag_81:\n        /* \"src/nftMarketPlace.sol\":4441:4455  totalItemCount */\n      dup5\n        /* \"src/nftMarketPlace.sol\":4437:4438  i */\n      dup2\n        /* \"src/nftMarketPlace.sol\":4437:4455  i < totalItemCount */\n      lt\n        /* \"src/nftMarketPlace.sol\":4421:4766  for(uint i = 0; i < totalItemCount; i++){... */\n      iszero\n      tag_82\n      jumpi\n        /* \"src/nftMarketPlace.sol\":4509:4519  msg.sender */\n      caller\n        /* \"src/nftMarketPlace.sol\":4478:4519  idToMarketItem[i + 1].owner == msg.sender */\n      0xffffffffffffffffffffffffffffffffffffffff\n      and\n        /* \"src/nftMarketPlace.sol\":4478:4492  idToMarketItem */\n      0x05\n        /* \"src/nftMarketPlace.sol\":4478:4499  idToMarketItem[i + 1] */\n      0x00\n        /* \"src/nftMarketPlace.sol\":4497:4498  1 */\n      0x01\n        /* \"src/nftMarketPlace.sol\":4493:4494  i */\n      dup5\n        /* \"src/nftMarketPlace.sol\":4493:4498  i + 1 */\n      tag_84\n      swap2\n      swap1\n      tag_58\n      jump\t// in\n    tag_84:\n        /* \"src/nftMarketPlace.sol\":4478:4499  idToMarketItem[i + 1] */\n      dup2\n      mstore\n      0x20\n      add\n      swap1\n      dup2\n      mstore\n      0x20\n      add\n      0x00\n      keccak256\n        /* \"src/nftMarketPlace.sol\":4478:4505  idToMarketItem[i + 1].owner */\n      0x04\n      add\n      0x00\n      swap1\n      sload\n      swap1\n      0x0100\n      exp\n      swap1\n      div\n      0xffffffffffffffffffffffffffffffffffffffff\n      and\n        /* \"src/nftMarketPlace.sol\":4478:4519  idToMarketItem[i + 1].owner == msg.sender */\n      0xffffffffffffffffffffffffffffffffffffffff\n      and\n      eq\n        /* \"src/nftMarketPlace.sol\":4475:4756  if(idToMarketItem[i + 1].owner == msg.sender){... */\n      iszero\n      tag_85\n      jumpi\n        /* \"src/nftMarketPlace.sol\":4537:4551  uint currentId */\n      0x00\n        /* \"src/nftMarketPlace.sol\":4554:4568  idToMarketItem */\n      0x05\n        /* \"src/nftMarketPlace.sol\":4554:4575  idToMarketItem[i + 1] */\n      0x00\n        /* \"src/nftMarketPlace.sol\":4573:4574  1 */\n      0x01\n        /* \"src/nftMarketPlace.sol\":4569:4570  i */\n      dup5\n        /* \"src/nftMarketPlace.sol\":4569:4574  i + 1 */\n      tag_86\n      swap2\n      swap1\n      tag_58\n      jump\t// in\n    tag_86:\n        /* \"src/nftMarketPlace.sol\":4554:4575  idToMarketItem[i + 1] */\n      dup2\n      mstore\n      0x20\n      add\n      swap1\n      dup2\n      mstore\n      0x20\n      add\n      0x00\n      keccak256\n        /* \"src/nftMarketPlace.sol\":4554:4582  idToMarketItem[i + 1].itemId */\n      0x00\n      add\n      sload\n        /* \"src/nftMarketPlace.sol\":4537:4582  uint currentId = idToMarketItem[i + 1].itemId */\n      swap1\n      pop\n        /* \"src/nftMarketPlace.sol\":4599:4629  MarketItem storage currentItem */\n      0x00\n        /* \"src/nftMarketPlace.sol\":4632:4646  idToMarketItem */\n      0x05\n        /* \"src/nftMarketPlace.sol\":4632:4657  idToMarketItem[currentId] */\n      0x00\n        /* \"src/nftMarketPlace.sol\":4647:4656  currentId */\n      dup4\n        /* \"src/nftMarketPlace.sol\":4632:4657  idToMarketItem[currentId] */\n      dup2\n      mstore\n      0x20\n      add\n      swap1\n      dup2\n      mstore\n      0x20\n      add\n      0x00\n      keccak256\n        /* \"src/nftMarketPlace.sol\":4599:4657  MarketItem storage currentItem = idToMarketItem[currentId] */\n      swap1\n      pop\n        /* \"src/nftMarketPlace.sol\":4696:4707  currentItem */\n      dup1\n        /* \"src/nftMarketPlace.sol\":4674:4707  items[currentIndex] = currentItem */\n      mload(0x40)\n      dup1\n      0xe0\n      add\n      0x40\n      mstore\n      swap1\n      dup2\n      0x00\n      dup3\n      add\n      sload\n      dup2\n      mstore\n      0x20\n      add\n      0x01\n      dup3\n      add\n      0x00\n      swap1\n      sload\n      swap1\n      0x0100\n      exp\n      swap1\n      div\n      0xffffffffffffffffffffffffffffffffffffffff\n      and\n      0xffffffffffffffffffffffffffffffffffffffff\n      and\n      0xffffffffffffffffffffffffffffffffffffffff\n      and\n      dup2\n      mstore\n      0x20\n      add\n      0x02\n      dup3\n      add\n      sload\n      dup2\n      mstore\n      0x20\n      add\n      0x03\n      dup3\n      add\n      0x00\n      swap1\n      sload\n      swap1\n      0x0100\n      exp\n      swap1\n      div\n      0xffffffffffffffffffffffffffffffffffffffff\n      and\n      0xffffffffffffffffffffffffffffffffffffffff\n      and\n      0xffffffffffffffffffffffffffffffffffffffff\n      and\n      dup2\n      mstore\n      0x20\n      add\n      0x04\n      dup3\n      add\n      0x00\n      swap1\n      sload\n      swap1\n      0x0100\n      exp\n      swap1\n      div\n      0xffffffffffffffffffffffffffffffffffffffff\n      and\n      0xffffffffffffffffffffffffffffffffffffffff\n      and\n      0xffffffffffffffffffffffffffffffffffffffff\n      and\n      dup2\n      mstore\n      0x20\n      add\n      0x05\n      dup3\n      add\n      sload\n      dup2\n      mstore\n      0x20\n      add\n      0x06\n      dup3\n      add\n      0x00\n      swap1\n      sload\n      swap1\n      0x0100\n      exp\n      swap1\n      div\n      0xff\n      and\n      iszero\n      iszero\n      iszero\n      iszero\n      dup2\n      mstore\n      pop\n      pop\n        /* \"src/nftMarketPlace.sol\":4674:4679  items */\n      dup5\n        /* \"src/nftMarketPlace.sol\":4680:4692  currentIndex */\n      dup7\n        /* \"src/nftMarketPlace.sol\":4674:4693  items[currentIndex] */\n      dup2\n      mload\n      dup2\n      lt\n      tag_87\n      jumpi\n      tag_88\n      tag_63\n      jump\t// in\n    tag_88:\n    tag_87:\n      0x20\n      mul\n      0x20\n      add\n      add\n        /* \"src/nftMarketPlace.sol\":4674:4707  items[currentIndex] = currentItem */\n      dup2\n      swap1\n      mstore\n      pop\n        /* \"src/nftMarketPlace.sol\":4739:4740  1 */\n      0x01\n        /* \"src/nftMarketPlace.sol\":4724:4740  currentIndex +=1 */\n      dup6\n      tag_89\n      swap2\n      swap1\n      tag_58\n      jump\t// in\n    tag_89:\n      swap5\n      pop\n        /* \"src/nftMarketPlace.sol\":4520:4756  {... */\n      pop\n      pop\n        /* \"src/nftMarketPlace.sol\":4475:4756  if(idToMarketItem[i + 1].owner == msg.sender){... */\n    tag_85:\n        /* \"src/nftMarketPlace.sol\":4457:4460  i++ */\n      dup1\n      dup1\n      tag_90\n      swap1\n      tag_66\n      jump\t// in\n    tag_90:\n      swap2\n      pop\n      pop\n        /* \"src/nftMarketPlace.sol\":4421:4766  for(uint i = 0; i < totalItemCount; i++){... */\n      jump(tag_81)\n    tag_82:\n      pop\n        /* \"src/nftMarketPlace.sol\":4782:4787  items */\n      dup1\n        /* \"src/nftMarketPlace.sol\":4775:4787  return items */\n      swap5\n      pop\n      pop\n      pop\n      pop\n      pop\n        /* \"src/nftMarketPlace.sol\":4010:4794  function fetchMyNfts() public view returns (MarketItem[] memory){... */\n      swap1\n      jump\t// out\n        /* \"src/nftMarketPlace.sol\":1778:2583  function createMarketItem(address nftContract, uint256 tokenId, uint256 price) public payable nonReentrant {... */\n    tag_22:\n        /* \"https://github.com/OpenZeppelin/openzeppelin-contracts/contracts/security/ReentrancyGuard.sol\":1744:1745  2 */\n      0x02\n        /* \"https://github.com/OpenZeppelin/openzeppelin-contracts/contracts/security/ReentrancyGuard.sol\":2325:2332  _status */\n      sload(0x00)\n        /* \"https://github.com/OpenZeppelin/openzeppelin-contracts/contracts/security/ReentrancyGuard.sol\":2325:2344  _status != _ENTERED */\n      eq\n      iszero\n        /* \"https://github.com/OpenZeppelin/openzeppelin-contracts/contracts/security/ReentrancyGuard.sol\":2317:2380  require(_status != _ENTERED, \"ReentrancyGuard: reentrant call\") */\n      tag_92\n      jumpi\n      mload(0x40)\n      0x08c379a000000000000000000000000000000000000000000000000000000000\n      dup2\n      mstore\n      0x04\n      add\n      tag_93\n      swap1\n      tag_94\n      jump\t// in\n    tag_93:\n      mload(0x40)\n      dup1\n      swap2\n      sub\n      swap1\n      revert\n    tag_92:\n        /* \"https://github.com/OpenZeppelin/openzeppelin-contracts/contracts/security/ReentrancyGuard.sol\":1744:1745  2 */\n      0x02\n        /* \"https://github.com/OpenZeppelin/openzeppelin-contracts/contracts/security/ReentrancyGuard.sol\":2455:2462  _status */\n      0x00\n        /* \"https://github.com/OpenZeppelin/openzeppelin-contracts/contracts/security/ReentrancyGuard.sol\":2455:2473  _status = _ENTERED */\n      dup2\n      swap1\n      sstore\n      pop\n        /* \"src/nftMarketPlace.sol\":1908:1909  0 */\n      0x00\n        /* \"src/nftMarketPlace.sol\":1899:1904  price */\n      dup2\n        /* \"src/nftMarketPlace.sol\":1899:1909  price == 0 */\n      eq\n        /* \"src/nftMarketPlace.sol\":1895:1949  if (price == 0) revert priceMustBeGreaterThanOneGwei() */\n      iszero\n      tag_96\n      jumpi\n        /* \"src/nftMarketPlace.sol\":1918:1949  priceMustBeGreaterThanOneGwei() */\n      mload(0x40)\n      0xea86949f00000000000000000000000000000000000000000000000000000000\n      dup2\n      mstore\n      0x04\n      add\n      mload(0x40)\n      dup1\n      swap2\n      sub\n      swap1\n      revert\n        /* \"src/nftMarketPlace.sol\":1895:1949  if (price == 0) revert priceMustBeGreaterThanOneGwei() */\n    tag_96:\n        /* \"src/nftMarketPlace.sol\":1976:1988  listingPrice */\n      sload(0x03)\n        /* \"src/nftMarketPlace.sol\":1963:1972  msg.value */\n      callvalue\n        /* \"src/nftMarketPlace.sol\":1963:1988  msg.value != listingPrice */\n      eq\n        /* \"src/nftMarketPlace.sol\":1959:2029  if (msg.value != listingPrice) revert priceMustBeEqualToListingPrice() */\n      tag_97\n      jumpi\n        /* \"src/nftMarketPlace.sol\":1997:2029  priceMustBeEqualToListingPrice() */\n      mload(0x40)\n      0xd8fc352b00000000000000000000000000000000000000000000000000000000\n      dup2\n      mstore\n      0x04\n      add\n      mload(0x40)\n      dup1\n      swap2\n      sub\n      swap1\n      revert\n        /* \"src/nftMarketPlace.sol\":1959:2029  if (msg.value != listingPrice) revert priceMustBeEqualToListingPrice() */\n    tag_97:\n        /* \"src/nftMarketPlace.sol\":2038:2058  _itemIds.increment() */\n      tag_98\n        /* \"src/nftMarketPlace.sol\":2038:2046  _itemIds */\n      0x01\n        /* \"src/nftMarketPlace.sol\":2038:2056  _itemIds.increment */\n      tag_99\n        /* \"src/nftMarketPlace.sol\":2038:2058  _itemIds.increment() */\n      jump\t// in\n    tag_98:\n        /* \"src/nftMarketPlace.sol\":2067:2081  uint256 itemId */\n      0x00\n        /* \"src/nftMarketPlace.sol\":2084:2102  _itemIds.current() */\n      tag_100\n        /* \"src/nftMarketPlace.sol\":2084:2092  _itemIds */\n      0x01\n        /* \"src/nftMarketPlace.sol\":2084:2100  _itemIds.current */\n      tag_42\n        /* \"src/nftMarketPlace.sol\":2084:2102  _itemIds.current() */\n      jump\t// in\n    tag_100:\n        /* \"src/nftMarketPlace.sol\":2067:2102  uint256 itemId = _itemIds.current() */\n      swap1\n      pop\n        /* \"src/nftMarketPlace.sol\":2134:2300  MarketItem(... */\n      mload(0x40)\n      dup1\n      0xe0\n      add\n      0x40\n      mstore\n      dup1\n        /* \"src/nftMarketPlace.sol\":2155:2161  itemId */\n      dup3\n        /* \"src/nftMarketPlace.sol\":2134:2300  MarketItem(... */\n      dup2\n      mstore\n      0x20\n      add\n        /* \"src/nftMarketPlace.sol\":2172:2183  nftContract */\n      dup6\n        /* \"src/nftMarketPlace.sol\":2134:2300  MarketItem(... */\n      0xffffffffffffffffffffffffffffffffffffffff\n      and\n      dup2\n      mstore\n      0x20\n      add\n        /* \"src/nftMarketPlace.sol\":2194:2201  tokenId */\n      dup5\n        /* \"src/nftMarketPlace.sol\":2134:2300  MarketItem(... */\n      dup2\n      mstore\n      0x20\n      add\n        /* \"src/nftMarketPlace.sol\":2220:2230  msg.sender */\n      caller\n        /* \"src/nftMarketPlace.sol\":2134:2300  MarketItem(... */\n      0xffffffffffffffffffffffffffffffffffffffff\n      and\n      dup2\n      mstore\n      0x20\n      add\n        /* \"src/nftMarketPlace.sol\":2258:2259  0 */\n      0x00\n        /* \"src/nftMarketPlace.sol\":2134:2300  MarketItem(... */\n      0xffffffffffffffffffffffffffffffffffffffff\n      and\n      dup2\n      mstore\n      0x20\n      add\n        /* \"src/nftMarketPlace.sol\":2272:2277  price */\n      dup4\n        /* \"src/nftMarketPlace.sol\":2134:2300  MarketItem(... */\n      dup2\n      mstore\n      0x20\n      add\n        /* \"src/nftMarketPlace.sol\":2288:2293  false */\n      0x00\n        /* \"src/nftMarketPlace.sol\":2134:2300  MarketItem(... */\n      iszero\n      iszero\n      dup2\n      mstore\n      pop\n        /* \"src/nftMarketPlace.sol\":2109:2123  idToMarketItem */\n      0x05\n        /* \"src/nftMarketPlace.sol\":2109:2131  idToMarketItem[itemId] */\n      0x00\n        /* \"src/nftMarketPlace.sol\":2124:2130  itemId */\n      dup4\n        /* \"src/nftMarketPlace.sol\":2109:2131  idToMarketItem[itemId] */\n      dup2\n      mstore\n      0x20\n      add\n      swap1\n      dup2\n      mstore\n      0x20\n      add\n      0x00\n      keccak256\n        /* \"src/nftMarketPlace.sol\":2109:2300  idToMarketItem[itemId] = MarketItem(... */\n      0x00\n      dup3\n      add\n      mload\n      dup2\n      0x00\n      add\n      sstore\n      0x20\n      dup3\n      add\n      mload\n      dup2\n      0x01\n      add\n      exp(0x0100, 0x00)\n      dup2\n      sload\n      dup2\n      0xffffffffffffffffffffffffffffffffffffffff\n      mul\n      not\n      and\n      swap1\n      dup4\n      0xffffffffffffffffffffffffffffffffffffffff\n      and\n      mul\n      or\n      swap1\n      sstore\n      pop\n      0x40\n      dup3\n      add\n      mload\n      dup2\n      0x02\n      add\n      sstore\n      0x60\n      dup3\n      add\n      mload\n      dup2\n      0x03\n      add\n      exp(0x0100, 0x00)\n      dup2\n      sload\n      dup2\n      0xffffffffffffffffffffffffffffffffffffffff\n      mul\n      not\n      and\n      swap1\n      dup4\n      0xffffffffffffffffffffffffffffffffffffffff\n      and\n      mul\n      or\n      swap1\n      sstore\n      pop\n      0x80\n      dup3\n      add\n      mload\n      dup2\n      0x04\n      add\n      exp(0x0100, 0x00)\n      dup2\n      sload\n      dup2\n      0xffffffffffffffffffffffffffffffffffffffff\n      mul\n      not\n      and\n      swap1\n      dup4\n      0xffffffffffffffffffffffffffffffffffffffff\n      and\n      mul\n      or\n      swap1\n      sstore\n      pop\n      0xa0\n      dup3\n      add\n      mload\n      dup2\n      0x05\n      add\n      sstore\n      0xc0\n      dup3\n      add\n      mload\n      dup2\n      0x06\n      add\n      exp(0x0100, 0x00)\n      dup2\n      sload\n      dup2\n      0xff\n      mul\n      not\n      and\n      swap1\n      dup4\n      iszero\n      iszero\n      mul\n      or\n      swap1\n      sstore\n      pop\n      swap1\n      pop\n      pop\n        /* \"src/nftMarketPlace.sol\":2319:2330  nftContract */\n      dup4\n        /* \"src/nftMarketPlace.sol\":2311:2344  IERC721(nftContract).transferFrom */\n      0xffffffffffffffffffffffffffffffffffffffff\n      and\n      0x23b872dd\n        /* \"src/nftMarketPlace.sol\":2345:2355  msg.sender */\n      caller\n        /* \"src/nftMarketPlace.sol\":2365:2369  this */\n      address\n        /* \"src/nftMarketPlace.sol\":2372:2379  tokenId */\n      dup7\n        /* \"src/nftMarketPlace.sol\":2311:2380  IERC721(nftContract).transferFrom(msg.sender, address(this), tokenId) */\n      mload(0x40)\n      dup5\n      0xffffffff\n      and\n      0xe0\n      shl\n      dup2\n      mstore\n      0x04\n      add\n      tag_101\n      swap4\n      swap3\n      swap2\n      swap1\n      tag_102\n      jump\t// in\n    tag_101:\n      0x00\n      mload(0x40)\n      dup1\n      dup4\n      sub\n      dup2\n      0x00\n      dup8\n      dup1\n      extcodesize\n      iszero\n      dup1\n      iszero\n      tag_103\n      jumpi\n      0x00\n      dup1\n      revert\n    tag_103:\n      pop\n      gas\n      call\n      iszero\n      dup1\n      iszero\n      tag_105\n      jumpi\n      returndatasize\n      0x00\n      dup1\n      returndatacopy\n      revert(0x00, returndatasize)\n    tag_105:\n      pop\n      pop\n      pop\n      pop\n        /* \"src/nftMarketPlace.sol\":2473:2480  tokenId */\n      dup3\n        /* \"src/nftMarketPlace.sol\":2448:2459  nftContract */\n      dup5\n        /* \"src/nftMarketPlace.sol\":2395:2576  MarketItemCreated(... */\n      0xffffffffffffffffffffffffffffffffffffffff\n      and\n        /* \"src/nftMarketPlace.sol\":2427:2433  itemId */\n      dup3\n        /* \"src/nftMarketPlace.sol\":2395:2576  MarketItemCreated(... */\n      0x045dfa01dcba2b36aba1d3dc4a874f4b0c5d2fbeb8d2c4b34a7d88c8d8f929d1\n        /* \"src/nftMarketPlace.sol\":2494:2504  msg.sender */\n      caller\n        /* \"src/nftMarketPlace.sol\":2526:2527  0 */\n      0x00\n        /* \"src/nftMarketPlace.sol\":2542:2547  price */\n      dup8\n        /* \"src/nftMarketPlace.sol\":2561:2566  false */\n      0x00\n        /* \"src/nftMarketPlace.sol\":2395:2576  MarketItemCreated(... */\n      mload(0x40)\n      tag_106\n      swap5\n      swap4\n      swap3\n      swap2\n      swap1\n      tag_107\n      jump\t// in\n    tag_106:\n      mload(0x40)\n      dup1\n      swap2\n      sub\n      swap1\n      log4\n        /* \"src/nftMarketPlace.sol\":1885:2583  {... */\n      pop\n        /* \"https://github.com/OpenZeppelin/openzeppelin-contracts/contracts/security/ReentrancyGuard.sol\":1701:1702  1 */\n      0x01\n        /* \"https://github.com/OpenZeppelin/openzeppelin-contracts/contracts/security/ReentrancyGuard.sol\":2628:2635  _status */\n      0x00\n        /* \"https://github.com/OpenZeppelin/openzeppelin-contracts/contracts/security/ReentrancyGuard.sol\":2628:2650  _status = _NOT_ENTERED */\n      dup2\n      swap1\n      sstore\n      pop\n        /* \"src/nftMarketPlace.sol\":1778:2583  function createMarketItem(address nftContract, uint256 tokenId, uint256 price) public payable nonReentrant {... */\n      pop\n      pop\n      pop\n      jump\t// out\n        /* \"src/nftMarketPlace.sol\":1622:1771  function updateListingPrice(uint256 _listingprice)... */\n    tag_26:\n        /* \"src/nftMarketPlace.sol\":1554:1564  msg.sender */\n      caller\n        /* \"src/nftMarketPlace.sol\":1545:1564  owner != msg.sender */\n      0xffffffffffffffffffffffffffffffffffffffff\n      and\n        /* \"src/nftMarketPlace.sol\":1545:1550  owner */\n      0x04\n      0x00\n      swap1\n      sload\n      swap1\n      0x0100\n      exp\n      swap1\n      div\n      0xffffffffffffffffffffffffffffffffffffffff\n      and\n        /* \"src/nftMarketPlace.sol\":1545:1564  owner != msg.sender */\n      0xffffffffffffffffffffffffffffffffffffffff\n      and\n      eq\n        /* \"src/nftMarketPlace.sol\":1541:1598  if (owner != msg.sender) revert OnlyOwnerCanUpDatePrice() */\n      tag_109\n      jumpi\n        /* \"src/nftMarketPlace.sol\":1573:1598  OnlyOwnerCanUpDatePrice() */\n      mload(0x40)\n      0xd9c2975c00000000000000000000000000000000000000000000000000000000\n      dup2\n      mstore\n      0x04\n      add\n      mload(0x40)\n      dup1\n      swap2\n      sub\n      swap1\n      revert\n        /* \"src/nftMarketPlace.sol\":1541:1598  if (owner != msg.sender) revert OnlyOwnerCanUpDatePrice() */\n    tag_109:\n        /* \"src/nftMarketPlace.sol\":1751:1764  _listingprice */\n      dup1\n        /* \"src/nftMarketPlace.sol\":1736:1748  listingPrice */\n      0x03\n        /* \"src/nftMarketPlace.sol\":1736:1764  listingPrice = _listingprice */\n      dup2\n      swap1\n      sstore\n      pop\n        /* \"src/nftMarketPlace.sol\":1622:1771  function updateListingPrice(uint256 _listingprice)... */\n      pop\n      jump\t// out\n        /* \"src/nftMarketPlace.sol\":2719:3311  function createMarketSale(address nftContract, uint256 itemId) public payable nonReentrant {... */\n    tag_30:\n        /* \"https://github.com/OpenZeppelin/openzeppelin-contracts/contracts/security/ReentrancyGuard.sol\":1744:1745  2 */\n      0x02\n        /* \"https://github.com/OpenZeppelin/openzeppelin-contracts/contracts/security/ReentrancyGuard.sol\":2325:2332  _status */\n      sload(0x00)\n        /* \"https://github.com/OpenZeppelin/openzeppelin-contracts/contracts/security/ReentrancyGuard.sol\":2325:2344  _status != _ENTERED */\n      eq\n      iszero\n        /* \"https://github.com/OpenZeppelin/openzeppelin-contracts/contracts/security/ReentrancyGuard.sol\":2317:2380  require(_status != _ENTERED, \"ReentrancyGuard: reentrant call\") */\n      tag_112\n      jumpi\n      mload(0x40)\n      0x08c379a000000000000000000000000000000000000000000000000000000000\n      dup2\n      mstore\n      0x04\n      add\n      tag_113\n      swap1\n      tag_94\n      jump\t// in\n    tag_113:\n      mload(0x40)\n      dup1\n      swap2\n      sub\n      swap1\n      revert\n    tag_112:\n        /* \"https://github.com/OpenZeppelin/openzeppelin-contracts/contracts/security/ReentrancyGuard.sol\":1744:1745  2 */\n      0x02\n        /* \"https://github.com/OpenZeppelin/openzeppelin-contracts/contracts/security/ReentrancyGuard.sol\":2455:2462  _status */\n      0x00\n        /* \"https://github.com/OpenZeppelin/openzeppelin-contracts/contracts/security/ReentrancyGuard.sol\":2455:2473  _status = _ENTERED */\n      dup2\n      swap1\n      sstore\n      pop\n        /* \"src/nftMarketPlace.sol\":2820:2833  uint256 price */\n      0x00\n        /* \"src/nftMarketPlace.sol\":2836:2850  idToMarketItem */\n      0x05\n        /* \"src/nftMarketPlace.sol\":2836:2858  idToMarketItem[itemId] */\n      0x00\n        /* \"src/nftMarketPlace.sol\":2851:2857  itemId */\n      dup4\n        /* \"src/nftMarketPlace.sol\":2836:2858  idToMarketItem[itemId] */\n      dup2\n      mstore\n      0x20\n      add\n      swap1\n      dup2\n      mstore\n      0x20\n      add\n      0x00\n      keccak256\n        /* \"src/nftMarketPlace.sol\":2836:2864  idToMarketItem[itemId].price */\n      0x05\n      add\n      sload\n        /* \"src/nftMarketPlace.sol\":2820:2864  uint256 price = idToMarketItem[itemId].price */\n      swap1\n      pop\n        /* \"src/nftMarketPlace.sol\":2874:2890  uint256 tokenIds */\n      0x00\n        /* \"src/nftMarketPlace.sol\":2893:2907  idToMarketItem */\n      0x05\n        /* \"src/nftMarketPlace.sol\":2893:2915  idToMarketItem[itemId] */\n      0x00\n        /* \"src/nftMarketPlace.sol\":2908:2914  itemId */\n      dup5\n        /* \"src/nftMarketPlace.sol\":2893:2915  idToMarketItem[itemId] */\n      dup2\n      mstore\n      0x20\n      add\n      swap1\n      dup2\n      mstore\n      0x20\n      add\n      0x00\n      keccak256\n        /* \"src/nftMarketPlace.sol\":2893:2923  idToMarketItem[itemId].tokenId */\n      0x02\n      add\n      sload\n        /* \"src/nftMarketPlace.sol\":2874:2923  uint256 tokenIds = idToMarketItem[itemId].tokenId */\n      swap1\n      pop\n        /* \"src/nftMarketPlace.sol\":2949:2954  price */\n      dup2\n        /* \"src/nftMarketPlace.sol\":2936:2945  msg.value */\n      callvalue\n        /* \"src/nftMarketPlace.sol\":2936:2954  msg.value != price */\n      eq\n        /* \"src/nftMarketPlace.sol\":2933:2979  if(msg.value != price) revert notAskingPrice() */\n      tag_115\n      jumpi\n        /* \"src/nftMarketPlace.sol\":2963:2979  notAskingPrice() */\n      mload(0x40)\n      0x75481b7800000000000000000000000000000000000000000000000000000000\n      dup2\n      mstore\n      0x04\n      add\n      mload(0x40)\n      dup1\n      swap2\n      sub\n      swap1\n      revert\n        /* \"src/nftMarketPlace.sol\":2933:2979  if(msg.value != price) revert notAskingPrice() */\n    tag_115:\n        /* \"src/nftMarketPlace.sol\":2989:3003  idToMarketItem */\n      0x05\n        /* \"src/nftMarketPlace.sol\":2989:3011  idToMarketItem[itemId] */\n      0x00\n        /* \"src/nftMarketPlace.sol\":3004:3010  itemId */\n      dup5\n        /* \"src/nftMarketPlace.sol\":2989:3011  idToMarketItem[itemId] */\n      dup2\n      mstore\n      0x20\n      add\n      swap1\n      dup2\n      mstore\n      0x20\n      add\n      0x00\n      keccak256\n        /* \"src/nftMarketPlace.sol\":2989:3018  idToMarketItem[itemId].seller */\n      0x03\n      add\n      0x00\n      swap1\n      sload\n      swap1\n      0x0100\n      exp\n      swap1\n      div\n      0xffffffffffffffffffffffffffffffffffffffff\n      and\n        /* \"src/nftMarketPlace.sol\":2989:3027  idToMarketItem[itemId].seller.transfer */\n      0xffffffffffffffffffffffffffffffffffffffff\n      and\n        /* \"src/nftMarketPlace.sol\":2989:3038  idToMarketItem[itemId].seller.transfer(msg.value) */\n      0x08fc\n        /* \"src/nftMarketPlace.sol\":3028:3037  msg.value */\n      callvalue\n        /* \"src/nftMarketPlace.sol\":2989:3038  idToMarketItem[itemId].seller.transfer(msg.value) */\n      swap1\n      dup2\n      iszero\n      mul\n      swap1\n      mload(0x40)\n      0x00\n      mload(0x40)\n      dup1\n      dup4\n      sub\n      dup2\n      dup6\n      dup9\n      dup9\n      call\n      swap4\n      pop\n      pop\n      pop\n      pop\n      iszero\n      dup1\n      iszero\n      tag_117\n      jumpi\n      returndatasize\n      0x00\n      dup1\n      returndatacopy\n      revert(0x00, returndatasize)\n    tag_117:\n      pop\n        /* \"src/nftMarketPlace.sol\":3056:3067  nftContract */\n      dup4\n        /* \"src/nftMarketPlace.sol\":3048:3081  IERC721(nftContract).transferFrom */\n      0xffffffffffffffffffffffffffffffffffffffff\n      and\n      0x23b872dd\n        /* \"src/nftMarketPlace.sol\":3090:3094  this */\n      address\n        /* \"src/nftMarketPlace.sol\":3097:3107  msg.sender */\n      caller\n        /* \"src/nftMarketPlace.sol\":3109:3117  tokenIds */\n      dup5\n        /* \"src/nftMarketPlace.sol\":3048:3118  IERC721(nftContract).transferFrom(address(this), msg.sender, tokenIds) */\n      mload(0x40)\n      dup5\n      0xffffffff\n      and\n      0xe0\n      shl\n      dup2\n      mstore\n      0x04\n      add\n      tag_118\n      swap4\n      swap3\n      swap2\n      swap1\n      tag_102\n      jump\t// in\n    tag_118:\n      0x00\n      mload(0x40)\n      dup1\n      dup4\n      sub\n      dup2\n      0x00\n      dup8\n      dup1\n      extcodesize\n      iszero\n      dup1\n      iszero\n      tag_119\n      jumpi\n      0x00\n      dup1\n      revert\n    tag_119:\n      pop\n      gas\n      call\n      iszero\n      dup1\n      iszero\n      tag_121\n      jumpi\n      returndatasize\n      0x00\n      dup1\n      returndatacopy\n      revert(0x00, returndatasize)\n    tag_121:\n      pop\n      pop\n      pop\n      pop\n        /* \"src/nftMarketPlace.sol\":3167:3177  msg.sender */\n      caller\n        /* \"src/nftMarketPlace.sol\":3128:3142  idToMarketItem */\n      0x05\n        /* \"src/nftMarketPlace.sol\":3128:3150  idToMarketItem[itemId] */\n      0x00\n        /* \"src/nftMarketPlace.sol\":3143:3149  itemId */\n      dup6\n        /* \"src/nftMarketPlace.sol\":3128:3150  idToMarketItem[itemId] */\n      dup2\n      mstore\n      0x20\n      add\n      swap1\n      dup2\n      mstore\n      0x20\n      add\n      0x00\n      keccak256\n        /* \"src/nftMarketPlace.sol\":3128:3156  idToMarketItem[itemId].owner */\n      0x04\n      add\n      0x00\n        /* \"src/nftMarketPlace.sol\":3128:3178  idToMarketItem[itemId].owner = payable(msg.sender) */\n      0x0100\n      exp\n      dup2\n      sload\n      dup2\n      0xffffffffffffffffffffffffffffffffffffffff\n      mul\n      not\n      and\n      swap1\n      dup4\n      0xffffffffffffffffffffffffffffffffffffffff\n      and\n      mul\n      or\n      swap1\n      sstore\n      pop\n        /* \"src/nftMarketPlace.sol\":3218:3222  true */\n      0x01\n        /* \"src/nftMarketPlace.sol\":3188:3202  idToMarketItem */\n      0x05\n        /* \"src/nftMarketPlace.sol\":3188:3210  idToMarketItem[itemId] */\n      0x00\n        /* \"src/nftMarketPlace.sol\":3203:3209  itemId */\n      dup6\n        /* \"src/nftMarketPlace.sol\":3188:3210  idToMarketItem[itemId] */\n      dup2\n      mstore\n      0x20\n      add\n      swap1\n      dup2\n      mstore\n      0x20\n      add\n      0x00\n      keccak256\n        /* \"src/nftMarketPlace.sol\":3188:3215  idToMarketItem[itemId].sold */\n      0x06\n      add\n      0x00\n        /* \"src/nftMarketPlace.sol\":3188:3222  idToMarketItem[itemId].sold = true */\n      0x0100\n      exp\n      dup2\n      sload\n      dup2\n      0xff\n      mul\n      not\n      and\n      swap1\n      dup4\n      iszero\n      iszero\n      mul\n      or\n      swap1\n      sstore\n      pop\n        /* \"src/nftMarketPlace.sol\":3232:3254  _itemsSold.increment() */\n      tag_122\n        /* \"src/nftMarketPlace.sol\":3232:3242  _itemsSold */\n      0x02\n        /* \"src/nftMarketPlace.sol\":3232:3252  _itemsSold.increment */\n      tag_99\n        /* \"src/nftMarketPlace.sol\":3232:3254  _itemsSold.increment() */\n      jump\t// in\n    tag_122:\n        /* \"src/nftMarketPlace.sol\":3272:3277  owner */\n      0x04\n      0x00\n      swap1\n      sload\n      swap1\n      0x0100\n      exp\n      swap1\n      div\n      0xffffffffffffffffffffffffffffffffffffffff\n      and\n        /* \"src/nftMarketPlace.sol\":3264:3287  payable(owner).transfer */\n      0xffffffffffffffffffffffffffffffffffffffff\n      and\n        /* \"src/nftMarketPlace.sol\":3264:3301  payable(owner).transfer(listingPrice) */\n      0x08fc\n        /* \"src/nftMarketPlace.sol\":3288:3300  listingPrice */\n      sload(0x03)\n        /* \"src/nftMarketPlace.sol\":3264:3301  payable(owner).transfer(listingPrice) */\n      swap1\n      dup2\n      iszero\n      mul\n      swap1\n      mload(0x40)\n      0x00\n      mload(0x40)\n      dup1\n      dup4\n      sub\n      dup2\n      dup6\n      dup9\n      dup9\n      call\n      swap4\n      pop\n      pop\n      pop\n      pop\n      iszero\n      dup1\n      iszero\n      tag_124\n      jumpi\n      returndatasize\n      0x00\n      dup1\n      returndatacopy\n      revert(0x00, returndatasize)\n    tag_124:\n      pop\n        /* \"src/nftMarketPlace.sol\":2810:3311  {... */\n      pop\n      pop\n        /* \"https://github.com/OpenZeppelin/openzeppelin-contracts/contracts/security/ReentrancyGuard.sol\":1701:1702  1 */\n      0x01\n        /* \"https://github.com/OpenZeppelin/openzeppelin-contracts/contracts/security/ReentrancyGuard.sol\":2628:2635  _status */\n      0x00\n        /* \"https://github.com/OpenZeppelin/openzeppelin-contracts/contracts/security/ReentrancyGuard.sol\":2628:2650  _status = _NOT_ENTERED */\n      dup2\n      swap1\n      sstore\n      pop\n        /* \"src/nftMarketPlace.sol\":2719:3311  function createMarketSale(address nftContract, uint256 itemId) public payable nonReentrant {... */\n      pop\n      pop\n      jump\t// out\n        /* \"src/nftMarketPlace.sol\":602:643  uint256 public listingPrice = 0.015 ether */\n    tag_33:\n      sload(0x03)\n      dup2\n      jump\t// out\n        /* \"src/nftMarketPlace.sol\":4797:5617  function fetchItemListed () public view returns (MarketItem[] memory ){... */\n    tag_38:\n        /* \"src/nftMarketPlace.sol\":4846:4865  MarketItem[] memory */\n      0x60\n        /* \"src/nftMarketPlace.sol\":4877:4896  uint totalItemCount */\n      0x00\n        /* \"src/nftMarketPlace.sol\":4899:4917  _itemIds.current() */\n      tag_126\n        /* \"src/nftMarketPlace.sol\":4899:4907  _itemIds */\n      0x01\n        /* \"src/nftMarketPlace.sol\":4899:4915  _itemIds.current */\n      tag_42\n        /* \"src/nftMarketPlace.sol\":4899:4917  _itemIds.current() */\n      jump\t// in\n    tag_126:\n        /* \"src/nftMarketPlace.sol\":4877:4917  uint totalItemCount = _itemIds.current() */\n      swap1\n      pop\n        /* \"src/nftMarketPlace.sol\":4927:4941  uint itemCount */\n      0x00\n        /* \"src/nftMarketPlace.sol\":4955:4972  uint currentIndex */\n      dup1\n        /* \"src/nftMarketPlace.sol\":4990:4996  uint i */\n      0x00\n        /* \"src/nftMarketPlace.sol\":4986:5141  for(uint i =0; i < totalItemCount; i++){... */\n    tag_127:\n        /* \"src/nftMarketPlace.sol\":5005:5019  totalItemCount */\n      dup4\n        /* \"src/nftMarketPlace.sol\":5001:5002  i */\n      dup2\n        /* \"src/nftMarketPlace.sol\":5001:5019  i < totalItemCount */\n      lt\n        /* \"src/nftMarketPlace.sol\":4986:5141  for(uint i =0; i < totalItemCount; i++){... */\n      iszero\n      tag_128\n      jumpi\n        /* \"src/nftMarketPlace.sol\":5074:5084  msg.sender */\n      caller\n        /* \"src/nftMarketPlace.sol\":5042:5084  idToMarketItem[i + 1].seller == msg.sender */\n      0xffffffffffffffffffffffffffffffffffffffff\n      and\n        /* \"src/nftMarketPlace.sol\":5042:5056  idToMarketItem */\n      0x05\n        /* \"src/nftMarketPlace.sol\":5042:5063  idToMarketItem[i + 1] */\n      0x00\n        /* \"src/nftMarketPlace.sol\":5061:5062  1 */\n      0x01\n        /* \"src/nftMarketPlace.sol\":5057:5058  i */\n      dup5\n        /* \"src/nftMarketPlace.sol\":5057:5062  i + 1 */\n      tag_130\n      swap2\n      swap1\n      tag_58\n      jump\t// in\n    tag_130:\n        /* \"src/nftMarketPlace.sol\":5042:5063  idToMarketItem[i + 1] */\n      dup2\n      mstore\n      0x20\n      add\n      swap1\n      dup2\n      mstore\n      0x20\n      add\n      0x00\n      keccak256\n        /* \"src/nftMarketPlace.sol\":5042:5070  idToMarketItem[i + 1].seller */\n      0x03\n      add\n      0x00\n      swap1\n      sload\n      swap1\n      0x0100\n      exp\n      swap1\n      div\n      0xffffffffffffffffffffffffffffffffffffffff\n      and\n        /* \"src/nftMarketPlace.sol\":5042:5084  idToMarketItem[i + 1].seller == msg.sender */\n      0xffffffffffffffffffffffffffffffffffffffff\n      and\n      eq\n        /* \"src/nftMarketPlace.sol\":5039:5131  if(idToMarketItem[i + 1].seller == msg.sender){... */\n      iszero\n      tag_131\n      jumpi\n        /* \"src/nftMarketPlace.sol\":5115:5116  1 */\n      0x01\n        /* \"src/nftMarketPlace.sol\":5103:5116  itemCount +=1 */\n      dup4\n      tag_132\n      swap2\n      swap1\n      tag_58\n      jump\t// in\n    tag_132:\n      swap3\n      pop\n        /* \"src/nftMarketPlace.sol\":5039:5131  if(idToMarketItem[i + 1].seller == msg.sender){... */\n    tag_131:\n        /* \"src/nftMarketPlace.sol\":5021:5024  i++ */\n      dup1\n      dup1\n      tag_133\n      swap1\n      tag_66\n      jump\t// in\n    tag_133:\n      swap2\n      pop\n      pop\n        /* \"src/nftMarketPlace.sol\":4986:5141  for(uint i =0; i < totalItemCount; i++){... */\n      jump(tag_127)\n    tag_128:\n      pop\n        /* \"src/nftMarketPlace.sol\":5156:5181  MarketItem[] memory items */\n      0x00\n        /* \"src/nftMarketPlace.sol\":5201:5210  itemCount */\n      dup3\n        /* \"src/nftMarketPlace.sol\":5184:5211  new MarketItem[](itemCount) */\n      0xffffffffffffffff\n      dup2\n      gt\n      iszero\n      tag_134\n      jumpi\n      tag_135\n      tag_49\n      jump\t// in\n    tag_135:\n    tag_134:\n      mload(0x40)\n      swap1\n      dup1\n      dup3\n      mstore\n      dup1\n      0x20\n      mul\n      0x20\n      add\n      dup3\n      add\n      0x40\n      mstore\n      dup1\n      iszero\n      tag_136\n      jumpi\n      dup2\n      0x20\n      add\n    tag_137:\n      tag_138\n      tag_53\n      jump\t// in\n    tag_138:\n      dup2\n      mstore\n      0x20\n      add\n      swap1\n      0x01\n      swap1\n      sub\n      swap1\n      dup2\n      tag_137\n      jumpi\n      swap1\n      pop\n    tag_136:\n      pop\n        /* \"src/nftMarketPlace.sol\":5156:5211  MarketItem[] memory items = new MarketItem[](itemCount) */\n      swap1\n      pop\n        /* \"src/nftMarketPlace.sol\":5239:5245  uint i */\n      0x00\n        /* \"src/nftMarketPlace.sol\":5235:5581  for(uint i = 0; i < totalItemCount; i++){... */\n    tag_139:\n        /* \"src/nftMarketPlace.sol\":5255:5269  totalItemCount */\n      dup5\n        /* \"src/nftMarketPlace.sol\":5251:5252  i */\n      dup2\n        /* \"src/nftMarketPlace.sol\":5251:5269  i < totalItemCount */\n      lt\n        /* \"src/nftMarketPlace.sol\":5235:5581  for(uint i = 0; i < totalItemCount; i++){... */\n      iszero\n      tag_140\n      jumpi\n        /* \"src/nftMarketPlace.sol\":5324:5334  msg.sender */\n      caller\n        /* \"src/nftMarketPlace.sol\":5292:5334  idToMarketItem[i + 1].seller == msg.sender */\n      0xffffffffffffffffffffffffffffffffffffffff\n      and\n        /* \"src/nftMarketPlace.sol\":5292:5306  idToMarketItem */\n      0x05\n        /* \"src/nftMarketPlace.sol\":5292:5313  idToMarketItem[i + 1] */\n      0x00\n        /* \"src/nftMarketPlace.sol\":5311:5312  1 */\n      0x01\n        /* \"src/nftMarketPlace.sol\":5307:5308  i */\n      dup5\n        /* \"src/nftMarketPlace.sol\":5307:5312  i + 1 */\n      tag_142\n      swap2\n      swap1\n      tag_58\n      jump\t// in\n    tag_142:\n        /* \"src/nftMarketPlace.sol\":5292:5313  idToMarketItem[i + 1] */\n      dup2\n      mstore\n      0x20\n      add\n      swap1\n      dup2\n      mstore\n      0x20\n      add\n      0x00\n      keccak256\n        /* \"src/nftMarketPlace.sol\":5292:5320  idToMarketItem[i + 1].seller */\n      0x03\n      add\n      0x00\n      swap1\n      sload\n      swap1\n      0x0100\n      exp\n      swap1\n      div\n      0xffffffffffffffffffffffffffffffffffffffff\n      and\n        /* \"src/nftMarketPlace.sol\":5292:5334  idToMarketItem[i + 1].seller == msg.sender */\n      0xffffffffffffffffffffffffffffffffffffffff\n      and\n      eq\n        /* \"src/nftMarketPlace.sol\":5289:5571  if(idToMarketItem[i + 1].seller == msg.sender){... */\n      iszero\n      tag_143\n      jumpi\n        /* \"src/nftMarketPlace.sol\":5352:5366  uint currentId */\n      0x00\n        /* \"src/nftMarketPlace.sol\":5369:5383  idToMarketItem */\n      0x05\n        /* \"src/nftMarketPlace.sol\":5369:5390  idToMarketItem[i + 1] */\n      0x00\n        /* \"src/nftMarketPlace.sol\":5388:5389  1 */\n      0x01\n        /* \"src/nftMarketPlace.sol\":5384:5385  i */\n      dup5\n        /* \"src/nftMarketPlace.sol\":5384:5389  i + 1 */\n      tag_144\n      swap2\n      swap1\n      tag_58\n      jump\t// in\n    tag_144:\n        /* \"src/nftMarketPlace.sol\":5369:5390  idToMarketItem[i + 1] */\n      dup2\n      mstore\n      0x20\n      add\n      swap1\n      dup2\n      mstore\n      0x20\n      add\n      0x00\n      keccak256\n        /* \"src/nftMarketPlace.sol\":5369:5397  idToMarketItem[i + 1].itemId */\n      0x00\n      add\n      sload\n        /* \"src/nftMarketPlace.sol\":5352:5397  uint currentId = idToMarketItem[i + 1].itemId */\n      swap1\n      pop\n        /* \"src/nftMarketPlace.sol\":5414:5444  MarketItem storage currentItem */\n      0x00\n        /* \"src/nftMarketPlace.sol\":5447:5461  idToMarketItem */\n      0x05\n        /* \"src/nftMarketPlace.sol\":5447:5472  idToMarketItem[currentId] */\n      0x00\n        /* \"src/nftMarketPlace.sol\":5462:5471  currentId */\n      dup4\n        /* \"src/nftMarketPlace.sol\":5447:5472  idToMarketItem[currentId] */\n      dup2\n      mstore\n      0x20\n      add\n      swap1\n      dup2\n      mstore\n      0x20\n      add\n      0x00\n      keccak256\n        /* \"src/nftMarketPlace.sol\":5414:5472  MarketItem storage currentItem = idToMarketItem[currentId] */\n      swap1\n      pop\n        /* \"src/nftMarketPlace.sol\":5511:5522  currentItem */\n      dup1\n        /* \"src/nftMarketPlace.sol\":5489:5522  items[currentIndex] = currentItem */\n      mload(0x40)\n      dup1\n      0xe0\n      add\n      0x40\n      mstore\n      swap1\n      dup2\n      0x00\n      dup3\n      add\n      sload\n      dup2\n      mstore\n      0x20\n      add\n      0x01\n      dup3\n      add\n      0x00\n      swap1\n      sload\n      swap1\n      0x0100\n      exp\n      swap1\n      div\n      0xffffffffffffffffffffffffffffffffffffffff\n      and\n      0xffffffffffffffffffffffffffffffffffffffff\n      and\n      0xffffffffffffffffffffffffffffffffffffffff\n      and\n      dup2\n      mstore\n      0x20\n      add\n      0x02\n      dup3\n      add\n      sload\n      dup2\n      mstore\n      0x20\n      add\n      0x03\n      dup3\n      add\n      0x00\n      swap1\n      sload\n      swap1\n      0x0100\n      exp\n      swap1\n      div\n      0xffffffffffffffffffffffffffffffffffffffff\n      and\n      0xffffffffffffffffffffffffffffffffffffffff\n      and\n      0xffffffffffffffffffffffffffffffffffffffff\n      and\n      dup2\n      mstore\n      0x20\n      add\n      0x04\n      dup3\n      add\n      0x00\n      swap1\n      sload\n      swap1\n      0x0100\n      exp\n      swap1\n      div\n      0xffffffffffffffffffffffffffffffffffffffff\n      and\n      0xffffffffffffffffffffffffffffffffffffffff\n      and\n      0xffffffffffffffffffffffffffffffffffffffff\n      and\n      dup2\n      mstore\n      0x20\n      add\n      0x05\n      dup3\n      add\n      sload\n      dup2\n      mstore\n      0x20\n      add\n      0x06\n      dup3\n      add\n      0x00\n      swap1\n      sload\n      swap1\n      0x0100\n      exp\n      swap1\n      div\n      0xff\n      and\n      iszero\n      iszero\n      iszero\n      iszero\n      dup2\n      mstore\n      pop\n      pop\n        /* \"src/nftMarketPlace.sol\":5489:5494  items */\n      dup5\n        /* \"src/nftMarketPlace.sol\":5495:5507  currentIndex */\n      dup7\n        /* \"src/nftMarketPlace.sol\":5489:5508  items[currentIndex] */\n      dup2\n      mload\n      dup2\n      lt\n      tag_145\n      jumpi\n      tag_146\n      tag_63\n      jump\t// in\n    tag_146:\n    tag_145:\n      0x20\n      mul\n      0x20\n      add\n      add\n        /* \"src/nftMarketPlace.sol\":5489:5522  items[currentIndex] = currentItem */\n      dup2\n      swap1\n      mstore\n      pop\n        /* \"src/nftMarketPlace.sol\":5554:5555  1 */\n      0x01\n        /* \"src/nftMarketPlace.sol\":5539:5555  currentIndex +=1 */\n      dup6\n      tag_147\n      swap2\n      swap1\n      tag_58\n      jump\t// in\n    tag_147:\n      swap5\n      pop\n        /* \"src/nftMarketPlace.sol\":5335:5571  {... */\n      pop\n      pop\n        /* \"src/nftMarketPlace.sol\":5289:5571  if(idToMarketItem[i + 1].seller == msg.sender){... */\n    tag_143:\n        /* \"src/nftMarketPlace.sol\":5271:5274  i++ */\n      dup1\n      dup1\n      tag_148\n      swap1\n      tag_66\n      jump\t// in\n    tag_148:\n      swap2\n      pop\n      pop\n        /* \"src/nftMarketPlace.sol\":5235:5581  for(uint i = 0; i < totalItemCount; i++){... */\n      jump(tag_139)\n    tag_140:\n      pop\n        /* \"src/nftMarketPlace.sol\":5606:5611  items */\n      dup1\n        /* \"src/nftMarketPlace.sol\":5599:5611  return items */\n      swap5\n      pop\n      pop\n      pop\n      pop\n      pop\n        /* \"src/nftMarketPlace.sol\":4797:5617  function fetchItemListed () public view returns (MarketItem[] memory ){... */\n      swap1\n      jump\t// out\n        /* \"https://github.com/OpenZeppelin/openzeppelin-contracts/contracts/utils/Counters.sol\":827:939  function current(Counter storage counter) internal view returns (uint256) {... */\n    tag_42:\n        /* \"https://github.com/OpenZeppelin/openzeppelin-contracts/contracts/utils/Counters.sol\":892:899  uint256 */\n      0x00\n        /* \"https://github.com/OpenZeppelin/openzeppelin-contracts/contracts/utils/Counters.sol\":918:925  counter */\n      dup2\n        /* \"https://github.com/OpenZeppelin/openzeppelin-contracts/contracts/utils/Counters.sol\":918:932  counter._value */\n      0x00\n      add\n      sload\n        /* \"https://github.com/OpenZeppelin/openzeppelin-contracts/contracts/utils/Counters.sol\":911:932  return counter._value */\n      swap1\n      pop\n        /* \"https://github.com/OpenZeppelin/openzeppelin-contracts/contracts/utils/Counters.sol\":827:939  function current(Counter storage counter) internal view returns (uint256) {... */\n      swap2\n      swap1\n      pop\n      jump\t// out\n        /* \"https://github.com/OpenZeppelin/openzeppelin-contracts/contracts/utils/Counters.sol\":945:1068  function increment(Counter storage counter) internal {... */\n    tag_99:\n        /* \"https://github.com/OpenZeppelin/openzeppelin-contracts/contracts/utils/Counters.sol\":1050:1051  1 */\n      0x01\n        /* \"https://github.com/OpenZeppelin/openzeppelin-contracts/contracts/utils/Counters.sol\":1032:1039  counter */\n      dup2\n        /* \"https://github.com/OpenZeppelin/openzeppelin-contracts/contracts/utils/Counters.sol\":1032:1046  counter._value */\n      0x00\n      add\n      0x00\n        /* \"https://github.com/OpenZeppelin/openzeppelin-contracts/contracts/utils/Counters.sol\":1032:1051  counter._value += 1 */\n      dup3\n      dup3\n      sload\n      add\n      swap3\n      pop\n      pop\n      dup2\n      swap1\n      sstore\n      pop\n        /* \"https://github.com/OpenZeppelin/openzeppelin-contracts/contracts/utils/Counters.sol\":945:1068  function increment(Counter storage counter) internal {... */\n      pop\n      jump\t// out\n    tag_53:\n      mload(0x40)\n      dup1\n      0xe0\n      add\n      0x40\n      mstore\n      dup1\n      0x00\n      dup2\n      mstore\n      0x20\n      add\n      and(0xffffffffffffffffffffffffffffffffffffffff, 0x00)\n      dup2\n      mstore\n      0x20\n      add\n      0x00\n      dup2\n      mstore\n      0x20\n      add\n      and(0xffffffffffffffffffffffffffffffffffffffff, 0x00)\n      dup2\n      mstore\n      0x20\n      add\n      and(0xffffffffffffffffffffffffffffffffffffffff, 0x00)\n      dup2\n      mstore\n      0x20\n      add\n      0x00\n      dup2\n      mstore\n      0x20\n      add\n      iszero(iszero(0x00))\n      dup2\n      mstore\n      pop\n      swap1\n      jump\t// out\n        /* \"#utility.yul\":7:146   */\n    tag_152:\n        /* \"#utility.yul\":53:58   */\n      0x00\n        /* \"#utility.yul\":91:97   */\n      dup2\n        /* \"#utility.yul\":78:98   */\n      calldataload\n        /* \"#utility.yul\":69:98   */\n      swap1\n      pop\n        /* \"#utility.yul\":107:140   */\n      tag_154\n        /* \"#utility.yul\":134:139   */\n      dup2\n        /* \"#utility.yul\":107:140   */\n      tag_155\n      jump\t// in\n    tag_154:\n        /* \"#utility.yul\":7:146   */\n      swap3\n      swap2\n      pop\n      pop\n      jump\t// out\n        /* \"#utility.yul\":152:291   */\n    tag_156:\n        /* \"#utility.yul\":198:203   */\n      0x00\n        /* \"#utility.yul\":236:242   */\n      dup2\n        /* \"#utility.yul\":223:243   */\n      calldataload\n        /* \"#utility.yul\":214:243   */\n      swap1\n      pop\n        /* \"#utility.yul\":252:285   */\n      tag_158\n        /* \"#utility.yul\":279:284   */\n      dup2\n        /* \"#utility.yul\":252:285   */\n      tag_159\n      jump\t// in\n    tag_158:\n        /* \"#utility.yul\":152:291   */\n      swap3\n      swap2\n      pop\n      pop\n      jump\t// out\n        /* \"#utility.yul\":297:771   */\n    tag_29:\n        /* \"#utility.yul\":365:371   */\n      0x00\n        /* \"#utility.yul\":373:379   */\n      dup1\n        /* \"#utility.yul\":422:424   */\n      0x40\n        /* \"#utility.yul\":410:419   */\n      dup4\n        /* \"#utility.yul\":401:408   */\n      dup6\n        /* \"#utility.yul\":397:420   */\n      sub\n        /* \"#utility.yul\":393:425   */\n      slt\n        /* \"#utility.yul\":390:509   */\n      iszero\n      tag_161\n      jumpi\n        /* \"#utility.yul\":428:507   */\n      tag_162\n      tag_163\n      jump\t// in\n    tag_162:\n        /* \"#utility.yul\":390:509   */\n    tag_161:\n        /* \"#utility.yul\":548:549   */\n      0x00\n        /* \"#utility.yul\":573:626   */\n      tag_164\n        /* \"#utility.yul\":618:625   */\n      dup6\n        /* \"#utility.yul\":609:615   */\n      dup3\n        /* \"#utility.yul\":598:607   */\n      dup7\n        /* \"#utility.yul\":594:616   */\n      add\n        /* \"#utility.yul\":573:626   */\n      tag_152\n      jump\t// in\n    tag_164:\n        /* \"#utility.yul\":563:626   */\n      swap3\n      pop\n        /* \"#utility.yul\":519:636   */\n      pop\n        /* \"#utility.yul\":675:677   */\n      0x20\n        /* \"#utility.yul\":701:754   */\n      tag_165\n        /* \"#utility.yul\":746:753   */\n      dup6\n        /* \"#utility.yul\":737:743   */\n      dup3\n        /* \"#utility.yul\":726:735   */\n      dup7\n        /* \"#utility.yul\":722:744   */\n      add\n        /* \"#utility.yul\":701:754   */\n      tag_156\n      jump\t// in\n    tag_165:\n        /* \"#utility.yul\":691:754   */\n      swap2\n      pop\n        /* \"#utility.yul\":646:764   */\n      pop\n        /* \"#utility.yul\":297:771   */\n      swap3\n      pop\n      swap3\n      swap1\n      pop\n      jump\t// out\n        /* \"#utility.yul\":777:1396   */\n    tag_21:\n        /* \"#utility.yul\":854:860   */\n      0x00\n        /* \"#utility.yul\":862:868   */\n      dup1\n        /* \"#utility.yul\":870:876   */\n      0x00\n        /* \"#utility.yul\":919:921   */\n      0x60\n        /* \"#utility.yul\":907:916   */\n      dup5\n        /* \"#utility.yul\":898:905   */\n      dup7\n        /* \"#utility.yul\":894:917   */\n      sub\n        /* \"#utility.yul\":890:922   */\n      slt\n        /* \"#utility.yul\":887:1006   */\n      iszero\n      tag_167\n      jumpi\n        /* \"#utility.yul\":925:1004   */\n      tag_168\n      tag_163\n      jump\t// in\n    tag_168:\n        /* \"#utility.yul\":887:1006   */\n    tag_167:\n        /* \"#utility.yul\":1045:1046   */\n      0x00\n        /* \"#utility.yul\":1070:1123   */\n      tag_169\n        /* \"#utility.yul\":1115:1122   */\n      dup7\n        /* \"#utility.yul\":1106:1112   */\n      dup3\n        /* \"#utility.yul\":1095:1104   */\n      dup8\n        /* \"#utility.yul\":1091:1113   */\n      add\n        /* \"#utility.yul\":1070:1123   */\n      tag_152\n      jump\t// in\n    tag_169:\n        /* \"#utility.yul\":1060:1123   */\n      swap4\n      pop\n        /* \"#utility.yul\":1016:1133   */\n      pop\n        /* \"#utility.yul\":1172:1174   */\n      0x20\n        /* \"#utility.yul\":1198:1251   */\n      tag_170\n        /* \"#utility.yul\":1243:1250   */\n      dup7\n        /* \"#utility.yul\":1234:1240   */\n      dup3\n        /* \"#utility.yul\":1223:1232   */\n      dup8\n        /* \"#utility.yul\":1219:1241   */\n      add\n        /* \"#utility.yul\":1198:1251   */\n      tag_156\n      jump\t// in\n    tag_170:\n        /* \"#utility.yul\":1188:1251   */\n      swap3\n      pop\n        /* \"#utility.yul\":1143:1261   */\n      pop\n        /* \"#utility.yul\":1300:1302   */\n      0x40\n        /* \"#utility.yul\":1326:1379   */\n      tag_171\n        /* \"#utility.yul\":1371:1378   */\n      dup7\n        /* \"#utility.yul\":1362:1368   */\n      dup3\n        /* \"#utility.yul\":1351:1360   */\n      dup8\n        /* \"#utility.yul\":1347:1369   */\n      add\n        /* \"#utility.yul\":1326:1379   */\n      tag_156\n      jump\t// in\n    tag_171:\n        /* \"#utility.yul\":1316:1379   */\n      swap2\n      pop\n        /* \"#utility.yul\":1271:1389   */\n      pop\n        /* \"#utility.yul\":777:1396   */\n      swap3\n      pop\n      swap3\n      pop\n      swap3\n      jump\t// out\n        /* \"#utility.yul\":1402:1731   */\n    tag_25:\n        /* \"#utility.yul\":1461:1467   */\n      0x00\n        /* \"#utility.yul\":1510:1512   */\n      0x20\n        /* \"#utility.yul\":1498:1507   */\n      dup3\n        /* \"#utility.yul\":1489:1496   */\n      dup5\n        /* \"#utility.yul\":1485:1508   */\n      sub\n        /* \"#utility.yul\":1481:1513   */\n      slt\n        /* \"#utility.yul\":1478:1597   */\n      iszero\n      tag_173\n      jumpi\n        /* \"#utility.yul\":1516:1595   */\n      tag_174\n      tag_163\n      jump\t// in\n    tag_174:\n        /* \"#utility.yul\":1478:1597   */\n    tag_173:\n        /* \"#utility.yul\":1636:1637   */\n      0x00\n        /* \"#utility.yul\":1661:1714   */\n      tag_175\n        /* \"#utility.yul\":1706:1713   */\n      dup5\n        /* \"#utility.yul\":1697:1703   */\n      dup3\n        /* \"#utility.yul\":1686:1695   */\n      dup6\n        /* \"#utility.yul\":1682:1704   */\n      add\n        /* \"#utility.yul\":1661:1714   */\n      tag_156\n      jump\t// in\n    tag_175:\n        /* \"#utility.yul\":1651:1714   */\n      swap2\n      pop\n        /* \"#utility.yul\":1607:1724   */\n      pop\n        /* \"#utility.yul\":1402:1731   */\n      swap3\n      swap2\n      pop\n      pop\n      jump\t// out\n        /* \"#utility.yul\":1737:2028   */\n    tag_176:\n        /* \"#utility.yul\":1862:1872   */\n      0x00\n        /* \"#utility.yul\":1883:1985   */\n      tag_178\n        /* \"#utility.yul\":1981:1984   */\n      dup4\n        /* \"#utility.yul\":1973:1979   */\n      dup4\n        /* \"#utility.yul\":1883:1985   */\n      tag_179\n      jump\t// in\n    tag_178:\n        /* \"#utility.yul\":2017:2021   */\n      0xe0\n        /* \"#utility.yul\":2012:2015   */\n      dup4\n        /* \"#utility.yul\":2008:2022   */\n      add\n        /* \"#utility.yul\":1994:2022   */\n      swap1\n      pop\n        /* \"#utility.yul\":1737:2028   */\n      swap3\n      swap2\n      pop\n      pop\n      jump\t// out\n        /* \"#utility.yul\":2034:2166   */\n    tag_180:\n        /* \"#utility.yul\":2127:2159   */\n      tag_182\n        /* \"#utility.yul\":2153:2158   */\n      dup2\n        /* \"#utility.yul\":2127:2159   */\n      tag_183\n      jump\t// in\n    tag_182:\n        /* \"#utility.yul\":2122:2125   */\n      dup3\n        /* \"#utility.yul\":2115:2160   */\n      mstore\n        /* \"#utility.yul\":2034:2166   */\n      pop\n      pop\n      jump\t// out\n        /* \"#utility.yul\":2172:2280   */\n    tag_184:\n        /* \"#utility.yul\":2249:2273   */\n      tag_186\n        /* \"#utility.yul\":2267:2272   */\n      dup2\n        /* \"#utility.yul\":2249:2273   */\n      tag_187\n      jump\t// in\n    tag_186:\n        /* \"#utility.yul\":2244:2247   */\n      dup3\n        /* \"#utility.yul\":2237:2274   */\n      mstore\n        /* \"#utility.yul\":2172:2280   */\n      pop\n      pop\n      jump\t// out\n        /* \"#utility.yul\":2286:2404   */\n    tag_188:\n        /* \"#utility.yul\":2373:2397   */\n      tag_190\n        /* \"#utility.yul\":2391:2396   */\n      dup2\n        /* \"#utility.yul\":2373:2397   */\n      tag_187\n      jump\t// in\n    tag_190:\n        /* \"#utility.yul\":2368:2371   */\n      dup3\n        /* \"#utility.yul\":2361:2398   */\n      mstore\n        /* \"#utility.yul\":2286:2404   */\n      pop\n      pop\n      jump\t// out\n        /* \"#utility.yul\":2490:3446   */\n    tag_191:\n        /* \"#utility.yul\":2665:2668   */\n      0x00\n        /* \"#utility.yul\":2694:2776   */\n      tag_193\n        /* \"#utility.yul\":2770:2775   */\n      dup3\n        /* \"#utility.yul\":2694:2776   */\n      tag_194\n      jump\t// in\n    tag_193:\n        /* \"#utility.yul\":2792:2906   */\n      tag_195\n        /* \"#utility.yul\":2899:2905   */\n      dup2\n        /* \"#utility.yul\":2894:2897   */\n      dup6\n        /* \"#utility.yul\":2792:2906   */\n      tag_196\n      jump\t// in\n    tag_195:\n        /* \"#utility.yul\":2785:2906   */\n      swap4\n      pop\n        /* \"#utility.yul\":2930:3014   */\n      tag_197\n        /* \"#utility.yul\":3008:3013   */\n      dup4\n        /* \"#utility.yul\":2930:3014   */\n      tag_198\n      jump\t// in\n    tag_197:\n        /* \"#utility.yul\":3037:3044   */\n      dup1\n        /* \"#utility.yul\":3068:3069   */\n      0x00\n        /* \"#utility.yul\":3053:3421   */\n    tag_199:\n        /* \"#utility.yul\":3078:3084   */\n      dup4\n        /* \"#utility.yul\":3075:3076   */\n      dup2\n        /* \"#utility.yul\":3072:3085   */\n      lt\n        /* \"#utility.yul\":3053:3421   */\n      iszero\n      tag_201\n      jumpi\n        /* \"#utility.yul\":3154:3160   */\n      dup2\n        /* \"#utility.yul\":3148:3161   */\n      mload\n        /* \"#utility.yul\":3181:3300   */\n      tag_202\n        /* \"#utility.yul\":3296:3299   */\n      dup9\n        /* \"#utility.yul\":3281:3294   */\n      dup3\n        /* \"#utility.yul\":3181:3300   */\n      tag_176\n      jump\t// in\n    tag_202:\n        /* \"#utility.yul\":3174:3300   */\n      swap8\n      pop\n        /* \"#utility.yul\":3323:3411   */\n      tag_203\n        /* \"#utility.yul\":3404:3410   */\n      dup4\n        /* \"#utility.yul\":3323:3411   */\n      tag_204\n      jump\t// in\n    tag_203:\n        /* \"#utility.yul\":3313:3411   */\n      swap3\n      pop\n        /* \"#utility.yul\":3113:3421   */\n      pop\n        /* \"#utility.yul\":3100:3101   */\n      0x01\n        /* \"#utility.yul\":3097:3098   */\n      dup2\n        /* \"#utility.yul\":3093:3102   */\n      add\n        /* \"#utility.yul\":3088:3102   */\n      swap1\n      pop\n        /* \"#utility.yul\":3053:3421   */\n      jump(tag_199)\n    tag_201:\n        /* \"#utility.yul\":3057:3071   */\n      pop\n        /* \"#utility.yul\":3437:3440   */\n      dup6\n        /* \"#utility.yul\":3430:3440   */\n      swap4\n      pop\n        /* \"#utility.yul\":2670:3446   */\n      pop\n      pop\n      pop\n        /* \"#utility.yul\":2490:3446   */\n      swap3\n      swap2\n      pop\n      pop\n      jump\t// out\n        /* \"#utility.yul\":3452:3551   */\n    tag_205:\n        /* \"#utility.yul\":3523:3544   */\n      tag_207\n        /* \"#utility.yul\":3538:3543   */\n      dup2\n        /* \"#utility.yul\":3523:3544   */\n      tag_208\n      jump\t// in\n    tag_207:\n        /* \"#utility.yul\":3518:3521   */\n      dup3\n        /* \"#utility.yul\":3511:3545   */\n      mstore\n        /* \"#utility.yul\":3452:3551   */\n      pop\n      pop\n      jump\t// out\n        /* \"#utility.yul\":3557:3666   */\n    tag_209:\n        /* \"#utility.yul\":3638:3659   */\n      tag_211\n        /* \"#utility.yul\":3653:3658   */\n      dup2\n        /* \"#utility.yul\":3638:3659   */\n      tag_208\n      jump\t// in\n    tag_211:\n        /* \"#utility.yul\":3633:3636   */\n      dup3\n        /* \"#utility.yul\":3626:3660   */\n      mstore\n        /* \"#utility.yul\":3557:3666   */\n      pop\n      pop\n      jump\t// out\n        /* \"#utility.yul\":3672:4038   */\n    tag_212:\n        /* \"#utility.yul\":3814:3817   */\n      0x00\n        /* \"#utility.yul\":3835:3902   */\n      tag_214\n        /* \"#utility.yul\":3899:3901   */\n      0x1f\n        /* \"#utility.yul\":3894:3897   */\n      dup4\n        /* \"#utility.yul\":3835:3902   */\n      tag_215\n      jump\t// in\n    tag_214:\n        /* \"#utility.yul\":3828:3902   */\n      swap2\n      pop\n        /* \"#utility.yul\":3911:4004   */\n      tag_216\n        /* \"#utility.yul\":4000:4003   */\n      dup3\n        /* \"#utility.yul\":3911:4004   */\n      tag_217\n      jump\t// in\n    tag_216:\n        /* \"#utility.yul\":4029:4031   */\n      0x20\n        /* \"#utility.yul\":4024:4027   */\n      dup3\n        /* \"#utility.yul\":4020:4032   */\n      add\n        /* \"#utility.yul\":4013:4032   */\n      swap1\n      pop\n        /* \"#utility.yul\":3672:4038   */\n      swap2\n      swap1\n      pop\n      jump\t// out\n        /* \"#utility.yul\":4120:5535   */\n    tag_179:\n        /* \"#utility.yul\":4263:4267   */\n      0xe0\n        /* \"#utility.yul\":4258:4261   */\n      dup3\n        /* \"#utility.yul\":4254:4268   */\n      add\n        /* \"#utility.yul\":4352:4356   */\n      0x00\n        /* \"#utility.yul\":4345:4350   */\n      dup3\n        /* \"#utility.yul\":4341:4357   */\n      add\n        /* \"#utility.yul\":4335:4358   */\n      mload\n        /* \"#utility.yul\":4371:4434   */\n      tag_219\n        /* \"#utility.yul\":4428:4432   */\n      0x00\n        /* \"#utility.yul\":4423:4426   */\n      dup6\n        /* \"#utility.yul\":4419:4433   */\n      add\n        /* \"#utility.yul\":4405:4417   */\n      dup3\n        /* \"#utility.yul\":4371:4434   */\n      tag_220\n      jump\t// in\n    tag_219:\n        /* \"#utility.yul\":4278:4444   */\n      pop\n        /* \"#utility.yul\":4533:4537   */\n      0x20\n        /* \"#utility.yul\":4526:4531   */\n      dup3\n        /* \"#utility.yul\":4522:4538   */\n      add\n        /* \"#utility.yul\":4516:4539   */\n      mload\n        /* \"#utility.yul\":4552:4615   */\n      tag_221\n        /* \"#utility.yul\":4609:4613   */\n      0x20\n        /* \"#utility.yul\":4604:4607   */\n      dup6\n        /* \"#utility.yul\":4600:4614   */\n      add\n        /* \"#utility.yul\":4586:4598   */\n      dup3\n        /* \"#utility.yul\":4552:4615   */\n      tag_184\n      jump\t// in\n    tag_221:\n        /* \"#utility.yul\":4454:4625   */\n      pop\n        /* \"#utility.yul\":4710:4714   */\n      0x40\n        /* \"#utility.yul\":4703:4708   */\n      dup3\n        /* \"#utility.yul\":4699:4715   */\n      add\n        /* \"#utility.yul\":4693:4716   */\n      mload\n        /* \"#utility.yul\":4729:4792   */\n      tag_222\n        /* \"#utility.yul\":4786:4790   */\n      0x40\n        /* \"#utility.yul\":4781:4784   */\n      dup6\n        /* \"#utility.yul\":4777:4791   */\n      add\n        /* \"#utility.yul\":4763:4775   */\n      dup3\n        /* \"#utility.yul\":4729:4792   */\n      tag_220\n      jump\t// in\n    tag_222:\n        /* \"#utility.yul\":4635:4802   */\n      pop\n        /* \"#utility.yul\":4886:4890   */\n      0x60\n        /* \"#utility.yul\":4879:4884   */\n      dup3\n        /* \"#utility.yul\":4875:4891   */\n      add\n        /* \"#utility.yul\":4869:4892   */\n      mload\n        /* \"#utility.yul\":4905:4984   */\n      tag_223\n        /* \"#utility.yul\":4978:4982   */\n      0x60\n        /* \"#utility.yul\":4973:4976   */\n      dup6\n        /* \"#utility.yul\":4969:4983   */\n      add\n        /* \"#utility.yul\":4955:4967   */\n      dup3\n        /* \"#utility.yul\":4905:4984   */\n      tag_180\n      jump\t// in\n    tag_223:\n        /* \"#utility.yul\":4812:4994   */\n      pop\n        /* \"#utility.yul\":5077:5081   */\n      0x80\n        /* \"#utility.yul\":5070:5075   */\n      dup3\n        /* \"#utility.yul\":5066:5082   */\n      add\n        /* \"#utility.yul\":5060:5083   */\n      mload\n        /* \"#utility.yul\":5096:5175   */\n      tag_224\n        /* \"#utility.yul\":5169:5173   */\n      0x80\n        /* \"#utility.yul\":5164:5167   */\n      dup6\n        /* \"#utility.yul\":5160:5174   */\n      add\n        /* \"#utility.yul\":5146:5158   */\n      dup3\n        /* \"#utility.yul\":5096:5175   */\n      tag_180\n      jump\t// in\n    tag_224:\n        /* \"#utility.yul\":5004:5185   */\n      pop\n        /* \"#utility.yul\":5268:5272   */\n      0xa0\n        /* \"#utility.yul\":5261:5266   */\n      dup3\n        /* \"#utility.yul\":5257:5273   */\n      add\n        /* \"#utility.yul\":5251:5274   */\n      mload\n        /* \"#utility.yul\":5287:5350   */\n      tag_225\n        /* \"#utility.yul\":5344:5348   */\n      0xa0\n        /* \"#utility.yul\":5339:5342   */\n      dup6\n        /* \"#utility.yul\":5335:5349   */\n      add\n        /* \"#utility.yul\":5321:5333   */\n      dup3\n        /* \"#utility.yul\":5287:5350   */\n      tag_220\n      jump\t// in\n    tag_225:\n        /* \"#utility.yul\":5195:5360   */\n      pop\n        /* \"#utility.yul\":5442:5446   */\n      0xc0\n        /* \"#utility.yul\":5435:5440   */\n      dup3\n        /* \"#utility.yul\":5431:5447   */\n      add\n        /* \"#utility.yul\":5425:5448   */\n      mload\n        /* \"#utility.yul\":5461:5518   */\n      tag_226\n        /* \"#utility.yul\":5512:5516   */\n      0xc0\n        /* \"#utility.yul\":5507:5510   */\n      dup6\n        /* \"#utility.yul\":5503:5517   */\n      add\n        /* \"#utility.yul\":5489:5501   */\n      dup3\n        /* \"#utility.yul\":5461:5518   */\n      tag_205\n      jump\t// in\n    tag_226:\n        /* \"#utility.yul\":5370:5528   */\n      pop\n        /* \"#utility.yul\":4232:5535   */\n      pop\n        /* \"#utility.yul\":4120:5535   */\n      pop\n      pop\n      jump\t// out\n        /* \"#utility.yul\":5541:5649   */\n    tag_220:\n        /* \"#utility.yul\":5618:5642   */\n      tag_228\n        /* \"#utility.yul\":5636:5641   */\n      dup2\n        /* \"#utility.yul\":5618:5642   */\n      tag_229\n      jump\t// in\n    tag_228:\n        /* \"#utility.yul\":5613:5616   */\n      dup3\n        /* \"#utility.yul\":5606:5643   */\n      mstore\n        /* \"#utility.yul\":5541:5649   */\n      pop\n      pop\n      jump\t// out\n        /* \"#utility.yul\":5655:5773   */\n    tag_230:\n        /* \"#utility.yul\":5742:5766   */\n      tag_232\n        /* \"#utility.yul\":5760:5765   */\n      dup2\n        /* \"#utility.yul\":5742:5766   */\n      tag_229\n      jump\t// in\n    tag_232:\n        /* \"#utility.yul\":5737:5740   */\n      dup3\n        /* \"#utility.yul\":5730:5767   */\n      mstore\n        /* \"#utility.yul\":5655:5773   */\n      pop\n      pop\n      jump\t// out\n        /* \"#utility.yul\":5779:6221   */\n    tag_102:\n        /* \"#utility.yul\":5928:5932   */\n      0x00\n        /* \"#utility.yul\":5966:5968   */\n      0x60\n        /* \"#utility.yul\":5955:5964   */\n      dup3\n        /* \"#utility.yul\":5951:5969   */\n      add\n        /* \"#utility.yul\":5943:5969   */\n      swap1\n      pop\n        /* \"#utility.yul\":5979:6050   */\n      tag_234\n        /* \"#utility.yul\":6047:6048   */\n      0x00\n        /* \"#utility.yul\":6036:6045   */\n      dup4\n        /* \"#utility.yul\":6032:6049   */\n      add\n        /* \"#utility.yul\":6023:6029   */\n      dup7\n        /* \"#utility.yul\":5979:6050   */\n      tag_188\n      jump\t// in\n    tag_234:\n        /* \"#utility.yul\":6060:6132   */\n      tag_235\n        /* \"#utility.yul\":6128:6130   */\n      0x20\n        /* \"#utility.yul\":6117:6126   */\n      dup4\n        /* \"#utility.yul\":6113:6131   */\n      add\n        /* \"#utility.yul\":6104:6110   */\n      dup6\n        /* \"#utility.yul\":6060:6132   */\n      tag_188\n      jump\t// in\n    tag_235:\n        /* \"#utility.yul\":6142:6214   */\n      tag_236\n        /* \"#utility.yul\":6210:6212   */\n      0x40\n        /* \"#utility.yul\":6199:6208   */\n      dup4\n        /* \"#utility.yul\":6195:6213   */\n      add\n        /* \"#utility.yul\":6186:6192   */\n      dup5\n        /* \"#utility.yul\":6142:6214   */\n      tag_230\n      jump\t// in\n    tag_236:\n        /* \"#utility.yul\":5779:6221   */\n      swap5\n      swap4\n      pop\n      pop\n      pop\n      pop\n      jump\t// out\n        /* \"#utility.yul\":6227:6768   */\n    tag_107:\n        /* \"#utility.yul\":6398:6402   */\n      0x00\n        /* \"#utility.yul\":6436:6439   */\n      0x80\n        /* \"#utility.yul\":6425:6434   */\n      dup3\n        /* \"#utility.yul\":6421:6440   */\n      add\n        /* \"#utility.yul\":6413:6440   */\n      swap1\n      pop\n        /* \"#utility.yul\":6450:6521   */\n      tag_238\n        /* \"#utility.yul\":6518:6519   */\n      0x00\n        /* \"#utility.yul\":6507:6516   */\n      dup4\n        /* \"#utility.yul\":6503:6520   */\n      add\n        /* \"#utility.yul\":6494:6500   */\n      dup8\n        /* \"#utility.yul\":6450:6521   */\n      tag_188\n      jump\t// in\n    tag_238:\n        /* \"#utility.yul\":6531:6603   */\n      tag_239\n        /* \"#utility.yul\":6599:6601   */\n      0x20\n        /* \"#utility.yul\":6588:6597   */\n      dup4\n        /* \"#utility.yul\":6584:6602   */\n      add\n        /* \"#utility.yul\":6575:6581   */\n      dup7\n        /* \"#utility.yul\":6531:6603   */\n      tag_188\n      jump\t// in\n    tag_239:\n        /* \"#utility.yul\":6613:6685   */\n      tag_240\n        /* \"#utility.yul\":6681:6683   */\n      0x40\n        /* \"#utility.yul\":6670:6679   */\n      dup4\n        /* \"#utility.yul\":6666:6684   */\n      add\n        /* \"#utility.yul\":6657:6663   */\n      dup6\n        /* \"#utility.yul\":6613:6685   */\n      tag_230\n      jump\t// in\n    tag_240:\n        /* \"#utility.yul\":6695:6761   */\n      tag_241\n        /* \"#utility.yul\":6757:6759   */\n      0x60\n        /* \"#utility.yul\":6746:6755   */\n      dup4\n        /* \"#utility.yul\":6742:6760   */\n      add\n        /* \"#utility.yul\":6733:6739   */\n      dup5\n        /* \"#utility.yul\":6695:6761   */\n      tag_209\n      jump\t// in\n    tag_241:\n        /* \"#utility.yul\":6227:6768   */\n      swap6\n      swap5\n      pop\n      pop\n      pop\n      pop\n      pop\n      jump\t// out\n        /* \"#utility.yul\":6774:7259   */\n    tag_14:\n        /* \"#utility.yul\":6973:6977   */\n      0x00\n        /* \"#utility.yul\":7011:7013   */\n      0x20\n        /* \"#utility.yul\":7000:7009   */\n      dup3\n        /* \"#utility.yul\":6996:7014   */\n      add\n        /* \"#utility.yul\":6988:7014   */\n      swap1\n      pop\n        /* \"#utility.yul\":7060:7069   */\n      dup2\n        /* \"#utility.yul\":7054:7058   */\n      dup2\n        /* \"#utility.yul\":7050:7070   */\n      sub\n        /* \"#utility.yul\":7046:7047   */\n      0x00\n        /* \"#utility.yul\":7035:7044   */\n      dup4\n        /* \"#utility.yul\":7031:7048   */\n      add\n        /* \"#utility.yul\":7024:7071   */\n      mstore\n        /* \"#utility.yul\":7088:7252   */\n      tag_243\n        /* \"#utility.yul\":7247:7251   */\n      dup2\n        /* \"#utility.yul\":7238:7244   */\n      dup5\n        /* \"#utility.yul\":7088:7252   */\n      tag_191\n      jump\t// in\n    tag_243:\n        /* \"#utility.yul\":7080:7252   */\n      swap1\n      pop\n        /* \"#utility.yul\":6774:7259   */\n      swap3\n      swap2\n      pop\n      pop\n      jump\t// out\n        /* \"#utility.yul\":7265:7684   */\n    tag_94:\n        /* \"#utility.yul\":7431:7435   */\n      0x00\n        /* \"#utility.yul\":7469:7471   */\n      0x20\n        /* \"#utility.yul\":7458:7467   */\n      dup3\n        /* \"#utility.yul\":7454:7472   */\n      add\n        /* \"#utility.yul\":7446:7472   */\n      swap1\n      pop\n        /* \"#utility.yul\":7518:7527   */\n      dup2\n        /* \"#utility.yul\":7512:7516   */\n      dup2\n        /* \"#utility.yul\":7508:7528   */\n      sub\n        /* \"#utility.yul\":7504:7505   */\n      0x00\n        /* \"#utility.yul\":7493:7502   */\n      dup4\n        /* \"#utility.yul\":7489:7506   */\n      add\n        /* \"#utility.yul\":7482:7529   */\n      mstore\n        /* \"#utility.yul\":7546:7677   */\n      tag_245\n        /* \"#utility.yul\":7672:7676   */\n      dup2\n        /* \"#utility.yul\":7546:7677   */\n      tag_212\n      jump\t// in\n    tag_245:\n        /* \"#utility.yul\":7538:7677   */\n      swap1\n      pop\n        /* \"#utility.yul\":7265:7684   */\n      swap2\n      swap1\n      pop\n      jump\t// out\n        /* \"#utility.yul\":7690:7912   */\n    tag_35:\n        /* \"#utility.yul\":7783:7787   */\n      0x00\n        /* \"#utility.yul\":7821:7823   */\n      0x20\n        /* \"#utility.yul\":7810:7819   */\n      dup3\n        /* \"#utility.yul\":7806:7824   */\n      add\n        /* \"#utility.yul\":7798:7824   */\n      swap1\n      pop\n        /* \"#utility.yul\":7834:7905   */\n      tag_247\n        /* \"#utility.yul\":7902:7903   */\n      0x00\n        /* \"#utility.yul\":7891:7900   */\n      dup4\n        /* \"#utility.yul\":7887:7904   */\n      add\n        /* \"#utility.yul\":7878:7884   */\n      dup5\n        /* \"#utility.yul\":7834:7905   */\n      tag_230\n      jump\t// in\n    tag_247:\n        /* \"#utility.yul\":7690:7912   */\n      swap3\n      swap2\n      pop\n      pop\n      jump\t// out\n        /* \"#utility.yul\":7999:8159   */\n    tag_198:\n        /* \"#utility.yul\":8094:8098   */\n      0x00\n        /* \"#utility.yul\":8117:8120   */\n      dup2\n        /* \"#utility.yul\":8109:8120   */\n      swap1\n      pop\n        /* \"#utility.yul\":8147:8151   */\n      0x20\n        /* \"#utility.yul\":8142:8145   */\n      dup3\n        /* \"#utility.yul\":8138:8152   */\n      add\n        /* \"#utility.yul\":8130:8152   */\n      swap1\n      pop\n        /* \"#utility.yul\":7999:8159   */\n      swap2\n      swap1\n      pop\n      jump\t// out\n        /* \"#utility.yul\":8165:8307   */\n    tag_194:\n        /* \"#utility.yul\":8260:8266   */\n      0x00\n        /* \"#utility.yul\":8294:8299   */\n      dup2\n        /* \"#utility.yul\":8288:8300   */\n      mload\n        /* \"#utility.yul\":8278:8300   */\n      swap1\n      pop\n        /* \"#utility.yul\":8165:8307   */\n      swap2\n      swap1\n      pop\n      jump\t// out\n        /* \"#utility.yul\":8313:8454   */\n    tag_204:\n        /* \"#utility.yul\":8411:8415   */\n      0x00\n        /* \"#utility.yul\":8443:8447   */\n      0x20\n        /* \"#utility.yul\":8438:8441   */\n      dup3\n        /* \"#utility.yul\":8434:8448   */\n      add\n        /* \"#utility.yul\":8426:8448   */\n      swap1\n      pop\n        /* \"#utility.yul\":8313:8454   */\n      swap2\n      swap1\n      pop\n      jump\t// out\n        /* \"#utility.yul\":8460:8672   */\n    tag_196:\n        /* \"#utility.yul\":8587:8598   */\n      0x00\n        /* \"#utility.yul\":8621:8627   */\n      dup3\n        /* \"#utility.yul\":8616:8619   */\n      dup3\n        /* \"#utility.yul\":8609:8628   */\n      mstore\n        /* \"#utility.yul\":8661:8665   */\n      0x20\n        /* \"#utility.yul\":8656:8659   */\n      dup3\n        /* \"#utility.yul\":8652:8666   */\n      add\n        /* \"#utility.yul\":8637:8666   */\n      swap1\n      pop\n        /* \"#utility.yul\":8460:8672   */\n      swap3\n      swap2\n      pop\n      pop\n      jump\t// out\n        /* \"#utility.yul\":8678:8847   */\n    tag_215:\n        /* \"#utility.yul\":8762:8773   */\n      0x00\n        /* \"#utility.yul\":8796:8802   */\n      dup3\n        /* \"#utility.yul\":8791:8794   */\n      dup3\n        /* \"#utility.yul\":8784:8803   */\n      mstore\n        /* \"#utility.yul\":8836:8840   */\n      0x20\n        /* \"#utility.yul\":8831:8834   */\n      dup3\n        /* \"#utility.yul\":8827:8841   */\n      add\n        /* \"#utility.yul\":8812:8841   */\n      swap1\n      pop\n        /* \"#utility.yul\":8678:8847   */\n      swap3\n      swap2\n      pop\n      pop\n      jump\t// out\n        /* \"#utility.yul\":8853:9158   */\n    tag_58:\n        /* \"#utility.yul\":8893:8896   */\n      0x00\n        /* \"#utility.yul\":8912:8932   */\n      tag_256\n        /* \"#utility.yul\":8930:8931   */\n      dup3\n        /* \"#utility.yul\":8912:8932   */\n      tag_229\n      jump\t// in\n    tag_256:\n        /* \"#utility.yul\":8907:8932   */\n      swap2\n      pop\n        /* \"#utility.yul\":8946:8966   */\n      tag_257\n        /* \"#utility.yul\":8964:8965   */\n      dup4\n        /* \"#utility.yul\":8946:8966   */\n      tag_229\n      jump\t// in\n    tag_257:\n        /* \"#utility.yul\":8941:8966   */\n      swap3\n      pop\n        /* \"#utility.yul\":9100:9101   */\n      dup3\n        /* \"#utility.yul\":9032:9098   */\n      0xffffffffffffffffffffffffffffffffffffffffffffffffffffffffffffffff\n        /* \"#utility.yul\":9028:9102   */\n      sub\n        /* \"#utility.yul\":9025:9026   */\n      dup3\n        /* \"#utility.yul\":9022:9103   */\n      gt\n        /* \"#utility.yul\":9019:9126   */\n      iszero\n      tag_258\n      jumpi\n        /* \"#utility.yul\":9106:9124   */\n      tag_259\n      tag_260\n      jump\t// in\n    tag_259:\n        /* \"#utility.yul\":9019:9126   */\n    tag_258:\n        /* \"#utility.yul\":9150:9151   */\n      dup3\n        /* \"#utility.yul\":9147:9148   */\n      dup3\n        /* \"#utility.yul\":9143:9152   */\n      add\n        /* \"#utility.yul\":9136:9152   */\n      swap1\n      pop\n        /* \"#utility.yul\":8853:9158   */\n      swap3\n      swap2\n      pop\n      pop\n      jump\t// out\n        /* \"#utility.yul\":9164:9355   */\n    tag_46:\n        /* \"#utility.yul\":9204:9208   */\n      0x00\n        /* \"#utility.yul\":9224:9244   */\n      tag_262\n        /* \"#utility.yul\":9242:9243   */\n      dup3\n        /* \"#utility.yul\":9224:9244   */\n      tag_229\n      jump\t// in\n    tag_262:\n        /* \"#utility.yul\":9219:9244   */\n      swap2\n      pop\n        /* \"#utility.yul\":9258:9278   */\n      tag_263\n        /* \"#utility.yul\":9276:9277   */\n      dup4\n        /* \"#utility.yul\":9258:9278   */\n      tag_229\n      jump\t// in\n    tag_263:\n        /* \"#utility.yul\":9253:9278   */\n      swap3\n      pop\n        /* \"#utility.yul\":9297:9298   */\n      dup3\n        /* \"#utility.yul\":9294:9295   */\n      dup3\n        /* \"#utility.yul\":9291:9299   */\n      lt\n        /* \"#utility.yul\":9288:9322   */\n      iszero\n      tag_264\n      jumpi\n        /* \"#utility.yul\":9302:9320   */\n      tag_265\n      tag_260\n      jump\t// in\n    tag_265:\n        /* \"#utility.yul\":9288:9322   */\n    tag_264:\n        /* \"#utility.yul\":9347:9348   */\n      dup3\n        /* \"#utility.yul\":9344:9345   */\n      dup3\n        /* \"#utility.yul\":9340:9349   */\n      sub\n        /* \"#utility.yul\":9332:9349   */\n      swap1\n      pop\n        /* \"#utility.yul\":9164:9355   */\n      swap3\n      swap2\n      pop\n      pop\n      jump\t// out\n        /* \"#utility.yul\":9361:9457   */\n    tag_187:\n        /* \"#utility.yul\":9398:9405   */\n      0x00\n        /* \"#utility.yul\":9427:9451   */\n      tag_267\n        /* \"#utility.yul\":9445:9450   */\n      dup3\n        /* \"#utility.yul\":9427:9451   */\n      tag_268\n      jump\t// in\n    tag_267:\n        /* \"#utility.yul\":9416:9451   */\n      swap1\n      pop\n        /* \"#utility.yul\":9361:9457   */\n      swap2\n      swap1\n      pop\n      jump\t// out\n        /* \"#utility.yul\":9463:9567   */\n    tag_183:\n        /* \"#utility.yul\":9508:9515   */\n      0x00\n        /* \"#utility.yul\":9537:9561   */\n      tag_270\n        /* \"#utility.yul\":9555:9560   */\n      dup3\n        /* \"#utility.yul\":9537:9561   */\n      tag_268\n      jump\t// in\n    tag_270:\n        /* \"#utility.yul\":9526:9561   */\n      swap1\n      pop\n        /* \"#utility.yul\":9463:9567   */\n      swap2\n      swap1\n      pop\n      jump\t// out\n        /* \"#utility.yul\":9573:9663   */\n    tag_208:\n        /* \"#utility.yul\":9607:9614   */\n      0x00\n        /* \"#utility.yul\":9650:9655   */\n      dup2\n        /* \"#utility.yul\":9643:9656   */\n      iszero\n        /* \"#utility.yul\":9636:9657   */\n      iszero\n        /* \"#utility.yul\":9625:9657   */\n      swap1\n      pop\n        /* \"#utility.yul\":9573:9663   */\n      swap2\n      swap1\n      pop\n      jump\t// out\n        /* \"#utility.yul\":9669:9795   */\n    tag_268:\n        /* \"#utility.yul\":9706:9713   */\n      0x00\n        /* \"#utility.yul\":9746:9788   */\n      0xffffffffffffffffffffffffffffffffffffffff\n        /* \"#utility.yul\":9739:9744   */\n      dup3\n        /* \"#utility.yul\":9735:9789   */\n      and\n        /* \"#utility.yul\":9724:9789   */\n      swap1\n      pop\n        /* \"#utility.yul\":9669:9795   */\n      swap2\n      swap1\n      pop\n      jump\t// out\n        /* \"#utility.yul\":9801:9878   */\n    tag_229:\n        /* \"#utility.yul\":9838:9845   */\n      0x00\n        /* \"#utility.yul\":9867:9872   */\n      dup2\n        /* \"#utility.yul\":9856:9872   */\n      swap1\n      pop\n        /* \"#utility.yul\":9801:9878   */\n      swap2\n      swap1\n      pop\n      jump\t// out\n        /* \"#utility.yul\":9884:10117   */\n    tag_66:\n        /* \"#utility.yul\":9923:9926   */\n      0x00\n        /* \"#utility.yul\":9946:9970   */\n      tag_275\n        /* \"#utility.yul\":9964:9969   */\n      dup3\n        /* \"#utility.yul\":9946:9970   */\n      tag_229\n      jump\t// in\n    tag_275:\n        /* \"#utility.yul\":9937:9970   */\n      swap2\n      pop\n        /* \"#utility.yul\":9992:10058   */\n      0xffffffffffffffffffffffffffffffffffffffffffffffffffffffffffffffff\n        /* \"#utility.yul\":9985:9990   */\n      dup3\n        /* \"#utility.yul\":9982:10059   */\n      eq\n        /* \"#utility.yul\":9979:10082   */\n      iszero\n      tag_276\n      jumpi\n        /* \"#utility.yul\":10062:10080   */\n      tag_277\n      tag_260\n      jump\t// in\n    tag_277:\n        /* \"#utility.yul\":9979:10082   */\n    tag_276:\n        /* \"#utility.yul\":10109:10110   */\n      0x01\n        /* \"#utility.yul\":10102:10107   */\n      dup3\n        /* \"#utility.yul\":10098:10111   */\n      add\n        /* \"#utility.yul\":10091:10111   */\n      swap1\n      pop\n        /* \"#utility.yul\":9884:10117   */\n      swap2\n      swap1\n      pop\n      jump\t// out\n        /* \"#utility.yul\":10123:10303   */\n    tag_260:\n        /* \"#utility.yul\":10171:10248   */\n      0x4e487b7100000000000000000000000000000000000000000000000000000000\n        /* \"#utility.yul\":10168:10169   */\n      0x00\n        /* \"#utility.yul\":10161:10249   */\n      mstore\n        /* \"#utility.yul\":10268:10272   */\n      0x11\n        /* \"#utility.yul\":10265:10266   */\n      0x04\n        /* \"#utility.yul\":10258:10273   */\n      mstore\n        /* \"#utility.yul\":10292:10296   */\n      0x24\n        /* \"#utility.yul\":10289:10290   */\n      0x00\n        /* \"#utility.yul\":10282:10297   */\n      revert\n        /* \"#utility.yul\":10309:10489   */\n    tag_63:\n        /* \"#utility.yul\":10357:10434   */\n      0x4e487b7100000000000000000000000000000000000000000000000000000000\n        /* \"#utility.yul\":10354:10355   */\n      0x00\n        /* \"#utility.yul\":10347:10435   */\n      mstore\n        /* \"#utility.yul\":10454:10458   */\n      0x32\n        /* \"#utility.yul\":10451:10452   */\n      0x04\n        /* \"#utility.yul\":10444:10459   */\n      mstore\n        /* \"#utility.yul\":10478:10482   */\n      0x24\n        /* \"#utility.yul\":10475:10476   */\n      0x00\n        /* \"#utility.yul\":10468:10483   */\n      revert\n        /* \"#utility.yul\":10495:10675   */\n    tag_49:\n        /* \"#utility.yul\":10543:10620   */\n      0x4e487b7100000000000000000000000000000000000000000000000000000000\n        /* \"#utility.yul\":10540:10541   */\n      0x00\n        /* \"#utility.yul\":10533:10621   */\n      mstore\n        /* \"#utility.yul\":10640:10644   */\n      0x41\n        /* \"#utility.yul\":10637:10638   */\n      0x04\n        /* \"#utility.yul\":10630:10645   */\n      mstore\n        /* \"#utility.yul\":10664:10668   */\n      0x24\n        /* \"#utility.yul\":10661:10662   */\n      0x00\n        /* \"#utility.yul\":10654:10669   */\n      revert\n        /* \"#utility.yul\":10804:10921   */\n    tag_163:\n        /* \"#utility.yul\":10913:10914   */\n      0x00\n        /* \"#utility.yul\":10910:10911   */\n      dup1\n        /* \"#utility.yul\":10903:10915   */\n      revert\n        /* \"#utility.yul\":10927:11108   */\n    tag_217:\n        /* \"#utility.yul\":11067:11100   */\n      0x5265656e7472616e637947756172643a207265656e7472616e742063616c6c00\n        /* \"#utility.yul\":11063:11064   */\n      0x00\n        /* \"#utility.yul\":11055:11061   */\n      dup3\n        /* \"#utility.yul\":11051:11065   */\n      add\n        /* \"#utility.yul\":11044:11101   */\n      mstore\n        /* \"#utility.yul\":10927:11108   */\n      pop\n      jump\t// out\n        /* \"#utility.yul\":11114:11236   */\n    tag_155:\n        /* \"#utility.yul\":11187:11211   */\n      tag_286\n        /* \"#utility.yul\":11205:11210   */\n      dup2\n        /* \"#utility.yul\":11187:11211   */\n      tag_187\n      jump\t// in\n    tag_286:\n        /* \"#utility.yul\":11180:11185   */\n      dup2\n        /* \"#utility.yul\":11177:11212   */\n      eq\n        /* \"#utility.yul\":11167:11230   */\n      tag_287\n      jumpi\n        /* \"#utility.yul\":11226:11227   */\n      0x00\n        /* \"#utility.yul\":11223:11224   */\n      dup1\n        /* \"#utility.yul\":11216:11228   */\n      revert\n        /* \"#utility.yul\":11167:11230   */\n    tag_287:\n        /* \"#utility.yul\":11114:11236   */\n      pop\n      jump\t// out\n        /* \"#utility.yul\":11242:11364   */\n    tag_159:\n        /* \"#utility.yul\":11315:11339   */\n      tag_289\n        /* \"#utility.yul\":11333:11338   */\n      dup2\n        /* \"#utility.yul\":11315:11339   */\n      tag_229\n      jump\t// in\n    tag_289:\n        /* \"#utility.yul\":11308:11313   */\n      dup2\n        /* \"#utility.yul\":11305:11340   */\n      eq\n        /* \"#utility.yul\":11295:11358   */\n      tag_290\n      jumpi\n        /* \"#utility.yul\":11354:11355   */\n      0x00\n        /* \"#utility.yul\":11351:11352   */\n      dup1\n        /* \"#utility.yul\":11344:11356   */\n      revert\n        /* \"#utility.yul\":11295:11358   */\n    tag_290:\n        /* \"#utility.yul\":11242:11364   */\n      pop\n      jump\t// out\n\n    auxdata: 0xa264697066735822122087a80b892d5fc0bd3ed00f2d2e1ea30056a314c99e7ef103cea5896e8e09d69e64736f6c63430008070033\n}\n",
				"bytecode": {
					"linkReferences": {},
					"object": "608060405266354a6ba7a1800060035534801561001b57600080fd5b50600160008190555033600460006101000a81548173ffffffffffffffffffffffffffffffffffffffff021916908373ffffffffffffffffffffffffffffffffffffffff160217905550611845806100746000396000f3fe6080604052600436106100705760003560e01c8063ae677aa31161004e578063ae677aa3146100e7578063c23b139e14610103578063c78f19f91461011f578063e17914451461014a57610070565b80630f08efe014610075578063128ae712146100a057806358eb2df5146100cb575b600080fd5b34801561008157600080fd5b5061008a610175565b6040516100979190611552565b60405180910390f35b3480156100ac57600080fd5b506100b5610455565b6040516100c29190611552565b60405180910390f35b6100e560048036038101906100e091906112c6565b6107b9565b005b61010160048036038101906100fc9190611319565b610b0c565b005b61011d60048036038101906101189190611286565b610b9d565b005b34801561012b57600080fd5b50610134610e4d565b6040516101419190611594565b60405180910390f35b34801561015657600080fd5b5061015f610e53565b60405161016c9190611552565b60405180910390f35b6060600061018360016111b7565b9050600061019160026111b7565b61019b60016111b7565b6101a5919061164f565b90506000808267ffffffffffffffff8111156101c4576101c3611784565b5b6040519080825280602002602001820160405280156101fd57816020015b6101ea6111db565b8152602001906001900390816101e25790505b50905060005b8481101561044a57600073ffffffffffffffffffffffffffffffffffffffff166005600060018461023491906115f9565b815260200190815260200160002060040160009054906101000a900473ffffffffffffffffffffffffffffffffffffffff1673ffffffffffffffffffffffffffffffffffffffff1614156104375760006005600060018461029591906115f9565b81526020019081526020016000206000015490506000600560008381526020019081526020016000209050806040518060e0016040529081600082015481526020016001820160009054906101000a900473ffffffffffffffffffffffffffffffffffffffff1673ffffffffffffffffffffffffffffffffffffffff1673ffffffffffffffffffffffffffffffffffffffff168152602001600282015481526020016003820160009054906101000a900473ffffffffffffffffffffffffffffffffffffffff1673ffffffffffffffffffffffffffffffffffffffff1673ffffffffffffffffffffffffffffffffffffffff1681526020016004820160009054906101000a900473ffffffffffffffffffffffffffffffffffffffff1673ffffffffffffffffffffffffffffffffffffffff1673ffffffffffffffffffffffffffffffffffffffff168152602001600582015481526020016006820160009054906101000a900460ff16151515158152505084868151811061041a57610419611755565b5b602002602001018190525060018561043291906115f9565b945050505b8080610442906116dd565b915050610203565b508094505050505090565b6060600061046360016111b7565b905060008060005b8381101561050c573373ffffffffffffffffffffffffffffffffffffffff166005600060018461049b91906115f9565b815260200190815260200160002060040160009054906101000a900473ffffffffffffffffffffffffffffffffffffffff1673ffffffffffffffffffffffffffffffffffffffff1614156104f9576001836104f691906115f9565b92505b8080610504906116dd565b91505061046b565b5060008267ffffffffffffffff81111561052957610528611784565b5b60405190808252806020026020018201604052801561056257816020015b61054f6111db565b8152602001906001900390816105475790505b50905060005b848110156107ae573373ffffffffffffffffffffffffffffffffffffffff166005600060018461059891906115f9565b815260200190815260200160002060040160009054906101000a900473ffffffffffffffffffffffffffffffffffffffff1673ffffffffffffffffffffffffffffffffffffffff16141561079b576000600560006001846105f991906115f9565b81526020019081526020016000206000015490506000600560008381526020019081526020016000209050806040518060e0016040529081600082015481526020016001820160009054906101000a900473ffffffffffffffffffffffffffffffffffffffff1673ffffffffffffffffffffffffffffffffffffffff1673ffffffffffffffffffffffffffffffffffffffff168152602001600282015481526020016003820160009054906101000a900473ffffffffffffffffffffffffffffffffffffffff1673ffffffffffffffffffffffffffffffffffffffff1673ffffffffffffffffffffffffffffffffffffffff1681526020016004820160009054906101000a900473ffffffffffffffffffffffffffffffffffffffff1673ffffffffffffffffffffffffffffffffffffffff1673ffffffffffffffffffffffffffffffffffffffff168152602001600582015481526020016006820160009054906101000a900460ff16151515158152505084868151811061077e5761077d611755565b5b602002602001018190525060018561079691906115f9565b945050505b80806107a6906116dd565b915050610568565b508094505050505090565b600260005414156107ff576040517f08c379a00000000000000000000000000000000000000000000000000000000081526004016107f690611574565b60405180910390fd5b60026000819055506000811415610842576040517fea86949f00000000000000000000000000000000000000000000000000000000815260040160405180910390fd5b600354341461087d576040517fd8fc352b00000000000000000000000000000000000000000000000000000000815260040160405180910390fd5b61088760016111c5565b600061089360016111b7565b90506040518060e001604052808281526020018573ffffffffffffffffffffffffffffffffffffffff1681526020018481526020013373ffffffffffffffffffffffffffffffffffffffff168152602001600073ffffffffffffffffffffffffffffffffffffffff16815260200183815260200160001515815250600560008381526020019081526020016000206000820151816000015560208201518160010160006101000a81548173ffffffffffffffffffffffffffffffffffffffff021916908373ffffffffffffffffffffffffffffffffffffffff1602179055506040820151816002015560608201518160030160006101000a81548173ffffffffffffffffffffffffffffffffffffffff021916908373ffffffffffffffffffffffffffffffffffffffff16021790555060808201518160040160006101000a81548173ffffffffffffffffffffffffffffffffffffffff021916908373ffffffffffffffffffffffffffffffffffffffff16021790555060a0820151816005015560c08201518160060160006101000a81548160ff0219169083151502179055509050508373ffffffffffffffffffffffffffffffffffffffff166323b872dd3330866040518463ffffffff1660e01b8152600401610a74939291906114d6565b600060405180830381600087803b158015610a8e57600080fd5b505af1158015610aa2573d6000803e3d6000fd5b50505050828473ffffffffffffffffffffffffffffffffffffffff16827f045dfa01dcba2b36aba1d3dc4a874f4b0c5d2fbeb8d2c4b34a7d88c8d8f929d1336000876000604051610af6949392919061150d565b60405180910390a4506001600081905550505050565b3373ffffffffffffffffffffffffffffffffffffffff16600460009054906101000a900473ffffffffffffffffffffffffffffffffffffffff1673ffffffffffffffffffffffffffffffffffffffff1614610b93576040517fd9c2975c00000000000000000000000000000000000000000000000000000000815260040160405180910390fd5b8060038190555050565b60026000541415610be3576040517f08c379a0000000000000000000000000000000000000000000000000000000008152600401610bda90611574565b60405180910390fd5b6002600081905550600060056000838152602001908152602001600020600501549050600060056000848152602001908152602001600020600201549050813414610c5a576040517f75481b7800000000000000000000000000000000000000000000000000000000815260040160405180910390fd5b6005600084815260200190815260200160002060030160009054906101000a900473ffffffffffffffffffffffffffffffffffffffff1673ffffffffffffffffffffffffffffffffffffffff166108fc349081150290604051600060405180830381858888f19350505050158015610cd6573d6000803e3d6000fd5b508373ffffffffffffffffffffffffffffffffffffffff166323b872dd3033846040518463ffffffff1660e01b8152600401610d14939291906114d6565b600060405180830381600087803b158015610d2e57600080fd5b505af1158015610d42573d6000803e3d6000fd5b50505050336005600085815260200190815260200160002060040160006101000a81548173ffffffffffffffffffffffffffffffffffffffff021916908373ffffffffffffffffffffffffffffffffffffffff16021790555060016005600085815260200190815260200160002060060160006101000a81548160ff021916908315150217905550610dd460026111c5565b600460009054906101000a900473ffffffffffffffffffffffffffffffffffffffff1673ffffffffffffffffffffffffffffffffffffffff166108fc6003549081150290604051600060405180830381858888f19350505050158015610e3e573d6000803e3d6000fd5b50505060016000819055505050565b60035481565b60606000610e6160016111b7565b905060008060005b83811015610f0a573373ffffffffffffffffffffffffffffffffffffffff1660056000600184610e9991906115f9565b815260200190815260200160002060030160009054906101000a900473ffffffffffffffffffffffffffffffffffffffff1673ffffffffffffffffffffffffffffffffffffffff161415610ef757600183610ef491906115f9565b92505b8080610f02906116dd565b915050610e69565b5060008267ffffffffffffffff811115610f2757610f26611784565b5b604051908082528060200260200182016040528015610f6057816020015b610f4d6111db565b815260200190600190039081610f455790505b50905060005b848110156111ac573373ffffffffffffffffffffffffffffffffffffffff1660056000600184610f9691906115f9565b815260200190815260200160002060030160009054906101000a900473ffffffffffffffffffffffffffffffffffffffff1673ffffffffffffffffffffffffffffffffffffffff16141561119957600060056000600184610ff791906115f9565b81526020019081526020016000206000015490506000600560008381526020019081526020016000209050806040518060e0016040529081600082015481526020016001820160009054906101000a900473ffffffffffffffffffffffffffffffffffffffff1673ffffffffffffffffffffffffffffffffffffffff1673ffffffffffffffffffffffffffffffffffffffff168152602001600282015481526020016003820160009054906101000a900473ffffffffffffffffffffffffffffffffffffffff1673ffffffffffffffffffffffffffffffffffffffff1673ffffffffffffffffffffffffffffffffffffffff1681526020016004820160009054906101000a900473ffffffffffffffffffffffffffffffffffffffff1673ffffffffffffffffffffffffffffffffffffffff1673ffffffffffffffffffffffffffffffffffffffff168152602001600582015481526020016006820160009054906101000a900460ff16151515158152505084868151811061117c5761117b611755565b5b602002602001018190525060018561119491906115f9565b945050505b80806111a4906116dd565b915050610f66565b508094505050505090565b600081600001549050919050565b6001816000016000828254019250508190555050565b6040518060e0016040528060008152602001600073ffffffffffffffffffffffffffffffffffffffff16815260200160008152602001600073ffffffffffffffffffffffffffffffffffffffff168152602001600073ffffffffffffffffffffffffffffffffffffffff168152602001600081526020016000151581525090565b60008135905061126b816117e1565b92915050565b600081359050611280816117f8565b92915050565b6000806040838503121561129d5761129c6117b3565b5b60006112ab8582860161125c565b92505060206112bc85828601611271565b9150509250929050565b6000806000606084860312156112df576112de6117b3565b5b60006112ed8682870161125c565b93505060206112fe86828701611271565b925050604061130f86828701611271565b9150509250925092565b60006020828403121561132f5761132e6117b3565b5b600061133d84828501611271565b91505092915050565b6000611352838361142a565b60e08301905092915050565b61136781611695565b82525050565b61137681611683565b82525050565b61138581611683565b82525050565b6000611396826115bf565b6113a081856115d7565b93506113ab836115af565b8060005b838110156113dc5781516113c38882611346565b97506113ce836115ca565b9250506001810190506113af565b5085935050505092915050565b6113f2816116a7565b82525050565b611401816116a7565b82525050565b6000611414601f836115e8565b915061141f826117b8565b602082019050919050565b60e08201600082015161144060008501826114b8565b506020820151611453602085018261136d565b50604082015161146660408501826114b8565b506060820151611479606085018261135e565b50608082015161148c608085018261135e565b5060a082015161149f60a08501826114b8565b5060c08201516114b260c08501826113e9565b50505050565b6114c1816116d3565b82525050565b6114d0816116d3565b82525050565b60006060820190506114eb600083018661137c565b6114f8602083018561137c565b61150560408301846114c7565b949350505050565b6000608082019050611522600083018761137c565b61152f602083018661137c565b61153c60408301856114c7565b61154960608301846113f8565b95945050505050565b6000602082019050818103600083015261156c818461138b565b905092915050565b6000602082019050818103600083015261158d81611407565b9050919050565b60006020820190506115a960008301846114c7565b92915050565b6000819050602082019050919050565b600081519050919050565b6000602082019050919050565b600082825260208201905092915050565b600082825260208201905092915050565b6000611604826116d3565b915061160f836116d3565b9250827fffffffffffffffffffffffffffffffffffffffffffffffffffffffffffffffff0382111561164457611643611726565b5b828201905092915050565b600061165a826116d3565b9150611665836116d3565b92508282101561167857611677611726565b5b828203905092915050565b600061168e826116b3565b9050919050565b60006116a0826116b3565b9050919050565b60008115159050919050565b600073ffffffffffffffffffffffffffffffffffffffff82169050919050565b6000819050919050565b60006116e8826116d3565b91507fffffffffffffffffffffffffffffffffffffffffffffffffffffffffffffffff82141561171b5761171a611726565b5b600182019050919050565b7f4e487b7100000000000000000000000000000000000000000000000000000000600052601160045260246000fd5b7f4e487b7100000000000000000000000000000000000000000000000000000000600052603260045260246000fd5b7f4e487b7100000000000000000000000000000000000000000000000000000000600052604160045260246000fd5b600080fd5b7f5265656e7472616e637947756172643a207265656e7472616e742063616c6c00600082015250565b6117ea81611683565b81146117f557600080fd5b50565b611801816116d3565b811461180c57600080fd5b5056fea264697066735822122087a80b892d5fc0bd3ed00f2d2e1ea30056a314c99e7ef103cea5896e8e09d69e64736f6c63430008070033",
					"opcodes": "PUSH1 0x80 PUSH1 0x40 MSTORE PUSH7 0x354A6BA7A18000 PUSH1 0x3 SSTORE CALLVALUE DUP1 ISZERO PUSH2 0x1B JUMPI PUSH1 0x0 DUP1 REVERT JUMPDEST POP PUSH1 0x1 PUSH1 0x0 DUP2 SWAP1 SSTORE POP CALLER PUSH1 0x4 PUSH1 0x0 PUSH2 0x100 EXP DUP2 SLOAD DUP2 PUSH20 0xFFFFFFFFFFFFFFFFFFFFFFFFFFFFFFFFFFFFFFFF MUL NOT AND SWAP1 DUP4 PUSH20 0xFFFFFFFFFFFFFFFFFFFFFFFFFFFFFFFFFFFFFFFF AND MUL OR SWAP1 SSTORE POP PUSH2 0x1845 DUP1 PUSH2 0x74 PUSH1 0x0 CODECOPY PUSH1 0x0 RETURN INVALID PUSH1 0x80 PUSH1 0x40 MSTORE PUSH1 0x4 CALLDATASIZE LT PUSH2 0x70 JUMPI PUSH1 0x0 CALLDATALOAD PUSH1 0xE0 SHR DUP1 PUSH4 0xAE677AA3 GT PUSH2 0x4E JUMPI DUP1 PUSH4 0xAE677AA3 EQ PUSH2 0xE7 JUMPI DUP1 PUSH4 0xC23B139E EQ PUSH2 0x103 JUMPI DUP1 PUSH4 0xC78F19F9 EQ PUSH2 0x11F JUMPI DUP1 PUSH4 0xE1791445 EQ PUSH2 0x14A JUMPI PUSH2 0x70 JUMP JUMPDEST DUP1 PUSH4 0xF08EFE0 EQ PUSH2 0x75 JUMPI DUP1 PUSH4 0x128AE712 EQ PUSH2 0xA0 JUMPI DUP1 PUSH4 0x58EB2DF5 EQ PUSH2 0xCB JUMPI JUMPDEST PUSH1 0x0 DUP1 REVERT JUMPDEST CALLVALUE DUP1 ISZERO PUSH2 0x81 JUMPI PUSH1 0x0 DUP1 REVERT JUMPDEST POP PUSH2 0x8A PUSH2 0x175 JUMP JUMPDEST PUSH1 0x40 MLOAD PUSH2 0x97 SWAP2 SWAP1 PUSH2 0x1552 JUMP JUMPDEST PUSH1 0x40 MLOAD DUP1 SWAP2 SUB SWAP1 RETURN JUMPDEST CALLVALUE DUP1 ISZERO PUSH2 0xAC JUMPI PUSH1 0x0 DUP1 REVERT JUMPDEST POP PUSH2 0xB5 PUSH2 0x455 JUMP JUMPDEST PUSH1 0x40 MLOAD PUSH2 0xC2 SWAP2 SWAP1 PUSH2 0x1552 JUMP JUMPDEST PUSH1 0x40 MLOAD DUP1 SWAP2 SUB SWAP1 RETURN JUMPDEST PUSH2 0xE5 PUSH1 0x4 DUP1 CALLDATASIZE SUB DUP2 ADD SWAP1 PUSH2 0xE0 SWAP2 SWAP1 PUSH2 0x12C6 JUMP JUMPDEST PUSH2 0x7B9 JUMP JUMPDEST STOP JUMPDEST PUSH2 0x101 PUSH1 0x4 DUP1 CALLDATASIZE SUB DUP2 ADD SWAP1 PUSH2 0xFC SWAP2 SWAP1 PUSH2 0x1319 JUMP JUMPDEST PUSH2 0xB0C JUMP JUMPDEST STOP JUMPDEST PUSH2 0x11D PUSH1 0x4 DUP1 CALLDATASIZE SUB DUP2 ADD SWAP1 PUSH2 0x118 SWAP2 SWAP1 PUSH2 0x1286 JUMP JUMPDEST PUSH2 0xB9D JUMP JUMPDEST STOP JUMPDEST CALLVALUE DUP1 ISZERO PUSH2 0x12B JUMPI PUSH1 0x0 DUP1 REVERT JUMPDEST POP PUSH2 0x134 PUSH2 0xE4D JUMP JUMPDEST PUSH1 0x40 MLOAD PUSH2 0x141 SWAP2 SWAP1 PUSH2 0x1594 JUMP JUMPDEST PUSH1 0x40 MLOAD DUP1 SWAP2 SUB SWAP1 RETURN JUMPDEST CALLVALUE DUP1 ISZERO PUSH2 0x156 JUMPI PUSH1 0x0 DUP1 REVERT JUMPDEST POP PUSH2 0x15F PUSH2 0xE53 JUMP JUMPDEST PUSH1 0x40 MLOAD PUSH2 0x16C SWAP2 SWAP1 PUSH2 0x1552 JUMP JUMPDEST PUSH1 0x40 MLOAD DUP1 SWAP2 SUB SWAP1 RETURN JUMPDEST PUSH1 0x60 PUSH1 0x0 PUSH2 0x183 PUSH1 0x1 PUSH2 0x11B7 JUMP JUMPDEST SWAP1 POP PUSH1 0x0 PUSH2 0x191 PUSH1 0x2 PUSH2 0x11B7 JUMP JUMPDEST PUSH2 0x19B PUSH1 0x1 PUSH2 0x11B7 JUMP JUMPDEST PUSH2 0x1A5 SWAP2 SWAP1 PUSH2 0x164F JUMP JUMPDEST SWAP1 POP PUSH1 0x0 DUP1 DUP3 PUSH8 0xFFFFFFFFFFFFFFFF DUP2 GT ISZERO PUSH2 0x1C4 JUMPI PUSH2 0x1C3 PUSH2 0x1784 JUMP JUMPDEST JUMPDEST PUSH1 0x40 MLOAD SWAP1 DUP1 DUP3 MSTORE DUP1 PUSH1 0x20 MUL PUSH1 0x20 ADD DUP3 ADD PUSH1 0x40 MSTORE DUP1 ISZERO PUSH2 0x1FD JUMPI DUP2 PUSH1 0x20 ADD JUMPDEST PUSH2 0x1EA PUSH2 0x11DB JUMP JUMPDEST DUP2 MSTORE PUSH1 0x20 ADD SWAP1 PUSH1 0x1 SWAP1 SUB SWAP1 DUP2 PUSH2 0x1E2 JUMPI SWAP1 POP JUMPDEST POP SWAP1 POP PUSH1 0x0 JUMPDEST DUP5 DUP2 LT ISZERO PUSH2 0x44A JUMPI PUSH1 0x0 PUSH20 0xFFFFFFFFFFFFFFFFFFFFFFFFFFFFFFFFFFFFFFFF AND PUSH1 0x5 PUSH1 0x0 PUSH1 0x1 DUP5 PUSH2 0x234 SWAP2 SWAP1 PUSH2 0x15F9 JUMP JUMPDEST DUP2 MSTORE PUSH1 0x20 ADD SWAP1 DUP2 MSTORE PUSH1 0x20 ADD PUSH1 0x0 KECCAK256 PUSH1 0x4 ADD PUSH1 0x0 SWAP1 SLOAD SWAP1 PUSH2 0x100 EXP SWAP1 DIV PUSH20 0xFFFFFFFFFFFFFFFFFFFFFFFFFFFFFFFFFFFFFFFF AND PUSH20 0xFFFFFFFFFFFFFFFFFFFFFFFFFFFFFFFFFFFFFFFF AND EQ ISZERO PUSH2 0x437 JUMPI PUSH1 0x0 PUSH1 0x5 PUSH1 0x0 PUSH1 0x1 DUP5 PUSH2 0x295 SWAP2 SWAP1 PUSH2 0x15F9 JUMP JUMPDEST DUP2 MSTORE PUSH1 0x20 ADD SWAP1 DUP2 MSTORE PUSH1 0x20 ADD PUSH1 0x0 KECCAK256 PUSH1 0x0 ADD SLOAD SWAP1 POP PUSH1 0x0 PUSH1 0x5 PUSH1 0x0 DUP4 DUP2 MSTORE PUSH1 0x20 ADD SWAP1 DUP2 MSTORE PUSH1 0x20 ADD PUSH1 0x0 KECCAK256 SWAP1 POP DUP1 PUSH1 0x40 MLOAD DUP1 PUSH1 0xE0 ADD PUSH1 0x40 MSTORE SWAP1 DUP2 PUSH1 0x0 DUP3 ADD SLOAD DUP2 MSTORE PUSH1 0x20 ADD PUSH1 0x1 DUP3 ADD PUSH1 0x0 SWAP1 SLOAD SWAP1 PUSH2 0x100 EXP SWAP1 DIV PUSH20 0xFFFFFFFFFFFFFFFFFFFFFFFFFFFFFFFFFFFFFFFF AND PUSH20 0xFFFFFFFFFFFFFFFFFFFFFFFFFFFFFFFFFFFFFFFF AND PUSH20 0xFFFFFFFFFFFFFFFFFFFFFFFFFFFFFFFFFFFFFFFF AND DUP2 MSTORE PUSH1 0x20 ADD PUSH1 0x2 DUP3 ADD SLOAD DUP2 MSTORE PUSH1 0x20 ADD PUSH1 0x3 DUP3 ADD PUSH1 0x0 SWAP1 SLOAD SWAP1 PUSH2 0x100 EXP SWAP1 DIV PUSH20 0xFFFFFFFFFFFFFFFFFFFFFFFFFFFFFFFFFFFFFFFF AND PUSH20 0xFFFFFFFFFFFFFFFFFFFFFFFFFFFFFFFFFFFFFFFF AND PUSH20 0xFFFFFFFFFFFFFFFFFFFFFFFFFFFFFFFFFFFFFFFF AND DUP2 MSTORE PUSH1 0x20 ADD PUSH1 0x4 DUP3 ADD PUSH1 0x0 SWAP1 SLOAD SWAP1 PUSH2 0x100 EXP SWAP1 DIV PUSH20 0xFFFFFFFFFFFFFFFFFFFFFFFFFFFFFFFFFFFFFFFF AND PUSH20 0xFFFFFFFFFFFFFFFFFFFFFFFFFFFFFFFFFFFFFFFF AND PUSH20 0xFFFFFFFFFFFFFFFFFFFFFFFFFFFFFFFFFFFFFFFF AND DUP2 MSTORE PUSH1 0x20 ADD PUSH1 0x5 DUP3 ADD SLOAD DUP2 MSTORE PUSH1 0x20 ADD PUSH1 0x6 DUP3 ADD PUSH1 0x0 SWAP1 SLOAD SWAP1 PUSH2 0x100 EXP SWAP1 DIV PUSH1 0xFF AND ISZERO ISZERO ISZERO ISZERO DUP2 MSTORE POP POP DUP5 DUP7 DUP2 MLOAD DUP2 LT PUSH2 0x41A JUMPI PUSH2 0x419 PUSH2 0x1755 JUMP JUMPDEST JUMPDEST PUSH1 0x20 MUL PUSH1 0x20 ADD ADD DUP2 SWAP1 MSTORE POP PUSH1 0x1 DUP6 PUSH2 0x432 SWAP2 SWAP1 PUSH2 0x15F9 JUMP JUMPDEST SWAP5 POP POP POP JUMPDEST DUP1 DUP1 PUSH2 0x442 SWAP1 PUSH2 0x16DD JUMP JUMPDEST SWAP2 POP POP PUSH2 0x203 JUMP JUMPDEST POP DUP1 SWAP5 POP POP POP POP POP SWAP1 JUMP JUMPDEST PUSH1 0x60 PUSH1 0x0 PUSH2 0x463 PUSH1 0x1 PUSH2 0x11B7 JUMP JUMPDEST SWAP1 POP PUSH1 0x0 DUP1 PUSH1 0x0 JUMPDEST DUP4 DUP2 LT ISZERO PUSH2 0x50C JUMPI CALLER PUSH20 0xFFFFFFFFFFFFFFFFFFFFFFFFFFFFFFFFFFFFFFFF AND PUSH1 0x5 PUSH1 0x0 PUSH1 0x1 DUP5 PUSH2 0x49B SWAP2 SWAP1 PUSH2 0x15F9 JUMP JUMPDEST DUP2 MSTORE PUSH1 0x20 ADD SWAP1 DUP2 MSTORE PUSH1 0x20 ADD PUSH1 0x0 KECCAK256 PUSH1 0x4 ADD PUSH1 0x0 SWAP1 SLOAD SWAP1 PUSH2 0x100 EXP SWAP1 DIV PUSH20 0xFFFFFFFFFFFFFFFFFFFFFFFFFFFFFFFFFFFFFFFF AND PUSH20 0xFFFFFFFFFFFFFFFFFFFFFFFFFFFFFFFFFFFFFFFF AND EQ ISZERO PUSH2 0x4F9 JUMPI PUSH1 0x1 DUP4 PUSH2 0x4F6 SWAP2 SWAP1 PUSH2 0x15F9 JUMP JUMPDEST SWAP3 POP JUMPDEST DUP1 DUP1 PUSH2 0x504 SWAP1 PUSH2 0x16DD JUMP JUMPDEST SWAP2 POP POP PUSH2 0x46B JUMP JUMPDEST POP PUSH1 0x0 DUP3 PUSH8 0xFFFFFFFFFFFFFFFF DUP2 GT ISZERO PUSH2 0x529 JUMPI PUSH2 0x528 PUSH2 0x1784 JUMP JUMPDEST JUMPDEST PUSH1 0x40 MLOAD SWAP1 DUP1 DUP3 MSTORE DUP1 PUSH1 0x20 MUL PUSH1 0x20 ADD DUP3 ADD PUSH1 0x40 MSTORE DUP1 ISZERO PUSH2 0x562 JUMPI DUP2 PUSH1 0x20 ADD JUMPDEST PUSH2 0x54F PUSH2 0x11DB JUMP JUMPDEST DUP2 MSTORE PUSH1 0x20 ADD SWAP1 PUSH1 0x1 SWAP1 SUB SWAP1 DUP2 PUSH2 0x547 JUMPI SWAP1 POP JUMPDEST POP SWAP1 POP PUSH1 0x0 JUMPDEST DUP5 DUP2 LT ISZERO PUSH2 0x7AE JUMPI CALLER PUSH20 0xFFFFFFFFFFFFFFFFFFFFFFFFFFFFFFFFFFFFFFFF AND PUSH1 0x5 PUSH1 0x0 PUSH1 0x1 DUP5 PUSH2 0x598 SWAP2 SWAP1 PUSH2 0x15F9 JUMP JUMPDEST DUP2 MSTORE PUSH1 0x20 ADD SWAP1 DUP2 MSTORE PUSH1 0x20 ADD PUSH1 0x0 KECCAK256 PUSH1 0x4 ADD PUSH1 0x0 SWAP1 SLOAD SWAP1 PUSH2 0x100 EXP SWAP1 DIV PUSH20 0xFFFFFFFFFFFFFFFFFFFFFFFFFFFFFFFFFFFFFFFF AND PUSH20 0xFFFFFFFFFFFFFFFFFFFFFFFFFFFFFFFFFFFFFFFF AND EQ ISZERO PUSH2 0x79B JUMPI PUSH1 0x0 PUSH1 0x5 PUSH1 0x0 PUSH1 0x1 DUP5 PUSH2 0x5F9 SWAP2 SWAP1 PUSH2 0x15F9 JUMP JUMPDEST DUP2 MSTORE PUSH1 0x20 ADD SWAP1 DUP2 MSTORE PUSH1 0x20 ADD PUSH1 0x0 KECCAK256 PUSH1 0x0 ADD SLOAD SWAP1 POP PUSH1 0x0 PUSH1 0x5 PUSH1 0x0 DUP4 DUP2 MSTORE PUSH1 0x20 ADD SWAP1 DUP2 MSTORE PUSH1 0x20 ADD PUSH1 0x0 KECCAK256 SWAP1 POP DUP1 PUSH1 0x40 MLOAD DUP1 PUSH1 0xE0 ADD PUSH1 0x40 MSTORE SWAP1 DUP2 PUSH1 0x0 DUP3 ADD SLOAD DUP2 MSTORE PUSH1 0x20 ADD PUSH1 0x1 DUP3 ADD PUSH1 0x0 SWAP1 SLOAD SWAP1 PUSH2 0x100 EXP SWAP1 DIV PUSH20 0xFFFFFFFFFFFFFFFFFFFFFFFFFFFFFFFFFFFFFFFF AND PUSH20 0xFFFFFFFFFFFFFFFFFFFFFFFFFFFFFFFFFFFFFFFF AND PUSH20 0xFFFFFFFFFFFFFFFFFFFFFFFFFFFFFFFFFFFFFFFF AND DUP2 MSTORE PUSH1 0x20 ADD PUSH1 0x2 DUP3 ADD SLOAD DUP2 MSTORE PUSH1 0x20 ADD PUSH1 0x3 DUP3 ADD PUSH1 0x0 SWAP1 SLOAD SWAP1 PUSH2 0x100 EXP SWAP1 DIV PUSH20 0xFFFFFFFFFFFFFFFFFFFFFFFFFFFFFFFFFFFFFFFF AND PUSH20 0xFFFFFFFFFFFFFFFFFFFFFFFFFFFFFFFFFFFFFFFF AND PUSH20 0xFFFFFFFFFFFFFFFFFFFFFFFFFFFFFFFFFFFFFFFF AND DUP2 MSTORE PUSH1 0x20 ADD PUSH1 0x4 DUP3 ADD PUSH1 0x0 SWAP1 SLOAD SWAP1 PUSH2 0x100 EXP SWAP1 DIV PUSH20 0xFFFFFFFFFFFFFFFFFFFFFFFFFFFFFFFFFFFFFFFF AND PUSH20 0xFFFFFFFFFFFFFFFFFFFFFFFFFFFFFFFFFFFFFFFF AND PUSH20 0xFFFFFFFFFFFFFFFFFFFFFFFFFFFFFFFFFFFFFFFF AND DUP2 MSTORE PUSH1 0x20 ADD PUSH1 0x5 DUP3 ADD SLOAD DUP2 MSTORE PUSH1 0x20 ADD PUSH1 0x6 DUP3 ADD PUSH1 0x0 SWAP1 SLOAD SWAP1 PUSH2 0x100 EXP SWAP1 DIV PUSH1 0xFF AND ISZERO ISZERO ISZERO ISZERO DUP2 MSTORE POP POP DUP5 DUP7 DUP2 MLOAD DUP2 LT PUSH2 0x77E JUMPI PUSH2 0x77D PUSH2 0x1755 JUMP JUMPDEST JUMPDEST PUSH1 0x20 MUL PUSH1 0x20 ADD ADD DUP2 SWAP1 MSTORE POP PUSH1 0x1 DUP6 PUSH2 0x796 SWAP2 SWAP1 PUSH2 0x15F9 JUMP JUMPDEST SWAP5 POP POP POP JUMPDEST DUP1 DUP1 PUSH2 0x7A6 SWAP1 PUSH2 0x16DD JUMP JUMPDEST SWAP2 POP POP PUSH2 0x568 JUMP JUMPDEST POP DUP1 SWAP5 POP POP POP POP POP SWAP1 JUMP JUMPDEST PUSH1 0x2 PUSH1 0x0 SLOAD EQ ISZERO PUSH2 0x7FF JUMPI PUSH1 0x40 MLOAD PUSH32 0x8C379A000000000000000000000000000000000000000000000000000000000 DUP2 MSTORE PUSH1 0x4 ADD PUSH2 0x7F6 SWAP1 PUSH2 0x1574 JUMP JUMPDEST PUSH1 0x40 MLOAD DUP1 SWAP2 SUB SWAP1 REVERT JUMPDEST PUSH1 0x2 PUSH1 0x0 DUP2 SWAP1 SSTORE POP PUSH1 0x0 DUP2 EQ ISZERO PUSH2 0x842 JUMPI PUSH1 0x40 MLOAD PUSH32 0xEA86949F00000000000000000000000000000000000000000000000000000000 DUP2 MSTORE PUSH1 0x4 ADD PUSH1 0x40 MLOAD DUP1 SWAP2 SUB SWAP1 REVERT JUMPDEST PUSH1 0x3 SLOAD CALLVALUE EQ PUSH2 0x87D JUMPI PUSH1 0x40 MLOAD PUSH32 0xD8FC352B00000000000000000000000000000000000000000000000000000000 DUP2 MSTORE PUSH1 0x4 ADD PUSH1 0x40 MLOAD DUP1 SWAP2 SUB SWAP1 REVERT JUMPDEST PUSH2 0x887 PUSH1 0x1 PUSH2 0x11C5 JUMP JUMPDEST PUSH1 0x0 PUSH2 0x893 PUSH1 0x1 PUSH2 0x11B7 JUMP JUMPDEST SWAP1 POP PUSH1 0x40 MLOAD DUP1 PUSH1 0xE0 ADD PUSH1 0x40 MSTORE DUP1 DUP3 DUP2 MSTORE PUSH1 0x20 ADD DUP6 PUSH20 0xFFFFFFFFFFFFFFFFFFFFFFFFFFFFFFFFFFFFFFFF AND DUP2 MSTORE PUSH1 0x20 ADD DUP5 DUP2 MSTORE PUSH1 0x20 ADD CALLER PUSH20 0xFFFFFFFFFFFFFFFFFFFFFFFFFFFFFFFFFFFFFFFF AND DUP2 MSTORE PUSH1 0x20 ADD PUSH1 0x0 PUSH20 0xFFFFFFFFFFFFFFFFFFFFFFFFFFFFFFFFFFFFFFFF AND DUP2 MSTORE PUSH1 0x20 ADD DUP4 DUP2 MSTORE PUSH1 0x20 ADD PUSH1 0x0 ISZERO ISZERO DUP2 MSTORE POP PUSH1 0x5 PUSH1 0x0 DUP4 DUP2 MSTORE PUSH1 0x20 ADD SWAP1 DUP2 MSTORE PUSH1 0x20 ADD PUSH1 0x0 KECCAK256 PUSH1 0x0 DUP3 ADD MLOAD DUP2 PUSH1 0x0 ADD SSTORE PUSH1 0x20 DUP3 ADD MLOAD DUP2 PUSH1 0x1 ADD PUSH1 0x0 PUSH2 0x100 EXP DUP2 SLOAD DUP2 PUSH20 0xFFFFFFFFFFFFFFFFFFFFFFFFFFFFFFFFFFFFFFFF MUL NOT AND SWAP1 DUP4 PUSH20 0xFFFFFFFFFFFFFFFFFFFFFFFFFFFFFFFFFFFFFFFF AND MUL OR SWAP1 SSTORE POP PUSH1 0x40 DUP3 ADD MLOAD DUP2 PUSH1 0x2 ADD SSTORE PUSH1 0x60 DUP3 ADD MLOAD DUP2 PUSH1 0x3 ADD PUSH1 0x0 PUSH2 0x100 EXP DUP2 SLOAD DUP2 PUSH20 0xFFFFFFFFFFFFFFFFFFFFFFFFFFFFFFFFFFFFFFFF MUL NOT AND SWAP1 DUP4 PUSH20 0xFFFFFFFFFFFFFFFFFFFFFFFFFFFFFFFFFFFFFFFF AND MUL OR SWAP1 SSTORE POP PUSH1 0x80 DUP3 ADD MLOAD DUP2 PUSH1 0x4 ADD PUSH1 0x0 PUSH2 0x100 EXP DUP2 SLOAD DUP2 PUSH20 0xFFFFFFFFFFFFFFFFFFFFFFFFFFFFFFFFFFFFFFFF MUL NOT AND SWAP1 DUP4 PUSH20 0xFFFFFFFFFFFFFFFFFFFFFFFFFFFFFFFFFFFFFFFF AND MUL OR SWAP1 SSTORE POP PUSH1 0xA0 DUP3 ADD MLOAD DUP2 PUSH1 0x5 ADD SSTORE PUSH1 0xC0 DUP3 ADD MLOAD DUP2 PUSH1 0x6 ADD PUSH1 0x0 PUSH2 0x100 EXP DUP2 SLOAD DUP2 PUSH1 0xFF MUL NOT AND SWAP1 DUP4 ISZERO ISZERO MUL OR SWAP1 SSTORE POP SWAP1 POP POP DUP4 PUSH20 0xFFFFFFFFFFFFFFFFFFFFFFFFFFFFFFFFFFFFFFFF AND PUSH4 0x23B872DD CALLER ADDRESS DUP7 PUSH1 0x40 MLOAD DUP5 PUSH4 0xFFFFFFFF AND PUSH1 0xE0 SHL DUP2 MSTORE PUSH1 0x4 ADD PUSH2 0xA74 SWAP4 SWAP3 SWAP2 SWAP1 PUSH2 0x14D6 JUMP JUMPDEST PUSH1 0x0 PUSH1 0x40 MLOAD DUP1 DUP4 SUB DUP2 PUSH1 0x0 DUP8 DUP1 EXTCODESIZE ISZERO DUP1 ISZERO PUSH2 0xA8E JUMPI PUSH1 0x0 DUP1 REVERT JUMPDEST POP GAS CALL ISZERO DUP1 ISZERO PUSH2 0xAA2 JUMPI RETURNDATASIZE PUSH1 0x0 DUP1 RETURNDATACOPY RETURNDATASIZE PUSH1 0x0 REVERT JUMPDEST POP POP POP POP DUP3 DUP5 PUSH20 0xFFFFFFFFFFFFFFFFFFFFFFFFFFFFFFFFFFFFFFFF AND DUP3 PUSH32 0x45DFA01DCBA2B36ABA1D3DC4A874F4B0C5D2FBEB8D2C4B34A7D88C8D8F929D1 CALLER PUSH1 0x0 DUP8 PUSH1 0x0 PUSH1 0x40 MLOAD PUSH2 0xAF6 SWAP5 SWAP4 SWAP3 SWAP2 SWAP1 PUSH2 0x150D JUMP JUMPDEST PUSH1 0x40 MLOAD DUP1 SWAP2 SUB SWAP1 LOG4 POP PUSH1 0x1 PUSH1 0x0 DUP2 SWAP1 SSTORE POP POP POP POP JUMP JUMPDEST CALLER PUSH20 0xFFFFFFFFFFFFFFFFFFFFFFFFFFFFFFFFFFFFFFFF AND PUSH1 0x4 PUSH1 0x0 SWAP1 SLOAD SWAP1 PUSH2 0x100 EXP SWAP1 DIV PUSH20 0xFFFFFFFFFFFFFFFFFFFFFFFFFFFFFFFFFFFFFFFF AND PUSH20 0xFFFFFFFFFFFFFFFFFFFFFFFFFFFFFFFFFFFFFFFF AND EQ PUSH2 0xB93 JUMPI PUSH1 0x40 MLOAD PUSH32 0xD9C2975C00000000000000000000000000000000000000000000000000000000 DUP2 MSTORE PUSH1 0x4 ADD PUSH1 0x40 MLOAD DUP1 SWAP2 SUB SWAP1 REVERT JUMPDEST DUP1 PUSH1 0x3 DUP2 SWAP1 SSTORE POP POP JUMP JUMPDEST PUSH1 0x2 PUSH1 0x0 SLOAD EQ ISZERO PUSH2 0xBE3 JUMPI PUSH1 0x40 MLOAD PUSH32 0x8C379A000000000000000000000000000000000000000000000000000000000 DUP2 MSTORE PUSH1 0x4 ADD PUSH2 0xBDA SWAP1 PUSH2 0x1574 JUMP JUMPDEST PUSH1 0x40 MLOAD DUP1 SWAP2 SUB SWAP1 REVERT JUMPDEST PUSH1 0x2 PUSH1 0x0 DUP2 SWAP1 SSTORE POP PUSH1 0x0 PUSH1 0x5 PUSH1 0x0 DUP4 DUP2 MSTORE PUSH1 0x20 ADD SWAP1 DUP2 MSTORE PUSH1 0x20 ADD PUSH1 0x0 KECCAK256 PUSH1 0x5 ADD SLOAD SWAP1 POP PUSH1 0x0 PUSH1 0x5 PUSH1 0x0 DUP5 DUP2 MSTORE PUSH1 0x20 ADD SWAP1 DUP2 MSTORE PUSH1 0x20 ADD PUSH1 0x0 KECCAK256 PUSH1 0x2 ADD SLOAD SWAP1 POP DUP2 CALLVALUE EQ PUSH2 0xC5A JUMPI PUSH1 0x40 MLOAD PUSH32 0x75481B7800000000000000000000000000000000000000000000000000000000 DUP2 MSTORE PUSH1 0x4 ADD PUSH1 0x40 MLOAD DUP1 SWAP2 SUB SWAP1 REVERT JUMPDEST PUSH1 0x5 PUSH1 0x0 DUP5 DUP2 MSTORE PUSH1 0x20 ADD SWAP1 DUP2 MSTORE PUSH1 0x20 ADD PUSH1 0x0 KECCAK256 PUSH1 0x3 ADD PUSH1 0x0 SWAP1 SLOAD SWAP1 PUSH2 0x100 EXP SWAP1 DIV PUSH20 0xFFFFFFFFFFFFFFFFFFFFFFFFFFFFFFFFFFFFFFFF AND PUSH20 0xFFFFFFFFFFFFFFFFFFFFFFFFFFFFFFFFFFFFFFFF AND PUSH2 0x8FC CALLVALUE SWAP1 DUP2 ISZERO MUL SWAP1 PUSH1 0x40 MLOAD PUSH1 0x0 PUSH1 0x40 MLOAD DUP1 DUP4 SUB DUP2 DUP6 DUP9 DUP9 CALL SWAP4 POP POP POP POP ISZERO DUP1 ISZERO PUSH2 0xCD6 JUMPI RETURNDATASIZE PUSH1 0x0 DUP1 RETURNDATACOPY RETURNDATASIZE PUSH1 0x0 REVERT JUMPDEST POP DUP4 PUSH20 0xFFFFFFFFFFFFFFFFFFFFFFFFFFFFFFFFFFFFFFFF AND PUSH4 0x23B872DD ADDRESS CALLER DUP5 PUSH1 0x40 MLOAD DUP5 PUSH4 0xFFFFFFFF AND PUSH1 0xE0 SHL DUP2 MSTORE PUSH1 0x4 ADD PUSH2 0xD14 SWAP4 SWAP3 SWAP2 SWAP1 PUSH2 0x14D6 JUMP JUMPDEST PUSH1 0x0 PUSH1 0x40 MLOAD DUP1 DUP4 SUB DUP2 PUSH1 0x0 DUP8 DUP1 EXTCODESIZE ISZERO DUP1 ISZERO PUSH2 0xD2E JUMPI PUSH1 0x0 DUP1 REVERT JUMPDEST POP GAS CALL ISZERO DUP1 ISZERO PUSH2 0xD42 JUMPI RETURNDATASIZE PUSH1 0x0 DUP1 RETURNDATACOPY RETURNDATASIZE PUSH1 0x0 REVERT JUMPDEST POP POP POP POP CALLER PUSH1 0x5 PUSH1 0x0 DUP6 DUP2 MSTORE PUSH1 0x20 ADD SWAP1 DUP2 MSTORE PUSH1 0x20 ADD PUSH1 0x0 KECCAK256 PUSH1 0x4 ADD PUSH1 0x0 PUSH2 0x100 EXP DUP2 SLOAD DUP2 PUSH20 0xFFFFFFFFFFFFFFFFFFFFFFFFFFFFFFFFFFFFFFFF MUL NOT AND SWAP1 DUP4 PUSH20 0xFFFFFFFFFFFFFFFFFFFFFFFFFFFFFFFFFFFFFFFF AND MUL OR SWAP1 SSTORE POP PUSH1 0x1 PUSH1 0x5 PUSH1 0x0 DUP6 DUP2 MSTORE PUSH1 0x20 ADD SWAP1 DUP2 MSTORE PUSH1 0x20 ADD PUSH1 0x0 KECCAK256 PUSH1 0x6 ADD PUSH1 0x0 PUSH2 0x100 EXP DUP2 SLOAD DUP2 PUSH1 0xFF MUL NOT AND SWAP1 DUP4 ISZERO ISZERO MUL OR SWAP1 SSTORE POP PUSH2 0xDD4 PUSH1 0x2 PUSH2 0x11C5 JUMP JUMPDEST PUSH1 0x4 PUSH1 0x0 SWAP1 SLOAD SWAP1 PUSH2 0x100 EXP SWAP1 DIV PUSH20 0xFFFFFFFFFFFFFFFFFFFFFFFFFFFFFFFFFFFFFFFF AND PUSH20 0xFFFFFFFFFFFFFFFFFFFFFFFFFFFFFFFFFFFFFFFF AND PUSH2 0x8FC PUSH1 0x3 SLOAD SWAP1 DUP2 ISZERO MUL SWAP1 PUSH1 0x40 MLOAD PUSH1 0x0 PUSH1 0x40 MLOAD DUP1 DUP4 SUB DUP2 DUP6 DUP9 DUP9 CALL SWAP4 POP POP POP POP ISZERO DUP1 ISZERO PUSH2 0xE3E JUMPI RETURNDATASIZE PUSH1 0x0 DUP1 RETURNDATACOPY RETURNDATASIZE PUSH1 0x0 REVERT JUMPDEST POP POP POP PUSH1 0x1 PUSH1 0x0 DUP2 SWAP1 SSTORE POP POP POP JUMP JUMPDEST PUSH1 0x3 SLOAD DUP2 JUMP JUMPDEST PUSH1 0x60 PUSH1 0x0 PUSH2 0xE61 PUSH1 0x1 PUSH2 0x11B7 JUMP JUMPDEST SWAP1 POP PUSH1 0x0 DUP1 PUSH1 0x0 JUMPDEST DUP4 DUP2 LT ISZERO PUSH2 0xF0A JUMPI CALLER PUSH20 0xFFFFFFFFFFFFFFFFFFFFFFFFFFFFFFFFFFFFFFFF AND PUSH1 0x5 PUSH1 0x0 PUSH1 0x1 DUP5 PUSH2 0xE99 SWAP2 SWAP1 PUSH2 0x15F9 JUMP JUMPDEST DUP2 MSTORE PUSH1 0x20 ADD SWAP1 DUP2 MSTORE PUSH1 0x20 ADD PUSH1 0x0 KECCAK256 PUSH1 0x3 ADD PUSH1 0x0 SWAP1 SLOAD SWAP1 PUSH2 0x100 EXP SWAP1 DIV PUSH20 0xFFFFFFFFFFFFFFFFFFFFFFFFFFFFFFFFFFFFFFFF AND PUSH20 0xFFFFFFFFFFFFFFFFFFFFFFFFFFFFFFFFFFFFFFFF AND EQ ISZERO PUSH2 0xEF7 JUMPI PUSH1 0x1 DUP4 PUSH2 0xEF4 SWAP2 SWAP1 PUSH2 0x15F9 JUMP JUMPDEST SWAP3 POP JUMPDEST DUP1 DUP1 PUSH2 0xF02 SWAP1 PUSH2 0x16DD JUMP JUMPDEST SWAP2 POP POP PUSH2 0xE69 JUMP JUMPDEST POP PUSH1 0x0 DUP3 PUSH8 0xFFFFFFFFFFFFFFFF DUP2 GT ISZERO PUSH2 0xF27 JUMPI PUSH2 0xF26 PUSH2 0x1784 JUMP JUMPDEST JUMPDEST PUSH1 0x40 MLOAD SWAP1 DUP1 DUP3 MSTORE DUP1 PUSH1 0x20 MUL PUSH1 0x20 ADD DUP3 ADD PUSH1 0x40 MSTORE DUP1 ISZERO PUSH2 0xF60 JUMPI DUP2 PUSH1 0x20 ADD JUMPDEST PUSH2 0xF4D PUSH2 0x11DB JUMP JUMPDEST DUP2 MSTORE PUSH1 0x20 ADD SWAP1 PUSH1 0x1 SWAP1 SUB SWAP1 DUP2 PUSH2 0xF45 JUMPI SWAP1 POP JUMPDEST POP SWAP1 POP PUSH1 0x0 JUMPDEST DUP5 DUP2 LT ISZERO PUSH2 0x11AC JUMPI CALLER PUSH20 0xFFFFFFFFFFFFFFFFFFFFFFFFFFFFFFFFFFFFFFFF AND PUSH1 0x5 PUSH1 0x0 PUSH1 0x1 DUP5 PUSH2 0xF96 SWAP2 SWAP1 PUSH2 0x15F9 JUMP JUMPDEST DUP2 MSTORE PUSH1 0x20 ADD SWAP1 DUP2 MSTORE PUSH1 0x20 ADD PUSH1 0x0 KECCAK256 PUSH1 0x3 ADD PUSH1 0x0 SWAP1 SLOAD SWAP1 PUSH2 0x100 EXP SWAP1 DIV PUSH20 0xFFFFFFFFFFFFFFFFFFFFFFFFFFFFFFFFFFFFFFFF AND PUSH20 0xFFFFFFFFFFFFFFFFFFFFFFFFFFFFFFFFFFFFFFFF AND EQ ISZERO PUSH2 0x1199 JUMPI PUSH1 0x0 PUSH1 0x5 PUSH1 0x0 PUSH1 0x1 DUP5 PUSH2 0xFF7 SWAP2 SWAP1 PUSH2 0x15F9 JUMP JUMPDEST DUP2 MSTORE PUSH1 0x20 ADD SWAP1 DUP2 MSTORE PUSH1 0x20 ADD PUSH1 0x0 KECCAK256 PUSH1 0x0 ADD SLOAD SWAP1 POP PUSH1 0x0 PUSH1 0x5 PUSH1 0x0 DUP4 DUP2 MSTORE PUSH1 0x20 ADD SWAP1 DUP2 MSTORE PUSH1 0x20 ADD PUSH1 0x0 KECCAK256 SWAP1 POP DUP1 PUSH1 0x40 MLOAD DUP1 PUSH1 0xE0 ADD PUSH1 0x40 MSTORE SWAP1 DUP2 PUSH1 0x0 DUP3 ADD SLOAD DUP2 MSTORE PUSH1 0x20 ADD PUSH1 0x1 DUP3 ADD PUSH1 0x0 SWAP1 SLOAD SWAP1 PUSH2 0x100 EXP SWAP1 DIV PUSH20 0xFFFFFFFFFFFFFFFFFFFFFFFFFFFFFFFFFFFFFFFF AND PUSH20 0xFFFFFFFFFFFFFFFFFFFFFFFFFFFFFFFFFFFFFFFF AND PUSH20 0xFFFFFFFFFFFFFFFFFFFFFFFFFFFFFFFFFFFFFFFF AND DUP2 MSTORE PUSH1 0x20 ADD PUSH1 0x2 DUP3 ADD SLOAD DUP2 MSTORE PUSH1 0x20 ADD PUSH1 0x3 DUP3 ADD PUSH1 0x0 SWAP1 SLOAD SWAP1 PUSH2 0x100 EXP SWAP1 DIV PUSH20 0xFFFFFFFFFFFFFFFFFFFFFFFFFFFFFFFFFFFFFFFF AND PUSH20 0xFFFFFFFFFFFFFFFFFFFFFFFFFFFFFFFFFFFFFFFF AND PUSH20 0xFFFFFFFFFFFFFFFFFFFFFFFFFFFFFFFFFFFFFFFF AND DUP2 MSTORE PUSH1 0x20 ADD PUSH1 0x4 DUP3 ADD PUSH1 0x0 SWAP1 SLOAD SWAP1 PUSH2 0x100 EXP SWAP1 DIV PUSH20 0xFFFFFFFFFFFFFFFFFFFFFFFFFFFFFFFFFFFFFFFF AND PUSH20 0xFFFFFFFFFFFFFFFFFFFFFFFFFFFFFFFFFFFFFFFF AND PUSH20 0xFFFFFFFFFFFFFFFFFFFFFFFFFFFFFFFFFFFFFFFF AND DUP2 MSTORE PUSH1 0x20 ADD PUSH1 0x5 DUP3 ADD SLOAD DUP2 MSTORE PUSH1 0x20 ADD PUSH1 0x6 DUP3 ADD PUSH1 0x0 SWAP1 SLOAD SWAP1 PUSH2 0x100 EXP SWAP1 DIV PUSH1 0xFF AND ISZERO ISZERO ISZERO ISZERO DUP2 MSTORE POP POP DUP5 DUP7 DUP2 MLOAD DUP2 LT PUSH2 0x117C JUMPI PUSH2 0x117B PUSH2 0x1755 JUMP JUMPDEST JUMPDEST PUSH1 0x20 MUL PUSH1 0x20 ADD ADD DUP2 SWAP1 MSTORE POP PUSH1 0x1 DUP6 PUSH2 0x1194 SWAP2 SWAP1 PUSH2 0x15F9 JUMP JUMPDEST SWAP5 POP POP POP JUMPDEST DUP1 DUP1 PUSH2 0x11A4 SWAP1 PUSH2 0x16DD JUMP JUMPDEST SWAP2 POP POP PUSH2 0xF66 JUMP JUMPDEST POP DUP1 SWAP5 POP POP POP POP POP SWAP1 JUMP JUMPDEST PUSH1 0x0 DUP2 PUSH1 0x0 ADD SLOAD SWAP1 POP SWAP2 SWAP1 POP JUMP JUMPDEST PUSH1 0x1 DUP2 PUSH1 0x0 ADD PUSH1 0x0 DUP3 DUP3 SLOAD ADD SWAP3 POP POP DUP2 SWAP1 SSTORE POP POP JUMP JUMPDEST PUSH1 0x40 MLOAD DUP1 PUSH1 0xE0 ADD PUSH1 0x40 MSTORE DUP1 PUSH1 0x0 DUP2 MSTORE PUSH1 0x20 ADD PUSH1 0x0 PUSH20 0xFFFFFFFFFFFFFFFFFFFFFFFFFFFFFFFFFFFFFFFF AND DUP2 MSTORE PUSH1 0x20 ADD PUSH1 0x0 DUP2 MSTORE PUSH1 0x20 ADD PUSH1 0x0 PUSH20 0xFFFFFFFFFFFFFFFFFFFFFFFFFFFFFFFFFFFFFFFF AND DUP2 MSTORE PUSH1 0x20 ADD PUSH1 0x0 PUSH20 0xFFFFFFFFFFFFFFFFFFFFFFFFFFFFFFFFFFFFFFFF AND DUP2 MSTORE PUSH1 0x20 ADD PUSH1 0x0 DUP2 MSTORE PUSH1 0x20 ADD PUSH1 0x0 ISZERO ISZERO DUP2 MSTORE POP SWAP1 JUMP JUMPDEST PUSH1 0x0 DUP2 CALLDATALOAD SWAP1 POP PUSH2 0x126B DUP2 PUSH2 0x17E1 JUMP JUMPDEST SWAP3 SWAP2 POP POP JUMP JUMPDEST PUSH1 0x0 DUP2 CALLDATALOAD SWAP1 POP PUSH2 0x1280 DUP2 PUSH2 0x17F8 JUMP JUMPDEST SWAP3 SWAP2 POP POP JUMP JUMPDEST PUSH1 0x0 DUP1 PUSH1 0x40 DUP4 DUP6 SUB SLT ISZERO PUSH2 0x129D JUMPI PUSH2 0x129C PUSH2 0x17B3 JUMP JUMPDEST JUMPDEST PUSH1 0x0 PUSH2 0x12AB DUP6 DUP3 DUP7 ADD PUSH2 0x125C JUMP JUMPDEST SWAP3 POP POP PUSH1 0x20 PUSH2 0x12BC DUP6 DUP3 DUP7 ADD PUSH2 0x1271 JUMP JUMPDEST SWAP2 POP POP SWAP3 POP SWAP3 SWAP1 POP JUMP JUMPDEST PUSH1 0x0 DUP1 PUSH1 0x0 PUSH1 0x60 DUP5 DUP7 SUB SLT ISZERO PUSH2 0x12DF JUMPI PUSH2 0x12DE PUSH2 0x17B3 JUMP JUMPDEST JUMPDEST PUSH1 0x0 PUSH2 0x12ED DUP7 DUP3 DUP8 ADD PUSH2 0x125C JUMP JUMPDEST SWAP4 POP POP PUSH1 0x20 PUSH2 0x12FE DUP7 DUP3 DUP8 ADD PUSH2 0x1271 JUMP JUMPDEST SWAP3 POP POP PUSH1 0x40 PUSH2 0x130F DUP7 DUP3 DUP8 ADD PUSH2 0x1271 JUMP JUMPDEST SWAP2 POP POP SWAP3 POP SWAP3 POP SWAP3 JUMP JUMPDEST PUSH1 0x0 PUSH1 0x20 DUP3 DUP5 SUB SLT ISZERO PUSH2 0x132F JUMPI PUSH2 0x132E PUSH2 0x17B3 JUMP JUMPDEST JUMPDEST PUSH1 0x0 PUSH2 0x133D DUP5 DUP3 DUP6 ADD PUSH2 0x1271 JUMP JUMPDEST SWAP2 POP POP SWAP3 SWAP2 POP POP JUMP JUMPDEST PUSH1 0x0 PUSH2 0x1352 DUP4 DUP4 PUSH2 0x142A JUMP JUMPDEST PUSH1 0xE0 DUP4 ADD SWAP1 POP SWAP3 SWAP2 POP POP JUMP JUMPDEST PUSH2 0x1367 DUP2 PUSH2 0x1695 JUMP JUMPDEST DUP3 MSTORE POP POP JUMP JUMPDEST PUSH2 0x1376 DUP2 PUSH2 0x1683 JUMP JUMPDEST DUP3 MSTORE POP POP JUMP JUMPDEST PUSH2 0x1385 DUP2 PUSH2 0x1683 JUMP JUMPDEST DUP3 MSTORE POP POP JUMP JUMPDEST PUSH1 0x0 PUSH2 0x1396 DUP3 PUSH2 0x15BF JUMP JUMPDEST PUSH2 0x13A0 DUP2 DUP6 PUSH2 0x15D7 JUMP JUMPDEST SWAP4 POP PUSH2 0x13AB DUP4 PUSH2 0x15AF JUMP JUMPDEST DUP1 PUSH1 0x0 JUMPDEST DUP4 DUP2 LT ISZERO PUSH2 0x13DC JUMPI DUP2 MLOAD PUSH2 0x13C3 DUP9 DUP3 PUSH2 0x1346 JUMP JUMPDEST SWAP8 POP PUSH2 0x13CE DUP4 PUSH2 0x15CA JUMP JUMPDEST SWAP3 POP POP PUSH1 0x1 DUP2 ADD SWAP1 POP PUSH2 0x13AF JUMP JUMPDEST POP DUP6 SWAP4 POP POP POP POP SWAP3 SWAP2 POP POP JUMP JUMPDEST PUSH2 0x13F2 DUP2 PUSH2 0x16A7 JUMP JUMPDEST DUP3 MSTORE POP POP JUMP JUMPDEST PUSH2 0x1401 DUP2 PUSH2 0x16A7 JUMP JUMPDEST DUP3 MSTORE POP POP JUMP JUMPDEST PUSH1 0x0 PUSH2 0x1414 PUSH1 0x1F DUP4 PUSH2 0x15E8 JUMP JUMPDEST SWAP2 POP PUSH2 0x141F DUP3 PUSH2 0x17B8 JUMP JUMPDEST PUSH1 0x20 DUP3 ADD SWAP1 POP SWAP2 SWAP1 POP JUMP JUMPDEST PUSH1 0xE0 DUP3 ADD PUSH1 0x0 DUP3 ADD MLOAD PUSH2 0x1440 PUSH1 0x0 DUP6 ADD DUP3 PUSH2 0x14B8 JUMP JUMPDEST POP PUSH1 0x20 DUP3 ADD MLOAD PUSH2 0x1453 PUSH1 0x20 DUP6 ADD DUP3 PUSH2 0x136D JUMP JUMPDEST POP PUSH1 0x40 DUP3 ADD MLOAD PUSH2 0x1466 PUSH1 0x40 DUP6 ADD DUP3 PUSH2 0x14B8 JUMP JUMPDEST POP PUSH1 0x60 DUP3 ADD MLOAD PUSH2 0x1479 PUSH1 0x60 DUP6 ADD DUP3 PUSH2 0x135E JUMP JUMPDEST POP PUSH1 0x80 DUP3 ADD MLOAD PUSH2 0x148C PUSH1 0x80 DUP6 ADD DUP3 PUSH2 0x135E JUMP JUMPDEST POP PUSH1 0xA0 DUP3 ADD MLOAD PUSH2 0x149F PUSH1 0xA0 DUP6 ADD DUP3 PUSH2 0x14B8 JUMP JUMPDEST POP PUSH1 0xC0 DUP3 ADD MLOAD PUSH2 0x14B2 PUSH1 0xC0 DUP6 ADD DUP3 PUSH2 0x13E9 JUMP JUMPDEST POP POP POP POP JUMP JUMPDEST PUSH2 0x14C1 DUP2 PUSH2 0x16D3 JUMP JUMPDEST DUP3 MSTORE POP POP JUMP JUMPDEST PUSH2 0x14D0 DUP2 PUSH2 0x16D3 JUMP JUMPDEST DUP3 MSTORE POP POP JUMP JUMPDEST PUSH1 0x0 PUSH1 0x60 DUP3 ADD SWAP1 POP PUSH2 0x14EB PUSH1 0x0 DUP4 ADD DUP7 PUSH2 0x137C JUMP JUMPDEST PUSH2 0x14F8 PUSH1 0x20 DUP4 ADD DUP6 PUSH2 0x137C JUMP JUMPDEST PUSH2 0x1505 PUSH1 0x40 DUP4 ADD DUP5 PUSH2 0x14C7 JUMP JUMPDEST SWAP5 SWAP4 POP POP POP POP JUMP JUMPDEST PUSH1 0x0 PUSH1 0x80 DUP3 ADD SWAP1 POP PUSH2 0x1522 PUSH1 0x0 DUP4 ADD DUP8 PUSH2 0x137C JUMP JUMPDEST PUSH2 0x152F PUSH1 0x20 DUP4 ADD DUP7 PUSH2 0x137C JUMP JUMPDEST PUSH2 0x153C PUSH1 0x40 DUP4 ADD DUP6 PUSH2 0x14C7 JUMP JUMPDEST PUSH2 0x1549 PUSH1 0x60 DUP4 ADD DUP5 PUSH2 0x13F8 JUMP JUMPDEST SWAP6 SWAP5 POP POP POP POP POP JUMP JUMPDEST PUSH1 0x0 PUSH1 0x20 DUP3 ADD SWAP1 POP DUP2 DUP2 SUB PUSH1 0x0 DUP4 ADD MSTORE PUSH2 0x156C DUP2 DUP5 PUSH2 0x138B JUMP JUMPDEST SWAP1 POP SWAP3 SWAP2 POP POP JUMP JUMPDEST PUSH1 0x0 PUSH1 0x20 DUP3 ADD SWAP1 POP DUP2 DUP2 SUB PUSH1 0x0 DUP4 ADD MSTORE PUSH2 0x158D DUP2 PUSH2 0x1407 JUMP JUMPDEST SWAP1 POP SWAP2 SWAP1 POP JUMP JUMPDEST PUSH1 0x0 PUSH1 0x20 DUP3 ADD SWAP1 POP PUSH2 0x15A9 PUSH1 0x0 DUP4 ADD DUP5 PUSH2 0x14C7 JUMP JUMPDEST SWAP3 SWAP2 POP POP JUMP JUMPDEST PUSH1 0x0 DUP2 SWAP1 POP PUSH1 0x20 DUP3 ADD SWAP1 POP SWAP2 SWAP1 POP JUMP JUMPDEST PUSH1 0x0 DUP2 MLOAD SWAP1 POP SWAP2 SWAP1 POP JUMP JUMPDEST PUSH1 0x0 PUSH1 0x20 DUP3 ADD SWAP1 POP SWAP2 SWAP1 POP JUMP JUMPDEST PUSH1 0x0 DUP3 DUP3 MSTORE PUSH1 0x20 DUP3 ADD SWAP1 POP SWAP3 SWAP2 POP POP JUMP JUMPDEST PUSH1 0x0 DUP3 DUP3 MSTORE PUSH1 0x20 DUP3 ADD SWAP1 POP SWAP3 SWAP2 POP POP JUMP JUMPDEST PUSH1 0x0 PUSH2 0x1604 DUP3 PUSH2 0x16D3 JUMP JUMPDEST SWAP2 POP PUSH2 0x160F DUP4 PUSH2 0x16D3 JUMP JUMPDEST SWAP3 POP DUP3 PUSH32 0xFFFFFFFFFFFFFFFFFFFFFFFFFFFFFFFFFFFFFFFFFFFFFFFFFFFFFFFFFFFFFFFF SUB DUP3 GT ISZERO PUSH2 0x1644 JUMPI PUSH2 0x1643 PUSH2 0x1726 JUMP JUMPDEST JUMPDEST DUP3 DUP3 ADD SWAP1 POP SWAP3 SWAP2 POP POP JUMP JUMPDEST PUSH1 0x0 PUSH2 0x165A DUP3 PUSH2 0x16D3 JUMP JUMPDEST SWAP2 POP PUSH2 0x1665 DUP4 PUSH2 0x16D3 JUMP JUMPDEST SWAP3 POP DUP3 DUP3 LT ISZERO PUSH2 0x1678 JUMPI PUSH2 0x1677 PUSH2 0x1726 JUMP JUMPDEST JUMPDEST DUP3 DUP3 SUB SWAP1 POP SWAP3 SWAP2 POP POP JUMP JUMPDEST PUSH1 0x0 PUSH2 0x168E DUP3 PUSH2 0x16B3 JUMP JUMPDEST SWAP1 POP SWAP2 SWAP1 POP JUMP JUMPDEST PUSH1 0x0 PUSH2 0x16A0 DUP3 PUSH2 0x16B3 JUMP JUMPDEST SWAP1 POP SWAP2 SWAP1 POP JUMP JUMPDEST PUSH1 0x0 DUP2 ISZERO ISZERO SWAP1 POP SWAP2 SWAP1 POP JUMP JUMPDEST PUSH1 0x0 PUSH20 0xFFFFFFFFFFFFFFFFFFFFFFFFFFFFFFFFFFFFFFFF DUP3 AND SWAP1 POP SWAP2 SWAP1 POP JUMP JUMPDEST PUSH1 0x0 DUP2 SWAP1 POP SWAP2 SWAP1 POP JUMP JUMPDEST PUSH1 0x0 PUSH2 0x16E8 DUP3 PUSH2 0x16D3 JUMP JUMPDEST SWAP2 POP PUSH32 0xFFFFFFFFFFFFFFFFFFFFFFFFFFFFFFFFFFFFFFFFFFFFFFFFFFFFFFFFFFFFFFFF DUP3 EQ ISZERO PUSH2 0x171B JUMPI PUSH2 0x171A PUSH2 0x1726 JUMP JUMPDEST JUMPDEST PUSH1 0x1 DUP3 ADD SWAP1 POP SWAP2 SWAP1 POP JUMP JUMPDEST PUSH32 0x4E487B7100000000000000000000000000000000000000000000000000000000 PUSH1 0x0 MSTORE PUSH1 0x11 PUSH1 0x4 MSTORE PUSH1 0x24 PUSH1 0x0 REVERT JUMPDEST PUSH32 0x4E487B7100000000000000000000000000000000000000000000000000000000 PUSH1 0x0 MSTORE PUSH1 0x32 PUSH1 0x4 MSTORE PUSH1 0x24 PUSH1 0x0 REVERT JUMPDEST PUSH32 0x4E487B7100000000000000000000000000000000000000000000000000000000 PUSH1 0x0 MSTORE PUSH1 0x41 PUSH1 0x4 MSTORE PUSH1 0x24 PUSH1 0x0 REVERT JUMPDEST PUSH1 0x0 DUP1 REVERT JUMPDEST PUSH32 0x5265656E7472616E637947756172643A207265656E7472616E742063616C6C00 PUSH1 0x0 DUP3 ADD MSTORE POP JUMP JUMPDEST PUSH2 0x17EA DUP2 PUSH2 0x1683 JUMP JUMPDEST DUP2 EQ PUSH2 0x17F5 JUMPI PUSH1 0x0 DUP1 REVERT JUMPDEST POP JUMP JUMPDEST PUSH2 0x1801 DUP2 PUSH2 0x16D3 JUMP JUMPDEST DUP2 EQ PUSH2 0x180C JUMPI PUSH1 0x0 DUP1 REVERT JUMPDEST POP JUMP INVALID LOG2 PUSH5 0x6970667358 0x22 SLT KECCAK256 DUP8 0xA8 SIGNEXTEND DUP10 0x2D 0x5F 0xC0 0xBD RETURNDATACOPY 0xD0 0xF 0x2D 0x2E 0x1E LOG3 STOP JUMP LOG3 EQ 0xC9 SWAP15 PUSH31 0xF103CEA5896E8E09D69E64736F6C6343000807003300000000000000000000 "
				},
				"gasEstimates": {
					"creation": {
						"codeDepositCost": "1242600",
						"executionCost": "69781",
						"totalCost": "1312381"
					},
					"external": {
						"createMarketItem(address,uint256,uint256)": "infinite",
						"createMarketSale(address,uint256)": "infinite",
						"fetchItemListed()": "infinite",
						"fetchMarketItems()": "infinite",
						"fetchMyNfts()": "infinite",
						"listingPrice()": "2473",
						"updateListingPrice(uint256)": "24666"
					}
				},
				"methodIdentifiers": {
					"createMarketItem(address,uint256,uint256)": "58eb2df5",
					"createMarketSale(address,uint256)": "c23b139e",
					"fetchItemListed()": "e1791445",
					"fetchMarketItems()": "0f08efe0",
					"fetchMyNfts()": "128ae712",
					"listingPrice()": "c78f19f9",
					"updateListingPrice(uint256)": "ae677aa3"
				}
			},
			"storageLayout": {
				"storage": [
					{
						"astId": 10,
						"contract": "src/nftMarketPlace.sol:NFTMarketplace",
						"label": "_status",
						"offset": 0,
						"slot": "0",
						"type": "t_uint256"
					},
					{
						"astId": 1766,
						"contract": "src/nftMarketPlace.sol:NFTMarketplace",
						"label": "_itemIds",
						"offset": 0,
						"slot": "1",
						"type": "t_struct(Counter)1422_storage"
					},
					{
						"astId": 1769,
						"contract": "src/nftMarketPlace.sol:NFTMarketplace",
						"label": "_itemsSold",
						"offset": 0,
						"slot": "2",
						"type": "t_struct(Counter)1422_storage"
					},
					{
						"astId": 1772,
						"contract": "src/nftMarketPlace.sol:NFTMarketplace",
						"label": "listingPrice",
						"offset": 0,
						"slot": "3",
						"type": "t_uint256"
					},
					{
						"astId": 1774,
						"contract": "src/nftMarketPlace.sol:NFTMarketplace",
						"label": "owner",
						"offset": 0,
						"slot": "4",
						"type": "t_address_payable"
					},
					{
						"astId": 1794,
						"contract": "src/nftMarketPlace.sol:NFTMarketplace",
						"label": "idToMarketItem",
						"offset": 0,
						"slot": "5",
						"type": "t_mapping(t_uint256,t_struct(MarketItem)1789_storage)"
					}
				],
				"types": {
					"t_address": {
						"encoding": "inplace",
						"label": "address",
						"numberOfBytes": "20"
					},
					"t_address_payable": {
						"encoding": "inplace",
						"label": "address payable",
						"numberOfBytes": "20"
					},
					"t_bool": {
						"encoding": "inplace",
						"label": "bool",
						"numberOfBytes": "1"
					},
					"t_mapping(t_uint256,t_struct(MarketItem)1789_storage)": {
						"encoding": "mapping",
						"key": "t_uint256",
						"label": "mapping(uint256 => struct NFTMarketplace.MarketItem)",
						"numberOfBytes": "32",
						"value": "t_struct(MarketItem)1789_storage"
					},
					"t_struct(Counter)1422_storage": {
						"encoding": "inplace",
						"label": "struct Counters.Counter",
						"members": [
							{
								"astId": 1421,
								"contract": "src/nftMarketPlace.sol:NFTMarketplace",
								"label": "_value",
								"offset": 0,
								"slot": "0",
								"type": "t_uint256"
							}
						],
						"numberOfBytes": "32"
					},
					"t_struct(MarketItem)1789_storage": {
						"encoding": "inplace",
						"label": "struct NFTMarketplace.MarketItem",
						"members": [
							{
								"astId": 1776,
								"contract": "src/nftMarketPlace.sol:NFTMarketplace",
								"label": "itemId",
								"offset": 0,
								"slot": "0",
								"type": "t_uint256"
							},
							{
								"astId": 1778,
								"contract": "src/nftMarketPlace.sol:NFTMarketplace",
								"label": "nftContract",
								"offset": 0,
								"slot": "1",
								"type": "t_address"
							},
							{
								"astId": 1780,
								"contract": "src/nftMarketPlace.sol:NFTMarketplace",
								"label": "tokenId",
								"offset": 0,
								"slot": "2",
								"type": "t_uint256"
							},
							{
								"astId": 1782,
								"contract": "src/nftMarketPlace.sol:NFTMarketplace",
								"label": "seller",
								"offset": 0,
								"slot": "3",
								"type": "t_address_payable"
							},
							{
								"astId": 1784,
								"contract": "src/nftMarketPlace.sol:NFTMarketplace",
								"label": "owner",
								"offset": 0,
								"slot": "4",
								"type": "t_address_payable"
							},
							{
								"astId": 1786,
								"contract": "src/nftMarketPlace.sol:NFTMarketplace",
								"label": "price",
								"offset": 0,
								"slot": "5",
								"type": "t_uint256"
							},
							{
								"astId": 1788,
								"contract": "src/nftMarketPlace.sol:NFTMarketplace",
								"label": "sold",
								"offset": 0,
								"slot": "6",
								"type": "t_bool"
							}
						],
						"numberOfBytes": "224"
					},
					"t_uint256": {
						"encoding": "inplace",
						"label": "uint256",
						"numberOfBytes": "32"
					}
				}
			},
			"userdoc": {
				"kind": "user",
				"methods": {},
				"version": 1
			}
		}
	}
}