{
	"src/nftMarketPlace.sol": {
		"NFTMarketplace": {
			"abi": [
				{
					"inputs": [],
					"stateMutability": "nonpayable",
					"type": "constructor"
				},
				{
					"inputs": [],
					"name": "OnlyOwnerCanUpDatePrice",
					"type": "error"
				},
				{
					"inputs": [],
					"name": "notAskingPrice",
					"type": "error"
				},
				{
					"inputs": [],
					"name": "priceMustBeEqualToListingPrice",
					"type": "error"
				},
				{
					"inputs": [],
					"name": "priceMustBeGreaterThanOneGwei",
					"type": "error"
				},
				{
					"inputs": [],
					"name": "priceMustEqualListingPrice",
					"type": "error"
				},
				{
					"anonymous": false,
					"inputs": [
						{
							"indexed": true,
							"internalType": "uint256",
							"name": "itemId",
							"type": "uint256"
						},
						{
							"indexed": true,
							"internalType": "address",
							"name": "nftContract",
							"type": "address"
						},
						{
							"indexed": true,
							"internalType": "uint256",
							"name": "tokenId",
							"type": "uint256"
						},
						{
							"indexed": false,
							"internalType": "address",
							"name": "seller",
							"type": "address"
						},
						{
							"indexed": false,
							"internalType": "address",
							"name": "owner",
							"type": "address"
						},
						{
							"indexed": false,
							"internalType": "uint256",
							"name": "price",
							"type": "uint256"
						},
						{
							"indexed": false,
							"internalType": "bool",
							"name": "sold",
							"type": "bool"
						}
					],
					"name": "MarketItemCreated",
					"type": "event"
				},
				{
					"inputs": [
						{
							"internalType": "address",
							"name": "nftContract",
							"type": "address"
						},
						{
							"internalType": "uint256",
							"name": "tokenId",
							"type": "uint256"
						},
						{
							"internalType": "uint256",
							"name": "price",
							"type": "uint256"
						}
					],
					"name": "createMarketItem",
					"outputs": [],
					"stateMutability": "payable",
					"type": "function"
				},
				{
					"inputs": [
						{
							"internalType": "address",
							"name": "nftContract",
							"type": "address"
						},
						{
							"internalType": "uint256",
							"name": "itemId",
							"type": "uint256"
						}
					],
					"name": "createMarketSale",
					"outputs": [],
					"stateMutability": "payable",
					"type": "function"
				},
				{
					"inputs": [],
					"name": "fetchItemCreated",
					"outputs": [
						{
							"components": [
								{
									"internalType": "uint256",
									"name": "itemId",
									"type": "uint256"
								},
								{
									"internalType": "address",
									"name": "nftContract",
									"type": "address"
								},
								{
									"internalType": "uint256",
									"name": "tokenId",
									"type": "uint256"
								},
								{
									"internalType": "address payable",
									"name": "seller",
									"type": "address"
								},
								{
									"internalType": "address payable",
									"name": "owner",
									"type": "address"
								},
								{
									"internalType": "uint256",
									"name": "price",
									"type": "uint256"
								},
								{
									"internalType": "bool",
									"name": "sold",
									"type": "bool"
								}
							],
							"internalType": "struct NFTMarketplace.MarketItem[]",
							"name": "",
							"type": "tuple[]"
						}
					],
					"stateMutability": "view",
					"type": "function"
				},
				{
					"inputs": [],
					"name": "fetchMarketItems",
					"outputs": [
						{
							"components": [
								{
									"internalType": "uint256",
									"name": "itemId",
									"type": "uint256"
								},
								{
									"internalType": "address",
									"name": "nftContract",
									"type": "address"
								},
								{
									"internalType": "uint256",
									"name": "tokenId",
									"type": "uint256"
								},
								{
									"internalType": "address payable",
									"name": "seller",
									"type": "address"
								},
								{
									"internalType": "address payable",
									"name": "owner",
									"type": "address"
								},
								{
									"internalType": "uint256",
									"name": "price",
									"type": "uint256"
								},
								{
									"internalType": "bool",
									"name": "sold",
									"type": "bool"
								}
							],
							"internalType": "struct NFTMarketplace.MarketItem[]",
							"name": "",
							"type": "tuple[]"
						}
					],
					"stateMutability": "view",
					"type": "function"
				},
				{
					"inputs": [],
					"name": "fetchMyNfts",
					"outputs": [
						{
							"components": [
								{
									"internalType": "uint256",
									"name": "itemId",
									"type": "uint256"
								},
								{
									"internalType": "address",
									"name": "nftContract",
									"type": "address"
								},
								{
									"internalType": "uint256",
									"name": "tokenId",
									"type": "uint256"
								},
								{
									"internalType": "address payable",
									"name": "seller",
									"type": "address"
								},
								{
									"internalType": "address payable",
									"name": "owner",
									"type": "address"
								},
								{
									"internalType": "uint256",
									"name": "price",
									"type": "uint256"
								},
								{
									"internalType": "bool",
									"name": "sold",
									"type": "bool"
								}
							],
							"internalType": "struct NFTMarketplace.MarketItem[]",
							"name": "",
							"type": "tuple[]"
						}
					],
					"stateMutability": "view",
					"type": "function"
				},
				{
					"inputs": [],
					"name": "listingPrice",
					"outputs": [
						{
							"internalType": "uint256",
							"name": "",
							"type": "uint256"
						}
					],
					"stateMutability": "view",
					"type": "function"
				},
				{
					"inputs": [
						{
							"internalType": "uint256",
							"name": "_listingprice",
							"type": "uint256"
						}
					],
					"name": "updateListingPrice",
					"outputs": [],
					"stateMutability": "payable",
					"type": "function"
				}
			],
			"devdoc": {
				"kind": "dev",
				"methods": {},
				"version": 1
			},
			"evm": {
				"assembly": "    /* \"src/nftMarketPlace.sol\":361:5619  contract NFTMarketplace is ReentrancyGuard{... */\n  mstore(0x40, 0x80)\n    /* \"src/nftMarketPlace.sol\":632:640  10 ether */\n  0x8ac7230489e80000\n    /* \"src/nftMarketPlace.sol\":602:640  uint256 public listingPrice = 10 ether */\n  0x03\n  sstore\n    /* \"src/nftMarketPlace.sol\":1443:1501  constructor() {... */\n  callvalue\n  dup1\n  iszero\n  tag_1\n  jumpi\n  0x00\n  dup1\n  revert\ntag_1:\n  pop\n    /* \"https://github.com/OpenZeppelin/openzeppelin-contracts/contracts/security/ReentrancyGuard.sol\":1701:1702  1 */\n  0x01\n    /* \"https://github.com/OpenZeppelin/openzeppelin-contracts/contracts/security/ReentrancyGuard.sol\":1806:1813  _status */\n  0x00\n    /* \"https://github.com/OpenZeppelin/openzeppelin-contracts/contracts/security/ReentrancyGuard.sol\":1806:1828  _status = _NOT_ENTERED */\n  dup2\n  swap1\n  sstore\n  pop\n    /* \"src/nftMarketPlace.sol\":1483:1493  msg.sender */\n  caller\n    /* \"src/nftMarketPlace.sol\":1467:1472  owner */\n  0x04\n  0x00\n    /* \"src/nftMarketPlace.sol\":1467:1494  owner = payable(msg.sender) */\n  0x0100\n  exp\n  dup2\n  sload\n  dup2\n  0xffffffffffffffffffffffffffffffffffffffff\n  mul\n  not\n  and\n  swap1\n  dup4\n  0xffffffffffffffffffffffffffffffffffffffff\n  and\n  mul\n  or\n  swap1\n  sstore\n  pop\n    /* \"src/nftMarketPlace.sol\":361:5619  contract NFTMarketplace is ReentrancyGuard{... */\n  dataSize(sub_0)\n  dup1\n  dataOffset(sub_0)\n  0x00\n  codecopy\n  0x00\n  return\nstop\n\nsub_0: assembly {\n        /* \"src/nftMarketPlace.sol\":361:5619  contract NFTMarketplace is ReentrancyGuard{... */\n      mstore(0x40, 0x80)\n      jumpi(tag_1, lt(calldatasize, 0x04))\n      shr(0xe0, calldataload(0x00))\n      dup1\n      0x6d360339\n      gt\n      tag_9\n      jumpi\n      dup1\n      0x6d360339\n      eq\n      tag_5\n      jumpi\n      dup1\n      0xae677aa3\n      eq\n      tag_6\n      jumpi\n      dup1\n      0xc23b139e\n      eq\n      tag_7\n      jumpi\n      dup1\n      0xc78f19f9\n      eq\n      tag_8\n      jumpi\n      jump(tag_1)\n    tag_9:\n      dup1\n      0x0f08efe0\n      eq\n      tag_2\n      jumpi\n      dup1\n      0x128ae712\n      eq\n      tag_3\n      jumpi\n      dup1\n      0x58eb2df5\n      eq\n      tag_4\n      jumpi\n    tag_1:\n      0x00\n      dup1\n      revert\n        /* \"src/nftMarketPlace.sol\":3314:4000  function fetchMarketItems() public view returns (MarketItem [] memory){... */\n    tag_2:\n      callvalue\n      dup1\n      iszero\n      tag_10\n      jumpi\n      0x00\n      dup1\n      revert\n    tag_10:\n      pop\n      tag_11\n      tag_12\n      jump\t// in\n    tag_11:\n      mload(0x40)\n      tag_13\n      swap2\n      swap1\n      tag_14\n      jump\t// in\n    tag_13:\n      mload(0x40)\n      dup1\n      swap2\n      sub\n      swap1\n      return\n        /* \"src/nftMarketPlace.sol\":4007:4791  function fetchMyNfts() public view returns (MarketItem[] memory){... */\n    tag_3:\n      callvalue\n      dup1\n      iszero\n      tag_15\n      jumpi\n      0x00\n      dup1\n      revert\n    tag_15:\n      pop\n      tag_16\n      tag_17\n      jump\t// in\n    tag_16:\n      mload(0x40)\n      tag_18\n      swap2\n      swap1\n      tag_14\n      jump\t// in\n    tag_18:\n      mload(0x40)\n      dup1\n      swap2\n      sub\n      swap1\n      return\n        /* \"src/nftMarketPlace.sol\":1775:2580  function createMarketItem(address nftContract, uint256 tokenId, uint256 price) public payable nonReentrant {... */\n    tag_4:\n      tag_19\n      0x04\n      dup1\n      calldatasize\n      sub\n      dup2\n      add\n      swap1\n      tag_20\n      swap2\n      swap1\n      tag_21\n      jump\t// in\n    tag_20:\n      tag_22\n      jump\t// in\n    tag_19:\n      stop\n        /* \"src/nftMarketPlace.sol\":4794:5615  function fetchItemCreated () public view returns (MarketItem[] memory ){... */\n    tag_5:\n      callvalue\n      dup1\n      iszero\n      tag_23\n      jumpi\n      0x00\n      dup1\n      revert\n    tag_23:\n      pop\n      tag_24\n      tag_25\n      jump\t// in\n    tag_24:\n      mload(0x40)\n      tag_26\n      swap2\n      swap1\n      tag_14\n      jump\t// in\n    tag_26:\n      mload(0x40)\n      dup1\n      swap2\n      sub\n      swap1\n      return\n        /* \"src/nftMarketPlace.sol\":1619:1768  function updateListingPrice(uint256 _listingprice)... */\n    tag_6:\n      tag_27\n      0x04\n      dup1\n      calldatasize\n      sub\n      dup2\n      add\n      swap1\n      tag_28\n      swap2\n      swap1\n      tag_29\n      jump\t// in\n    tag_28:\n      tag_30\n      jump\t// in\n    tag_27:\n      stop\n        /* \"src/nftMarketPlace.sol\":2716:3308  function createMarketSale(address nftContract, uint256 itemId) public payable nonReentrant {... */\n    tag_7:\n      tag_31\n      0x04\n      dup1\n      calldatasize\n      sub\n      dup2\n      add\n      swap1\n      tag_32\n      swap2\n      swap1\n      tag_33\n      jump\t// in\n    tag_32:\n      tag_34\n      jump\t// in\n    tag_31:\n      stop\n        /* \"src/nftMarketPlace.sol\":602:640  uint256 public listingPrice = 10 ether */\n    tag_8:\n      callvalue\n      dup1\n      iszero\n      tag_35\n      jumpi\n      0x00\n      dup1\n      revert\n    tag_35:\n      pop\n      tag_36\n      tag_37\n      jump\t// in\n    tag_36:\n      mload(0x40)\n      tag_38\n      swap2\n      swap1\n      tag_39\n      jump\t// in\n    tag_38:\n      mload(0x40)\n      dup1\n      swap2\n      sub\n      swap1\n      return\n        /* \"src/nftMarketPlace.sol\":3314:4000  function fetchMarketItems() public view returns (MarketItem [] memory){... */\n    tag_12:\n        /* \"src/nftMarketPlace.sol\":3363:3383  MarketItem [] memory */\n      0x60\n        /* \"src/nftMarketPlace.sol\":3394:3411  uint256 itemCount */\n      0x00\n        /* \"src/nftMarketPlace.sol\":3414:3432  _itemIds.current() */\n      tag_41\n        /* \"src/nftMarketPlace.sol\":3414:3422  _itemIds */\n      0x01\n        /* \"src/nftMarketPlace.sol\":3414:3430  _itemIds.current */\n      tag_42\n        /* \"src/nftMarketPlace.sol\":3414:3432  _itemIds.current() */\n      jump\t// in\n    tag_41:\n        /* \"src/nftMarketPlace.sol\":3394:3432  uint256 itemCount = _itemIds.current() */\n      swap1\n      pop\n        /* \"src/nftMarketPlace.sol\":3442:3463  uint unsoldItemsCount */\n      0x00\n        /* \"src/nftMarketPlace.sol\":3490:3510  _itemsSold.current() */\n      tag_43\n        /* \"src/nftMarketPlace.sol\":3490:3500  _itemsSold */\n      0x02\n        /* \"src/nftMarketPlace.sol\":3490:3508  _itemsSold.current */\n      tag_42\n        /* \"src/nftMarketPlace.sol\":3490:3510  _itemsSold.current() */\n      jump\t// in\n    tag_43:\n        /* \"src/nftMarketPlace.sol\":3467:3485  _itemIds.current() */\n      tag_44\n        /* \"src/nftMarketPlace.sol\":3467:3475  _itemIds */\n      0x01\n        /* \"src/nftMarketPlace.sol\":3467:3483  _itemIds.current */\n      tag_42\n        /* \"src/nftMarketPlace.sol\":3467:3485  _itemIds.current() */\n      jump\t// in\n    tag_44:\n        /* \"src/nftMarketPlace.sol\":3466:3512  (_itemIds.current()) - (_itemsSold.current() ) */\n      tag_45\n      swap2\n      swap1\n      tag_46\n      jump\t// in\n    tag_45:\n        /* \"src/nftMarketPlace.sol\":3442:3512  uint unsoldItemsCount = (_itemIds.current()) - (_itemsSold.current() ) */\n      swap1\n      pop\n        /* \"src/nftMarketPlace.sol\":3522:3539  uint currentIndex */\n      0x00\n        /* \"src/nftMarketPlace.sol\":3553:3578  MarketItem[] memory items */\n      dup1\n        /* \"src/nftMarketPlace.sol\":3598:3614  unsoldItemsCount */\n      dup3\n        /* \"src/nftMarketPlace.sol\":3581:3615  new MarketItem[](unsoldItemsCount) */\n      0xffffffffffffffff\n      dup2\n      gt\n      iszero\n      tag_47\n      jumpi\n      tag_48\n      tag_49\n      jump\t// in\n    tag_48:\n    tag_47:\n      mload(0x40)\n      swap1\n      dup1\n      dup3\n      mstore\n      dup1\n      0x20\n      mul\n      0x20\n      add\n      dup3\n      add\n      0x40\n      mstore\n      dup1\n      iszero\n      tag_50\n      jumpi\n      dup2\n      0x20\n      add\n    tag_51:\n      tag_52\n      tag_53\n      jump\t// in\n    tag_52:\n      dup2\n      mstore\n      0x20\n      add\n      swap1\n      0x01\n      swap1\n      sub\n      swap1\n      dup2\n      tag_51\n      jumpi\n      swap1\n      pop\n    tag_50:\n      pop\n        /* \"src/nftMarketPlace.sol\":3553:3615  MarketItem[] memory items = new MarketItem[](unsoldItemsCount) */\n      swap1\n      pop\n        /* \"src/nftMarketPlace.sol\":3629:3635  uint i */\n      0x00\n        /* \"src/nftMarketPlace.sol\":3625:3971  for(uint i =0; i < itemCount; i ++){... */\n    tag_54:\n        /* \"src/nftMarketPlace.sol\":3644:3653  itemCount */\n      dup5\n        /* \"src/nftMarketPlace.sol\":3640:3641  i */\n      dup2\n        /* \"src/nftMarketPlace.sol\":3640:3653  i < itemCount */\n      lt\n        /* \"src/nftMarketPlace.sol\":3625:3971  for(uint i =0; i < itemCount; i ++){... */\n      iszero\n      tag_55\n      jumpi\n        /* \"src/nftMarketPlace.sol\":3716:3717  0 */\n      0x00\n        /* \"src/nftMarketPlace.sol\":3677:3718  idToMarketItem[i + 1].owner == address(0) */\n      0xffffffffffffffffffffffffffffffffffffffff\n      and\n        /* \"src/nftMarketPlace.sol\":3677:3691  idToMarketItem */\n      0x05\n        /* \"src/nftMarketPlace.sol\":3677:3698  idToMarketItem[i + 1] */\n      0x00\n        /* \"src/nftMarketPlace.sol\":3696:3697  1 */\n      0x01\n        /* \"src/nftMarketPlace.sol\":3692:3693  i */\n      dup5\n        /* \"src/nftMarketPlace.sol\":3692:3697  i + 1 */\n      tag_57\n      swap2\n      swap1\n      tag_58\n      jump\t// in\n    tag_57:\n        /* \"src/nftMarketPlace.sol\":3677:3698  idToMarketItem[i + 1] */\n      dup2\n      mstore\n      0x20\n      add\n      swap1\n      dup2\n      mstore\n      0x20\n      add\n      0x00\n      keccak256\n        /* \"src/nftMarketPlace.sol\":3677:3704  idToMarketItem[i + 1].owner */\n      0x04\n      add\n      0x00\n      swap1\n      sload\n      swap1\n      0x0100\n      exp\n      swap1\n      div\n      0xffffffffffffffffffffffffffffffffffffffff\n      and\n        /* \"src/nftMarketPlace.sol\":3677:3718  idToMarketItem[i + 1].owner == address(0) */\n      0xffffffffffffffffffffffffffffffffffffffff\n      and\n      sub\n        /* \"src/nftMarketPlace.sol\":3674:3961  if(idToMarketItem[i + 1].owner == address(0)){... */\n      tag_59\n      jumpi\n        /* \"src/nftMarketPlace.sol\":3737:3754  uint256 currentId */\n      0x00\n        /* \"src/nftMarketPlace.sol\":3757:3771  idToMarketItem */\n      0x05\n        /* \"src/nftMarketPlace.sol\":3757:3778  idToMarketItem[i + 1] */\n      0x00\n        /* \"src/nftMarketPlace.sol\":3776:3777  1 */\n      0x01\n        /* \"src/nftMarketPlace.sol\":3772:3773  i */\n      dup5\n        /* \"src/nftMarketPlace.sol\":3772:3777  i + 1 */\n      tag_60\n      swap2\n      swap1\n      tag_58\n      jump\t// in\n    tag_60:\n        /* \"src/nftMarketPlace.sol\":3757:3778  idToMarketItem[i + 1] */\n      dup2\n      mstore\n      0x20\n      add\n      swap1\n      dup2\n      mstore\n      0x20\n      add\n      0x00\n      keccak256\n        /* \"src/nftMarketPlace.sol\":3757:3785  idToMarketItem[i + 1].itemId */\n      0x00\n      add\n      sload\n        /* \"src/nftMarketPlace.sol\":3737:3785  uint256 currentId = idToMarketItem[i + 1].itemId */\n      swap1\n      pop\n        /* \"src/nftMarketPlace.sol\":3803:3833  MarketItem storage currentItem */\n      0x00\n        /* \"src/nftMarketPlace.sol\":3836:3850  idToMarketItem */\n      0x05\n        /* \"src/nftMarketPlace.sol\":3836:3861  idToMarketItem[currentId] */\n      0x00\n        /* \"src/nftMarketPlace.sol\":3851:3860  currentId */\n      dup4\n        /* \"src/nftMarketPlace.sol\":3836:3861  idToMarketItem[currentId] */\n      dup2\n      mstore\n      0x20\n      add\n      swap1\n      dup2\n      mstore\n      0x20\n      add\n      0x00\n      keccak256\n        /* \"src/nftMarketPlace.sol\":3803:3861  MarketItem storage currentItem = idToMarketItem[currentId] */\n      swap1\n      pop\n        /* \"src/nftMarketPlace.sol\":3901:3912  currentItem */\n      dup1\n        /* \"src/nftMarketPlace.sol\":3879:3912  items[currentIndex] = currentItem */\n      mload(0x40)\n      dup1\n      0xe0\n      add\n      0x40\n      mstore\n      swap1\n      dup2\n      0x00\n      dup3\n      add\n      sload\n      dup2\n      mstore\n      0x20\n      add\n      0x01\n      dup3\n      add\n      0x00\n      swap1\n      sload\n      swap1\n      0x0100\n      exp\n      swap1\n      div\n      0xffffffffffffffffffffffffffffffffffffffff\n      and\n      0xffffffffffffffffffffffffffffffffffffffff\n      and\n      0xffffffffffffffffffffffffffffffffffffffff\n      and\n      dup2\n      mstore\n      0x20\n      add\n      0x02\n      dup3\n      add\n      sload\n      dup2\n      mstore\n      0x20\n      add\n      0x03\n      dup3\n      add\n      0x00\n      swap1\n      sload\n      swap1\n      0x0100\n      exp\n      swap1\n      div\n      0xffffffffffffffffffffffffffffffffffffffff\n      and\n      0xffffffffffffffffffffffffffffffffffffffff\n      and\n      0xffffffffffffffffffffffffffffffffffffffff\n      and\n      dup2\n      mstore\n      0x20\n      add\n      0x04\n      dup3\n      add\n      0x00\n      swap1\n      sload\n      swap1\n      0x0100\n      exp\n      swap1\n      div\n      0xffffffffffffffffffffffffffffffffffffffff\n      and\n      0xffffffffffffffffffffffffffffffffffffffff\n      and\n      0xffffffffffffffffffffffffffffffffffffffff\n      and\n      dup2\n      mstore\n      0x20\n      add\n      0x05\n      dup3\n      add\n      sload\n      dup2\n      mstore\n      0x20\n      add\n      0x06\n      dup3\n      add\n      0x00\n      swap1\n      sload\n      swap1\n      0x0100\n      exp\n      swap1\n      div\n      0xff\n      and\n      iszero\n      iszero\n      iszero\n      iszero\n      dup2\n      mstore\n      pop\n      pop\n        /* \"src/nftMarketPlace.sol\":3879:3884  items */\n      dup5\n        /* \"src/nftMarketPlace.sol\":3885:3897  currentIndex */\n      dup7\n        /* \"src/nftMarketPlace.sol\":3879:3898  items[currentIndex] */\n      dup2\n      mload\n      dup2\n      lt\n      tag_61\n      jumpi\n      tag_62\n      tag_63\n      jump\t// in\n    tag_62:\n    tag_61:\n      0x20\n      mul\n      0x20\n      add\n      add\n        /* \"src/nftMarketPlace.sol\":3879:3912  items[currentIndex] = currentItem */\n      dup2\n      swap1\n      mstore\n      pop\n        /* \"src/nftMarketPlace.sol\":3945:3946  1 */\n      0x01\n        /* \"src/nftMarketPlace.sol\":3930:3946  currentIndex +=1 */\n      dup6\n      tag_64\n      swap2\n      swap1\n      tag_58\n      jump\t// in\n    tag_64:\n      swap5\n      pop\n        /* \"src/nftMarketPlace.sol\":3719:3961  {... */\n      pop\n      pop\n        /* \"src/nftMarketPlace.sol\":3674:3961  if(idToMarketItem[i + 1].owner == address(0)){... */\n    tag_59:\n        /* \"src/nftMarketPlace.sol\":3655:3659  i ++ */\n      dup1\n      dup1\n      tag_65\n      swap1\n      tag_66\n      jump\t// in\n    tag_65:\n      swap2\n      pop\n      pop\n        /* \"src/nftMarketPlace.sol\":3625:3971  for(uint i =0; i < itemCount; i ++){... */\n      jump(tag_54)\n    tag_55:\n      pop\n        /* \"src/nftMarketPlace.sol\":3987:3992  items */\n      dup1\n        /* \"src/nftMarketPlace.sol\":3980:3992  return items */\n      swap5\n      pop\n      pop\n      pop\n      pop\n      pop\n        /* \"src/nftMarketPlace.sol\":3314:4000  function fetchMarketItems() public view returns (MarketItem [] memory){... */\n      swap1\n      jump\t// out\n        /* \"src/nftMarketPlace.sol\":4007:4791  function fetchMyNfts() public view returns (MarketItem[] memory){... */\n    tag_17:\n        /* \"src/nftMarketPlace.sol\":4051:4070  MarketItem[] memory */\n      0x60\n        /* \"src/nftMarketPlace.sol\":4081:4100  uint totalItemCount */\n      0x00\n        /* \"src/nftMarketPlace.sol\":4103:4121  _itemIds.current() */\n      tag_68\n        /* \"src/nftMarketPlace.sol\":4103:4111  _itemIds */\n      0x01\n        /* \"src/nftMarketPlace.sol\":4103:4119  _itemIds.current */\n      tag_42\n        /* \"src/nftMarketPlace.sol\":4103:4121  _itemIds.current() */\n      jump\t// in\n    tag_68:\n        /* \"src/nftMarketPlace.sol\":4081:4121  uint totalItemCount = _itemIds.current() */\n      swap1\n      pop\n        /* \"src/nftMarketPlace.sol\":4131:4145  uint itemCount */\n      0x00\n        /* \"src/nftMarketPlace.sol\":4159:4176  uint currentIndex */\n      dup1\n        /* \"src/nftMarketPlace.sol\":4194:4200  uint i */\n      0x00\n        /* \"src/nftMarketPlace.sol\":4190:4344  for(uint i =0; i < totalItemCount; i++){... */\n    tag_69:\n        /* \"src/nftMarketPlace.sol\":4209:4223  totalItemCount */\n      dup4\n        /* \"src/nftMarketPlace.sol\":4205:4206  i */\n      dup2\n        /* \"src/nftMarketPlace.sol\":4205:4223  i < totalItemCount */\n      lt\n        /* \"src/nftMarketPlace.sol\":4190:4344  for(uint i =0; i < totalItemCount; i++){... */\n      iszero\n      tag_70\n      jumpi\n        /* \"src/nftMarketPlace.sol\":4277:4287  msg.sender */\n      caller\n        /* \"src/nftMarketPlace.sol\":4246:4287  idToMarketItem[i + 1].owner == msg.sender */\n      0xffffffffffffffffffffffffffffffffffffffff\n      and\n        /* \"src/nftMarketPlace.sol\":4246:4260  idToMarketItem */\n      0x05\n        /* \"src/nftMarketPlace.sol\":4246:4267  idToMarketItem[i + 1] */\n      0x00\n        /* \"src/nftMarketPlace.sol\":4265:4266  1 */\n      0x01\n        /* \"src/nftMarketPlace.sol\":4261:4262  i */\n      dup5\n        /* \"src/nftMarketPlace.sol\":4261:4266  i + 1 */\n      tag_72\n      swap2\n      swap1\n      tag_58\n      jump\t// in\n    tag_72:\n        /* \"src/nftMarketPlace.sol\":4246:4267  idToMarketItem[i + 1] */\n      dup2\n      mstore\n      0x20\n      add\n      swap1\n      dup2\n      mstore\n      0x20\n      add\n      0x00\n      keccak256\n        /* \"src/nftMarketPlace.sol\":4246:4273  idToMarketItem[i + 1].owner */\n      0x04\n      add\n      0x00\n      swap1\n      sload\n      swap1\n      0x0100\n      exp\n      swap1\n      div\n      0xffffffffffffffffffffffffffffffffffffffff\n      and\n        /* \"src/nftMarketPlace.sol\":4246:4287  idToMarketItem[i + 1].owner == msg.sender */\n      0xffffffffffffffffffffffffffffffffffffffff\n      and\n      sub\n        /* \"src/nftMarketPlace.sol\":4243:4334  if(idToMarketItem[i + 1].owner == msg.sender){... */\n      tag_73\n      jumpi\n        /* \"src/nftMarketPlace.sol\":4318:4319  1 */\n      0x01\n        /* \"src/nftMarketPlace.sol\":4306:4319  itemCount +=1 */\n      dup4\n      tag_74\n      swap2\n      swap1\n      tag_58\n      jump\t// in\n    tag_74:\n      swap3\n      pop\n        /* \"src/nftMarketPlace.sol\":4243:4334  if(idToMarketItem[i + 1].owner == msg.sender){... */\n    tag_73:\n        /* \"src/nftMarketPlace.sol\":4225:4228  i++ */\n      dup1\n      dup1\n      tag_75\n      swap1\n      tag_66\n      jump\t// in\n    tag_75:\n      swap2\n      pop\n      pop\n        /* \"src/nftMarketPlace.sol\":4190:4344  for(uint i =0; i < totalItemCount; i++){... */\n      jump(tag_69)\n    tag_70:\n      pop\n        /* \"src/nftMarketPlace.sol\":4353:4378  MarketItem[] memory items */\n      0x00\n        /* \"src/nftMarketPlace.sol\":4398:4407  itemCount */\n      dup3\n        /* \"src/nftMarketPlace.sol\":4381:4408  new MarketItem[](itemCount) */\n      0xffffffffffffffff\n      dup2\n      gt\n      iszero\n      tag_76\n      jumpi\n      tag_77\n      tag_49\n      jump\t// in\n    tag_77:\n    tag_76:\n      mload(0x40)\n      swap1\n      dup1\n      dup3\n      mstore\n      dup1\n      0x20\n      mul\n      0x20\n      add\n      dup3\n      add\n      0x40\n      mstore\n      dup1\n      iszero\n      tag_78\n      jumpi\n      dup2\n      0x20\n      add\n    tag_79:\n      tag_80\n      tag_53\n      jump\t// in\n    tag_80:\n      dup2\n      mstore\n      0x20\n      add\n      swap1\n      0x01\n      swap1\n      sub\n      swap1\n      dup2\n      tag_79\n      jumpi\n      swap1\n      pop\n    tag_78:\n      pop\n        /* \"src/nftMarketPlace.sol\":4353:4408  MarketItem[] memory items = new MarketItem[](itemCount) */\n      swap1\n      pop\n        /* \"src/nftMarketPlace.sol\":4422:4428  uint i */\n      0x00\n        /* \"src/nftMarketPlace.sol\":4418:4763  for(uint i = 0; i < totalItemCount; i++){... */\n    tag_81:\n        /* \"src/nftMarketPlace.sol\":4438:4452  totalItemCount */\n      dup5\n        /* \"src/nftMarketPlace.sol\":4434:4435  i */\n      dup2\n        /* \"src/nftMarketPlace.sol\":4434:4452  i < totalItemCount */\n      lt\n        /* \"src/nftMarketPlace.sol\":4418:4763  for(uint i = 0; i < totalItemCount; i++){... */\n      iszero\n      tag_82\n      jumpi\n        /* \"src/nftMarketPlace.sol\":4506:4516  msg.sender */\n      caller\n        /* \"src/nftMarketPlace.sol\":4475:4516  idToMarketItem[i + 1].owner == msg.sender */\n      0xffffffffffffffffffffffffffffffffffffffff\n      and\n        /* \"src/nftMarketPlace.sol\":4475:4489  idToMarketItem */\n      0x05\n        /* \"src/nftMarketPlace.sol\":4475:4496  idToMarketItem[i + 1] */\n      0x00\n        /* \"src/nftMarketPlace.sol\":4494:4495  1 */\n      0x01\n        /* \"src/nftMarketPlace.sol\":4490:4491  i */\n      dup5\n        /* \"src/nftMarketPlace.sol\":4490:4495  i + 1 */\n      tag_84\n      swap2\n      swap1\n      tag_58\n      jump\t// in\n    tag_84:\n        /* \"src/nftMarketPlace.sol\":4475:4496  idToMarketItem[i + 1] */\n      dup2\n      mstore\n      0x20\n      add\n      swap1\n      dup2\n      mstore\n      0x20\n      add\n      0x00\n      keccak256\n        /* \"src/nftMarketPlace.sol\":4475:4502  idToMarketItem[i + 1].owner */\n      0x04\n      add\n      0x00\n      swap1\n      sload\n      swap1\n      0x0100\n      exp\n      swap1\n      div\n      0xffffffffffffffffffffffffffffffffffffffff\n      and\n        /* \"src/nftMarketPlace.sol\":4475:4516  idToMarketItem[i + 1].owner == msg.sender */\n      0xffffffffffffffffffffffffffffffffffffffff\n      and\n      sub\n        /* \"src/nftMarketPlace.sol\":4472:4753  if(idToMarketItem[i + 1].owner == msg.sender){... */\n      tag_85\n      jumpi\n        /* \"src/nftMarketPlace.sol\":4534:4548  uint currentId */\n      0x00\n        /* \"src/nftMarketPlace.sol\":4551:4565  idToMarketItem */\n      0x05\n        /* \"src/nftMarketPlace.sol\":4551:4572  idToMarketItem[i + 1] */\n      0x00\n        /* \"src/nftMarketPlace.sol\":4570:4571  1 */\n      0x01\n        /* \"src/nftMarketPlace.sol\":4566:4567  i */\n      dup5\n        /* \"src/nftMarketPlace.sol\":4566:4571  i + 1 */\n      tag_86\n      swap2\n      swap1\n      tag_58\n      jump\t// in\n    tag_86:\n        /* \"src/nftMarketPlace.sol\":4551:4572  idToMarketItem[i + 1] */\n      dup2\n      mstore\n      0x20\n      add\n      swap1\n      dup2\n      mstore\n      0x20\n      add\n      0x00\n      keccak256\n        /* \"src/nftMarketPlace.sol\":4551:4579  idToMarketItem[i + 1].itemId */\n      0x00\n      add\n      sload\n        /* \"src/nftMarketPlace.sol\":4534:4579  uint currentId = idToMarketItem[i + 1].itemId */\n      swap1\n      pop\n        /* \"src/nftMarketPlace.sol\":4596:4626  MarketItem storage currentItem */\n      0x00\n        /* \"src/nftMarketPlace.sol\":4629:4643  idToMarketItem */\n      0x05\n        /* \"src/nftMarketPlace.sol\":4629:4654  idToMarketItem[currentId] */\n      0x00\n        /* \"src/nftMarketPlace.sol\":4644:4653  currentId */\n      dup4\n        /* \"src/nftMarketPlace.sol\":4629:4654  idToMarketItem[currentId] */\n      dup2\n      mstore\n      0x20\n      add\n      swap1\n      dup2\n      mstore\n      0x20\n      add\n      0x00\n      keccak256\n        /* \"src/nftMarketPlace.sol\":4596:4654  MarketItem storage currentItem = idToMarketItem[currentId] */\n      swap1\n      pop\n        /* \"src/nftMarketPlace.sol\":4693:4704  currentItem */\n      dup1\n        /* \"src/nftMarketPlace.sol\":4671:4704  items[currentIndex] = currentItem */\n      mload(0x40)\n      dup1\n      0xe0\n      add\n      0x40\n      mstore\n      swap1\n      dup2\n      0x00\n      dup3\n      add\n      sload\n      dup2\n      mstore\n      0x20\n      add\n      0x01\n      dup3\n      add\n      0x00\n      swap1\n      sload\n      swap1\n      0x0100\n      exp\n      swap1\n      div\n      0xffffffffffffffffffffffffffffffffffffffff\n      and\n      0xffffffffffffffffffffffffffffffffffffffff\n      and\n      0xffffffffffffffffffffffffffffffffffffffff\n      and\n      dup2\n      mstore\n      0x20\n      add\n      0x02\n      dup3\n      add\n      sload\n      dup2\n      mstore\n      0x20\n      add\n      0x03\n      dup3\n      add\n      0x00\n      swap1\n      sload\n      swap1\n      0x0100\n      exp\n      swap1\n      div\n      0xffffffffffffffffffffffffffffffffffffffff\n      and\n      0xffffffffffffffffffffffffffffffffffffffff\n      and\n      0xffffffffffffffffffffffffffffffffffffffff\n      and\n      dup2\n      mstore\n      0x20\n      add\n      0x04\n      dup3\n      add\n      0x00\n      swap1\n      sload\n      swap1\n      0x0100\n      exp\n      swap1\n      div\n      0xffffffffffffffffffffffffffffffffffffffff\n      and\n      0xffffffffffffffffffffffffffffffffffffffff\n      and\n      0xffffffffffffffffffffffffffffffffffffffff\n      and\n      dup2\n      mstore\n      0x20\n      add\n      0x05\n      dup3\n      add\n      sload\n      dup2\n      mstore\n      0x20\n      add\n      0x06\n      dup3\n      add\n      0x00\n      swap1\n      sload\n      swap1\n      0x0100\n      exp\n      swap1\n      div\n      0xff\n      and\n      iszero\n      iszero\n      iszero\n      iszero\n      dup2\n      mstore\n      pop\n      pop\n        /* \"src/nftMarketPlace.sol\":4671:4676  items */\n      dup5\n        /* \"src/nftMarketPlace.sol\":4677:4689  currentIndex */\n      dup7\n        /* \"src/nftMarketPlace.sol\":4671:4690  items[currentIndex] */\n      dup2\n      mload\n      dup2\n      lt\n      tag_87\n      jumpi\n      tag_88\n      tag_63\n      jump\t// in\n    tag_88:\n    tag_87:\n      0x20\n      mul\n      0x20\n      add\n      add\n        /* \"src/nftMarketPlace.sol\":4671:4704  items[currentIndex] = currentItem */\n      dup2\n      swap1\n      mstore\n      pop\n        /* \"src/nftMarketPlace.sol\":4736:4737  1 */\n      0x01\n        /* \"src/nftMarketPlace.sol\":4721:4737  currentIndex +=1 */\n      dup6\n      tag_89\n      swap2\n      swap1\n      tag_58\n      jump\t// in\n    tag_89:\n      swap5\n      pop\n        /* \"src/nftMarketPlace.sol\":4517:4753  {... */\n      pop\n      pop\n        /* \"src/nftMarketPlace.sol\":4472:4753  if(idToMarketItem[i + 1].owner == msg.sender){... */\n    tag_85:\n        /* \"src/nftMarketPlace.sol\":4454:4457  i++ */\n      dup1\n      dup1\n      tag_90\n      swap1\n      tag_66\n      jump\t// in\n    tag_90:\n      swap2\n      pop\n      pop\n        /* \"src/nftMarketPlace.sol\":4418:4763  for(uint i = 0; i < totalItemCount; i++){... */\n      jump(tag_81)\n    tag_82:\n      pop\n        /* \"src/nftMarketPlace.sol\":4779:4784  items */\n      dup1\n        /* \"src/nftMarketPlace.sol\":4772:4784  return items */\n      swap5\n      pop\n      pop\n      pop\n      pop\n      pop\n        /* \"src/nftMarketPlace.sol\":4007:4791  function fetchMyNfts() public view returns (MarketItem[] memory){... */\n      swap1\n      jump\t// out\n        /* \"src/nftMarketPlace.sol\":1775:2580  function createMarketItem(address nftContract, uint256 tokenId, uint256 price) public payable nonReentrant {... */\n    tag_22:\n        /* \"https://github.com/OpenZeppelin/openzeppelin-contracts/contracts/security/ReentrancyGuard.sol\":1744:1745  2 */\n      0x02\n        /* \"https://github.com/OpenZeppelin/openzeppelin-contracts/contracts/security/ReentrancyGuard.sol\":2325:2332  _status */\n      sload(0x00)\n        /* \"https://github.com/OpenZeppelin/openzeppelin-contracts/contracts/security/ReentrancyGuard.sol\":2325:2344  _status != _ENTERED */\n      sub\n        /* \"https://github.com/OpenZeppelin/openzeppelin-contracts/contracts/security/ReentrancyGuard.sol\":2317:2380  require(_status != _ENTERED, \"ReentrancyGuard: reentrant call\") */\n      tag_92\n      jumpi\n      mload(0x40)\n      0x08c379a000000000000000000000000000000000000000000000000000000000\n      dup2\n      mstore\n      0x04\n      add\n      tag_93\n      swap1\n      tag_94\n      jump\t// in\n    tag_93:\n      mload(0x40)\n      dup1\n      swap2\n      sub\n      swap1\n      revert\n    tag_92:\n        /* \"https://github.com/OpenZeppelin/openzeppelin-contracts/contracts/security/ReentrancyGuard.sol\":1744:1745  2 */\n      0x02\n        /* \"https://github.com/OpenZeppelin/openzeppelin-contracts/contracts/security/ReentrancyGuard.sol\":2455:2462  _status */\n      0x00\n        /* \"https://github.com/OpenZeppelin/openzeppelin-contracts/contracts/security/ReentrancyGuard.sol\":2455:2473  _status = _ENTERED */\n      dup2\n      swap1\n      sstore\n      pop\n        /* \"src/nftMarketPlace.sol\":1905:1906  0 */\n      0x00\n        /* \"src/nftMarketPlace.sol\":1896:1901  price */\n      dup2\n        /* \"src/nftMarketPlace.sol\":1896:1906  price == 0 */\n      sub\n        /* \"src/nftMarketPlace.sol\":1892:1946  if (price == 0) revert priceMustBeGreaterThanOneGwei() */\n      tag_96\n      jumpi\n        /* \"src/nftMarketPlace.sol\":1915:1946  priceMustBeGreaterThanOneGwei() */\n      mload(0x40)\n      0xea86949f00000000000000000000000000000000000000000000000000000000\n      dup2\n      mstore\n      0x04\n      add\n      mload(0x40)\n      dup1\n      swap2\n      sub\n      swap1\n      revert\n        /* \"src/nftMarketPlace.sol\":1892:1946  if (price == 0) revert priceMustBeGreaterThanOneGwei() */\n    tag_96:\n        /* \"src/nftMarketPlace.sol\":1973:1985  listingPrice */\n      sload(0x03)\n        /* \"src/nftMarketPlace.sol\":1960:1969  msg.value */\n      callvalue\n        /* \"src/nftMarketPlace.sol\":1960:1985  msg.value != listingPrice */\n      eq\n        /* \"src/nftMarketPlace.sol\":1956:2026  if (msg.value != listingPrice) revert priceMustBeEqualToListingPrice() */\n      tag_97\n      jumpi\n        /* \"src/nftMarketPlace.sol\":1994:2026  priceMustBeEqualToListingPrice() */\n      mload(0x40)\n      0xd8fc352b00000000000000000000000000000000000000000000000000000000\n      dup2\n      mstore\n      0x04\n      add\n      mload(0x40)\n      dup1\n      swap2\n      sub\n      swap1\n      revert\n        /* \"src/nftMarketPlace.sol\":1956:2026  if (msg.value != listingPrice) revert priceMustBeEqualToListingPrice() */\n    tag_97:\n        /* \"src/nftMarketPlace.sol\":2035:2055  _itemIds.increment() */\n      tag_98\n        /* \"src/nftMarketPlace.sol\":2035:2043  _itemIds */\n      0x01\n        /* \"src/nftMarketPlace.sol\":2035:2053  _itemIds.increment */\n      tag_99\n        /* \"src/nftMarketPlace.sol\":2035:2055  _itemIds.increment() */\n      jump\t// in\n    tag_98:\n        /* \"src/nftMarketPlace.sol\":2064:2078  uint256 itemId */\n      0x00\n        /* \"src/nftMarketPlace.sol\":2081:2099  _itemIds.current() */\n      tag_100\n        /* \"src/nftMarketPlace.sol\":2081:2089  _itemIds */\n      0x01\n        /* \"src/nftMarketPlace.sol\":2081:2097  _itemIds.current */\n      tag_42\n        /* \"src/nftMarketPlace.sol\":2081:2099  _itemIds.current() */\n      jump\t// in\n    tag_100:\n        /* \"src/nftMarketPlace.sol\":2064:2099  uint256 itemId = _itemIds.current() */\n      swap1\n      pop\n        /* \"src/nftMarketPlace.sol\":2131:2297  MarketItem(... */\n      mload(0x40)\n      dup1\n      0xe0\n      add\n      0x40\n      mstore\n      dup1\n        /* \"src/nftMarketPlace.sol\":2152:2158  itemId */\n      dup3\n        /* \"src/nftMarketPlace.sol\":2131:2297  MarketItem(... */\n      dup2\n      mstore\n      0x20\n      add\n        /* \"src/nftMarketPlace.sol\":2169:2180  nftContract */\n      dup6\n        /* \"src/nftMarketPlace.sol\":2131:2297  MarketItem(... */\n      0xffffffffffffffffffffffffffffffffffffffff\n      and\n      dup2\n      mstore\n      0x20\n      add\n        /* \"src/nftMarketPlace.sol\":2191:2198  tokenId */\n      dup5\n        /* \"src/nftMarketPlace.sol\":2131:2297  MarketItem(... */\n      dup2\n      mstore\n      0x20\n      add\n        /* \"src/nftMarketPlace.sol\":2217:2227  msg.sender */\n      caller\n        /* \"src/nftMarketPlace.sol\":2131:2297  MarketItem(... */\n      0xffffffffffffffffffffffffffffffffffffffff\n      and\n      dup2\n      mstore\n      0x20\n      add\n        /* \"src/nftMarketPlace.sol\":2255:2256  0 */\n      0x00\n        /* \"src/nftMarketPlace.sol\":2131:2297  MarketItem(... */\n      0xffffffffffffffffffffffffffffffffffffffff\n      and\n      dup2\n      mstore\n      0x20\n      add\n        /* \"src/nftMarketPlace.sol\":2269:2274  price */\n      dup4\n        /* \"src/nftMarketPlace.sol\":2131:2297  MarketItem(... */\n      dup2\n      mstore\n      0x20\n      add\n        /* \"src/nftMarketPlace.sol\":2285:2290  false */\n      0x00\n        /* \"src/nftMarketPlace.sol\":2131:2297  MarketItem(... */\n      iszero\n      iszero\n      dup2\n      mstore\n      pop\n        /* \"src/nftMarketPlace.sol\":2106:2120  idToMarketItem */\n      0x05\n        /* \"src/nftMarketPlace.sol\":2106:2128  idToMarketItem[itemId] */\n      0x00\n        /* \"src/nftMarketPlace.sol\":2121:2127  itemId */\n      dup4\n        /* \"src/nftMarketPlace.sol\":2106:2128  idToMarketItem[itemId] */\n      dup2\n      mstore\n      0x20\n      add\n      swap1\n      dup2\n      mstore\n      0x20\n      add\n      0x00\n      keccak256\n        /* \"src/nftMarketPlace.sol\":2106:2297  idToMarketItem[itemId] = MarketItem(... */\n      0x00\n      dup3\n      add\n      mload\n      dup2\n      0x00\n      add\n      sstore\n      0x20\n      dup3\n      add\n      mload\n      dup2\n      0x01\n      add\n      exp(0x0100, 0x00)\n      dup2\n      sload\n      dup2\n      0xffffffffffffffffffffffffffffffffffffffff\n      mul\n      not\n      and\n      swap1\n      dup4\n      0xffffffffffffffffffffffffffffffffffffffff\n      and\n      mul\n      or\n      swap1\n      sstore\n      pop\n      0x40\n      dup3\n      add\n      mload\n      dup2\n      0x02\n      add\n      sstore\n      0x60\n      dup3\n      add\n      mload\n      dup2\n      0x03\n      add\n      exp(0x0100, 0x00)\n      dup2\n      sload\n      dup2\n      0xffffffffffffffffffffffffffffffffffffffff\n      mul\n      not\n      and\n      swap1\n      dup4\n      0xffffffffffffffffffffffffffffffffffffffff\n      and\n      mul\n      or\n      swap1\n      sstore\n      pop\n      0x80\n      dup3\n      add\n      mload\n      dup2\n      0x04\n      add\n      exp(0x0100, 0x00)\n      dup2\n      sload\n      dup2\n      0xffffffffffffffffffffffffffffffffffffffff\n      mul\n      not\n      and\n      swap1\n      dup4\n      0xffffffffffffffffffffffffffffffffffffffff\n      and\n      mul\n      or\n      swap1\n      sstore\n      pop\n      0xa0\n      dup3\n      add\n      mload\n      dup2\n      0x05\n      add\n      sstore\n      0xc0\n      dup3\n      add\n      mload\n      dup2\n      0x06\n      add\n      exp(0x0100, 0x00)\n      dup2\n      sload\n      dup2\n      0xff\n      mul\n      not\n      and\n      swap1\n      dup4\n      iszero\n      iszero\n      mul\n      or\n      swap1\n      sstore\n      pop\n      swap1\n      pop\n      pop\n        /* \"src/nftMarketPlace.sol\":2316:2327  nftContract */\n      dup4\n        /* \"src/nftMarketPlace.sol\":2308:2341  IERC721(nftContract).transferFrom */\n      0xffffffffffffffffffffffffffffffffffffffff\n      and\n      0x23b872dd\n        /* \"src/nftMarketPlace.sol\":2342:2352  msg.sender */\n      caller\n        /* \"src/nftMarketPlace.sol\":2362:2366  this */\n      address\n        /* \"src/nftMarketPlace.sol\":2369:2376  tokenId */\n      dup7\n        /* \"src/nftMarketPlace.sol\":2308:2377  IERC721(nftContract).transferFrom(msg.sender, address(this), tokenId) */\n      mload(0x40)\n      dup5\n      0xffffffff\n      and\n      0xe0\n      shl\n      dup2\n      mstore\n      0x04\n      add\n      tag_101\n      swap4\n      swap3\n      swap2\n      swap1\n      tag_102\n      jump\t// in\n    tag_101:\n      0x00\n      mload(0x40)\n      dup1\n      dup4\n      sub\n      dup2\n      0x00\n      dup8\n      dup1\n      extcodesize\n      iszero\n      dup1\n      iszero\n      tag_103\n      jumpi\n      0x00\n      dup1\n      revert\n    tag_103:\n      pop\n      gas\n      call\n      iszero\n      dup1\n      iszero\n      tag_105\n      jumpi\n      returndatasize\n      0x00\n      dup1\n      returndatacopy\n      revert(0x00, returndatasize)\n    tag_105:\n      pop\n      pop\n      pop\n      pop\n        /* \"src/nftMarketPlace.sol\":2470:2477  tokenId */\n      dup3\n        /* \"src/nftMarketPlace.sol\":2445:2456  nftContract */\n      dup5\n        /* \"src/nftMarketPlace.sol\":2392:2573  MarketItemCreated(... */\n      0xffffffffffffffffffffffffffffffffffffffff\n      and\n        /* \"src/nftMarketPlace.sol\":2424:2430  itemId */\n      dup3\n        /* \"src/nftMarketPlace.sol\":2392:2573  MarketItemCreated(... */\n      0x045dfa01dcba2b36aba1d3dc4a874f4b0c5d2fbeb8d2c4b34a7d88c8d8f929d1\n        /* \"src/nftMarketPlace.sol\":2491:2501  msg.sender */\n      caller\n        /* \"src/nftMarketPlace.sol\":2523:2524  0 */\n      0x00\n        /* \"src/nftMarketPlace.sol\":2539:2544  price */\n      dup8\n        /* \"src/nftMarketPlace.sol\":2558:2563  false */\n      0x00\n        /* \"src/nftMarketPlace.sol\":2392:2573  MarketItemCreated(... */\n      mload(0x40)\n      tag_106\n      swap5\n      swap4\n      swap3\n      swap2\n      swap1\n      tag_107\n      jump\t// in\n    tag_106:\n      mload(0x40)\n      dup1\n      swap2\n      sub\n      swap1\n      log4\n        /* \"src/nftMarketPlace.sol\":1882:2580  {... */\n      pop\n        /* \"https://github.com/OpenZeppelin/openzeppelin-contracts/contracts/security/ReentrancyGuard.sol\":1701:1702  1 */\n      0x01\n        /* \"https://github.com/OpenZeppelin/openzeppelin-contracts/contracts/security/ReentrancyGuard.sol\":2628:2635  _status */\n      0x00\n        /* \"https://github.com/OpenZeppelin/openzeppelin-contracts/contracts/security/ReentrancyGuard.sol\":2628:2650  _status = _NOT_ENTERED */\n      dup2\n      swap1\n      sstore\n      pop\n        /* \"src/nftMarketPlace.sol\":1775:2580  function createMarketItem(address nftContract, uint256 tokenId, uint256 price) public payable nonReentrant {... */\n      pop\n      pop\n      pop\n      jump\t// out\n        /* \"src/nftMarketPlace.sol\":4794:5615  function fetchItemCreated () public view returns (MarketItem[] memory ){... */\n    tag_25:\n        /* \"src/nftMarketPlace.sol\":4844:4863  MarketItem[] memory */\n      0x60\n        /* \"src/nftMarketPlace.sol\":4875:4894  uint totalItemCount */\n      0x00\n        /* \"src/nftMarketPlace.sol\":4897:4915  _itemIds.current() */\n      tag_109\n        /* \"src/nftMarketPlace.sol\":4897:4905  _itemIds */\n      0x01\n        /* \"src/nftMarketPlace.sol\":4897:4913  _itemIds.current */\n      tag_42\n        /* \"src/nftMarketPlace.sol\":4897:4915  _itemIds.current() */\n      jump\t// in\n    tag_109:\n        /* \"src/nftMarketPlace.sol\":4875:4915  uint totalItemCount = _itemIds.current() */\n      swap1\n      pop\n        /* \"src/nftMarketPlace.sol\":4925:4939  uint itemCount */\n      0x00\n        /* \"src/nftMarketPlace.sol\":4953:4970  uint currentIndex */\n      dup1\n        /* \"src/nftMarketPlace.sol\":4988:4994  uint i */\n      0x00\n        /* \"src/nftMarketPlace.sol\":4984:5139  for(uint i =0; i < totalItemCount; i++){... */\n    tag_110:\n        /* \"src/nftMarketPlace.sol\":5003:5017  totalItemCount */\n      dup4\n        /* \"src/nftMarketPlace.sol\":4999:5000  i */\n      dup2\n        /* \"src/nftMarketPlace.sol\":4999:5017  i < totalItemCount */\n      lt\n        /* \"src/nftMarketPlace.sol\":4984:5139  for(uint i =0; i < totalItemCount; i++){... */\n      iszero\n      tag_111\n      jumpi\n        /* \"src/nftMarketPlace.sol\":5072:5082  msg.sender */\n      caller\n        /* \"src/nftMarketPlace.sol\":5040:5082  idToMarketItem[i + 1].seller == msg.sender */\n      0xffffffffffffffffffffffffffffffffffffffff\n      and\n        /* \"src/nftMarketPlace.sol\":5040:5054  idToMarketItem */\n      0x05\n        /* \"src/nftMarketPlace.sol\":5040:5061  idToMarketItem[i + 1] */\n      0x00\n        /* \"src/nftMarketPlace.sol\":5059:5060  1 */\n      0x01\n        /* \"src/nftMarketPlace.sol\":5055:5056  i */\n      dup5\n        /* \"src/nftMarketPlace.sol\":5055:5060  i + 1 */\n      tag_113\n      swap2\n      swap1\n      tag_58\n      jump\t// in\n    tag_113:\n        /* \"src/nftMarketPlace.sol\":5040:5061  idToMarketItem[i + 1] */\n      dup2\n      mstore\n      0x20\n      add\n      swap1\n      dup2\n      mstore\n      0x20\n      add\n      0x00\n      keccak256\n        /* \"src/nftMarketPlace.sol\":5040:5068  idToMarketItem[i + 1].seller */\n      0x03\n      add\n      0x00\n      swap1\n      sload\n      swap1\n      0x0100\n      exp\n      swap1\n      div\n      0xffffffffffffffffffffffffffffffffffffffff\n      and\n        /* \"src/nftMarketPlace.sol\":5040:5082  idToMarketItem[i + 1].seller == msg.sender */\n      0xffffffffffffffffffffffffffffffffffffffff\n      and\n      sub\n        /* \"src/nftMarketPlace.sol\":5037:5129  if(idToMarketItem[i + 1].seller == msg.sender){... */\n      tag_114\n      jumpi\n        /* \"src/nftMarketPlace.sol\":5113:5114  1 */\n      0x01\n        /* \"src/nftMarketPlace.sol\":5101:5114  itemCount +=1 */\n      dup4\n      tag_115\n      swap2\n      swap1\n      tag_58\n      jump\t// in\n    tag_115:\n      swap3\n      pop\n        /* \"src/nftMarketPlace.sol\":5037:5129  if(idToMarketItem[i + 1].seller == msg.sender){... */\n    tag_114:\n        /* \"src/nftMarketPlace.sol\":5019:5022  i++ */\n      dup1\n      dup1\n      tag_116\n      swap1\n      tag_66\n      jump\t// in\n    tag_116:\n      swap2\n      pop\n      pop\n        /* \"src/nftMarketPlace.sol\":4984:5139  for(uint i =0; i < totalItemCount; i++){... */\n      jump(tag_110)\n    tag_111:\n      pop\n        /* \"src/nftMarketPlace.sol\":5154:5179  MarketItem[] memory items */\n      0x00\n        /* \"src/nftMarketPlace.sol\":5199:5208  itemCount */\n      dup3\n        /* \"src/nftMarketPlace.sol\":5182:5209  new MarketItem[](itemCount) */\n      0xffffffffffffffff\n      dup2\n      gt\n      iszero\n      tag_117\n      jumpi\n      tag_118\n      tag_49\n      jump\t// in\n    tag_118:\n    tag_117:\n      mload(0x40)\n      swap1\n      dup1\n      dup3\n      mstore\n      dup1\n      0x20\n      mul\n      0x20\n      add\n      dup3\n      add\n      0x40\n      mstore\n      dup1\n      iszero\n      tag_119\n      jumpi\n      dup2\n      0x20\n      add\n    tag_120:\n      tag_121\n      tag_53\n      jump\t// in\n    tag_121:\n      dup2\n      mstore\n      0x20\n      add\n      swap1\n      0x01\n      swap1\n      sub\n      swap1\n      dup2\n      tag_120\n      jumpi\n      swap1\n      pop\n    tag_119:\n      pop\n        /* \"src/nftMarketPlace.sol\":5154:5209  MarketItem[] memory items = new MarketItem[](itemCount) */\n      swap1\n      pop\n        /* \"src/nftMarketPlace.sol\":5237:5243  uint i */\n      0x00\n        /* \"src/nftMarketPlace.sol\":5233:5579  for(uint i = 0; i < totalItemCount; i++){... */\n    tag_122:\n        /* \"src/nftMarketPlace.sol\":5253:5267  totalItemCount */\n      dup5\n        /* \"src/nftMarketPlace.sol\":5249:5250  i */\n      dup2\n        /* \"src/nftMarketPlace.sol\":5249:5267  i < totalItemCount */\n      lt\n        /* \"src/nftMarketPlace.sol\":5233:5579  for(uint i = 0; i < totalItemCount; i++){... */\n      iszero\n      tag_123\n      jumpi\n        /* \"src/nftMarketPlace.sol\":5322:5332  msg.sender */\n      caller\n        /* \"src/nftMarketPlace.sol\":5290:5332  idToMarketItem[i + 1].seller == msg.sender */\n      0xffffffffffffffffffffffffffffffffffffffff\n      and\n        /* \"src/nftMarketPlace.sol\":5290:5304  idToMarketItem */\n      0x05\n        /* \"src/nftMarketPlace.sol\":5290:5311  idToMarketItem[i + 1] */\n      0x00\n        /* \"src/nftMarketPlace.sol\":5309:5310  1 */\n      0x01\n        /* \"src/nftMarketPlace.sol\":5305:5306  i */\n      dup5\n        /* \"src/nftMarketPlace.sol\":5305:5310  i + 1 */\n      tag_125\n      swap2\n      swap1\n      tag_58\n      jump\t// in\n    tag_125:\n        /* \"src/nftMarketPlace.sol\":5290:5311  idToMarketItem[i + 1] */\n      dup2\n      mstore\n      0x20\n      add\n      swap1\n      dup2\n      mstore\n      0x20\n      add\n      0x00\n      keccak256\n        /* \"src/nftMarketPlace.sol\":5290:5318  idToMarketItem[i + 1].seller */\n      0x03\n      add\n      0x00\n      swap1\n      sload\n      swap1\n      0x0100\n      exp\n      swap1\n      div\n      0xffffffffffffffffffffffffffffffffffffffff\n      and\n        /* \"src/nftMarketPlace.sol\":5290:5332  idToMarketItem[i + 1].seller == msg.sender */\n      0xffffffffffffffffffffffffffffffffffffffff\n      and\n      sub\n        /* \"src/nftMarketPlace.sol\":5287:5569  if(idToMarketItem[i + 1].seller == msg.sender){... */\n      tag_126\n      jumpi\n        /* \"src/nftMarketPlace.sol\":5350:5364  uint currentId */\n      0x00\n        /* \"src/nftMarketPlace.sol\":5367:5381  idToMarketItem */\n      0x05\n        /* \"src/nftMarketPlace.sol\":5367:5388  idToMarketItem[i + 1] */\n      0x00\n        /* \"src/nftMarketPlace.sol\":5386:5387  1 */\n      0x01\n        /* \"src/nftMarketPlace.sol\":5382:5383  i */\n      dup5\n        /* \"src/nftMarketPlace.sol\":5382:5387  i + 1 */\n      tag_127\n      swap2\n      swap1\n      tag_58\n      jump\t// in\n    tag_127:\n        /* \"src/nftMarketPlace.sol\":5367:5388  idToMarketItem[i + 1] */\n      dup2\n      mstore\n      0x20\n      add\n      swap1\n      dup2\n      mstore\n      0x20\n      add\n      0x00\n      keccak256\n        /* \"src/nftMarketPlace.sol\":5367:5395  idToMarketItem[i + 1].itemId */\n      0x00\n      add\n      sload\n        /* \"src/nftMarketPlace.sol\":5350:5395  uint currentId = idToMarketItem[i + 1].itemId */\n      swap1\n      pop\n        /* \"src/nftMarketPlace.sol\":5412:5442  MarketItem storage currentItem */\n      0x00\n        /* \"src/nftMarketPlace.sol\":5445:5459  idToMarketItem */\n      0x05\n        /* \"src/nftMarketPlace.sol\":5445:5470  idToMarketItem[currentId] */\n      0x00\n        /* \"src/nftMarketPlace.sol\":5460:5469  currentId */\n      dup4\n        /* \"src/nftMarketPlace.sol\":5445:5470  idToMarketItem[currentId] */\n      dup2\n      mstore\n      0x20\n      add\n      swap1\n      dup2\n      mstore\n      0x20\n      add\n      0x00\n      keccak256\n        /* \"src/nftMarketPlace.sol\":5412:5470  MarketItem storage currentItem = idToMarketItem[currentId] */\n      swap1\n      pop\n        /* \"src/nftMarketPlace.sol\":5509:5520  currentItem */\n      dup1\n        /* \"src/nftMarketPlace.sol\":5487:5520  items[currentIndex] = currentItem */\n      mload(0x40)\n      dup1\n      0xe0\n      add\n      0x40\n      mstore\n      swap1\n      dup2\n      0x00\n      dup3\n      add\n      sload\n      dup2\n      mstore\n      0x20\n      add\n      0x01\n      dup3\n      add\n      0x00\n      swap1\n      sload\n      swap1\n      0x0100\n      exp\n      swap1\n      div\n      0xffffffffffffffffffffffffffffffffffffffff\n      and\n      0xffffffffffffffffffffffffffffffffffffffff\n      and\n      0xffffffffffffffffffffffffffffffffffffffff\n      and\n      dup2\n      mstore\n      0x20\n      add\n      0x02\n      dup3\n      add\n      sload\n      dup2\n      mstore\n      0x20\n      add\n      0x03\n      dup3\n      add\n      0x00\n      swap1\n      sload\n      swap1\n      0x0100\n      exp\n      swap1\n      div\n      0xffffffffffffffffffffffffffffffffffffffff\n      and\n      0xffffffffffffffffffffffffffffffffffffffff\n      and\n      0xffffffffffffffffffffffffffffffffffffffff\n      and\n      dup2\n      mstore\n      0x20\n      add\n      0x04\n      dup3\n      add\n      0x00\n      swap1\n      sload\n      swap1\n      0x0100\n      exp\n      swap1\n      div\n      0xffffffffffffffffffffffffffffffffffffffff\n      and\n      0xffffffffffffffffffffffffffffffffffffffff\n      and\n      0xffffffffffffffffffffffffffffffffffffffff\n      and\n      dup2\n      mstore\n      0x20\n      add\n      0x05\n      dup3\n      add\n      sload\n      dup2\n      mstore\n      0x20\n      add\n      0x06\n      dup3\n      add\n      0x00\n      swap1\n      sload\n      swap1\n      0x0100\n      exp\n      swap1\n      div\n      0xff\n      and\n      iszero\n      iszero\n      iszero\n      iszero\n      dup2\n      mstore\n      pop\n      pop\n        /* \"src/nftMarketPlace.sol\":5487:5492  items */\n      dup5\n        /* \"src/nftMarketPlace.sol\":5493:5505  currentIndex */\n      dup7\n        /* \"src/nftMarketPlace.sol\":5487:5506  items[currentIndex] */\n      dup2\n      mload\n      dup2\n      lt\n      tag_128\n      jumpi\n      tag_129\n      tag_63\n      jump\t// in\n    tag_129:\n    tag_128:\n      0x20\n      mul\n      0x20\n      add\n      add\n        /* \"src/nftMarketPlace.sol\":5487:5520  items[currentIndex] = currentItem */\n      dup2\n      swap1\n      mstore\n      pop\n        /* \"src/nftMarketPlace.sol\":5552:5553  1 */\n      0x01\n        /* \"src/nftMarketPlace.sol\":5537:5553  currentIndex +=1 */\n      dup6\n      tag_130\n      swap2\n      swap1\n      tag_58\n      jump\t// in\n    tag_130:\n      swap5\n      pop\n        /* \"src/nftMarketPlace.sol\":5333:5569  {... */\n      pop\n      pop\n        /* \"src/nftMarketPlace.sol\":5287:5569  if(idToMarketItem[i + 1].seller == msg.sender){... */\n    tag_126:\n        /* \"src/nftMarketPlace.sol\":5269:5272  i++ */\n      dup1\n      dup1\n      tag_131\n      swap1\n      tag_66\n      jump\t// in\n    tag_131:\n      swap2\n      pop\n      pop\n        /* \"src/nftMarketPlace.sol\":5233:5579  for(uint i = 0; i < totalItemCount; i++){... */\n      jump(tag_122)\n    tag_123:\n      pop\n        /* \"src/nftMarketPlace.sol\":5604:5609  items */\n      dup1\n        /* \"src/nftMarketPlace.sol\":5597:5609  return items */\n      swap5\n      pop\n      pop\n      pop\n      pop\n      pop\n        /* \"src/nftMarketPlace.sol\":4794:5615  function fetchItemCreated () public view returns (MarketItem[] memory ){... */\n      swap1\n      jump\t// out\n        /* \"src/nftMarketPlace.sol\":1619:1768  function updateListingPrice(uint256 _listingprice)... */\n    tag_30:\n        /* \"src/nftMarketPlace.sol\":1551:1561  msg.sender */\n      caller\n        /* \"src/nftMarketPlace.sol\":1542:1561  owner != msg.sender */\n      0xffffffffffffffffffffffffffffffffffffffff\n      and\n        /* \"src/nftMarketPlace.sol\":1542:1547  owner */\n      0x04\n      0x00\n      swap1\n      sload\n      swap1\n      0x0100\n      exp\n      swap1\n      div\n      0xffffffffffffffffffffffffffffffffffffffff\n      and\n        /* \"src/nftMarketPlace.sol\":1542:1561  owner != msg.sender */\n      0xffffffffffffffffffffffffffffffffffffffff\n      and\n      eq\n        /* \"src/nftMarketPlace.sol\":1538:1595  if (owner != msg.sender) revert OnlyOwnerCanUpDatePrice() */\n      tag_133\n      jumpi\n        /* \"src/nftMarketPlace.sol\":1570:1595  OnlyOwnerCanUpDatePrice() */\n      mload(0x40)\n      0xd9c2975c00000000000000000000000000000000000000000000000000000000\n      dup2\n      mstore\n      0x04\n      add\n      mload(0x40)\n      dup1\n      swap2\n      sub\n      swap1\n      revert\n        /* \"src/nftMarketPlace.sol\":1538:1595  if (owner != msg.sender) revert OnlyOwnerCanUpDatePrice() */\n    tag_133:\n        /* \"src/nftMarketPlace.sol\":1748:1761  _listingprice */\n      dup1\n        /* \"src/nftMarketPlace.sol\":1733:1745  listingPrice */\n      0x03\n        /* \"src/nftMarketPlace.sol\":1733:1761  listingPrice = _listingprice */\n      dup2\n      swap1\n      sstore\n      pop\n        /* \"src/nftMarketPlace.sol\":1619:1768  function updateListingPrice(uint256 _listingprice)... */\n      pop\n      jump\t// out\n        /* \"src/nftMarketPlace.sol\":2716:3308  function createMarketSale(address nftContract, uint256 itemId) public payable nonReentrant {... */\n    tag_34:\n        /* \"https://github.com/OpenZeppelin/openzeppelin-contracts/contracts/security/ReentrancyGuard.sol\":1744:1745  2 */\n      0x02\n        /* \"https://github.com/OpenZeppelin/openzeppelin-contracts/contracts/security/ReentrancyGuard.sol\":2325:2332  _status */\n      sload(0x00)\n        /* \"https://github.com/OpenZeppelin/openzeppelin-contracts/contracts/security/ReentrancyGuard.sol\":2325:2344  _status != _ENTERED */\n      sub\n        /* \"https://github.com/OpenZeppelin/openzeppelin-contracts/contracts/security/ReentrancyGuard.sol\":2317:2380  require(_status != _ENTERED, \"ReentrancyGuard: reentrant call\") */\n      tag_136\n      jumpi\n      mload(0x40)\n      0x08c379a000000000000000000000000000000000000000000000000000000000\n      dup2\n      mstore\n      0x04\n      add\n      tag_137\n      swap1\n      tag_94\n      jump\t// in\n    tag_137:\n      mload(0x40)\n      dup1\n      swap2\n      sub\n      swap1\n      revert\n    tag_136:\n        /* \"https://github.com/OpenZeppelin/openzeppelin-contracts/contracts/security/ReentrancyGuard.sol\":1744:1745  2 */\n      0x02\n        /* \"https://github.com/OpenZeppelin/openzeppelin-contracts/contracts/security/ReentrancyGuard.sol\":2455:2462  _status */\n      0x00\n        /* \"https://github.com/OpenZeppelin/openzeppelin-contracts/contracts/security/ReentrancyGuard.sol\":2455:2473  _status = _ENTERED */\n      dup2\n      swap1\n      sstore\n      pop\n        /* \"src/nftMarketPlace.sol\":2817:2830  uint256 price */\n      0x00\n        /* \"src/nftMarketPlace.sol\":2833:2847  idToMarketItem */\n      0x05\n        /* \"src/nftMarketPlace.sol\":2833:2855  idToMarketItem[itemId] */\n      0x00\n        /* \"src/nftMarketPlace.sol\":2848:2854  itemId */\n      dup4\n        /* \"src/nftMarketPlace.sol\":2833:2855  idToMarketItem[itemId] */\n      dup2\n      mstore\n      0x20\n      add\n      swap1\n      dup2\n      mstore\n      0x20\n      add\n      0x00\n      keccak256\n        /* \"src/nftMarketPlace.sol\":2833:2861  idToMarketItem[itemId].price */\n      0x05\n      add\n      sload\n        /* \"src/nftMarketPlace.sol\":2817:2861  uint256 price = idToMarketItem[itemId].price */\n      swap1\n      pop\n        /* \"src/nftMarketPlace.sol\":2871:2887  uint256 tokenIds */\n      0x00\n        /* \"src/nftMarketPlace.sol\":2890:2904  idToMarketItem */\n      0x05\n        /* \"src/nftMarketPlace.sol\":2890:2912  idToMarketItem[itemId] */\n      0x00\n        /* \"src/nftMarketPlace.sol\":2905:2911  itemId */\n      dup5\n        /* \"src/nftMarketPlace.sol\":2890:2912  idToMarketItem[itemId] */\n      dup2\n      mstore\n      0x20\n      add\n      swap1\n      dup2\n      mstore\n      0x20\n      add\n      0x00\n      keccak256\n        /* \"src/nftMarketPlace.sol\":2890:2920  idToMarketItem[itemId].tokenId */\n      0x02\n      add\n      sload\n        /* \"src/nftMarketPlace.sol\":2871:2920  uint256 tokenIds = idToMarketItem[itemId].tokenId */\n      swap1\n      pop\n        /* \"src/nftMarketPlace.sol\":2946:2951  price */\n      dup2\n        /* \"src/nftMarketPlace.sol\":2933:2942  msg.value */\n      callvalue\n        /* \"src/nftMarketPlace.sol\":2933:2951  msg.value != price */\n      eq\n        /* \"src/nftMarketPlace.sol\":2930:2976  if(msg.value != price) revert notAskingPrice() */\n      tag_139\n      jumpi\n        /* \"src/nftMarketPlace.sol\":2960:2976  notAskingPrice() */\n      mload(0x40)\n      0x75481b7800000000000000000000000000000000000000000000000000000000\n      dup2\n      mstore\n      0x04\n      add\n      mload(0x40)\n      dup1\n      swap2\n      sub\n      swap1\n      revert\n        /* \"src/nftMarketPlace.sol\":2930:2976  if(msg.value != price) revert notAskingPrice() */\n    tag_139:\n        /* \"src/nftMarketPlace.sol\":2986:3000  idToMarketItem */\n      0x05\n        /* \"src/nftMarketPlace.sol\":2986:3008  idToMarketItem[itemId] */\n      0x00\n        /* \"src/nftMarketPlace.sol\":3001:3007  itemId */\n      dup5\n        /* \"src/nftMarketPlace.sol\":2986:3008  idToMarketItem[itemId] */\n      dup2\n      mstore\n      0x20\n      add\n      swap1\n      dup2\n      mstore\n      0x20\n      add\n      0x00\n      keccak256\n        /* \"src/nftMarketPlace.sol\":2986:3015  idToMarketItem[itemId].seller */\n      0x03\n      add\n      0x00\n      swap1\n      sload\n      swap1\n      0x0100\n      exp\n      swap1\n      div\n      0xffffffffffffffffffffffffffffffffffffffff\n      and\n        /* \"src/nftMarketPlace.sol\":2986:3024  idToMarketItem[itemId].seller.transfer */\n      0xffffffffffffffffffffffffffffffffffffffff\n      and\n        /* \"src/nftMarketPlace.sol\":2986:3035  idToMarketItem[itemId].seller.transfer(msg.value) */\n      0x08fc\n        /* \"src/nftMarketPlace.sol\":3025:3034  msg.value */\n      callvalue\n        /* \"src/nftMarketPlace.sol\":2986:3035  idToMarketItem[itemId].seller.transfer(msg.value) */\n      swap1\n      dup2\n      iszero\n      mul\n      swap1\n      mload(0x40)\n      0x00\n      mload(0x40)\n      dup1\n      dup4\n      sub\n      dup2\n      dup6\n      dup9\n      dup9\n      call\n      swap4\n      pop\n      pop\n      pop\n      pop\n      iszero\n      dup1\n      iszero\n      tag_141\n      jumpi\n      returndatasize\n      0x00\n      dup1\n      returndatacopy\n      revert(0x00, returndatasize)\n    tag_141:\n      pop\n        /* \"src/nftMarketPlace.sol\":3053:3064  nftContract */\n      dup4\n        /* \"src/nftMarketPlace.sol\":3045:3078  IERC721(nftContract).transferFrom */\n      0xffffffffffffffffffffffffffffffffffffffff\n      and\n      0x23b872dd\n        /* \"src/nftMarketPlace.sol\":3087:3091  this */\n      address\n        /* \"src/nftMarketPlace.sol\":3094:3104  msg.sender */\n      caller\n        /* \"src/nftMarketPlace.sol\":3106:3114  tokenIds */\n      dup5\n        /* \"src/nftMarketPlace.sol\":3045:3115  IERC721(nftContract).transferFrom(address(this), msg.sender, tokenIds) */\n      mload(0x40)\n      dup5\n      0xffffffff\n      and\n      0xe0\n      shl\n      dup2\n      mstore\n      0x04\n      add\n      tag_142\n      swap4\n      swap3\n      swap2\n      swap1\n      tag_102\n      jump\t// in\n    tag_142:\n      0x00\n      mload(0x40)\n      dup1\n      dup4\n      sub\n      dup2\n      0x00\n      dup8\n      dup1\n      extcodesize\n      iszero\n      dup1\n      iszero\n      tag_143\n      jumpi\n      0x00\n      dup1\n      revert\n    tag_143:\n      pop\n      gas\n      call\n      iszero\n      dup1\n      iszero\n      tag_145\n      jumpi\n      returndatasize\n      0x00\n      dup1\n      returndatacopy\n      revert(0x00, returndatasize)\n    tag_145:\n      pop\n      pop\n      pop\n      pop\n        /* \"src/nftMarketPlace.sol\":3164:3174  msg.sender */\n      caller\n        /* \"src/nftMarketPlace.sol\":3125:3139  idToMarketItem */\n      0x05\n        /* \"src/nftMarketPlace.sol\":3125:3147  idToMarketItem[itemId] */\n      0x00\n        /* \"src/nftMarketPlace.sol\":3140:3146  itemId */\n      dup6\n        /* \"src/nftMarketPlace.sol\":3125:3147  idToMarketItem[itemId] */\n      dup2\n      mstore\n      0x20\n      add\n      swap1\n      dup2\n      mstore\n      0x20\n      add\n      0x00\n      keccak256\n        /* \"src/nftMarketPlace.sol\":3125:3153  idToMarketItem[itemId].owner */\n      0x04\n      add\n      0x00\n        /* \"src/nftMarketPlace.sol\":3125:3175  idToMarketItem[itemId].owner = payable(msg.sender) */\n      0x0100\n      exp\n      dup2\n      sload\n      dup2\n      0xffffffffffffffffffffffffffffffffffffffff\n      mul\n      not\n      and\n      swap1\n      dup4\n      0xffffffffffffffffffffffffffffffffffffffff\n      and\n      mul\n      or\n      swap1\n      sstore\n      pop\n        /* \"src/nftMarketPlace.sol\":3215:3219  true */\n      0x01\n        /* \"src/nftMarketPlace.sol\":3185:3199  idToMarketItem */\n      0x05\n        /* \"src/nftMarketPlace.sol\":3185:3207  idToMarketItem[itemId] */\n      0x00\n        /* \"src/nftMarketPlace.sol\":3200:3206  itemId */\n      dup6\n        /* \"src/nftMarketPlace.sol\":3185:3207  idToMarketItem[itemId] */\n      dup2\n      mstore\n      0x20\n      add\n      swap1\n      dup2\n      mstore\n      0x20\n      add\n      0x00\n      keccak256\n        /* \"src/nftMarketPlace.sol\":3185:3212  idToMarketItem[itemId].sold */\n      0x06\n      add\n      0x00\n        /* \"src/nftMarketPlace.sol\":3185:3219  idToMarketItem[itemId].sold = true */\n      0x0100\n      exp\n      dup2\n      sload\n      dup2\n      0xff\n      mul\n      not\n      and\n      swap1\n      dup4\n      iszero\n      iszero\n      mul\n      or\n      swap1\n      sstore\n      pop\n        /* \"src/nftMarketPlace.sol\":3229:3251  _itemsSold.increment() */\n      tag_146\n        /* \"src/nftMarketPlace.sol\":3229:3239  _itemsSold */\n      0x02\n        /* \"src/nftMarketPlace.sol\":3229:3249  _itemsSold.increment */\n      tag_99\n        /* \"src/nftMarketPlace.sol\":3229:3251  _itemsSold.increment() */\n      jump\t// in\n    tag_146:\n        /* \"src/nftMarketPlace.sol\":3269:3274  owner */\n      0x04\n      0x00\n      swap1\n      sload\n      swap1\n      0x0100\n      exp\n      swap1\n      div\n      0xffffffffffffffffffffffffffffffffffffffff\n      and\n        /* \"src/nftMarketPlace.sol\":3261:3284  payable(owner).transfer */\n      0xffffffffffffffffffffffffffffffffffffffff\n      and\n        /* \"src/nftMarketPlace.sol\":3261:3298  payable(owner).transfer(listingPrice) */\n      0x08fc\n        /* \"src/nftMarketPlace.sol\":3285:3297  listingPrice */\n      sload(0x03)\n        /* \"src/nftMarketPlace.sol\":3261:3298  payable(owner).transfer(listingPrice) */\n      swap1\n      dup2\n      iszero\n      mul\n      swap1\n      mload(0x40)\n      0x00\n      mload(0x40)\n      dup1\n      dup4\n      sub\n      dup2\n      dup6\n      dup9\n      dup9\n      call\n      swap4\n      pop\n      pop\n      pop\n      pop\n      iszero\n      dup1\n      iszero\n      tag_148\n      jumpi\n      returndatasize\n      0x00\n      dup1\n      returndatacopy\n      revert(0x00, returndatasize)\n    tag_148:\n      pop\n        /* \"src/nftMarketPlace.sol\":2807:3308  {... */\n      pop\n      pop\n        /* \"https://github.com/OpenZeppelin/openzeppelin-contracts/contracts/security/ReentrancyGuard.sol\":1701:1702  1 */\n      0x01\n        /* \"https://github.com/OpenZeppelin/openzeppelin-contracts/contracts/security/ReentrancyGuard.sol\":2628:2635  _status */\n      0x00\n        /* \"https://github.com/OpenZeppelin/openzeppelin-contracts/contracts/security/ReentrancyGuard.sol\":2628:2650  _status = _NOT_ENTERED */\n      dup2\n      swap1\n      sstore\n      pop\n        /* \"src/nftMarketPlace.sol\":2716:3308  function createMarketSale(address nftContract, uint256 itemId) public payable nonReentrant {... */\n      pop\n      pop\n      jump\t// out\n        /* \"src/nftMarketPlace.sol\":602:640  uint256 public listingPrice = 10 ether */\n    tag_37:\n      sload(0x03)\n      dup2\n      jump\t// out\n        /* \"https://github.com/OpenZeppelin/openzeppelin-contracts/contracts/utils/Counters.sol\":827:939  function current(Counter storage counter) internal view returns (uint256) {... */\n    tag_42:\n        /* \"https://github.com/OpenZeppelin/openzeppelin-contracts/contracts/utils/Counters.sol\":892:899  uint256 */\n      0x00\n        /* \"https://github.com/OpenZeppelin/openzeppelin-contracts/contracts/utils/Counters.sol\":918:925  counter */\n      dup2\n        /* \"https://github.com/OpenZeppelin/openzeppelin-contracts/contracts/utils/Counters.sol\":918:932  counter._value */\n      0x00\n      add\n      sload\n        /* \"https://github.com/OpenZeppelin/openzeppelin-contracts/contracts/utils/Counters.sol\":911:932  return counter._value */\n      swap1\n      pop\n        /* \"https://github.com/OpenZeppelin/openzeppelin-contracts/contracts/utils/Counters.sol\":827:939  function current(Counter storage counter) internal view returns (uint256) {... */\n      swap2\n      swap1\n      pop\n      jump\t// out\n        /* \"https://github.com/OpenZeppelin/openzeppelin-contracts/contracts/utils/Counters.sol\":945:1068  function increment(Counter storage counter) internal {... */\n    tag_99:\n        /* \"https://github.com/OpenZeppelin/openzeppelin-contracts/contracts/utils/Counters.sol\":1050:1051  1 */\n      0x01\n        /* \"https://github.com/OpenZeppelin/openzeppelin-contracts/contracts/utils/Counters.sol\":1032:1039  counter */\n      dup2\n        /* \"https://github.com/OpenZeppelin/openzeppelin-contracts/contracts/utils/Counters.sol\":1032:1046  counter._value */\n      0x00\n      add\n      0x00\n        /* \"https://github.com/OpenZeppelin/openzeppelin-contracts/contracts/utils/Counters.sol\":1032:1051  counter._value += 1 */\n      dup3\n      dup3\n      sload\n      add\n      swap3\n      pop\n      pop\n      dup2\n      swap1\n      sstore\n      pop\n        /* \"https://github.com/OpenZeppelin/openzeppelin-contracts/contracts/utils/Counters.sol\":945:1068  function increment(Counter storage counter) internal {... */\n      pop\n      jump\t// out\n    tag_53:\n      mload(0x40)\n      dup1\n      0xe0\n      add\n      0x40\n      mstore\n      dup1\n      0x00\n      dup2\n      mstore\n      0x20\n      add\n      and(0xffffffffffffffffffffffffffffffffffffffff, 0x00)\n      dup2\n      mstore\n      0x20\n      add\n      0x00\n      dup2\n      mstore\n      0x20\n      add\n      and(0xffffffffffffffffffffffffffffffffffffffff, 0x00)\n      dup2\n      mstore\n      0x20\n      add\n      and(0xffffffffffffffffffffffffffffffffffffffff, 0x00)\n      dup2\n      mstore\n      0x20\n      add\n      0x00\n      dup2\n      mstore\n      0x20\n      add\n      iszero(iszero(0x00))\n      dup2\n      mstore\n      pop\n      swap1\n      jump\t// out\n        /* \"#utility.yul\":7:149   */\n    tag_151:\n        /* \"#utility.yul\":102:108   */\n      0x00\n        /* \"#utility.yul\":136:141   */\n      dup2\n        /* \"#utility.yul\":130:142   */\n      mload\n        /* \"#utility.yul\":120:142   */\n      swap1\n      pop\n        /* \"#utility.yul\":7:149   */\n      swap2\n      swap1\n      pop\n      jump\t// out\n        /* \"#utility.yul\":155:367   */\n    tag_152:\n        /* \"#utility.yul\":282:293   */\n      0x00\n        /* \"#utility.yul\":316:322   */\n      dup3\n        /* \"#utility.yul\":311:314   */\n      dup3\n        /* \"#utility.yul\":304:323   */\n      mstore\n        /* \"#utility.yul\":356:360   */\n      0x20\n        /* \"#utility.yul\":351:354   */\n      dup3\n        /* \"#utility.yul\":347:361   */\n      add\n        /* \"#utility.yul\":332:361   */\n      swap1\n      pop\n        /* \"#utility.yul\":155:367   */\n      swap3\n      swap2\n      pop\n      pop\n      jump\t// out\n        /* \"#utility.yul\":373:533   */\n    tag_153:\n        /* \"#utility.yul\":468:472   */\n      0x00\n        /* \"#utility.yul\":491:494   */\n      dup2\n        /* \"#utility.yul\":483:494   */\n      swap1\n      pop\n        /* \"#utility.yul\":521:525   */\n      0x20\n        /* \"#utility.yul\":516:519   */\n      dup3\n        /* \"#utility.yul\":512:526   */\n      add\n        /* \"#utility.yul\":504:526   */\n      swap1\n      pop\n        /* \"#utility.yul\":373:533   */\n      swap2\n      swap1\n      pop\n      jump\t// out\n        /* \"#utility.yul\":539:616   */\n    tag_154:\n        /* \"#utility.yul\":576:583   */\n      0x00\n        /* \"#utility.yul\":605:610   */\n      dup2\n        /* \"#utility.yul\":594:610   */\n      swap1\n      pop\n        /* \"#utility.yul\":539:616   */\n      swap2\n      swap1\n      pop\n      jump\t// out\n        /* \"#utility.yul\":622:730   */\n    tag_155:\n        /* \"#utility.yul\":699:723   */\n      tag_187\n        /* \"#utility.yul\":717:722   */\n      dup2\n        /* \"#utility.yul\":699:723   */\n      tag_154\n      jump\t// in\n    tag_187:\n        /* \"#utility.yul\":694:697   */\n      dup3\n        /* \"#utility.yul\":687:724   */\n      mstore\n        /* \"#utility.yul\":622:730   */\n      pop\n      pop\n      jump\t// out\n        /* \"#utility.yul\":736:862   */\n    tag_156:\n        /* \"#utility.yul\":773:780   */\n      0x00\n        /* \"#utility.yul\":813:855   */\n      0xffffffffffffffffffffffffffffffffffffffff\n        /* \"#utility.yul\":806:811   */\n      dup3\n        /* \"#utility.yul\":802:856   */\n      and\n        /* \"#utility.yul\":791:856   */\n      swap1\n      pop\n        /* \"#utility.yul\":736:862   */\n      swap2\n      swap1\n      pop\n      jump\t// out\n        /* \"#utility.yul\":868:964   */\n    tag_157:\n        /* \"#utility.yul\":905:912   */\n      0x00\n        /* \"#utility.yul\":934:958   */\n      tag_190\n        /* \"#utility.yul\":952:957   */\n      dup3\n        /* \"#utility.yul\":934:958   */\n      tag_156\n      jump\t// in\n    tag_190:\n        /* \"#utility.yul\":923:958   */\n      swap1\n      pop\n        /* \"#utility.yul\":868:964   */\n      swap2\n      swap1\n      pop\n      jump\t// out\n        /* \"#utility.yul\":970:1078   */\n    tag_158:\n        /* \"#utility.yul\":1047:1071   */\n      tag_192\n        /* \"#utility.yul\":1065:1070   */\n      dup2\n        /* \"#utility.yul\":1047:1071   */\n      tag_157\n      jump\t// in\n    tag_192:\n        /* \"#utility.yul\":1042:1045   */\n      dup3\n        /* \"#utility.yul\":1035:1072   */\n      mstore\n        /* \"#utility.yul\":970:1078   */\n      pop\n      pop\n      jump\t// out\n        /* \"#utility.yul\":1084:1188   */\n    tag_159:\n        /* \"#utility.yul\":1129:1136   */\n      0x00\n        /* \"#utility.yul\":1158:1182   */\n      tag_194\n        /* \"#utility.yul\":1176:1181   */\n      dup3\n        /* \"#utility.yul\":1158:1182   */\n      tag_156\n      jump\t// in\n    tag_194:\n        /* \"#utility.yul\":1147:1182   */\n      swap1\n      pop\n        /* \"#utility.yul\":1084:1188   */\n      swap2\n      swap1\n      pop\n      jump\t// out\n        /* \"#utility.yul\":1194:1326   */\n    tag_160:\n        /* \"#utility.yul\":1287:1319   */\n      tag_196\n        /* \"#utility.yul\":1313:1318   */\n      dup2\n        /* \"#utility.yul\":1287:1319   */\n      tag_159\n      jump\t// in\n    tag_196:\n        /* \"#utility.yul\":1282:1285   */\n      dup3\n        /* \"#utility.yul\":1275:1320   */\n      mstore\n        /* \"#utility.yul\":1194:1326   */\n      pop\n      pop\n      jump\t// out\n        /* \"#utility.yul\":1332:1422   */\n    tag_161:\n        /* \"#utility.yul\":1366:1373   */\n      0x00\n        /* \"#utility.yul\":1409:1414   */\n      dup2\n        /* \"#utility.yul\":1402:1415   */\n      iszero\n        /* \"#utility.yul\":1395:1416   */\n      iszero\n        /* \"#utility.yul\":1384:1416   */\n      swap1\n      pop\n        /* \"#utility.yul\":1332:1422   */\n      swap2\n      swap1\n      pop\n      jump\t// out\n        /* \"#utility.yul\":1428:1527   */\n    tag_162:\n        /* \"#utility.yul\":1499:1520   */\n      tag_199\n        /* \"#utility.yul\":1514:1519   */\n      dup2\n        /* \"#utility.yul\":1499:1520   */\n      tag_161\n      jump\t// in\n    tag_199:\n        /* \"#utility.yul\":1494:1497   */\n      dup3\n        /* \"#utility.yul\":1487:1521   */\n      mstore\n        /* \"#utility.yul\":1428:1527   */\n      pop\n      pop\n      jump\t// out\n        /* \"#utility.yul\":1609:3024   */\n    tag_163:\n        /* \"#utility.yul\":1752:1756   */\n      0xe0\n        /* \"#utility.yul\":1747:1750   */\n      dup3\n        /* \"#utility.yul\":1743:1757   */\n      add\n        /* \"#utility.yul\":1841:1845   */\n      0x00\n        /* \"#utility.yul\":1834:1839   */\n      dup3\n        /* \"#utility.yul\":1830:1846   */\n      add\n        /* \"#utility.yul\":1824:1847   */\n      mload\n        /* \"#utility.yul\":1860:1923   */\n      tag_201\n        /* \"#utility.yul\":1917:1921   */\n      0x00\n        /* \"#utility.yul\":1912:1915   */\n      dup6\n        /* \"#utility.yul\":1908:1922   */\n      add\n        /* \"#utility.yul\":1894:1906   */\n      dup3\n        /* \"#utility.yul\":1860:1923   */\n      tag_155\n      jump\t// in\n    tag_201:\n        /* \"#utility.yul\":1767:1933   */\n      pop\n        /* \"#utility.yul\":2022:2026   */\n      0x20\n        /* \"#utility.yul\":2015:2020   */\n      dup3\n        /* \"#utility.yul\":2011:2027   */\n      add\n        /* \"#utility.yul\":2005:2028   */\n      mload\n        /* \"#utility.yul\":2041:2104   */\n      tag_202\n        /* \"#utility.yul\":2098:2102   */\n      0x20\n        /* \"#utility.yul\":2093:2096   */\n      dup6\n        /* \"#utility.yul\":2089:2103   */\n      add\n        /* \"#utility.yul\":2075:2087   */\n      dup3\n        /* \"#utility.yul\":2041:2104   */\n      tag_158\n      jump\t// in\n    tag_202:\n        /* \"#utility.yul\":1943:2114   */\n      pop\n        /* \"#utility.yul\":2199:2203   */\n      0x40\n        /* \"#utility.yul\":2192:2197   */\n      dup3\n        /* \"#utility.yul\":2188:2204   */\n      add\n        /* \"#utility.yul\":2182:2205   */\n      mload\n        /* \"#utility.yul\":2218:2281   */\n      tag_203\n        /* \"#utility.yul\":2275:2279   */\n      0x40\n        /* \"#utility.yul\":2270:2273   */\n      dup6\n        /* \"#utility.yul\":2266:2280   */\n      add\n        /* \"#utility.yul\":2252:2264   */\n      dup3\n        /* \"#utility.yul\":2218:2281   */\n      tag_155\n      jump\t// in\n    tag_203:\n        /* \"#utility.yul\":2124:2291   */\n      pop\n        /* \"#utility.yul\":2375:2379   */\n      0x60\n        /* \"#utility.yul\":2368:2373   */\n      dup3\n        /* \"#utility.yul\":2364:2380   */\n      add\n        /* \"#utility.yul\":2358:2381   */\n      mload\n        /* \"#utility.yul\":2394:2473   */\n      tag_204\n        /* \"#utility.yul\":2467:2471   */\n      0x60\n        /* \"#utility.yul\":2462:2465   */\n      dup6\n        /* \"#utility.yul\":2458:2472   */\n      add\n        /* \"#utility.yul\":2444:2456   */\n      dup3\n        /* \"#utility.yul\":2394:2473   */\n      tag_160\n      jump\t// in\n    tag_204:\n        /* \"#utility.yul\":2301:2483   */\n      pop\n        /* \"#utility.yul\":2566:2570   */\n      0x80\n        /* \"#utility.yul\":2559:2564   */\n      dup3\n        /* \"#utility.yul\":2555:2571   */\n      add\n        /* \"#utility.yul\":2549:2572   */\n      mload\n        /* \"#utility.yul\":2585:2664   */\n      tag_205\n        /* \"#utility.yul\":2658:2662   */\n      0x80\n        /* \"#utility.yul\":2653:2656   */\n      dup6\n        /* \"#utility.yul\":2649:2663   */\n      add\n        /* \"#utility.yul\":2635:2647   */\n      dup3\n        /* \"#utility.yul\":2585:2664   */\n      tag_160\n      jump\t// in\n    tag_205:\n        /* \"#utility.yul\":2493:2674   */\n      pop\n        /* \"#utility.yul\":2757:2761   */\n      0xa0\n        /* \"#utility.yul\":2750:2755   */\n      dup3\n        /* \"#utility.yul\":2746:2762   */\n      add\n        /* \"#utility.yul\":2740:2763   */\n      mload\n        /* \"#utility.yul\":2776:2839   */\n      tag_206\n        /* \"#utility.yul\":2833:2837   */\n      0xa0\n        /* \"#utility.yul\":2828:2831   */\n      dup6\n        /* \"#utility.yul\":2824:2838   */\n      add\n        /* \"#utility.yul\":2810:2822   */\n      dup3\n        /* \"#utility.yul\":2776:2839   */\n      tag_155\n      jump\t// in\n    tag_206:\n        /* \"#utility.yul\":2684:2849   */\n      pop\n        /* \"#utility.yul\":2931:2935   */\n      0xc0\n        /* \"#utility.yul\":2924:2929   */\n      dup3\n        /* \"#utility.yul\":2920:2936   */\n      add\n        /* \"#utility.yul\":2914:2937   */\n      mload\n        /* \"#utility.yul\":2950:3007   */\n      tag_207\n        /* \"#utility.yul\":3001:3005   */\n      0xc0\n        /* \"#utility.yul\":2996:2999   */\n      dup6\n        /* \"#utility.yul\":2992:3006   */\n      add\n        /* \"#utility.yul\":2978:2990   */\n      dup3\n        /* \"#utility.yul\":2950:3007   */\n      tag_162\n      jump\t// in\n    tag_207:\n        /* \"#utility.yul\":2859:3017   */\n      pop\n        /* \"#utility.yul\":1721:3024   */\n      pop\n        /* \"#utility.yul\":1609:3024   */\n      pop\n      pop\n      jump\t// out\n        /* \"#utility.yul\":3030:3321   */\n    tag_164:\n        /* \"#utility.yul\":3155:3165   */\n      0x00\n        /* \"#utility.yul\":3176:3278   */\n      tag_209\n        /* \"#utility.yul\":3274:3277   */\n      dup4\n        /* \"#utility.yul\":3266:3272   */\n      dup4\n        /* \"#utility.yul\":3176:3278   */\n      tag_163\n      jump\t// in\n    tag_209:\n        /* \"#utility.yul\":3310:3314   */\n      0xe0\n        /* \"#utility.yul\":3305:3308   */\n      dup4\n        /* \"#utility.yul\":3301:3315   */\n      add\n        /* \"#utility.yul\":3287:3315   */\n      swap1\n      pop\n        /* \"#utility.yul\":3030:3321   */\n      swap3\n      swap2\n      pop\n      pop\n      jump\t// out\n        /* \"#utility.yul\":3327:3468   */\n    tag_165:\n        /* \"#utility.yul\":3425:3429   */\n      0x00\n        /* \"#utility.yul\":3457:3461   */\n      0x20\n        /* \"#utility.yul\":3452:3455   */\n      dup3\n        /* \"#utility.yul\":3448:3462   */\n      add\n        /* \"#utility.yul\":3440:3462   */\n      swap1\n      pop\n        /* \"#utility.yul\":3327:3468   */\n      swap2\n      swap1\n      pop\n      jump\t// out\n        /* \"#utility.yul\":3554:4510   */\n    tag_166:\n        /* \"#utility.yul\":3729:3732   */\n      0x00\n        /* \"#utility.yul\":3758:3840   */\n      tag_212\n        /* \"#utility.yul\":3834:3839   */\n      dup3\n        /* \"#utility.yul\":3758:3840   */\n      tag_151\n      jump\t// in\n    tag_212:\n        /* \"#utility.yul\":3856:3970   */\n      tag_213\n        /* \"#utility.yul\":3963:3969   */\n      dup2\n        /* \"#utility.yul\":3958:3961   */\n      dup6\n        /* \"#utility.yul\":3856:3970   */\n      tag_152\n      jump\t// in\n    tag_213:\n        /* \"#utility.yul\":3849:3970   */\n      swap4\n      pop\n        /* \"#utility.yul\":3994:4078   */\n      tag_214\n        /* \"#utility.yul\":4072:4077   */\n      dup4\n        /* \"#utility.yul\":3994:4078   */\n      tag_153\n      jump\t// in\n    tag_214:\n        /* \"#utility.yul\":4101:4108   */\n      dup1\n        /* \"#utility.yul\":4132:4133   */\n      0x00\n        /* \"#utility.yul\":4117:4485   */\n    tag_215:\n        /* \"#utility.yul\":4142:4148   */\n      dup4\n        /* \"#utility.yul\":4139:4140   */\n      dup2\n        /* \"#utility.yul\":4136:4149   */\n      lt\n        /* \"#utility.yul\":4117:4485   */\n      iszero\n      tag_217\n      jumpi\n        /* \"#utility.yul\":4218:4224   */\n      dup2\n        /* \"#utility.yul\":4212:4225   */\n      mload\n        /* \"#utility.yul\":4245:4364   */\n      tag_218\n        /* \"#utility.yul\":4360:4363   */\n      dup9\n        /* \"#utility.yul\":4345:4358   */\n      dup3\n        /* \"#utility.yul\":4245:4364   */\n      tag_164\n      jump\t// in\n    tag_218:\n        /* \"#utility.yul\":4238:4364   */\n      swap8\n      pop\n        /* \"#utility.yul\":4387:4475   */\n      tag_219\n        /* \"#utility.yul\":4468:4474   */\n      dup4\n        /* \"#utility.yul\":4387:4475   */\n      tag_165\n      jump\t// in\n    tag_219:\n        /* \"#utility.yul\":4377:4475   */\n      swap3\n      pop\n        /* \"#utility.yul\":4177:4485   */\n      pop\n        /* \"#utility.yul\":4164:4165   */\n      0x01\n        /* \"#utility.yul\":4161:4162   */\n      dup2\n        /* \"#utility.yul\":4157:4166   */\n      add\n        /* \"#utility.yul\":4152:4166   */\n      swap1\n      pop\n        /* \"#utility.yul\":4117:4485   */\n      jump(tag_215)\n    tag_217:\n        /* \"#utility.yul\":4121:4135   */\n      pop\n        /* \"#utility.yul\":4501:4504   */\n      dup6\n        /* \"#utility.yul\":4494:4504   */\n      swap4\n      pop\n        /* \"#utility.yul\":3734:4510   */\n      pop\n      pop\n      pop\n        /* \"#utility.yul\":3554:4510   */\n      swap3\n      swap2\n      pop\n      pop\n      jump\t// out\n        /* \"#utility.yul\":4516:5001   */\n    tag_14:\n        /* \"#utility.yul\":4715:4719   */\n      0x00\n        /* \"#utility.yul\":4753:4755   */\n      0x20\n        /* \"#utility.yul\":4742:4751   */\n      dup3\n        /* \"#utility.yul\":4738:4756   */\n      add\n        /* \"#utility.yul\":4730:4756   */\n      swap1\n      pop\n        /* \"#utility.yul\":4802:4811   */\n      dup2\n        /* \"#utility.yul\":4796:4800   */\n      dup2\n        /* \"#utility.yul\":4792:4812   */\n      sub\n        /* \"#utility.yul\":4788:4789   */\n      0x00\n        /* \"#utility.yul\":4777:4786   */\n      dup4\n        /* \"#utility.yul\":4773:4790   */\n      add\n        /* \"#utility.yul\":4766:4813   */\n      mstore\n        /* \"#utility.yul\":4830:4994   */\n      tag_221\n        /* \"#utility.yul\":4989:4993   */\n      dup2\n        /* \"#utility.yul\":4980:4986   */\n      dup5\n        /* \"#utility.yul\":4830:4994   */\n      tag_166\n      jump\t// in\n    tag_221:\n        /* \"#utility.yul\":4822:4994   */\n      swap1\n      pop\n        /* \"#utility.yul\":4516:5001   */\n      swap3\n      swap2\n      pop\n      pop\n      jump\t// out\n        /* \"#utility.yul\":5088:5205   */\n    tag_168:\n        /* \"#utility.yul\":5197:5198   */\n      0x00\n        /* \"#utility.yul\":5194:5195   */\n      dup1\n        /* \"#utility.yul\":5187:5199   */\n      revert\n        /* \"#utility.yul\":5334:5456   */\n    tag_170:\n        /* \"#utility.yul\":5407:5431   */\n      tag_226\n        /* \"#utility.yul\":5425:5430   */\n      dup2\n        /* \"#utility.yul\":5407:5431   */\n      tag_157\n      jump\t// in\n    tag_226:\n        /* \"#utility.yul\":5400:5405   */\n      dup2\n        /* \"#utility.yul\":5397:5432   */\n      eq\n        /* \"#utility.yul\":5387:5450   */\n      tag_227\n      jumpi\n        /* \"#utility.yul\":5446:5447   */\n      0x00\n        /* \"#utility.yul\":5443:5444   */\n      dup1\n        /* \"#utility.yul\":5436:5448   */\n      revert\n        /* \"#utility.yul\":5387:5450   */\n    tag_227:\n        /* \"#utility.yul\":5334:5456   */\n      pop\n      jump\t// out\n        /* \"#utility.yul\":5462:5601   */\n    tag_171:\n        /* \"#utility.yul\":5508:5513   */\n      0x00\n        /* \"#utility.yul\":5546:5552   */\n      dup2\n        /* \"#utility.yul\":5533:5553   */\n      calldataload\n        /* \"#utility.yul\":5524:5553   */\n      swap1\n      pop\n        /* \"#utility.yul\":5562:5595   */\n      tag_229\n        /* \"#utility.yul\":5589:5594   */\n      dup2\n        /* \"#utility.yul\":5562:5595   */\n      tag_170\n      jump\t// in\n    tag_229:\n        /* \"#utility.yul\":5462:5601   */\n      swap3\n      swap2\n      pop\n      pop\n      jump\t// out\n        /* \"#utility.yul\":5607:5729   */\n    tag_172:\n        /* \"#utility.yul\":5680:5704   */\n      tag_231\n        /* \"#utility.yul\":5698:5703   */\n      dup2\n        /* \"#utility.yul\":5680:5704   */\n      tag_154\n      jump\t// in\n    tag_231:\n        /* \"#utility.yul\":5673:5678   */\n      dup2\n        /* \"#utility.yul\":5670:5705   */\n      eq\n        /* \"#utility.yul\":5660:5723   */\n      tag_232\n      jumpi\n        /* \"#utility.yul\":5719:5720   */\n      0x00\n        /* \"#utility.yul\":5716:5717   */\n      dup1\n        /* \"#utility.yul\":5709:5721   */\n      revert\n        /* \"#utility.yul\":5660:5723   */\n    tag_232:\n        /* \"#utility.yul\":5607:5729   */\n      pop\n      jump\t// out\n        /* \"#utility.yul\":5735:5874   */\n    tag_173:\n        /* \"#utility.yul\":5781:5786   */\n      0x00\n        /* \"#utility.yul\":5819:5825   */\n      dup2\n        /* \"#utility.yul\":5806:5826   */\n      calldataload\n        /* \"#utility.yul\":5797:5826   */\n      swap1\n      pop\n        /* \"#utility.yul\":5835:5868   */\n      tag_234\n        /* \"#utility.yul\":5862:5867   */\n      dup2\n        /* \"#utility.yul\":5835:5868   */\n      tag_172\n      jump\t// in\n    tag_234:\n        /* \"#utility.yul\":5735:5874   */\n      swap3\n      swap2\n      pop\n      pop\n      jump\t// out\n        /* \"#utility.yul\":5880:6499   */\n    tag_21:\n        /* \"#utility.yul\":5957:5963   */\n      0x00\n        /* \"#utility.yul\":5965:5971   */\n      dup1\n        /* \"#utility.yul\":5973:5979   */\n      0x00\n        /* \"#utility.yul\":6022:6024   */\n      0x60\n        /* \"#utility.yul\":6010:6019   */\n      dup5\n        /* \"#utility.yul\":6001:6008   */\n      dup7\n        /* \"#utility.yul\":5997:6020   */\n      sub\n        /* \"#utility.yul\":5993:6025   */\n      slt\n        /* \"#utility.yul\":5990:6109   */\n      iszero\n      tag_236\n      jumpi\n        /* \"#utility.yul\":6028:6107   */\n      tag_237\n      tag_168\n      jump\t// in\n    tag_237:\n        /* \"#utility.yul\":5990:6109   */\n    tag_236:\n        /* \"#utility.yul\":6148:6149   */\n      0x00\n        /* \"#utility.yul\":6173:6226   */\n      tag_238\n        /* \"#utility.yul\":6218:6225   */\n      dup7\n        /* \"#utility.yul\":6209:6215   */\n      dup3\n        /* \"#utility.yul\":6198:6207   */\n      dup8\n        /* \"#utility.yul\":6194:6216   */\n      add\n        /* \"#utility.yul\":6173:6226   */\n      tag_171\n      jump\t// in\n    tag_238:\n        /* \"#utility.yul\":6163:6226   */\n      swap4\n      pop\n        /* \"#utility.yul\":6119:6236   */\n      pop\n        /* \"#utility.yul\":6275:6277   */\n      0x20\n        /* \"#utility.yul\":6301:6354   */\n      tag_239\n        /* \"#utility.yul\":6346:6353   */\n      dup7\n        /* \"#utility.yul\":6337:6343   */\n      dup3\n        /* \"#utility.yul\":6326:6335   */\n      dup8\n        /* \"#utility.yul\":6322:6344   */\n      add\n        /* \"#utility.yul\":6301:6354   */\n      tag_173\n      jump\t// in\n    tag_239:\n        /* \"#utility.yul\":6291:6354   */\n      swap3\n      pop\n        /* \"#utility.yul\":6246:6364   */\n      pop\n        /* \"#utility.yul\":6403:6405   */\n      0x40\n        /* \"#utility.yul\":6429:6482   */\n      tag_240\n        /* \"#utility.yul\":6474:6481   */\n      dup7\n        /* \"#utility.yul\":6465:6471   */\n      dup3\n        /* \"#utility.yul\":6454:6463   */\n      dup8\n        /* \"#utility.yul\":6450:6472   */\n      add\n        /* \"#utility.yul\":6429:6482   */\n      tag_173\n      jump\t// in\n    tag_240:\n        /* \"#utility.yul\":6419:6482   */\n      swap2\n      pop\n        /* \"#utility.yul\":6374:6492   */\n      pop\n        /* \"#utility.yul\":5880:6499   */\n      swap3\n      pop\n      swap3\n      pop\n      swap3\n      jump\t// out\n        /* \"#utility.yul\":6505:6834   */\n    tag_29:\n        /* \"#utility.yul\":6564:6570   */\n      0x00\n        /* \"#utility.yul\":6613:6615   */\n      0x20\n        /* \"#utility.yul\":6601:6610   */\n      dup3\n        /* \"#utility.yul\":6592:6599   */\n      dup5\n        /* \"#utility.yul\":6588:6611   */\n      sub\n        /* \"#utility.yul\":6584:6616   */\n      slt\n        /* \"#utility.yul\":6581:6700   */\n      iszero\n      tag_242\n      jumpi\n        /* \"#utility.yul\":6619:6698   */\n      tag_243\n      tag_168\n      jump\t// in\n    tag_243:\n        /* \"#utility.yul\":6581:6700   */\n    tag_242:\n        /* \"#utility.yul\":6739:6740   */\n      0x00\n        /* \"#utility.yul\":6764:6817   */\n      tag_244\n        /* \"#utility.yul\":6809:6816   */\n      dup5\n        /* \"#utility.yul\":6800:6806   */\n      dup3\n        /* \"#utility.yul\":6789:6798   */\n      dup6\n        /* \"#utility.yul\":6785:6807   */\n      add\n        /* \"#utility.yul\":6764:6817   */\n      tag_173\n      jump\t// in\n    tag_244:\n        /* \"#utility.yul\":6754:6817   */\n      swap2\n      pop\n        /* \"#utility.yul\":6710:6827   */\n      pop\n        /* \"#utility.yul\":6505:6834   */\n      swap3\n      swap2\n      pop\n      pop\n      jump\t// out\n        /* \"#utility.yul\":6840:7314   */\n    tag_33:\n        /* \"#utility.yul\":6908:6914   */\n      0x00\n        /* \"#utility.yul\":6916:6922   */\n      dup1\n        /* \"#utility.yul\":6965:6967   */\n      0x40\n        /* \"#utility.yul\":6953:6962   */\n      dup4\n        /* \"#utility.yul\":6944:6951   */\n      dup6\n        /* \"#utility.yul\":6940:6963   */\n      sub\n        /* \"#utility.yul\":6936:6968   */\n      slt\n        /* \"#utility.yul\":6933:7052   */\n      iszero\n      tag_246\n      jumpi\n        /* \"#utility.yul\":6971:7050   */\n      tag_247\n      tag_168\n      jump\t// in\n    tag_247:\n        /* \"#utility.yul\":6933:7052   */\n    tag_246:\n        /* \"#utility.yul\":7091:7092   */\n      0x00\n        /* \"#utility.yul\":7116:7169   */\n      tag_248\n        /* \"#utility.yul\":7161:7168   */\n      dup6\n        /* \"#utility.yul\":7152:7158   */\n      dup3\n        /* \"#utility.yul\":7141:7150   */\n      dup7\n        /* \"#utility.yul\":7137:7159   */\n      add\n        /* \"#utility.yul\":7116:7169   */\n      tag_171\n      jump\t// in\n    tag_248:\n        /* \"#utility.yul\":7106:7169   */\n      swap3\n      pop\n        /* \"#utility.yul\":7062:7179   */\n      pop\n        /* \"#utility.yul\":7218:7220   */\n      0x20\n        /* \"#utility.yul\":7244:7297   */\n      tag_249\n        /* \"#utility.yul\":7289:7296   */\n      dup6\n        /* \"#utility.yul\":7280:7286   */\n      dup3\n        /* \"#utility.yul\":7269:7278   */\n      dup7\n        /* \"#utility.yul\":7265:7287   */\n      add\n        /* \"#utility.yul\":7244:7297   */\n      tag_173\n      jump\t// in\n    tag_249:\n        /* \"#utility.yul\":7234:7297   */\n      swap2\n      pop\n        /* \"#utility.yul\":7189:7307   */\n      pop\n        /* \"#utility.yul\":6840:7314   */\n      swap3\n      pop\n      swap3\n      swap1\n      pop\n      jump\t// out\n        /* \"#utility.yul\":7320:7438   */\n    tag_174:\n        /* \"#utility.yul\":7407:7431   */\n      tag_251\n        /* \"#utility.yul\":7425:7430   */\n      dup2\n        /* \"#utility.yul\":7407:7431   */\n      tag_154\n      jump\t// in\n    tag_251:\n        /* \"#utility.yul\":7402:7405   */\n      dup3\n        /* \"#utility.yul\":7395:7432   */\n      mstore\n        /* \"#utility.yul\":7320:7438   */\n      pop\n      pop\n      jump\t// out\n        /* \"#utility.yul\":7444:7666   */\n    tag_39:\n        /* \"#utility.yul\":7537:7541   */\n      0x00\n        /* \"#utility.yul\":7575:7577   */\n      0x20\n        /* \"#utility.yul\":7564:7573   */\n      dup3\n        /* \"#utility.yul\":7560:7578   */\n      add\n        /* \"#utility.yul\":7552:7578   */\n      swap1\n      pop\n        /* \"#utility.yul\":7588:7659   */\n      tag_253\n        /* \"#utility.yul\":7656:7657   */\n      0x00\n        /* \"#utility.yul\":7645:7654   */\n      dup4\n        /* \"#utility.yul\":7641:7658   */\n      add\n        /* \"#utility.yul\":7632:7638   */\n      dup5\n        /* \"#utility.yul\":7588:7659   */\n      tag_174\n      jump\t// in\n    tag_253:\n        /* \"#utility.yul\":7444:7666   */\n      swap3\n      swap2\n      pop\n      pop\n      jump\t// out\n        /* \"#utility.yul\":7672:7852   */\n    tag_175:\n        /* \"#utility.yul\":7720:7797   */\n      0x4e487b7100000000000000000000000000000000000000000000000000000000\n        /* \"#utility.yul\":7717:7718   */\n      0x00\n        /* \"#utility.yul\":7710:7798   */\n      mstore\n        /* \"#utility.yul\":7817:7821   */\n      0x11\n        /* \"#utility.yul\":7814:7815   */\n      0x04\n        /* \"#utility.yul\":7807:7822   */\n      mstore\n        /* \"#utility.yul\":7841:7845   */\n      0x24\n        /* \"#utility.yul\":7838:7839   */\n      0x00\n        /* \"#utility.yul\":7831:7846   */\n      revert\n        /* \"#utility.yul\":7858:8049   */\n    tag_46:\n        /* \"#utility.yul\":7898:7902   */\n      0x00\n        /* \"#utility.yul\":7918:7938   */\n      tag_256\n        /* \"#utility.yul\":7936:7937   */\n      dup3\n        /* \"#utility.yul\":7918:7938   */\n      tag_154\n      jump\t// in\n    tag_256:\n        /* \"#utility.yul\":7913:7938   */\n      swap2\n      pop\n        /* \"#utility.yul\":7952:7972   */\n      tag_257\n        /* \"#utility.yul\":7970:7971   */\n      dup4\n        /* \"#utility.yul\":7952:7972   */\n      tag_154\n      jump\t// in\n    tag_257:\n        /* \"#utility.yul\":7947:7972   */\n      swap3\n      pop\n        /* \"#utility.yul\":7991:7992   */\n      dup3\n        /* \"#utility.yul\":7988:7989   */\n      dup3\n        /* \"#utility.yul\":7985:7993   */\n      lt\n        /* \"#utility.yul\":7982:8016   */\n      iszero\n      tag_258\n      jumpi\n        /* \"#utility.yul\":7996:8014   */\n      tag_259\n      tag_175\n      jump\t// in\n    tag_259:\n        /* \"#utility.yul\":7982:8016   */\n    tag_258:\n        /* \"#utility.yul\":8041:8042   */\n      dup3\n        /* \"#utility.yul\":8038:8039   */\n      dup3\n        /* \"#utility.yul\":8034:8043   */\n      sub\n        /* \"#utility.yul\":8026:8043   */\n      swap1\n      pop\n        /* \"#utility.yul\":7858:8049   */\n      swap3\n      swap2\n      pop\n      pop\n      jump\t// out\n        /* \"#utility.yul\":8055:8235   */\n    tag_49:\n        /* \"#utility.yul\":8103:8180   */\n      0x4e487b7100000000000000000000000000000000000000000000000000000000\n        /* \"#utility.yul\":8100:8101   */\n      0x00\n        /* \"#utility.yul\":8093:8181   */\n      mstore\n        /* \"#utility.yul\":8200:8204   */\n      0x41\n        /* \"#utility.yul\":8197:8198   */\n      0x04\n        /* \"#utility.yul\":8190:8205   */\n      mstore\n        /* \"#utility.yul\":8224:8228   */\n      0x24\n        /* \"#utility.yul\":8221:8222   */\n      0x00\n        /* \"#utility.yul\":8214:8229   */\n      revert\n        /* \"#utility.yul\":8241:8546   */\n    tag_58:\n        /* \"#utility.yul\":8281:8284   */\n      0x00\n        /* \"#utility.yul\":8300:8320   */\n      tag_262\n        /* \"#utility.yul\":8318:8319   */\n      dup3\n        /* \"#utility.yul\":8300:8320   */\n      tag_154\n      jump\t// in\n    tag_262:\n        /* \"#utility.yul\":8295:8320   */\n      swap2\n      pop\n        /* \"#utility.yul\":8334:8354   */\n      tag_263\n        /* \"#utility.yul\":8352:8353   */\n      dup4\n        /* \"#utility.yul\":8334:8354   */\n      tag_154\n      jump\t// in\n    tag_263:\n        /* \"#utility.yul\":8329:8354   */\n      swap3\n      pop\n        /* \"#utility.yul\":8488:8489   */\n      dup3\n        /* \"#utility.yul\":8420:8486   */\n      0xffffffffffffffffffffffffffffffffffffffffffffffffffffffffffffffff\n        /* \"#utility.yul\":8416:8490   */\n      sub\n        /* \"#utility.yul\":8413:8414   */\n      dup3\n        /* \"#utility.yul\":8410:8491   */\n      gt\n        /* \"#utility.yul\":8407:8514   */\n      iszero\n      tag_264\n      jumpi\n        /* \"#utility.yul\":8494:8512   */\n      tag_265\n      tag_175\n      jump\t// in\n    tag_265:\n        /* \"#utility.yul\":8407:8514   */\n    tag_264:\n        /* \"#utility.yul\":8538:8539   */\n      dup3\n        /* \"#utility.yul\":8535:8536   */\n      dup3\n        /* \"#utility.yul\":8531:8540   */\n      add\n        /* \"#utility.yul\":8524:8540   */\n      swap1\n      pop\n        /* \"#utility.yul\":8241:8546   */\n      swap3\n      swap2\n      pop\n      pop\n      jump\t// out\n        /* \"#utility.yul\":8552:8732   */\n    tag_63:\n        /* \"#utility.yul\":8600:8677   */\n      0x4e487b7100000000000000000000000000000000000000000000000000000000\n        /* \"#utility.yul\":8597:8598   */\n      0x00\n        /* \"#utility.yul\":8590:8678   */\n      mstore\n        /* \"#utility.yul\":8697:8701   */\n      0x32\n        /* \"#utility.yul\":8694:8695   */\n      0x04\n        /* \"#utility.yul\":8687:8702   */\n      mstore\n        /* \"#utility.yul\":8721:8725   */\n      0x24\n        /* \"#utility.yul\":8718:8719   */\n      0x00\n        /* \"#utility.yul\":8711:8726   */\n      revert\n        /* \"#utility.yul\":8738:8971   */\n    tag_66:\n        /* \"#utility.yul\":8777:8780   */\n      0x00\n        /* \"#utility.yul\":8800:8824   */\n      tag_268\n        /* \"#utility.yul\":8818:8823   */\n      dup3\n        /* \"#utility.yul\":8800:8824   */\n      tag_154\n      jump\t// in\n    tag_268:\n        /* \"#utility.yul\":8791:8824   */\n      swap2\n      pop\n        /* \"#utility.yul\":8846:8912   */\n      0xffffffffffffffffffffffffffffffffffffffffffffffffffffffffffffffff\n        /* \"#utility.yul\":8839:8844   */\n      dup3\n        /* \"#utility.yul\":8836:8913   */\n      sub\n        /* \"#utility.yul\":8833:8936   */\n      tag_269\n      jumpi\n        /* \"#utility.yul\":8916:8934   */\n      tag_270\n      tag_175\n      jump\t// in\n    tag_270:\n        /* \"#utility.yul\":8833:8936   */\n    tag_269:\n        /* \"#utility.yul\":8963:8964   */\n      0x01\n        /* \"#utility.yul\":8956:8961   */\n      dup3\n        /* \"#utility.yul\":8952:8965   */\n      add\n        /* \"#utility.yul\":8945:8965   */\n      swap1\n      pop\n        /* \"#utility.yul\":8738:8971   */\n      swap2\n      swap1\n      pop\n      jump\t// out\n        /* \"#utility.yul\":8977:9146   */\n    tag_176:\n        /* \"#utility.yul\":9061:9072   */\n      0x00\n        /* \"#utility.yul\":9095:9101   */\n      dup3\n        /* \"#utility.yul\":9090:9093   */\n      dup3\n        /* \"#utility.yul\":9083:9102   */\n      mstore\n        /* \"#utility.yul\":9135:9139   */\n      0x20\n        /* \"#utility.yul\":9130:9133   */\n      dup3\n        /* \"#utility.yul\":9126:9140   */\n      add\n        /* \"#utility.yul\":9111:9140   */\n      swap1\n      pop\n        /* \"#utility.yul\":8977:9146   */\n      swap3\n      swap2\n      pop\n      pop\n      jump\t// out\n        /* \"#utility.yul\":9152:9333   */\n    tag_177:\n        /* \"#utility.yul\":9292:9325   */\n      0x5265656e7472616e637947756172643a207265656e7472616e742063616c6c00\n        /* \"#utility.yul\":9288:9289   */\n      0x00\n        /* \"#utility.yul\":9280:9286   */\n      dup3\n        /* \"#utility.yul\":9276:9290   */\n      add\n        /* \"#utility.yul\":9269:9326   */\n      mstore\n        /* \"#utility.yul\":9152:9333   */\n      pop\n      jump\t// out\n        /* \"#utility.yul\":9339:9705   */\n    tag_178:\n        /* \"#utility.yul\":9481:9484   */\n      0x00\n        /* \"#utility.yul\":9502:9569   */\n      tag_274\n        /* \"#utility.yul\":9566:9568   */\n      0x1f\n        /* \"#utility.yul\":9561:9564   */\n      dup4\n        /* \"#utility.yul\":9502:9569   */\n      tag_176\n      jump\t// in\n    tag_274:\n        /* \"#utility.yul\":9495:9569   */\n      swap2\n      pop\n        /* \"#utility.yul\":9578:9671   */\n      tag_275\n        /* \"#utility.yul\":9667:9670   */\n      dup3\n        /* \"#utility.yul\":9578:9671   */\n      tag_177\n      jump\t// in\n    tag_275:\n        /* \"#utility.yul\":9696:9698   */\n      0x20\n        /* \"#utility.yul\":9691:9694   */\n      dup3\n        /* \"#utility.yul\":9687:9699   */\n      add\n        /* \"#utility.yul\":9680:9699   */\n      swap1\n      pop\n        /* \"#utility.yul\":9339:9705   */\n      swap2\n      swap1\n      pop\n      jump\t// out\n        /* \"#utility.yul\":9711:10130   */\n    tag_94:\n        /* \"#utility.yul\":9877:9881   */\n      0x00\n        /* \"#utility.yul\":9915:9917   */\n      0x20\n        /* \"#utility.yul\":9904:9913   */\n      dup3\n        /* \"#utility.yul\":9900:9918   */\n      add\n        /* \"#utility.yul\":9892:9918   */\n      swap1\n      pop\n        /* \"#utility.yul\":9964:9973   */\n      dup2\n        /* \"#utility.yul\":9958:9962   */\n      dup2\n        /* \"#utility.yul\":9954:9974   */\n      sub\n        /* \"#utility.yul\":9950:9951   */\n      0x00\n        /* \"#utility.yul\":9939:9948   */\n      dup4\n        /* \"#utility.yul\":9935:9952   */\n      add\n        /* \"#utility.yul\":9928:9975   */\n      mstore\n        /* \"#utility.yul\":9992:10123   */\n      tag_277\n        /* \"#utility.yul\":10118:10122   */\n      dup2\n        /* \"#utility.yul\":9992:10123   */\n      tag_178\n      jump\t// in\n    tag_277:\n        /* \"#utility.yul\":9984:10123   */\n      swap1\n      pop\n        /* \"#utility.yul\":9711:10130   */\n      swap2\n      swap1\n      pop\n      jump\t// out\n        /* \"#utility.yul\":10136:10254   */\n    tag_179:\n        /* \"#utility.yul\":10223:10247   */\n      tag_279\n        /* \"#utility.yul\":10241:10246   */\n      dup2\n        /* \"#utility.yul\":10223:10247   */\n      tag_157\n      jump\t// in\n    tag_279:\n        /* \"#utility.yul\":10218:10221   */\n      dup3\n        /* \"#utility.yul\":10211:10248   */\n      mstore\n        /* \"#utility.yul\":10136:10254   */\n      pop\n      pop\n      jump\t// out\n        /* \"#utility.yul\":10260:10702   */\n    tag_102:\n        /* \"#utility.yul\":10409:10413   */\n      0x00\n        /* \"#utility.yul\":10447:10449   */\n      0x60\n        /* \"#utility.yul\":10436:10445   */\n      dup3\n        /* \"#utility.yul\":10432:10450   */\n      add\n        /* \"#utility.yul\":10424:10450   */\n      swap1\n      pop\n        /* \"#utility.yul\":10460:10531   */\n      tag_281\n        /* \"#utility.yul\":10528:10529   */\n      0x00\n        /* \"#utility.yul\":10517:10526   */\n      dup4\n        /* \"#utility.yul\":10513:10530   */\n      add\n        /* \"#utility.yul\":10504:10510   */\n      dup7\n        /* \"#utility.yul\":10460:10531   */\n      tag_179\n      jump\t// in\n    tag_281:\n        /* \"#utility.yul\":10541:10613   */\n      tag_282\n        /* \"#utility.yul\":10609:10611   */\n      0x20\n        /* \"#utility.yul\":10598:10607   */\n      dup4\n        /* \"#utility.yul\":10594:10612   */\n      add\n        /* \"#utility.yul\":10585:10591   */\n      dup6\n        /* \"#utility.yul\":10541:10613   */\n      tag_179\n      jump\t// in\n    tag_282:\n        /* \"#utility.yul\":10623:10695   */\n      tag_283\n        /* \"#utility.yul\":10691:10693   */\n      0x40\n        /* \"#utility.yul\":10680:10689   */\n      dup4\n        /* \"#utility.yul\":10676:10694   */\n      add\n        /* \"#utility.yul\":10667:10673   */\n      dup5\n        /* \"#utility.yul\":10623:10695   */\n      tag_174\n      jump\t// in\n    tag_283:\n        /* \"#utility.yul\":10260:10702   */\n      swap5\n      swap4\n      pop\n      pop\n      pop\n      pop\n      jump\t// out\n        /* \"#utility.yul\":10708:10817   */\n    tag_180:\n        /* \"#utility.yul\":10789:10810   */\n      tag_285\n        /* \"#utility.yul\":10804:10809   */\n      dup2\n        /* \"#utility.yul\":10789:10810   */\n      tag_161\n      jump\t// in\n    tag_285:\n        /* \"#utility.yul\":10784:10787   */\n      dup3\n        /* \"#utility.yul\":10777:10811   */\n      mstore\n        /* \"#utility.yul\":10708:10817   */\n      pop\n      pop\n      jump\t// out\n        /* \"#utility.yul\":10823:11364   */\n    tag_107:\n        /* \"#utility.yul\":10994:10998   */\n      0x00\n        /* \"#utility.yul\":11032:11035   */\n      0x80\n        /* \"#utility.yul\":11021:11030   */\n      dup3\n        /* \"#utility.yul\":11017:11036   */\n      add\n        /* \"#utility.yul\":11009:11036   */\n      swap1\n      pop\n        /* \"#utility.yul\":11046:11117   */\n      tag_287\n        /* \"#utility.yul\":11114:11115   */\n      0x00\n        /* \"#utility.yul\":11103:11112   */\n      dup4\n        /* \"#utility.yul\":11099:11116   */\n      add\n        /* \"#utility.yul\":11090:11096   */\n      dup8\n        /* \"#utility.yul\":11046:11117   */\n      tag_179\n      jump\t// in\n    tag_287:\n        /* \"#utility.yul\":11127:11199   */\n      tag_288\n        /* \"#utility.yul\":11195:11197   */\n      0x20\n        /* \"#utility.yul\":11184:11193   */\n      dup4\n        /* \"#utility.yul\":11180:11198   */\n      add\n        /* \"#utility.yul\":11171:11177   */\n      dup7\n        /* \"#utility.yul\":11127:11199   */\n      tag_179\n      jump\t// in\n    tag_288:\n        /* \"#utility.yul\":11209:11281   */\n      tag_289\n        /* \"#utility.yul\":11277:11279   */\n      0x40\n        /* \"#utility.yul\":11266:11275   */\n      dup4\n        /* \"#utility.yul\":11262:11280   */\n      add\n        /* \"#utility.yul\":11253:11259   */\n      dup6\n        /* \"#utility.yul\":11209:11281   */\n      tag_174\n      jump\t// in\n    tag_289:\n        /* \"#utility.yul\":11291:11357   */\n      tag_290\n        /* \"#utility.yul\":11353:11355   */\n      0x60\n        /* \"#utility.yul\":11342:11351   */\n      dup4\n        /* \"#utility.yul\":11338:11356   */\n      add\n        /* \"#utility.yul\":11329:11335   */\n      dup5\n        /* \"#utility.yul\":11291:11357   */\n      tag_180\n      jump\t// in\n    tag_290:\n        /* \"#utility.yul\":10823:11364   */\n      swap6\n      swap5\n      pop\n      pop\n      pop\n      pop\n      pop\n      jump\t// out\n\n    auxdata: 0xa26469706673582212200e63d55df8889e9bbb77899bcd71844dc50e102b962e37f5c0a2b1c77bb9ba6764736f6c634300080e0033\n}\n",
				"bytecode": {
					"linkReferences": {},
					"object": "6080604052678ac7230489e8000060035534801561001c57600080fd5b50600160008190555033600460006101000a81548173ffffffffffffffffffffffffffffffffffffffff021916908373ffffffffffffffffffffffffffffffffffffffff16021790555061183c806100756000396000f3fe6080604052600436106100705760003560e01c80636d3603391161004e5780636d360339146100e7578063ae677aa314610112578063c23b139e1461012e578063c78f19f91461014a57610070565b80630f08efe014610075578063128ae712146100a057806358eb2df5146100cb575b600080fd5b34801561008157600080fd5b5061008a610175565b6040516100979190611427565b60405180910390f35b3480156100ac57600080fd5b506100b5610454565b6040516100c29190611427565b60405180910390f35b6100e560048036038101906100e091906114a6565b6107b6565b005b3480156100f357600080fd5b506100fc610b07565b6040516101099190611427565b60405180910390f35b61012c600480360381019061012791906114f9565b610e69565b005b61014860048036038101906101439190611526565b610efa565b005b34801561015657600080fd5b5061015f6111a9565b60405161016c9190611575565b60405180910390f35b6060600061018360016111af565b9050600061019160026111af565b61019b60016111af565b6101a591906115bf565b90506000808267ffffffffffffffff8111156101c4576101c36115f3565b5b6040519080825280602002602001820160405280156101fd57816020015b6101ea6111d3565b8152602001906001900390816101e25790505b50905060005b8481101561044957600073ffffffffffffffffffffffffffffffffffffffff16600560006001846102349190611622565b815260200190815260200160002060040160009054906101000a900473ffffffffffffffffffffffffffffffffffffffff1673ffffffffffffffffffffffffffffffffffffffff1603610436576000600560006001846102949190611622565b81526020019081526020016000206000015490506000600560008381526020019081526020016000209050806040518060e0016040529081600082015481526020016001820160009054906101000a900473ffffffffffffffffffffffffffffffffffffffff1673ffffffffffffffffffffffffffffffffffffffff1673ffffffffffffffffffffffffffffffffffffffff168152602001600282015481526020016003820160009054906101000a900473ffffffffffffffffffffffffffffffffffffffff1673ffffffffffffffffffffffffffffffffffffffff1673ffffffffffffffffffffffffffffffffffffffff1681526020016004820160009054906101000a900473ffffffffffffffffffffffffffffffffffffffff1673ffffffffffffffffffffffffffffffffffffffff1673ffffffffffffffffffffffffffffffffffffffff168152602001600582015481526020016006820160009054906101000a900460ff16151515158152505084868151811061041957610418611678565b5b60200260200101819052506001856104319190611622565b945050505b8080610441906116a7565b915050610203565b508094505050505090565b6060600061046260016111af565b905060008060005b8381101561050a573373ffffffffffffffffffffffffffffffffffffffff166005600060018461049a9190611622565b815260200190815260200160002060040160009054906101000a900473ffffffffffffffffffffffffffffffffffffffff1673ffffffffffffffffffffffffffffffffffffffff16036104f7576001836104f49190611622565b92505b8080610502906116a7565b91505061046a565b5060008267ffffffffffffffff811115610527576105266115f3565b5b60405190808252806020026020018201604052801561056057816020015b61054d6111d3565b8152602001906001900390816105455790505b50905060005b848110156107ab573373ffffffffffffffffffffffffffffffffffffffff16600560006001846105969190611622565b815260200190815260200160002060040160009054906101000a900473ffffffffffffffffffffffffffffffffffffffff1673ffffffffffffffffffffffffffffffffffffffff1603610798576000600560006001846105f69190611622565b81526020019081526020016000206000015490506000600560008381526020019081526020016000209050806040518060e0016040529081600082015481526020016001820160009054906101000a900473ffffffffffffffffffffffffffffffffffffffff1673ffffffffffffffffffffffffffffffffffffffff1673ffffffffffffffffffffffffffffffffffffffff168152602001600282015481526020016003820160009054906101000a900473ffffffffffffffffffffffffffffffffffffffff1673ffffffffffffffffffffffffffffffffffffffff1673ffffffffffffffffffffffffffffffffffffffff1681526020016004820160009054906101000a900473ffffffffffffffffffffffffffffffffffffffff1673ffffffffffffffffffffffffffffffffffffffff1673ffffffffffffffffffffffffffffffffffffffff168152602001600582015481526020016006820160009054906101000a900460ff16151515158152505084868151811061077b5761077a611678565b5b60200260200101819052506001856107939190611622565b945050505b80806107a3906116a7565b915050610566565b508094505050505090565b6002600054036107fb576040517f08c379a00000000000000000000000000000000000000000000000000000000081526004016107f29061174c565b60405180910390fd5b60026000819055506000810361083d576040517fea86949f00000000000000000000000000000000000000000000000000000000815260040160405180910390fd5b6003543414610878576040517fd8fc352b00000000000000000000000000000000000000000000000000000000815260040160405180910390fd5b61088260016111bd565b600061088e60016111af565b90506040518060e001604052808281526020018573ffffffffffffffffffffffffffffffffffffffff1681526020018481526020013373ffffffffffffffffffffffffffffffffffffffff168152602001600073ffffffffffffffffffffffffffffffffffffffff16815260200183815260200160001515815250600560008381526020019081526020016000206000820151816000015560208201518160010160006101000a81548173ffffffffffffffffffffffffffffffffffffffff021916908373ffffffffffffffffffffffffffffffffffffffff1602179055506040820151816002015560608201518160030160006101000a81548173ffffffffffffffffffffffffffffffffffffffff021916908373ffffffffffffffffffffffffffffffffffffffff16021790555060808201518160040160006101000a81548173ffffffffffffffffffffffffffffffffffffffff021916908373ffffffffffffffffffffffffffffffffffffffff16021790555060a0820151816005015560c08201518160060160006101000a81548160ff0219169083151502179055509050508373ffffffffffffffffffffffffffffffffffffffff166323b872dd3330866040518463ffffffff1660e01b8152600401610a6f9392919061177b565b600060405180830381600087803b158015610a8957600080fd5b505af1158015610a9d573d6000803e3d6000fd5b50505050828473ffffffffffffffffffffffffffffffffffffffff16827f045dfa01dcba2b36aba1d3dc4a874f4b0c5d2fbeb8d2c4b34a7d88c8d8f929d1336000876000604051610af194939291906117c1565b60405180910390a4506001600081905550505050565b60606000610b1560016111af565b905060008060005b83811015610bbd573373ffffffffffffffffffffffffffffffffffffffff1660056000600184610b4d9190611622565b815260200190815260200160002060030160009054906101000a900473ffffffffffffffffffffffffffffffffffffffff1673ffffffffffffffffffffffffffffffffffffffff1603610baa57600183610ba79190611622565b92505b8080610bb5906116a7565b915050610b1d565b5060008267ffffffffffffffff811115610bda57610bd96115f3565b5b604051908082528060200260200182016040528015610c1357816020015b610c006111d3565b815260200190600190039081610bf85790505b50905060005b84811015610e5e573373ffffffffffffffffffffffffffffffffffffffff1660056000600184610c499190611622565b815260200190815260200160002060030160009054906101000a900473ffffffffffffffffffffffffffffffffffffffff1673ffffffffffffffffffffffffffffffffffffffff1603610e4b57600060056000600184610ca99190611622565b81526020019081526020016000206000015490506000600560008381526020019081526020016000209050806040518060e0016040529081600082015481526020016001820160009054906101000a900473ffffffffffffffffffffffffffffffffffffffff1673ffffffffffffffffffffffffffffffffffffffff1673ffffffffffffffffffffffffffffffffffffffff168152602001600282015481526020016003820160009054906101000a900473ffffffffffffffffffffffffffffffffffffffff1673ffffffffffffffffffffffffffffffffffffffff1673ffffffffffffffffffffffffffffffffffffffff1681526020016004820160009054906101000a900473ffffffffffffffffffffffffffffffffffffffff1673ffffffffffffffffffffffffffffffffffffffff1673ffffffffffffffffffffffffffffffffffffffff168152602001600582015481526020016006820160009054906101000a900460ff161515151581525050848681518110610e2e57610e2d611678565b5b6020026020010181905250600185610e469190611622565b945050505b8080610e56906116a7565b915050610c19565b508094505050505090565b3373ffffffffffffffffffffffffffffffffffffffff16600460009054906101000a900473ffffffffffffffffffffffffffffffffffffffff1673ffffffffffffffffffffffffffffffffffffffff1614610ef0576040517fd9c2975c00000000000000000000000000000000000000000000000000000000815260040160405180910390fd5b8060038190555050565b600260005403610f3f576040517f08c379a0000000000000000000000000000000000000000000000000000000008152600401610f369061174c565b60405180910390fd5b6002600081905550600060056000838152602001908152602001600020600501549050600060056000848152602001908152602001600020600201549050813414610fb6576040517f75481b7800000000000000000000000000000000000000000000000000000000815260040160405180910390fd5b6005600084815260200190815260200160002060030160009054906101000a900473ffffffffffffffffffffffffffffffffffffffff1673ffffffffffffffffffffffffffffffffffffffff166108fc349081150290604051600060405180830381858888f19350505050158015611032573d6000803e3d6000fd5b508373ffffffffffffffffffffffffffffffffffffffff166323b872dd3033846040518463ffffffff1660e01b81526004016110709392919061177b565b600060405180830381600087803b15801561108a57600080fd5b505af115801561109e573d6000803e3d6000fd5b50505050336005600085815260200190815260200160002060040160006101000a81548173ffffffffffffffffffffffffffffffffffffffff021916908373ffffffffffffffffffffffffffffffffffffffff16021790555060016005600085815260200190815260200160002060060160006101000a81548160ff02191690831515021790555061113060026111bd565b600460009054906101000a900473ffffffffffffffffffffffffffffffffffffffff1673ffffffffffffffffffffffffffffffffffffffff166108fc6003549081150290604051600060405180830381858888f1935050505015801561119a573d6000803e3d6000fd5b50505060016000819055505050565b60035481565b600081600001549050919050565b6001816000016000828254019250508190555050565b6040518060e0016040528060008152602001600073ffffffffffffffffffffffffffffffffffffffff16815260200160008152602001600073ffffffffffffffffffffffffffffffffffffffff168152602001600073ffffffffffffffffffffffffffffffffffffffff168152602001600081526020016000151581525090565b600081519050919050565b600082825260208201905092915050565b6000819050602082019050919050565b6000819050919050565b61129381611280565b82525050565b600073ffffffffffffffffffffffffffffffffffffffff82169050919050565b60006112c482611299565b9050919050565b6112d4816112b9565b82525050565b60006112e582611299565b9050919050565b6112f5816112da565b82525050565b60008115159050919050565b611310816112fb565b82525050565b60e08201600082015161132c600085018261128a565b50602082015161133f60208501826112cb565b506040820151611352604085018261128a565b50606082015161136560608501826112ec565b50608082015161137860808501826112ec565b5060a082015161138b60a085018261128a565b5060c082015161139e60c0850182611307565b50505050565b60006113b08383611316565b60e08301905092915050565b6000602082019050919050565b60006113d482611254565b6113de818561125f565b93506113e983611270565b8060005b8381101561141a57815161140188826113a4565b975061140c836113bc565b9250506001810190506113ed565b5085935050505092915050565b6000602082019050818103600083015261144181846113c9565b905092915050565b600080fd5b611457816112b9565b811461146257600080fd5b50565b6000813590506114748161144e565b92915050565b61148381611280565b811461148e57600080fd5b50565b6000813590506114a08161147a565b92915050565b6000806000606084860312156114bf576114be611449565b5b60006114cd86828701611465565b93505060206114de86828701611491565b92505060406114ef86828701611491565b9150509250925092565b60006020828403121561150f5761150e611449565b5b600061151d84828501611491565b91505092915050565b6000806040838503121561153d5761153c611449565b5b600061154b85828601611465565b925050602061155c85828601611491565b9150509250929050565b61156f81611280565b82525050565b600060208201905061158a6000830184611566565b92915050565b7f4e487b7100000000000000000000000000000000000000000000000000000000600052601160045260246000fd5b60006115ca82611280565b91506115d583611280565b9250828210156115e8576115e7611590565b5b828203905092915050565b7f4e487b7100000000000000000000000000000000000000000000000000000000600052604160045260246000fd5b600061162d82611280565b915061163883611280565b9250827fffffffffffffffffffffffffffffffffffffffffffffffffffffffffffffffff0382111561166d5761166c611590565b5b828201905092915050565b7f4e487b7100000000000000000000000000000000000000000000000000000000600052603260045260246000fd5b60006116b282611280565b91507fffffffffffffffffffffffffffffffffffffffffffffffffffffffffffffffff82036116e4576116e3611590565b5b600182019050919050565b600082825260208201905092915050565b7f5265656e7472616e637947756172643a207265656e7472616e742063616c6c00600082015250565b6000611736601f836116ef565b915061174182611700565b602082019050919050565b6000602082019050818103600083015261176581611729565b9050919050565b611775816112b9565b82525050565b6000606082019050611790600083018661176c565b61179d602083018561176c565b6117aa6040830184611566565b949350505050565b6117bb816112fb565b82525050565b60006080820190506117d6600083018761176c565b6117e3602083018661176c565b6117f06040830185611566565b6117fd60608301846117b2565b9594505050505056fea26469706673582212200e63d55df8889e9bbb77899bcd71844dc50e102b962e37f5c0a2b1c77bb9ba6764736f6c634300080e0033",
					"opcodes": "PUSH1 0x80 PUSH1 0x40 MSTORE PUSH8 0x8AC7230489E80000 PUSH1 0x3 SSTORE CALLVALUE DUP1 ISZERO PUSH2 0x1C JUMPI PUSH1 0x0 DUP1 REVERT JUMPDEST POP PUSH1 0x1 PUSH1 0x0 DUP2 SWAP1 SSTORE POP CALLER PUSH1 0x4 PUSH1 0x0 PUSH2 0x100 EXP DUP2 SLOAD DUP2 PUSH20 0xFFFFFFFFFFFFFFFFFFFFFFFFFFFFFFFFFFFFFFFF MUL NOT AND SWAP1 DUP4 PUSH20 0xFFFFFFFFFFFFFFFFFFFFFFFFFFFFFFFFFFFFFFFF AND MUL OR SWAP1 SSTORE POP PUSH2 0x183C DUP1 PUSH2 0x75 PUSH1 0x0 CODECOPY PUSH1 0x0 RETURN INVALID PUSH1 0x80 PUSH1 0x40 MSTORE PUSH1 0x4 CALLDATASIZE LT PUSH2 0x70 JUMPI PUSH1 0x0 CALLDATALOAD PUSH1 0xE0 SHR DUP1 PUSH4 0x6D360339 GT PUSH2 0x4E JUMPI DUP1 PUSH4 0x6D360339 EQ PUSH2 0xE7 JUMPI DUP1 PUSH4 0xAE677AA3 EQ PUSH2 0x112 JUMPI DUP1 PUSH4 0xC23B139E EQ PUSH2 0x12E JUMPI DUP1 PUSH4 0xC78F19F9 EQ PUSH2 0x14A JUMPI PUSH2 0x70 JUMP JUMPDEST DUP1 PUSH4 0xF08EFE0 EQ PUSH2 0x75 JUMPI DUP1 PUSH4 0x128AE712 EQ PUSH2 0xA0 JUMPI DUP1 PUSH4 0x58EB2DF5 EQ PUSH2 0xCB JUMPI JUMPDEST PUSH1 0x0 DUP1 REVERT JUMPDEST CALLVALUE DUP1 ISZERO PUSH2 0x81 JUMPI PUSH1 0x0 DUP1 REVERT JUMPDEST POP PUSH2 0x8A PUSH2 0x175 JUMP JUMPDEST PUSH1 0x40 MLOAD PUSH2 0x97 SWAP2 SWAP1 PUSH2 0x1427 JUMP JUMPDEST PUSH1 0x40 MLOAD DUP1 SWAP2 SUB SWAP1 RETURN JUMPDEST CALLVALUE DUP1 ISZERO PUSH2 0xAC JUMPI PUSH1 0x0 DUP1 REVERT JUMPDEST POP PUSH2 0xB5 PUSH2 0x454 JUMP JUMPDEST PUSH1 0x40 MLOAD PUSH2 0xC2 SWAP2 SWAP1 PUSH2 0x1427 JUMP JUMPDEST PUSH1 0x40 MLOAD DUP1 SWAP2 SUB SWAP1 RETURN JUMPDEST PUSH2 0xE5 PUSH1 0x4 DUP1 CALLDATASIZE SUB DUP2 ADD SWAP1 PUSH2 0xE0 SWAP2 SWAP1 PUSH2 0x14A6 JUMP JUMPDEST PUSH2 0x7B6 JUMP JUMPDEST STOP JUMPDEST CALLVALUE DUP1 ISZERO PUSH2 0xF3 JUMPI PUSH1 0x0 DUP1 REVERT JUMPDEST POP PUSH2 0xFC PUSH2 0xB07 JUMP JUMPDEST PUSH1 0x40 MLOAD PUSH2 0x109 SWAP2 SWAP1 PUSH2 0x1427 JUMP JUMPDEST PUSH1 0x40 MLOAD DUP1 SWAP2 SUB SWAP1 RETURN JUMPDEST PUSH2 0x12C PUSH1 0x4 DUP1 CALLDATASIZE SUB DUP2 ADD SWAP1 PUSH2 0x127 SWAP2 SWAP1 PUSH2 0x14F9 JUMP JUMPDEST PUSH2 0xE69 JUMP JUMPDEST STOP JUMPDEST PUSH2 0x148 PUSH1 0x4 DUP1 CALLDATASIZE SUB DUP2 ADD SWAP1 PUSH2 0x143 SWAP2 SWAP1 PUSH2 0x1526 JUMP JUMPDEST PUSH2 0xEFA JUMP JUMPDEST STOP JUMPDEST CALLVALUE DUP1 ISZERO PUSH2 0x156 JUMPI PUSH1 0x0 DUP1 REVERT JUMPDEST POP PUSH2 0x15F PUSH2 0x11A9 JUMP JUMPDEST PUSH1 0x40 MLOAD PUSH2 0x16C SWAP2 SWAP1 PUSH2 0x1575 JUMP JUMPDEST PUSH1 0x40 MLOAD DUP1 SWAP2 SUB SWAP1 RETURN JUMPDEST PUSH1 0x60 PUSH1 0x0 PUSH2 0x183 PUSH1 0x1 PUSH2 0x11AF JUMP JUMPDEST SWAP1 POP PUSH1 0x0 PUSH2 0x191 PUSH1 0x2 PUSH2 0x11AF JUMP JUMPDEST PUSH2 0x19B PUSH1 0x1 PUSH2 0x11AF JUMP JUMPDEST PUSH2 0x1A5 SWAP2 SWAP1 PUSH2 0x15BF JUMP JUMPDEST SWAP1 POP PUSH1 0x0 DUP1 DUP3 PUSH8 0xFFFFFFFFFFFFFFFF DUP2 GT ISZERO PUSH2 0x1C4 JUMPI PUSH2 0x1C3 PUSH2 0x15F3 JUMP JUMPDEST JUMPDEST PUSH1 0x40 MLOAD SWAP1 DUP1 DUP3 MSTORE DUP1 PUSH1 0x20 MUL PUSH1 0x20 ADD DUP3 ADD PUSH1 0x40 MSTORE DUP1 ISZERO PUSH2 0x1FD JUMPI DUP2 PUSH1 0x20 ADD JUMPDEST PUSH2 0x1EA PUSH2 0x11D3 JUMP JUMPDEST DUP2 MSTORE PUSH1 0x20 ADD SWAP1 PUSH1 0x1 SWAP1 SUB SWAP1 DUP2 PUSH2 0x1E2 JUMPI SWAP1 POP JUMPDEST POP SWAP1 POP PUSH1 0x0 JUMPDEST DUP5 DUP2 LT ISZERO PUSH2 0x449 JUMPI PUSH1 0x0 PUSH20 0xFFFFFFFFFFFFFFFFFFFFFFFFFFFFFFFFFFFFFFFF AND PUSH1 0x5 PUSH1 0x0 PUSH1 0x1 DUP5 PUSH2 0x234 SWAP2 SWAP1 PUSH2 0x1622 JUMP JUMPDEST DUP2 MSTORE PUSH1 0x20 ADD SWAP1 DUP2 MSTORE PUSH1 0x20 ADD PUSH1 0x0 KECCAK256 PUSH1 0x4 ADD PUSH1 0x0 SWAP1 SLOAD SWAP1 PUSH2 0x100 EXP SWAP1 DIV PUSH20 0xFFFFFFFFFFFFFFFFFFFFFFFFFFFFFFFFFFFFFFFF AND PUSH20 0xFFFFFFFFFFFFFFFFFFFFFFFFFFFFFFFFFFFFFFFF AND SUB PUSH2 0x436 JUMPI PUSH1 0x0 PUSH1 0x5 PUSH1 0x0 PUSH1 0x1 DUP5 PUSH2 0x294 SWAP2 SWAP1 PUSH2 0x1622 JUMP JUMPDEST DUP2 MSTORE PUSH1 0x20 ADD SWAP1 DUP2 MSTORE PUSH1 0x20 ADD PUSH1 0x0 KECCAK256 PUSH1 0x0 ADD SLOAD SWAP1 POP PUSH1 0x0 PUSH1 0x5 PUSH1 0x0 DUP4 DUP2 MSTORE PUSH1 0x20 ADD SWAP1 DUP2 MSTORE PUSH1 0x20 ADD PUSH1 0x0 KECCAK256 SWAP1 POP DUP1 PUSH1 0x40 MLOAD DUP1 PUSH1 0xE0 ADD PUSH1 0x40 MSTORE SWAP1 DUP2 PUSH1 0x0 DUP3 ADD SLOAD DUP2 MSTORE PUSH1 0x20 ADD PUSH1 0x1 DUP3 ADD PUSH1 0x0 SWAP1 SLOAD SWAP1 PUSH2 0x100 EXP SWAP1 DIV PUSH20 0xFFFFFFFFFFFFFFFFFFFFFFFFFFFFFFFFFFFFFFFF AND PUSH20 0xFFFFFFFFFFFFFFFFFFFFFFFFFFFFFFFFFFFFFFFF AND PUSH20 0xFFFFFFFFFFFFFFFFFFFFFFFFFFFFFFFFFFFFFFFF AND DUP2 MSTORE PUSH1 0x20 ADD PUSH1 0x2 DUP3 ADD SLOAD DUP2 MSTORE PUSH1 0x20 ADD PUSH1 0x3 DUP3 ADD PUSH1 0x0 SWAP1 SLOAD SWAP1 PUSH2 0x100 EXP SWAP1 DIV PUSH20 0xFFFFFFFFFFFFFFFFFFFFFFFFFFFFFFFFFFFFFFFF AND PUSH20 0xFFFFFFFFFFFFFFFFFFFFFFFFFFFFFFFFFFFFFFFF AND PUSH20 0xFFFFFFFFFFFFFFFFFFFFFFFFFFFFFFFFFFFFFFFF AND DUP2 MSTORE PUSH1 0x20 ADD PUSH1 0x4 DUP3 ADD PUSH1 0x0 SWAP1 SLOAD SWAP1 PUSH2 0x100 EXP SWAP1 DIV PUSH20 0xFFFFFFFFFFFFFFFFFFFFFFFFFFFFFFFFFFFFFFFF AND PUSH20 0xFFFFFFFFFFFFFFFFFFFFFFFFFFFFFFFFFFFFFFFF AND PUSH20 0xFFFFFFFFFFFFFFFFFFFFFFFFFFFFFFFFFFFFFFFF AND DUP2 MSTORE PUSH1 0x20 ADD PUSH1 0x5 DUP3 ADD SLOAD DUP2 MSTORE PUSH1 0x20 ADD PUSH1 0x6 DUP3 ADD PUSH1 0x0 SWAP1 SLOAD SWAP1 PUSH2 0x100 EXP SWAP1 DIV PUSH1 0xFF AND ISZERO ISZERO ISZERO ISZERO DUP2 MSTORE POP POP DUP5 DUP7 DUP2 MLOAD DUP2 LT PUSH2 0x419 JUMPI PUSH2 0x418 PUSH2 0x1678 JUMP JUMPDEST JUMPDEST PUSH1 0x20 MUL PUSH1 0x20 ADD ADD DUP2 SWAP1 MSTORE POP PUSH1 0x1 DUP6 PUSH2 0x431 SWAP2 SWAP1 PUSH2 0x1622 JUMP JUMPDEST SWAP5 POP POP POP JUMPDEST DUP1 DUP1 PUSH2 0x441 SWAP1 PUSH2 0x16A7 JUMP JUMPDEST SWAP2 POP POP PUSH2 0x203 JUMP JUMPDEST POP DUP1 SWAP5 POP POP POP POP POP SWAP1 JUMP JUMPDEST PUSH1 0x60 PUSH1 0x0 PUSH2 0x462 PUSH1 0x1 PUSH2 0x11AF JUMP JUMPDEST SWAP1 POP PUSH1 0x0 DUP1 PUSH1 0x0 JUMPDEST DUP4 DUP2 LT ISZERO PUSH2 0x50A JUMPI CALLER PUSH20 0xFFFFFFFFFFFFFFFFFFFFFFFFFFFFFFFFFFFFFFFF AND PUSH1 0x5 PUSH1 0x0 PUSH1 0x1 DUP5 PUSH2 0x49A SWAP2 SWAP1 PUSH2 0x1622 JUMP JUMPDEST DUP2 MSTORE PUSH1 0x20 ADD SWAP1 DUP2 MSTORE PUSH1 0x20 ADD PUSH1 0x0 KECCAK256 PUSH1 0x4 ADD PUSH1 0x0 SWAP1 SLOAD SWAP1 PUSH2 0x100 EXP SWAP1 DIV PUSH20 0xFFFFFFFFFFFFFFFFFFFFFFFFFFFFFFFFFFFFFFFF AND PUSH20 0xFFFFFFFFFFFFFFFFFFFFFFFFFFFFFFFFFFFFFFFF AND SUB PUSH2 0x4F7 JUMPI PUSH1 0x1 DUP4 PUSH2 0x4F4 SWAP2 SWAP1 PUSH2 0x1622 JUMP JUMPDEST SWAP3 POP JUMPDEST DUP1 DUP1 PUSH2 0x502 SWAP1 PUSH2 0x16A7 JUMP JUMPDEST SWAP2 POP POP PUSH2 0x46A JUMP JUMPDEST POP PUSH1 0x0 DUP3 PUSH8 0xFFFFFFFFFFFFFFFF DUP2 GT ISZERO PUSH2 0x527 JUMPI PUSH2 0x526 PUSH2 0x15F3 JUMP JUMPDEST JUMPDEST PUSH1 0x40 MLOAD SWAP1 DUP1 DUP3 MSTORE DUP1 PUSH1 0x20 MUL PUSH1 0x20 ADD DUP3 ADD PUSH1 0x40 MSTORE DUP1 ISZERO PUSH2 0x560 JUMPI DUP2 PUSH1 0x20 ADD JUMPDEST PUSH2 0x54D PUSH2 0x11D3 JUMP JUMPDEST DUP2 MSTORE PUSH1 0x20 ADD SWAP1 PUSH1 0x1 SWAP1 SUB SWAP1 DUP2 PUSH2 0x545 JUMPI SWAP1 POP JUMPDEST POP SWAP1 POP PUSH1 0x0 JUMPDEST DUP5 DUP2 LT ISZERO PUSH2 0x7AB JUMPI CALLER PUSH20 0xFFFFFFFFFFFFFFFFFFFFFFFFFFFFFFFFFFFFFFFF AND PUSH1 0x5 PUSH1 0x0 PUSH1 0x1 DUP5 PUSH2 0x596 SWAP2 SWAP1 PUSH2 0x1622 JUMP JUMPDEST DUP2 MSTORE PUSH1 0x20 ADD SWAP1 DUP2 MSTORE PUSH1 0x20 ADD PUSH1 0x0 KECCAK256 PUSH1 0x4 ADD PUSH1 0x0 SWAP1 SLOAD SWAP1 PUSH2 0x100 EXP SWAP1 DIV PUSH20 0xFFFFFFFFFFFFFFFFFFFFFFFFFFFFFFFFFFFFFFFF AND PUSH20 0xFFFFFFFFFFFFFFFFFFFFFFFFFFFFFFFFFFFFFFFF AND SUB PUSH2 0x798 JUMPI PUSH1 0x0 PUSH1 0x5 PUSH1 0x0 PUSH1 0x1 DUP5 PUSH2 0x5F6 SWAP2 SWAP1 PUSH2 0x1622 JUMP JUMPDEST DUP2 MSTORE PUSH1 0x20 ADD SWAP1 DUP2 MSTORE PUSH1 0x20 ADD PUSH1 0x0 KECCAK256 PUSH1 0x0 ADD SLOAD SWAP1 POP PUSH1 0x0 PUSH1 0x5 PUSH1 0x0 DUP4 DUP2 MSTORE PUSH1 0x20 ADD SWAP1 DUP2 MSTORE PUSH1 0x20 ADD PUSH1 0x0 KECCAK256 SWAP1 POP DUP1 PUSH1 0x40 MLOAD DUP1 PUSH1 0xE0 ADD PUSH1 0x40 MSTORE SWAP1 DUP2 PUSH1 0x0 DUP3 ADD SLOAD DUP2 MSTORE PUSH1 0x20 ADD PUSH1 0x1 DUP3 ADD PUSH1 0x0 SWAP1 SLOAD SWAP1 PUSH2 0x100 EXP SWAP1 DIV PUSH20 0xFFFFFFFFFFFFFFFFFFFFFFFFFFFFFFFFFFFFFFFF AND PUSH20 0xFFFFFFFFFFFFFFFFFFFFFFFFFFFFFFFFFFFFFFFF AND PUSH20 0xFFFFFFFFFFFFFFFFFFFFFFFFFFFFFFFFFFFFFFFF AND DUP2 MSTORE PUSH1 0x20 ADD PUSH1 0x2 DUP3 ADD SLOAD DUP2 MSTORE PUSH1 0x20 ADD PUSH1 0x3 DUP3 ADD PUSH1 0x0 SWAP1 SLOAD SWAP1 PUSH2 0x100 EXP SWAP1 DIV PUSH20 0xFFFFFFFFFFFFFFFFFFFFFFFFFFFFFFFFFFFFFFFF AND PUSH20 0xFFFFFFFFFFFFFFFFFFFFFFFFFFFFFFFFFFFFFFFF AND PUSH20 0xFFFFFFFFFFFFFFFFFFFFFFFFFFFFFFFFFFFFFFFF AND DUP2 MSTORE PUSH1 0x20 ADD PUSH1 0x4 DUP3 ADD PUSH1 0x0 SWAP1 SLOAD SWAP1 PUSH2 0x100 EXP SWAP1 DIV PUSH20 0xFFFFFFFFFFFFFFFFFFFFFFFFFFFFFFFFFFFFFFFF AND PUSH20 0xFFFFFFFFFFFFFFFFFFFFFFFFFFFFFFFFFFFFFFFF AND PUSH20 0xFFFFFFFFFFFFFFFFFFFFFFFFFFFFFFFFFFFFFFFF AND DUP2 MSTORE PUSH1 0x20 ADD PUSH1 0x5 DUP3 ADD SLOAD DUP2 MSTORE PUSH1 0x20 ADD PUSH1 0x6 DUP3 ADD PUSH1 0x0 SWAP1 SLOAD SWAP1 PUSH2 0x100 EXP SWAP1 DIV PUSH1 0xFF AND ISZERO ISZERO ISZERO ISZERO DUP2 MSTORE POP POP DUP5 DUP7 DUP2 MLOAD DUP2 LT PUSH2 0x77B JUMPI PUSH2 0x77A PUSH2 0x1678 JUMP JUMPDEST JUMPDEST PUSH1 0x20 MUL PUSH1 0x20 ADD ADD DUP2 SWAP1 MSTORE POP PUSH1 0x1 DUP6 PUSH2 0x793 SWAP2 SWAP1 PUSH2 0x1622 JUMP JUMPDEST SWAP5 POP POP POP JUMPDEST DUP1 DUP1 PUSH2 0x7A3 SWAP1 PUSH2 0x16A7 JUMP JUMPDEST SWAP2 POP POP PUSH2 0x566 JUMP JUMPDEST POP DUP1 SWAP5 POP POP POP POP POP SWAP1 JUMP JUMPDEST PUSH1 0x2 PUSH1 0x0 SLOAD SUB PUSH2 0x7FB JUMPI PUSH1 0x40 MLOAD PUSH32 0x8C379A000000000000000000000000000000000000000000000000000000000 DUP2 MSTORE PUSH1 0x4 ADD PUSH2 0x7F2 SWAP1 PUSH2 0x174C JUMP JUMPDEST PUSH1 0x40 MLOAD DUP1 SWAP2 SUB SWAP1 REVERT JUMPDEST PUSH1 0x2 PUSH1 0x0 DUP2 SWAP1 SSTORE POP PUSH1 0x0 DUP2 SUB PUSH2 0x83D JUMPI PUSH1 0x40 MLOAD PUSH32 0xEA86949F00000000000000000000000000000000000000000000000000000000 DUP2 MSTORE PUSH1 0x4 ADD PUSH1 0x40 MLOAD DUP1 SWAP2 SUB SWAP1 REVERT JUMPDEST PUSH1 0x3 SLOAD CALLVALUE EQ PUSH2 0x878 JUMPI PUSH1 0x40 MLOAD PUSH32 0xD8FC352B00000000000000000000000000000000000000000000000000000000 DUP2 MSTORE PUSH1 0x4 ADD PUSH1 0x40 MLOAD DUP1 SWAP2 SUB SWAP1 REVERT JUMPDEST PUSH2 0x882 PUSH1 0x1 PUSH2 0x11BD JUMP JUMPDEST PUSH1 0x0 PUSH2 0x88E PUSH1 0x1 PUSH2 0x11AF JUMP JUMPDEST SWAP1 POP PUSH1 0x40 MLOAD DUP1 PUSH1 0xE0 ADD PUSH1 0x40 MSTORE DUP1 DUP3 DUP2 MSTORE PUSH1 0x20 ADD DUP6 PUSH20 0xFFFFFFFFFFFFFFFFFFFFFFFFFFFFFFFFFFFFFFFF AND DUP2 MSTORE PUSH1 0x20 ADD DUP5 DUP2 MSTORE PUSH1 0x20 ADD CALLER PUSH20 0xFFFFFFFFFFFFFFFFFFFFFFFFFFFFFFFFFFFFFFFF AND DUP2 MSTORE PUSH1 0x20 ADD PUSH1 0x0 PUSH20 0xFFFFFFFFFFFFFFFFFFFFFFFFFFFFFFFFFFFFFFFF AND DUP2 MSTORE PUSH1 0x20 ADD DUP4 DUP2 MSTORE PUSH1 0x20 ADD PUSH1 0x0 ISZERO ISZERO DUP2 MSTORE POP PUSH1 0x5 PUSH1 0x0 DUP4 DUP2 MSTORE PUSH1 0x20 ADD SWAP1 DUP2 MSTORE PUSH1 0x20 ADD PUSH1 0x0 KECCAK256 PUSH1 0x0 DUP3 ADD MLOAD DUP2 PUSH1 0x0 ADD SSTORE PUSH1 0x20 DUP3 ADD MLOAD DUP2 PUSH1 0x1 ADD PUSH1 0x0 PUSH2 0x100 EXP DUP2 SLOAD DUP2 PUSH20 0xFFFFFFFFFFFFFFFFFFFFFFFFFFFFFFFFFFFFFFFF MUL NOT AND SWAP1 DUP4 PUSH20 0xFFFFFFFFFFFFFFFFFFFFFFFFFFFFFFFFFFFFFFFF AND MUL OR SWAP1 SSTORE POP PUSH1 0x40 DUP3 ADD MLOAD DUP2 PUSH1 0x2 ADD SSTORE PUSH1 0x60 DUP3 ADD MLOAD DUP2 PUSH1 0x3 ADD PUSH1 0x0 PUSH2 0x100 EXP DUP2 SLOAD DUP2 PUSH20 0xFFFFFFFFFFFFFFFFFFFFFFFFFFFFFFFFFFFFFFFF MUL NOT AND SWAP1 DUP4 PUSH20 0xFFFFFFFFFFFFFFFFFFFFFFFFFFFFFFFFFFFFFFFF AND MUL OR SWAP1 SSTORE POP PUSH1 0x80 DUP3 ADD MLOAD DUP2 PUSH1 0x4 ADD PUSH1 0x0 PUSH2 0x100 EXP DUP2 SLOAD DUP2 PUSH20 0xFFFFFFFFFFFFFFFFFFFFFFFFFFFFFFFFFFFFFFFF MUL NOT AND SWAP1 DUP4 PUSH20 0xFFFFFFFFFFFFFFFFFFFFFFFFFFFFFFFFFFFFFFFF AND MUL OR SWAP1 SSTORE POP PUSH1 0xA0 DUP3 ADD MLOAD DUP2 PUSH1 0x5 ADD SSTORE PUSH1 0xC0 DUP3 ADD MLOAD DUP2 PUSH1 0x6 ADD PUSH1 0x0 PUSH2 0x100 EXP DUP2 SLOAD DUP2 PUSH1 0xFF MUL NOT AND SWAP1 DUP4 ISZERO ISZERO MUL OR SWAP1 SSTORE POP SWAP1 POP POP DUP4 PUSH20 0xFFFFFFFFFFFFFFFFFFFFFFFFFFFFFFFFFFFFFFFF AND PUSH4 0x23B872DD CALLER ADDRESS DUP7 PUSH1 0x40 MLOAD DUP5 PUSH4 0xFFFFFFFF AND PUSH1 0xE0 SHL DUP2 MSTORE PUSH1 0x4 ADD PUSH2 0xA6F SWAP4 SWAP3 SWAP2 SWAP1 PUSH2 0x177B JUMP JUMPDEST PUSH1 0x0 PUSH1 0x40 MLOAD DUP1 DUP4 SUB DUP2 PUSH1 0x0 DUP8 DUP1 EXTCODESIZE ISZERO DUP1 ISZERO PUSH2 0xA89 JUMPI PUSH1 0x0 DUP1 REVERT JUMPDEST POP GAS CALL ISZERO DUP1 ISZERO PUSH2 0xA9D JUMPI RETURNDATASIZE PUSH1 0x0 DUP1 RETURNDATACOPY RETURNDATASIZE PUSH1 0x0 REVERT JUMPDEST POP POP POP POP DUP3 DUP5 PUSH20 0xFFFFFFFFFFFFFFFFFFFFFFFFFFFFFFFFFFFFFFFF AND DUP3 PUSH32 0x45DFA01DCBA2B36ABA1D3DC4A874F4B0C5D2FBEB8D2C4B34A7D88C8D8F929D1 CALLER PUSH1 0x0 DUP8 PUSH1 0x0 PUSH1 0x40 MLOAD PUSH2 0xAF1 SWAP5 SWAP4 SWAP3 SWAP2 SWAP1 PUSH2 0x17C1 JUMP JUMPDEST PUSH1 0x40 MLOAD DUP1 SWAP2 SUB SWAP1 LOG4 POP PUSH1 0x1 PUSH1 0x0 DUP2 SWAP1 SSTORE POP POP POP POP JUMP JUMPDEST PUSH1 0x60 PUSH1 0x0 PUSH2 0xB15 PUSH1 0x1 PUSH2 0x11AF JUMP JUMPDEST SWAP1 POP PUSH1 0x0 DUP1 PUSH1 0x0 JUMPDEST DUP4 DUP2 LT ISZERO PUSH2 0xBBD JUMPI CALLER PUSH20 0xFFFFFFFFFFFFFFFFFFFFFFFFFFFFFFFFFFFFFFFF AND PUSH1 0x5 PUSH1 0x0 PUSH1 0x1 DUP5 PUSH2 0xB4D SWAP2 SWAP1 PUSH2 0x1622 JUMP JUMPDEST DUP2 MSTORE PUSH1 0x20 ADD SWAP1 DUP2 MSTORE PUSH1 0x20 ADD PUSH1 0x0 KECCAK256 PUSH1 0x3 ADD PUSH1 0x0 SWAP1 SLOAD SWAP1 PUSH2 0x100 EXP SWAP1 DIV PUSH20 0xFFFFFFFFFFFFFFFFFFFFFFFFFFFFFFFFFFFFFFFF AND PUSH20 0xFFFFFFFFFFFFFFFFFFFFFFFFFFFFFFFFFFFFFFFF AND SUB PUSH2 0xBAA JUMPI PUSH1 0x1 DUP4 PUSH2 0xBA7 SWAP2 SWAP1 PUSH2 0x1622 JUMP JUMPDEST SWAP3 POP JUMPDEST DUP1 DUP1 PUSH2 0xBB5 SWAP1 PUSH2 0x16A7 JUMP JUMPDEST SWAP2 POP POP PUSH2 0xB1D JUMP JUMPDEST POP PUSH1 0x0 DUP3 PUSH8 0xFFFFFFFFFFFFFFFF DUP2 GT ISZERO PUSH2 0xBDA JUMPI PUSH2 0xBD9 PUSH2 0x15F3 JUMP JUMPDEST JUMPDEST PUSH1 0x40 MLOAD SWAP1 DUP1 DUP3 MSTORE DUP1 PUSH1 0x20 MUL PUSH1 0x20 ADD DUP3 ADD PUSH1 0x40 MSTORE DUP1 ISZERO PUSH2 0xC13 JUMPI DUP2 PUSH1 0x20 ADD JUMPDEST PUSH2 0xC00 PUSH2 0x11D3 JUMP JUMPDEST DUP2 MSTORE PUSH1 0x20 ADD SWAP1 PUSH1 0x1 SWAP1 SUB SWAP1 DUP2 PUSH2 0xBF8 JUMPI SWAP1 POP JUMPDEST POP SWAP1 POP PUSH1 0x0 JUMPDEST DUP5 DUP2 LT ISZERO PUSH2 0xE5E JUMPI CALLER PUSH20 0xFFFFFFFFFFFFFFFFFFFFFFFFFFFFFFFFFFFFFFFF AND PUSH1 0x5 PUSH1 0x0 PUSH1 0x1 DUP5 PUSH2 0xC49 SWAP2 SWAP1 PUSH2 0x1622 JUMP JUMPDEST DUP2 MSTORE PUSH1 0x20 ADD SWAP1 DUP2 MSTORE PUSH1 0x20 ADD PUSH1 0x0 KECCAK256 PUSH1 0x3 ADD PUSH1 0x0 SWAP1 SLOAD SWAP1 PUSH2 0x100 EXP SWAP1 DIV PUSH20 0xFFFFFFFFFFFFFFFFFFFFFFFFFFFFFFFFFFFFFFFF AND PUSH20 0xFFFFFFFFFFFFFFFFFFFFFFFFFFFFFFFFFFFFFFFF AND SUB PUSH2 0xE4B JUMPI PUSH1 0x0 PUSH1 0x5 PUSH1 0x0 PUSH1 0x1 DUP5 PUSH2 0xCA9 SWAP2 SWAP1 PUSH2 0x1622 JUMP JUMPDEST DUP2 MSTORE PUSH1 0x20 ADD SWAP1 DUP2 MSTORE PUSH1 0x20 ADD PUSH1 0x0 KECCAK256 PUSH1 0x0 ADD SLOAD SWAP1 POP PUSH1 0x0 PUSH1 0x5 PUSH1 0x0 DUP4 DUP2 MSTORE PUSH1 0x20 ADD SWAP1 DUP2 MSTORE PUSH1 0x20 ADD PUSH1 0x0 KECCAK256 SWAP1 POP DUP1 PUSH1 0x40 MLOAD DUP1 PUSH1 0xE0 ADD PUSH1 0x40 MSTORE SWAP1 DUP2 PUSH1 0x0 DUP3 ADD SLOAD DUP2 MSTORE PUSH1 0x20 ADD PUSH1 0x1 DUP3 ADD PUSH1 0x0 SWAP1 SLOAD SWAP1 PUSH2 0x100 EXP SWAP1 DIV PUSH20 0xFFFFFFFFFFFFFFFFFFFFFFFFFFFFFFFFFFFFFFFF AND PUSH20 0xFFFFFFFFFFFFFFFFFFFFFFFFFFFFFFFFFFFFFFFF AND PUSH20 0xFFFFFFFFFFFFFFFFFFFFFFFFFFFFFFFFFFFFFFFF AND DUP2 MSTORE PUSH1 0x20 ADD PUSH1 0x2 DUP3 ADD SLOAD DUP2 MSTORE PUSH1 0x20 ADD PUSH1 0x3 DUP3 ADD PUSH1 0x0 SWAP1 SLOAD SWAP1 PUSH2 0x100 EXP SWAP1 DIV PUSH20 0xFFFFFFFFFFFFFFFFFFFFFFFFFFFFFFFFFFFFFFFF AND PUSH20 0xFFFFFFFFFFFFFFFFFFFFFFFFFFFFFFFFFFFFFFFF AND PUSH20 0xFFFFFFFFFFFFFFFFFFFFFFFFFFFFFFFFFFFFFFFF AND DUP2 MSTORE PUSH1 0x20 ADD PUSH1 0x4 DUP3 ADD PUSH1 0x0 SWAP1 SLOAD SWAP1 PUSH2 0x100 EXP SWAP1 DIV PUSH20 0xFFFFFFFFFFFFFFFFFFFFFFFFFFFFFFFFFFFFFFFF AND PUSH20 0xFFFFFFFFFFFFFFFFFFFFFFFFFFFFFFFFFFFFFFFF AND PUSH20 0xFFFFFFFFFFFFFFFFFFFFFFFFFFFFFFFFFFFFFFFF AND DUP2 MSTORE PUSH1 0x20 ADD PUSH1 0x5 DUP3 ADD SLOAD DUP2 MSTORE PUSH1 0x20 ADD PUSH1 0x6 DUP3 ADD PUSH1 0x0 SWAP1 SLOAD SWAP1 PUSH2 0x100 EXP SWAP1 DIV PUSH1 0xFF AND ISZERO ISZERO ISZERO ISZERO DUP2 MSTORE POP POP DUP5 DUP7 DUP2 MLOAD DUP2 LT PUSH2 0xE2E JUMPI PUSH2 0xE2D PUSH2 0x1678 JUMP JUMPDEST JUMPDEST PUSH1 0x20 MUL PUSH1 0x20 ADD ADD DUP2 SWAP1 MSTORE POP PUSH1 0x1 DUP6 PUSH2 0xE46 SWAP2 SWAP1 PUSH2 0x1622 JUMP JUMPDEST SWAP5 POP POP POP JUMPDEST DUP1 DUP1 PUSH2 0xE56 SWAP1 PUSH2 0x16A7 JUMP JUMPDEST SWAP2 POP POP PUSH2 0xC19 JUMP JUMPDEST POP DUP1 SWAP5 POP POP POP POP POP SWAP1 JUMP JUMPDEST CALLER PUSH20 0xFFFFFFFFFFFFFFFFFFFFFFFFFFFFFFFFFFFFFFFF AND PUSH1 0x4 PUSH1 0x0 SWAP1 SLOAD SWAP1 PUSH2 0x100 EXP SWAP1 DIV PUSH20 0xFFFFFFFFFFFFFFFFFFFFFFFFFFFFFFFFFFFFFFFF AND PUSH20 0xFFFFFFFFFFFFFFFFFFFFFFFFFFFFFFFFFFFFFFFF AND EQ PUSH2 0xEF0 JUMPI PUSH1 0x40 MLOAD PUSH32 0xD9C2975C00000000000000000000000000000000000000000000000000000000 DUP2 MSTORE PUSH1 0x4 ADD PUSH1 0x40 MLOAD DUP1 SWAP2 SUB SWAP1 REVERT JUMPDEST DUP1 PUSH1 0x3 DUP2 SWAP1 SSTORE POP POP JUMP JUMPDEST PUSH1 0x2 PUSH1 0x0 SLOAD SUB PUSH2 0xF3F JUMPI PUSH1 0x40 MLOAD PUSH32 0x8C379A000000000000000000000000000000000000000000000000000000000 DUP2 MSTORE PUSH1 0x4 ADD PUSH2 0xF36 SWAP1 PUSH2 0x174C JUMP JUMPDEST PUSH1 0x40 MLOAD DUP1 SWAP2 SUB SWAP1 REVERT JUMPDEST PUSH1 0x2 PUSH1 0x0 DUP2 SWAP1 SSTORE POP PUSH1 0x0 PUSH1 0x5 PUSH1 0x0 DUP4 DUP2 MSTORE PUSH1 0x20 ADD SWAP1 DUP2 MSTORE PUSH1 0x20 ADD PUSH1 0x0 KECCAK256 PUSH1 0x5 ADD SLOAD SWAP1 POP PUSH1 0x0 PUSH1 0x5 PUSH1 0x0 DUP5 DUP2 MSTORE PUSH1 0x20 ADD SWAP1 DUP2 MSTORE PUSH1 0x20 ADD PUSH1 0x0 KECCAK256 PUSH1 0x2 ADD SLOAD SWAP1 POP DUP2 CALLVALUE EQ PUSH2 0xFB6 JUMPI PUSH1 0x40 MLOAD PUSH32 0x75481B7800000000000000000000000000000000000000000000000000000000 DUP2 MSTORE PUSH1 0x4 ADD PUSH1 0x40 MLOAD DUP1 SWAP2 SUB SWAP1 REVERT JUMPDEST PUSH1 0x5 PUSH1 0x0 DUP5 DUP2 MSTORE PUSH1 0x20 ADD SWAP1 DUP2 MSTORE PUSH1 0x20 ADD PUSH1 0x0 KECCAK256 PUSH1 0x3 ADD PUSH1 0x0 SWAP1 SLOAD SWAP1 PUSH2 0x100 EXP SWAP1 DIV PUSH20 0xFFFFFFFFFFFFFFFFFFFFFFFFFFFFFFFFFFFFFFFF AND PUSH20 0xFFFFFFFFFFFFFFFFFFFFFFFFFFFFFFFFFFFFFFFF AND PUSH2 0x8FC CALLVALUE SWAP1 DUP2 ISZERO MUL SWAP1 PUSH1 0x40 MLOAD PUSH1 0x0 PUSH1 0x40 MLOAD DUP1 DUP4 SUB DUP2 DUP6 DUP9 DUP9 CALL SWAP4 POP POP POP POP ISZERO DUP1 ISZERO PUSH2 0x1032 JUMPI RETURNDATASIZE PUSH1 0x0 DUP1 RETURNDATACOPY RETURNDATASIZE PUSH1 0x0 REVERT JUMPDEST POP DUP4 PUSH20 0xFFFFFFFFFFFFFFFFFFFFFFFFFFFFFFFFFFFFFFFF AND PUSH4 0x23B872DD ADDRESS CALLER DUP5 PUSH1 0x40 MLOAD DUP5 PUSH4 0xFFFFFFFF AND PUSH1 0xE0 SHL DUP2 MSTORE PUSH1 0x4 ADD PUSH2 0x1070 SWAP4 SWAP3 SWAP2 SWAP1 PUSH2 0x177B JUMP JUMPDEST PUSH1 0x0 PUSH1 0x40 MLOAD DUP1 DUP4 SUB DUP2 PUSH1 0x0 DUP8 DUP1 EXTCODESIZE ISZERO DUP1 ISZERO PUSH2 0x108A JUMPI PUSH1 0x0 DUP1 REVERT JUMPDEST POP GAS CALL ISZERO DUP1 ISZERO PUSH2 0x109E JUMPI RETURNDATASIZE PUSH1 0x0 DUP1 RETURNDATACOPY RETURNDATASIZE PUSH1 0x0 REVERT JUMPDEST POP POP POP POP CALLER PUSH1 0x5 PUSH1 0x0 DUP6 DUP2 MSTORE PUSH1 0x20 ADD SWAP1 DUP2 MSTORE PUSH1 0x20 ADD PUSH1 0x0 KECCAK256 PUSH1 0x4 ADD PUSH1 0x0 PUSH2 0x100 EXP DUP2 SLOAD DUP2 PUSH20 0xFFFFFFFFFFFFFFFFFFFFFFFFFFFFFFFFFFFFFFFF MUL NOT AND SWAP1 DUP4 PUSH20 0xFFFFFFFFFFFFFFFFFFFFFFFFFFFFFFFFFFFFFFFF AND MUL OR SWAP1 SSTORE POP PUSH1 0x1 PUSH1 0x5 PUSH1 0x0 DUP6 DUP2 MSTORE PUSH1 0x20 ADD SWAP1 DUP2 MSTORE PUSH1 0x20 ADD PUSH1 0x0 KECCAK256 PUSH1 0x6 ADD PUSH1 0x0 PUSH2 0x100 EXP DUP2 SLOAD DUP2 PUSH1 0xFF MUL NOT AND SWAP1 DUP4 ISZERO ISZERO MUL OR SWAP1 SSTORE POP PUSH2 0x1130 PUSH1 0x2 PUSH2 0x11BD JUMP JUMPDEST PUSH1 0x4 PUSH1 0x0 SWAP1 SLOAD SWAP1 PUSH2 0x100 EXP SWAP1 DIV PUSH20 0xFFFFFFFFFFFFFFFFFFFFFFFFFFFFFFFFFFFFFFFF AND PUSH20 0xFFFFFFFFFFFFFFFFFFFFFFFFFFFFFFFFFFFFFFFF AND PUSH2 0x8FC PUSH1 0x3 SLOAD SWAP1 DUP2 ISZERO MUL SWAP1 PUSH1 0x40 MLOAD PUSH1 0x0 PUSH1 0x40 MLOAD DUP1 DUP4 SUB DUP2 DUP6 DUP9 DUP9 CALL SWAP4 POP POP POP POP ISZERO DUP1 ISZERO PUSH2 0x119A JUMPI RETURNDATASIZE PUSH1 0x0 DUP1 RETURNDATACOPY RETURNDATASIZE PUSH1 0x0 REVERT JUMPDEST POP POP POP PUSH1 0x1 PUSH1 0x0 DUP2 SWAP1 SSTORE POP POP POP JUMP JUMPDEST PUSH1 0x3 SLOAD DUP2 JUMP JUMPDEST PUSH1 0x0 DUP2 PUSH1 0x0 ADD SLOAD SWAP1 POP SWAP2 SWAP1 POP JUMP JUMPDEST PUSH1 0x1 DUP2 PUSH1 0x0 ADD PUSH1 0x0 DUP3 DUP3 SLOAD ADD SWAP3 POP POP DUP2 SWAP1 SSTORE POP POP JUMP JUMPDEST PUSH1 0x40 MLOAD DUP1 PUSH1 0xE0 ADD PUSH1 0x40 MSTORE DUP1 PUSH1 0x0 DUP2 MSTORE PUSH1 0x20 ADD PUSH1 0x0 PUSH20 0xFFFFFFFFFFFFFFFFFFFFFFFFFFFFFFFFFFFFFFFF AND DUP2 MSTORE PUSH1 0x20 ADD PUSH1 0x0 DUP2 MSTORE PUSH1 0x20 ADD PUSH1 0x0 PUSH20 0xFFFFFFFFFFFFFFFFFFFFFFFFFFFFFFFFFFFFFFFF AND DUP2 MSTORE PUSH1 0x20 ADD PUSH1 0x0 PUSH20 0xFFFFFFFFFFFFFFFFFFFFFFFFFFFFFFFFFFFFFFFF AND DUP2 MSTORE PUSH1 0x20 ADD PUSH1 0x0 DUP2 MSTORE PUSH1 0x20 ADD PUSH1 0x0 ISZERO ISZERO DUP2 MSTORE POP SWAP1 JUMP JUMPDEST PUSH1 0x0 DUP2 MLOAD SWAP1 POP SWAP2 SWAP1 POP JUMP JUMPDEST PUSH1 0x0 DUP3 DUP3 MSTORE PUSH1 0x20 DUP3 ADD SWAP1 POP SWAP3 SWAP2 POP POP JUMP JUMPDEST PUSH1 0x0 DUP2 SWAP1 POP PUSH1 0x20 DUP3 ADD SWAP1 POP SWAP2 SWAP1 POP JUMP JUMPDEST PUSH1 0x0 DUP2 SWAP1 POP SWAP2 SWAP1 POP JUMP JUMPDEST PUSH2 0x1293 DUP2 PUSH2 0x1280 JUMP JUMPDEST DUP3 MSTORE POP POP JUMP JUMPDEST PUSH1 0x0 PUSH20 0xFFFFFFFFFFFFFFFFFFFFFFFFFFFFFFFFFFFFFFFF DUP3 AND SWAP1 POP SWAP2 SWAP1 POP JUMP JUMPDEST PUSH1 0x0 PUSH2 0x12C4 DUP3 PUSH2 0x1299 JUMP JUMPDEST SWAP1 POP SWAP2 SWAP1 POP JUMP JUMPDEST PUSH2 0x12D4 DUP2 PUSH2 0x12B9 JUMP JUMPDEST DUP3 MSTORE POP POP JUMP JUMPDEST PUSH1 0x0 PUSH2 0x12E5 DUP3 PUSH2 0x1299 JUMP JUMPDEST SWAP1 POP SWAP2 SWAP1 POP JUMP JUMPDEST PUSH2 0x12F5 DUP2 PUSH2 0x12DA JUMP JUMPDEST DUP3 MSTORE POP POP JUMP JUMPDEST PUSH1 0x0 DUP2 ISZERO ISZERO SWAP1 POP SWAP2 SWAP1 POP JUMP JUMPDEST PUSH2 0x1310 DUP2 PUSH2 0x12FB JUMP JUMPDEST DUP3 MSTORE POP POP JUMP JUMPDEST PUSH1 0xE0 DUP3 ADD PUSH1 0x0 DUP3 ADD MLOAD PUSH2 0x132C PUSH1 0x0 DUP6 ADD DUP3 PUSH2 0x128A JUMP JUMPDEST POP PUSH1 0x20 DUP3 ADD MLOAD PUSH2 0x133F PUSH1 0x20 DUP6 ADD DUP3 PUSH2 0x12CB JUMP JUMPDEST POP PUSH1 0x40 DUP3 ADD MLOAD PUSH2 0x1352 PUSH1 0x40 DUP6 ADD DUP3 PUSH2 0x128A JUMP JUMPDEST POP PUSH1 0x60 DUP3 ADD MLOAD PUSH2 0x1365 PUSH1 0x60 DUP6 ADD DUP3 PUSH2 0x12EC JUMP JUMPDEST POP PUSH1 0x80 DUP3 ADD MLOAD PUSH2 0x1378 PUSH1 0x80 DUP6 ADD DUP3 PUSH2 0x12EC JUMP JUMPDEST POP PUSH1 0xA0 DUP3 ADD MLOAD PUSH2 0x138B PUSH1 0xA0 DUP6 ADD DUP3 PUSH2 0x128A JUMP JUMPDEST POP PUSH1 0xC0 DUP3 ADD MLOAD PUSH2 0x139E PUSH1 0xC0 DUP6 ADD DUP3 PUSH2 0x1307 JUMP JUMPDEST POP POP POP POP JUMP JUMPDEST PUSH1 0x0 PUSH2 0x13B0 DUP4 DUP4 PUSH2 0x1316 JUMP JUMPDEST PUSH1 0xE0 DUP4 ADD SWAP1 POP SWAP3 SWAP2 POP POP JUMP JUMPDEST PUSH1 0x0 PUSH1 0x20 DUP3 ADD SWAP1 POP SWAP2 SWAP1 POP JUMP JUMPDEST PUSH1 0x0 PUSH2 0x13D4 DUP3 PUSH2 0x1254 JUMP JUMPDEST PUSH2 0x13DE DUP2 DUP6 PUSH2 0x125F JUMP JUMPDEST SWAP4 POP PUSH2 0x13E9 DUP4 PUSH2 0x1270 JUMP JUMPDEST DUP1 PUSH1 0x0 JUMPDEST DUP4 DUP2 LT ISZERO PUSH2 0x141A JUMPI DUP2 MLOAD PUSH2 0x1401 DUP9 DUP3 PUSH2 0x13A4 JUMP JUMPDEST SWAP8 POP PUSH2 0x140C DUP4 PUSH2 0x13BC JUMP JUMPDEST SWAP3 POP POP PUSH1 0x1 DUP2 ADD SWAP1 POP PUSH2 0x13ED JUMP JUMPDEST POP DUP6 SWAP4 POP POP POP POP SWAP3 SWAP2 POP POP JUMP JUMPDEST PUSH1 0x0 PUSH1 0x20 DUP3 ADD SWAP1 POP DUP2 DUP2 SUB PUSH1 0x0 DUP4 ADD MSTORE PUSH2 0x1441 DUP2 DUP5 PUSH2 0x13C9 JUMP JUMPDEST SWAP1 POP SWAP3 SWAP2 POP POP JUMP JUMPDEST PUSH1 0x0 DUP1 REVERT JUMPDEST PUSH2 0x1457 DUP2 PUSH2 0x12B9 JUMP JUMPDEST DUP2 EQ PUSH2 0x1462 JUMPI PUSH1 0x0 DUP1 REVERT JUMPDEST POP JUMP JUMPDEST PUSH1 0x0 DUP2 CALLDATALOAD SWAP1 POP PUSH2 0x1474 DUP2 PUSH2 0x144E JUMP JUMPDEST SWAP3 SWAP2 POP POP JUMP JUMPDEST PUSH2 0x1483 DUP2 PUSH2 0x1280 JUMP JUMPDEST DUP2 EQ PUSH2 0x148E JUMPI PUSH1 0x0 DUP1 REVERT JUMPDEST POP JUMP JUMPDEST PUSH1 0x0 DUP2 CALLDATALOAD SWAP1 POP PUSH2 0x14A0 DUP2 PUSH2 0x147A JUMP JUMPDEST SWAP3 SWAP2 POP POP JUMP JUMPDEST PUSH1 0x0 DUP1 PUSH1 0x0 PUSH1 0x60 DUP5 DUP7 SUB SLT ISZERO PUSH2 0x14BF JUMPI PUSH2 0x14BE PUSH2 0x1449 JUMP JUMPDEST JUMPDEST PUSH1 0x0 PUSH2 0x14CD DUP7 DUP3 DUP8 ADD PUSH2 0x1465 JUMP JUMPDEST SWAP4 POP POP PUSH1 0x20 PUSH2 0x14DE DUP7 DUP3 DUP8 ADD PUSH2 0x1491 JUMP JUMPDEST SWAP3 POP POP PUSH1 0x40 PUSH2 0x14EF DUP7 DUP3 DUP8 ADD PUSH2 0x1491 JUMP JUMPDEST SWAP2 POP POP SWAP3 POP SWAP3 POP SWAP3 JUMP JUMPDEST PUSH1 0x0 PUSH1 0x20 DUP3 DUP5 SUB SLT ISZERO PUSH2 0x150F JUMPI PUSH2 0x150E PUSH2 0x1449 JUMP JUMPDEST JUMPDEST PUSH1 0x0 PUSH2 0x151D DUP5 DUP3 DUP6 ADD PUSH2 0x1491 JUMP JUMPDEST SWAP2 POP POP SWAP3 SWAP2 POP POP JUMP JUMPDEST PUSH1 0x0 DUP1 PUSH1 0x40 DUP4 DUP6 SUB SLT ISZERO PUSH2 0x153D JUMPI PUSH2 0x153C PUSH2 0x1449 JUMP JUMPDEST JUMPDEST PUSH1 0x0 PUSH2 0x154B DUP6 DUP3 DUP7 ADD PUSH2 0x1465 JUMP JUMPDEST SWAP3 POP POP PUSH1 0x20 PUSH2 0x155C DUP6 DUP3 DUP7 ADD PUSH2 0x1491 JUMP JUMPDEST SWAP2 POP POP SWAP3 POP SWAP3 SWAP1 POP JUMP JUMPDEST PUSH2 0x156F DUP2 PUSH2 0x1280 JUMP JUMPDEST DUP3 MSTORE POP POP JUMP JUMPDEST PUSH1 0x0 PUSH1 0x20 DUP3 ADD SWAP1 POP PUSH2 0x158A PUSH1 0x0 DUP4 ADD DUP5 PUSH2 0x1566 JUMP JUMPDEST SWAP3 SWAP2 POP POP JUMP JUMPDEST PUSH32 0x4E487B7100000000000000000000000000000000000000000000000000000000 PUSH1 0x0 MSTORE PUSH1 0x11 PUSH1 0x4 MSTORE PUSH1 0x24 PUSH1 0x0 REVERT JUMPDEST PUSH1 0x0 PUSH2 0x15CA DUP3 PUSH2 0x1280 JUMP JUMPDEST SWAP2 POP PUSH2 0x15D5 DUP4 PUSH2 0x1280 JUMP JUMPDEST SWAP3 POP DUP3 DUP3 LT ISZERO PUSH2 0x15E8 JUMPI PUSH2 0x15E7 PUSH2 0x1590 JUMP JUMPDEST JUMPDEST DUP3 DUP3 SUB SWAP1 POP SWAP3 SWAP2 POP POP JUMP JUMPDEST PUSH32 0x4E487B7100000000000000000000000000000000000000000000000000000000 PUSH1 0x0 MSTORE PUSH1 0x41 PUSH1 0x4 MSTORE PUSH1 0x24 PUSH1 0x0 REVERT JUMPDEST PUSH1 0x0 PUSH2 0x162D DUP3 PUSH2 0x1280 JUMP JUMPDEST SWAP2 POP PUSH2 0x1638 DUP4 PUSH2 0x1280 JUMP JUMPDEST SWAP3 POP DUP3 PUSH32 0xFFFFFFFFFFFFFFFFFFFFFFFFFFFFFFFFFFFFFFFFFFFFFFFFFFFFFFFFFFFFFFFF SUB DUP3 GT ISZERO PUSH2 0x166D JUMPI PUSH2 0x166C PUSH2 0x1590 JUMP JUMPDEST JUMPDEST DUP3 DUP3 ADD SWAP1 POP SWAP3 SWAP2 POP POP JUMP JUMPDEST PUSH32 0x4E487B7100000000000000000000000000000000000000000000000000000000 PUSH1 0x0 MSTORE PUSH1 0x32 PUSH1 0x4 MSTORE PUSH1 0x24 PUSH1 0x0 REVERT JUMPDEST PUSH1 0x0 PUSH2 0x16B2 DUP3 PUSH2 0x1280 JUMP JUMPDEST SWAP2 POP PUSH32 0xFFFFFFFFFFFFFFFFFFFFFFFFFFFFFFFFFFFFFFFFFFFFFFFFFFFFFFFFFFFFFFFF DUP3 SUB PUSH2 0x16E4 JUMPI PUSH2 0x16E3 PUSH2 0x1590 JUMP JUMPDEST JUMPDEST PUSH1 0x1 DUP3 ADD SWAP1 POP SWAP2 SWAP1 POP JUMP JUMPDEST PUSH1 0x0 DUP3 DUP3 MSTORE PUSH1 0x20 DUP3 ADD SWAP1 POP SWAP3 SWAP2 POP POP JUMP JUMPDEST PUSH32 0x5265656E7472616E637947756172643A207265656E7472616E742063616C6C00 PUSH1 0x0 DUP3 ADD MSTORE POP JUMP JUMPDEST PUSH1 0x0 PUSH2 0x1736 PUSH1 0x1F DUP4 PUSH2 0x16EF JUMP JUMPDEST SWAP2 POP PUSH2 0x1741 DUP3 PUSH2 0x1700 JUMP JUMPDEST PUSH1 0x20 DUP3 ADD SWAP1 POP SWAP2 SWAP1 POP JUMP JUMPDEST PUSH1 0x0 PUSH1 0x20 DUP3 ADD SWAP1 POP DUP2 DUP2 SUB PUSH1 0x0 DUP4 ADD MSTORE PUSH2 0x1765 DUP2 PUSH2 0x1729 JUMP JUMPDEST SWAP1 POP SWAP2 SWAP1 POP JUMP JUMPDEST PUSH2 0x1775 DUP2 PUSH2 0x12B9 JUMP JUMPDEST DUP3 MSTORE POP POP JUMP JUMPDEST PUSH1 0x0 PUSH1 0x60 DUP3 ADD SWAP1 POP PUSH2 0x1790 PUSH1 0x0 DUP4 ADD DUP7 PUSH2 0x176C JUMP JUMPDEST PUSH2 0x179D PUSH1 0x20 DUP4 ADD DUP6 PUSH2 0x176C JUMP JUMPDEST PUSH2 0x17AA PUSH1 0x40 DUP4 ADD DUP5 PUSH2 0x1566 JUMP JUMPDEST SWAP5 SWAP4 POP POP POP POP JUMP JUMPDEST PUSH2 0x17BB DUP2 PUSH2 0x12FB JUMP JUMPDEST DUP3 MSTORE POP POP JUMP JUMPDEST PUSH1 0x0 PUSH1 0x80 DUP3 ADD SWAP1 POP PUSH2 0x17D6 PUSH1 0x0 DUP4 ADD DUP8 PUSH2 0x176C JUMP JUMPDEST PUSH2 0x17E3 PUSH1 0x20 DUP4 ADD DUP7 PUSH2 0x176C JUMP JUMPDEST PUSH2 0x17F0 PUSH1 0x40 DUP4 ADD DUP6 PUSH2 0x1566 JUMP JUMPDEST PUSH2 0x17FD PUSH1 0x60 DUP4 ADD DUP5 PUSH2 0x17B2 JUMP JUMPDEST SWAP6 SWAP5 POP POP POP POP POP JUMP INVALID LOG2 PUSH5 0x6970667358 0x22 SLT KECCAK256 0xE PUSH4 0xD55DF888 SWAP15 SWAP12 0xBB PUSH24 0x899BCD71844DC50E102B962E37F5C0A2B1C77BB9BA676473 PUSH16 0x6C634300080E00330000000000000000 "
				},
				"gasEstimates": {
					"creation": {
						"codeDepositCost": "1240800",
						"executionCost": "69774",
						"totalCost": "1310574"
					},
					"external": {
						"createMarketItem(address,uint256,uint256)": "infinite",
						"createMarketSale(address,uint256)": "infinite",
						"fetchItemCreated()": "infinite",
						"fetchMarketItems()": "infinite",
						"fetchMyNfts()": "infinite",
						"listingPrice()": "2495",
						"updateListingPrice(uint256)": "24688"
					}
				},
				"methodIdentifiers": {
					"createMarketItem(address,uint256,uint256)": "58eb2df5",
					"createMarketSale(address,uint256)": "c23b139e",
					"fetchItemCreated()": "6d360339",
					"fetchMarketItems()": "0f08efe0",
					"fetchMyNfts()": "128ae712",
					"listingPrice()": "c78f19f9",
					"updateListingPrice(uint256)": "ae677aa3"
				}
			},
			"storageLayout": {
				"storage": [
					{
						"astId": 10,
						"contract": "src/nftMarketPlace.sol:NFTMarketplace",
						"label": "_status",
						"offset": 0,
						"slot": "0",
						"type": "t_uint256"
					},
					{
						"astId": 1734,
						"contract": "src/nftMarketPlace.sol:NFTMarketplace",
						"label": "_itemIds",
						"offset": 0,
						"slot": "1",
						"type": "t_struct(Counter)1390_storage"
					},
					{
						"astId": 1737,
						"contract": "src/nftMarketPlace.sol:NFTMarketplace",
						"label": "_itemsSold",
						"offset": 0,
						"slot": "2",
						"type": "t_struct(Counter)1390_storage"
					},
					{
						"astId": 1740,
						"contract": "src/nftMarketPlace.sol:NFTMarketplace",
						"label": "listingPrice",
						"offset": 0,
						"slot": "3",
						"type": "t_uint256"
					},
					{
						"astId": 1742,
						"contract": "src/nftMarketPlace.sol:NFTMarketplace",
						"label": "owner",
						"offset": 0,
						"slot": "4",
						"type": "t_address_payable"
					},
					{
						"astId": 1762,
						"contract": "src/nftMarketPlace.sol:NFTMarketplace",
						"label": "idToMarketItem",
						"offset": 0,
						"slot": "5",
						"type": "t_mapping(t_uint256,t_struct(MarketItem)1757_storage)"
					}
				],
				"types": {
					"t_address": {
						"encoding": "inplace",
						"label": "address",
						"numberOfBytes": "20"
					},
					"t_address_payable": {
						"encoding": "inplace",
						"label": "address payable",
						"numberOfBytes": "20"
					},
					"t_bool": {
						"encoding": "inplace",
						"label": "bool",
						"numberOfBytes": "1"
					},
					"t_mapping(t_uint256,t_struct(MarketItem)1757_storage)": {
						"encoding": "mapping",
						"key": "t_uint256",
						"label": "mapping(uint256 => struct NFTMarketplace.MarketItem)",
						"numberOfBytes": "32",
						"value": "t_struct(MarketItem)1757_storage"
					},
					"t_struct(Counter)1390_storage": {
						"encoding": "inplace",
						"label": "struct Counters.Counter",
						"members": [
							{
								"astId": 1389,
								"contract": "src/nftMarketPlace.sol:NFTMarketplace",
								"label": "_value",
								"offset": 0,
								"slot": "0",
								"type": "t_uint256"
							}
						],
						"numberOfBytes": "32"
					},
					"t_struct(MarketItem)1757_storage": {
						"encoding": "inplace",
						"label": "struct NFTMarketplace.MarketItem",
						"members": [
							{
								"astId": 1744,
								"contract": "src/nftMarketPlace.sol:NFTMarketplace",
								"label": "itemId",
								"offset": 0,
								"slot": "0",
								"type": "t_uint256"
							},
							{
								"astId": 1746,
								"contract": "src/nftMarketPlace.sol:NFTMarketplace",
								"label": "nftContract",
								"offset": 0,
								"slot": "1",
								"type": "t_address"
							},
							{
								"astId": 1748,
								"contract": "src/nftMarketPlace.sol:NFTMarketplace",
								"label": "tokenId",
								"offset": 0,
								"slot": "2",
								"type": "t_uint256"
							},
							{
								"astId": 1750,
								"contract": "src/nftMarketPlace.sol:NFTMarketplace",
								"label": "seller",
								"offset": 0,
								"slot": "3",
								"type": "t_address_payable"
							},
							{
								"astId": 1752,
								"contract": "src/nftMarketPlace.sol:NFTMarketplace",
								"label": "owner",
								"offset": 0,
								"slot": "4",
								"type": "t_address_payable"
							},
							{
								"astId": 1754,
								"contract": "src/nftMarketPlace.sol:NFTMarketplace",
								"label": "price",
								"offset": 0,
								"slot": "5",
								"type": "t_uint256"
							},
							{
								"astId": 1756,
								"contract": "src/nftMarketPlace.sol:NFTMarketplace",
								"label": "sold",
								"offset": 0,
								"slot": "6",
								"type": "t_bool"
							}
						],
						"numberOfBytes": "224"
					},
					"t_uint256": {
						"encoding": "inplace",
						"label": "uint256",
						"numberOfBytes": "32"
					}
				}
			},
			"userdoc": {
				"kind": "user",
				"methods": {},
				"version": 1
			}
		}
	}
}