{
  "abi": [
    {
      "inputs": [
        {
          "internalType": "address",
          "name": "marketPlaceAddress",
          "type": "address"
        }
      ],
      "stateMutability": "nonpayable",
      "type": "constructor"
    },
    {
      "anonymous": false,
      "inputs": [
        {
          "indexed": true,
          "internalType": "address",
          "name": "owner",
          "type": "address"
        },
        {
          "indexed": true,
          "internalType": "address",
          "name": "approved",
          "type": "address"
        },
        {
          "indexed": true,
          "internalType": "uint256",
          "name": "tokenId",
          "type": "uint256"
        }
      ],
      "name": "Approval",
      "type": "event"
    },
    {
      "anonymous": false,
      "inputs": [
        {
          "indexed": true,
          "internalType": "address",
          "name": "owner",
          "type": "address"
        },
        {
          "indexed": true,
          "internalType": "address",
          "name": "operator",
          "type": "address"
        },
        {
          "indexed": false,
          "internalType": "bool",
          "name": "approved",
          "type": "bool"
        }
      ],
      "name": "ApprovalForAll",
      "type": "event"
    },
    {
      "anonymous": false,
      "inputs": [
        {
          "indexed": true,
          "internalType": "address",
          "name": "from",
          "type": "address"
        },
        {
          "indexed": true,
          "internalType": "address",
          "name": "to",
          "type": "address"
        },
        {
          "indexed": true,
          "internalType": "uint256",
          "name": "tokenId",
          "type": "uint256"
        }
      ],
      "name": "Transfer",
      "type": "event"
    },
    {
      "inputs": [
        {
          "internalType": "address",
          "name": "to",
          "type": "address"
        },
        {
          "internalType": "uint256",
          "name": "tokenId",
          "type": "uint256"
        }
      ],
      "name": "approve",
      "outputs": [],
      "stateMutability": "nonpayable",
      "type": "function"
    },
    {
      "inputs": [
        {
          "internalType": "address",
          "name": "owner",
          "type": "address"
        }
      ],
      "name": "balanceOf",
      "outputs": [
        {
          "internalType": "uint256",
          "name": "",
          "type": "uint256"
        }
      ],
      "stateMutability": "view",
      "type": "function"
    },
    {
      "inputs": [
        {
          "internalType": "string",
          "name": "tokenURI",
          "type": "string"
        }
      ],
      "name": "createToken",
      "outputs": [
        {
          "internalType": "uint256",
          "name": "",
          "type": "uint256"
        }
      ],
      "stateMutability": "payable",
      "type": "function"
    },
    {
      "inputs": [
        {
          "internalType": "uint256",
          "name": "tokenId",
          "type": "uint256"
        }
      ],
      "name": "getApproved",
      "outputs": [
        {
          "internalType": "address",
          "name": "",
          "type": "address"
        }
      ],
      "stateMutability": "view",
      "type": "function"
    },
    {
      "inputs": [
        {
          "internalType": "address",
          "name": "owner",
          "type": "address"
        }
      ],
      "name": "getBalanceOfToken",
      "outputs": [
        {
          "internalType": "uint256",
          "name": "",
          "type": "uint256"
        }
      ],
      "stateMutability": "view",
      "type": "function"
    },
    {
      "inputs": [
        {
          "internalType": "address",
          "name": "owner",
          "type": "address"
        },
        {
          "internalType": "address",
          "name": "operator",
          "type": "address"
        }
      ],
      "name": "isApprovedForAll",
      "outputs": [
        {
          "internalType": "bool",
          "name": "",
          "type": "bool"
        }
      ],
      "stateMutability": "view",
      "type": "function"
    },
    {
      "inputs": [],
      "name": "name",
      "outputs": [
        {
          "internalType": "string",
          "name": "",
          "type": "string"
        }
      ],
      "stateMutability": "view",
      "type": "function"
    },
    {
      "inputs": [
        {
          "internalType": "uint256",
          "name": "tokenId",
          "type": "uint256"
        }
      ],
      "name": "ownerOf",
      "outputs": [
        {
          "internalType": "address",
          "name": "",
          "type": "address"
        }
      ],
      "stateMutability": "view",
      "type": "function"
    },
    {
      "inputs": [
        {
          "internalType": "address",
          "name": "from",
          "type": "address"
        },
        {
          "internalType": "address",
          "name": "to",
          "type": "address"
        },
        {
          "internalType": "uint256",
          "name": "tokenId",
          "type": "uint256"
        }
      ],
      "name": "safeTransferFrom",
      "outputs": [],
      "stateMutability": "nonpayable",
      "type": "function"
    },
    {
      "inputs": [
        {
          "internalType": "address",
          "name": "from",
          "type": "address"
        },
        {
          "internalType": "address",
          "name": "to",
          "type": "address"
        },
        {
          "internalType": "uint256",
          "name": "tokenId",
          "type": "uint256"
        },
        {
          "internalType": "bytes",
          "name": "data",
          "type": "bytes"
        }
      ],
      "name": "safeTransferFrom",
      "outputs": [],
      "stateMutability": "nonpayable",
      "type": "function"
    },
    {
      "inputs": [
        {
          "internalType": "address",
          "name": "operator",
          "type": "address"
        },
        {
          "internalType": "bool",
          "name": "approved",
          "type": "bool"
        }
      ],
      "name": "setApprovalForAll",
      "outputs": [],
      "stateMutability": "nonpayable",
      "type": "function"
    },
    {
      "inputs": [
        {
          "internalType": "bytes4",
          "name": "interfaceId",
          "type": "bytes4"
        }
      ],
      "name": "supportsInterface",
      "outputs": [
        {
          "internalType": "bool",
          "name": "",
          "type": "bool"
        }
      ],
      "stateMutability": "view",
      "type": "function"
    },
    {
      "inputs": [],
      "name": "symbol",
      "outputs": [
        {
          "internalType": "string",
          "name": "",
          "type": "string"
        }
      ],
      "stateMutability": "view",
      "type": "function"
    },
    {
      "inputs": [
        {
          "internalType": "uint256",
          "name": "tokenId",
          "type": "uint256"
        }
      ],
      "name": "tokenURI",
      "outputs": [
        {
          "internalType": "string",
          "name": "",
          "type": "string"
        }
      ],
      "stateMutability": "view",
      "type": "function"
    },
    {
      "inputs": [
        {
          "internalType": "address",
          "name": "from",
          "type": "address"
        },
        {
          "internalType": "address",
          "name": "to",
          "type": "address"
        },
        {
          "internalType": "uint256",
          "name": "tokenId",
          "type": "uint256"
        }
      ],
      "name": "transferFrom",
      "outputs": [],
      "stateMutability": "nonpayable",
      "type": "function"
    }
  ],
  "bytecode": {
    "object": "0x60806040523480156200001157600080fd5b5060405162001952380380620019528339810160408190526200003491620000c0565b6040518060400160405280600d81526020016c31b7b232abb434bd3832b932b960991b8152506040518060400160405280600381526020016221aba960e91b815250816000908162000087919062000197565b50600162000096828262000197565b5050600980546001600160a01b0319166001600160a01b0393909316929092179091555062000263565b600060208284031215620000d357600080fd5b81516001600160a01b0381168114620000eb57600080fd5b9392505050565b634e487b7160e01b600052604160045260246000fd5b600181811c908216806200011d57607f821691505b6020821081036200013e57634e487b7160e01b600052602260045260246000fd5b50919050565b601f8211156200019257600081815260208120601f850160051c810160208610156200016d5750805b601f850160051c820191505b818110156200018e5782815560010162000179565b5050505b505050565b81516001600160401b03811115620001b357620001b3620000f2565b620001cb81620001c4845462000108565b8462000144565b602080601f831160018114620002035760008415620001ea5750858301515b600019600386901b1c1916600185901b1785556200018e565b600085815260208120601f198616915b82811015620002345788860151825594840194600190910190840162000213565b5085821015620002535787850151600019600388901b60f8161c191681555b5050505050600190811b01905550565b6116df80620002736000396000f3fe6080604052600436106100e85760003560e01c80636352211e1161008a578063a22cb46511610059578063a22cb46514610274578063b88d4fde14610294578063c87b56dd146102b4578063e985e9c5146102d457600080fd5b80636352211e146101ff57806370a082311461021f57806383786f8c1461023f57806395d89b411461025f57600080fd5b8063095ea7b3116100c6578063095ea7b31461017c57806323b872dd1461019e57806342842e0e146101be57806345576f94146101de57600080fd5b806301ffc9a7146100ed57806306fdde0314610122578063081812fc14610144575b600080fd5b3480156100f957600080fd5b5061010d610108366004611088565b61031d565b60405190151581526020015b60405180910390f35b34801561012e57600080fd5b5061013761036f565b60405161011991906110fd565b34801561015057600080fd5b5061016461015f366004611110565b610401565b6040516001600160a01b039091168152602001610119565b34801561018857600080fd5b5061019c610197366004611145565b610428565b005b3480156101aa57600080fd5b5061019c6101b936600461116f565b610542565b3480156101ca57600080fd5b5061019c6101d936600461116f565b610573565b6101f16101ec366004611237565b61058e565b604051908152602001610119565b34801561020b57600080fd5b5061016461021a366004611110565b6105d6565b34801561022b57600080fd5b506101f161023a366004611280565b610636565b34801561024b57600080fd5b506101f161025a366004611280565b6106bc565b34801561026b57600080fd5b506101376106c7565b34801561028057600080fd5b5061019c61028f36600461129b565b6106d6565b3480156102a057600080fd5b5061019c6102af3660046112d7565b6106e5565b3480156102c057600080fd5b506101376102cf366004611110565b61071d565b3480156102e057600080fd5b5061010d6102ef366004611353565b6001600160a01b03918216600090815260056020908152604080832093909416825291909152205460ff1690565b60006001600160e01b031982166380ac58cd60e01b148061034e57506001600160e01b03198216635b5e139f60e01b145b8061036957506301ffc9a760e01b6001600160e01b03198316145b92915050565b60606000805461037e90611386565b80601f01602080910402602001604051908101604052809291908181526020018280546103aa90611386565b80156103f75780601f106103cc576101008083540402835291602001916103f7565b820191906000526020600020905b8154815290600101906020018083116103da57829003601f168201915b5050505050905090565b600061040c8261082d565b506000908152600460205260409020546001600160a01b031690565b6000610433826105d6565b9050806001600160a01b0316836001600160a01b0316036104a55760405162461bcd60e51b815260206004820152602160248201527f4552433732313a20617070726f76616c20746f2063757272656e74206f776e656044820152603960f91b60648201526084015b60405180910390fd5b336001600160a01b03821614806104c157506104c181336102ef565b6105335760405162461bcd60e51b815260206004820152603e60248201527f4552433732313a20617070726f76652063616c6c6572206973206e6f7420746f60448201527f6b656e206f776e6572206e6f7220617070726f76656420666f7220616c6c0000606482015260840161049c565b61053d838361088f565b505050565b61054c33826108fd565b6105685760405162461bcd60e51b815260040161049c906113c0565b61053d83838361097b565b61053d838383604051806020016040528060008152506106e5565b600061059e600780546001019055565b60006105a960075490565b90506105b53382610b26565b6105bf8184610c68565b600954610369906001600160a01b031660016106d6565b6000818152600260205260408120546001600160a01b0316806103695760405162461bcd60e51b8152602060048201526018602482015277115490cdcc8c4e881a5b9d985b1a59081d1bdad95b88125160421b604482015260640161049c565b60006001600160a01b0382166106a05760405162461bcd60e51b815260206004820152602960248201527f4552433732313a2061646472657373207a65726f206973206e6f7420612076616044820152683634b21037bbb732b960b91b606482015260840161049c565b506001600160a01b031660009081526003602052604090205490565b600061036982610636565b60606001805461037e90611386565b6106e1338383610cfb565b5050565b6106ef33836108fd565b61070b5760405162461bcd60e51b815260040161049c906113c0565b61071784848484610dc9565b50505050565b60606107288261082d565b6000828152600660205260408120805461074190611386565b80601f016020809104026020016040519081016040528092919081815260200182805461076d90611386565b80156107ba5780601f1061078f576101008083540402835291602001916107ba565b820191906000526020600020905b81548152906001019060200180831161079d57829003601f168201915b5050505050905060006107d860408051602081019091526000815290565b905080516000036107ea575092915050565b81511561081c57808260405160200161080492919061140e565b60405160208183030381529060405292505050919050565b61082584610dfc565b949350505050565b6000818152600260205260409020546001600160a01b031661088c5760405162461bcd60e51b8152602060048201526018602482015277115490cdcc8c4e881a5b9d985b1a59081d1bdad95b88125160421b604482015260640161049c565b50565b600081815260046020526040902080546001600160a01b0319166001600160a01b03841690811790915581906108c4826105d6565b6001600160a01b03167f8c5be1e5ebec7d5bd14f71427d1e84f3dd0314c0f7b2291e5b200ac8c7c3b92560405160405180910390a45050565b600080610909836105d6565b9050806001600160a01b0316846001600160a01b0316148061095057506001600160a01b0380821660009081526005602090815260408083209388168352929052205460ff165b806108255750836001600160a01b031661096984610401565b6001600160a01b031614949350505050565b826001600160a01b031661098e826105d6565b6001600160a01b0316146109f25760405162461bcd60e51b815260206004820152602560248201527f4552433732313a207472616e736665722066726f6d20696e636f72726563742060448201526437bbb732b960d91b606482015260840161049c565b6001600160a01b038216610a545760405162461bcd60e51b8152602060048201526024808201527f4552433732313a207472616e7366657220746f20746865207a65726f206164646044820152637265737360e01b606482015260840161049c565b600081815260046020908152604080832080546001600160a01b03191690556001600160a01b038616835260039091528120805460019290610a97908490611453565b90915550506001600160a01b0382166000908152600360205260408120805460019290610ac590849061146a565b909155505060008181526002602052604080822080546001600160a01b0319166001600160a01b0386811691821790925591518493918716917fddf252ad1be2c89b69c2b068fc378daa952ba7f163c4a11628f55a4df523b3ef91a4505050565b6001600160a01b038216610b7c5760405162461bcd60e51b815260206004820181905260248201527f4552433732313a206d696e7420746f20746865207a65726f2061646472657373604482015260640161049c565b6000818152600260205260409020546001600160a01b031615610be15760405162461bcd60e51b815260206004820152601c60248201527f4552433732313a20746f6b656e20616c7265616479206d696e74656400000000604482015260640161049c565b6001600160a01b0382166000908152600360205260408120805460019290610c0a90849061146a565b909155505060008181526002602052604080822080546001600160a01b0319166001600160a01b03861690811790915590518392907fddf252ad1be2c89b69c2b068fc378daa952ba7f163c4a11628f55a4df523b3ef908290a45050565b6000828152600260205260409020546001600160a01b0316610ce35760405162461bcd60e51b815260206004820152602e60248201527f45524337323155524953746f726167653a2055524920736574206f66206e6f6e60448201526d32bc34b9ba32b73a103a37b5b2b760911b606482015260840161049c565b600082815260066020526040902061053d82826114d0565b816001600160a01b0316836001600160a01b031603610d5c5760405162461bcd60e51b815260206004820152601960248201527f4552433732313a20617070726f766520746f2063616c6c657200000000000000604482015260640161049c565b6001600160a01b03838116600081815260056020908152604080832094871680845294825291829020805460ff191686151590811790915591519182527f17307eab39ab6107e8899845ad3d59bd9653f200f220920489ca2b5937696c31910160405180910390a3505050565b610dd484848461097b565b610de084848484610e70565b6107175760405162461bcd60e51b815260040161049c90611590565b6060610e078261082d565b6000610e1e60408051602081019091526000815290565b90506000815111610e3e5760405180602001604052806000815250610e69565b80610e4884610f71565b604051602001610e5992919061140e565b6040516020818303038152906040525b9392505050565b60006001600160a01b0384163b15610f6657604051630a85bd0160e11b81526001600160a01b0385169063150b7a0290610eb49033908990889088906004016115e2565b6020604051808303816000875af1925050508015610eef575060408051601f3d908101601f19168201909252610eec9181019061161f565b60015b610f4c573d808015610f1d576040519150601f19603f3d011682016040523d82523d6000602084013e610f22565b606091505b508051600003610f445760405162461bcd60e51b815260040161049c90611590565b805181602001fd5b6001600160e01b031916630a85bd0160e11b149050610825565b506001949350505050565b606081600003610f985750506040805180820190915260018152600360fc1b602082015290565b8160005b8115610fc25780610fac8161163c565b9150610fbb9050600a8361166b565b9150610f9c565b60008167ffffffffffffffff811115610fdd57610fdd6111ab565b6040519080825280601f01601f191660200182016040528015611007576020820181803683370190505b5090505b84156108255761101c600183611453565b9150611029600a8661167f565b61103490603061146a565b60f81b81838151811061104957611049611693565b60200101906001600160f81b031916908160001a90535061106b600a8661166b565b945061100b565b6001600160e01b03198116811461088c57600080fd5b60006020828403121561109a57600080fd5b8135610e6981611072565b60005b838110156110c05781810151838201526020016110a8565b838111156107175750506000910152565b600081518084526110e98160208601602086016110a5565b601f01601f19169290920160200192915050565b602081526000610e6960208301846110d1565b60006020828403121561112257600080fd5b5035919050565b80356001600160a01b038116811461114057600080fd5b919050565b6000806040838503121561115857600080fd5b61116183611129565b946020939093013593505050565b60008060006060848603121561118457600080fd5b61118d84611129565b925061119b60208501611129565b9150604084013590509250925092565b634e487b7160e01b600052604160045260246000fd5b600067ffffffffffffffff808411156111dc576111dc6111ab565b604051601f8501601f19908116603f01168101908282118183101715611204576112046111ab565b8160405280935085815286868601111561121d57600080fd5b858560208301376000602087830101525050509392505050565b60006020828403121561124957600080fd5b813567ffffffffffffffff81111561126057600080fd5b8201601f8101841361127157600080fd5b610825848235602084016111c1565b60006020828403121561129257600080fd5b610e6982611129565b600080604083850312156112ae57600080fd5b6112b783611129565b9150602083013580151581146112cc57600080fd5b809150509250929050565b600080600080608085870312156112ed57600080fd5b6112f685611129565b935061130460208601611129565b925060408501359150606085013567ffffffffffffffff81111561132757600080fd5b8501601f8101871361133857600080fd5b611347878235602084016111c1565b91505092959194509250565b6000806040838503121561136657600080fd5b61136f83611129565b915061137d60208401611129565b90509250929050565b600181811c9082168061139a57607f821691505b6020821081036113ba57634e487b7160e01b600052602260045260246000fd5b50919050565b6020808252602e908201527f4552433732313a2063616c6c6572206973206e6f7420746f6b656e206f776e6560408201526d1c881b9bdc88185c1c1c9bdd995960921b606082015260800190565b600083516114208184602088016110a5565b8351908301906114348183602088016110a5565b01949350505050565b634e487b7160e01b600052601160045260246000fd5b6000828210156114655761146561143d565b500390565b6000821982111561147d5761147d61143d565b500190565b601f82111561053d57600081815260208120601f850160051c810160208610156114a95750805b601f850160051c820191505b818110156114c8578281556001016114b5565b505050505050565b815167ffffffffffffffff8111156114ea576114ea6111ab565b6114fe816114f88454611386565b84611482565b602080601f831160018114611533576000841561151b5750858301515b600019600386901b1c1916600185901b1785556114c8565b600085815260208120601f198616915b8281101561156257888601518255948401946001909101908401611543565b50858210156115805787850151600019600388901b60f8161c191681555b5050505050600190811b01905550565b60208082526032908201527f4552433732313a207472616e7366657220746f206e6f6e20455243373231526560408201527131b2b4bb32b91034b6b83632b6b2b73a32b960711b606082015260800190565b6001600160a01b0385811682528416602082015260408101839052608060608201819052600090611615908301846110d1565b9695505050505050565b60006020828403121561163157600080fd5b8151610e6981611072565b60006001820161164e5761164e61143d565b5060010190565b634e487b7160e01b600052601260045260246000fd5b60008261167a5761167a611655565b500490565b60008261168e5761168e611655565b500690565b634e487b7160e01b600052603260045260246000fdfea2646970667358221220eade242f31012539fe9d9ded2b554d747b343bc40c9776f7af2ccb0404f60c4764736f6c634300080f0033",
    "linkReferences": {}
  },
  "methodIdentifiers": {
    "approve(address,uint256)": "095ea7b3",
    "balanceOf(address)": "70a08231",
    "createToken(string)": "45576f94",
    "getApproved(uint256)": "081812fc",
    "getBalanceOfToken(address)": "83786f8c",
    "isApprovedForAll(address,address)": "e985e9c5",
    "name()": "06fdde03",
    "ownerOf(uint256)": "6352211e",
    "safeTransferFrom(address,address,uint256)": "42842e0e",
    "safeTransferFrom(address,address,uint256,bytes)": "b88d4fde",
    "setApprovalForAll(address,bool)": "a22cb465",
    "supportsInterface(bytes4)": "01ffc9a7",
    "symbol()": "95d89b41",
    "tokenURI(uint256)": "c87b56dd",
    "transferFrom(address,address,uint256)": "23b872dd"
  },
  "id": 13
}