{
  "abi": [
    {
      "inputs": [],
      "stateMutability": "nonpayable",
      "type": "constructor"
    },
    {
      "anonymous": false,
      "inputs": [
        {
          "indexed": true,
          "internalType": "uint256",
          "name": "itemId",
          "type": "uint256"
        },
        {
          "indexed": true,
          "internalType": "address",
          "name": "nftContract",
          "type": "address"
        },
        {
          "indexed": true,
          "internalType": "uint256",
          "name": "tokenId",
          "type": "uint256"
        },
        {
          "indexed": false,
          "internalType": "address",
          "name": "seller",
          "type": "address"
        },
        {
          "indexed": false,
          "internalType": "address",
          "name": "owner",
          "type": "address"
        },
        {
          "indexed": false,
          "internalType": "uint256",
          "name": "price",
          "type": "uint256"
        },
        {
          "indexed": false,
          "internalType": "bool",
          "name": "sold",
          "type": "bool"
        }
      ],
      "name": "MarketItemCreated",
      "type": "event"
    },
    {
      "anonymous": false,
      "inputs": [
        {
          "indexed": true,
          "internalType": "uint256",
          "name": "itemId",
          "type": "uint256"
        },
        {
          "indexed": true,
          "internalType": "address",
          "name": "nftContract",
          "type": "address"
        },
        {
          "indexed": true,
          "internalType": "uint256",
          "name": "tokenId",
          "type": "uint256"
        },
        {
          "indexed": false,
          "internalType": "address",
          "name": "seller",
          "type": "address"
        },
        {
          "indexed": false,
          "internalType": "address",
          "name": "owner",
          "type": "address"
        },
        {
          "indexed": false,
          "internalType": "uint256",
          "name": "price",
          "type": "uint256"
        },
        {
          "indexed": false,
          "internalType": "bool",
          "name": "sold",
          "type": "bool"
        }
      ],
      "name": "MarketItemSold",
      "type": "event"
    },
    {
      "inputs": [
        {
          "internalType": "address",
          "name": "_nftcontract",
          "type": "address"
        },
        {
          "internalType": "uint256",
          "name": "_tokenId",
          "type": "uint256"
        },
        {
          "internalType": "uint256",
          "name": "_price",
          "type": "uint256"
        }
      ],
      "name": "ListItemForSale",
      "outputs": [],
      "stateMutability": "payable",
      "type": "function"
    },
    {
      "inputs": [
        {
          "internalType": "address",
          "name": "_nftcontract",
          "type": "address"
        },
        {
          "internalType": "uint256",
          "name": "itemId",
          "type": "uint256"
        }
      ],
      "name": "buyAsset",
      "outputs": [],
      "stateMutability": "payable",
      "type": "function"
    },
    {
      "inputs": [],
      "name": "fetchItemListed",
      "outputs": [
        {
          "components": [
            {
              "internalType": "uint256",
              "name": "itemId",
              "type": "uint256"
            },
            {
              "internalType": "address",
              "name": "nftContract",
              "type": "address"
            },
            {
              "internalType": "uint256",
              "name": "tokenId",
              "type": "uint256"
            },
            {
              "internalType": "address payable",
              "name": "seller",
              "type": "address"
            },
            {
              "internalType": "address payable",
              "name": "owner",
              "type": "address"
            },
            {
              "internalType": "uint256",
              "name": "price",
              "type": "uint256"
            },
            {
              "internalType": "bool",
              "name": "sold",
              "type": "bool"
            }
          ],
          "internalType": "struct NFTMarketplace.MarketItem[]",
          "name": "",
          "type": "tuple[]"
        }
      ],
      "stateMutability": "view",
      "type": "function"
    },
    {
      "inputs": [],
      "name": "fetchMarketItems",
      "outputs": [
        {
          "components": [
            {
              "internalType": "uint256",
              "name": "itemId",
              "type": "uint256"
            },
            {
              "internalType": "address",
              "name": "nftContract",
              "type": "address"
            },
            {
              "internalType": "uint256",
              "name": "tokenId",
              "type": "uint256"
            },
            {
              "internalType": "address payable",
              "name": "seller",
              "type": "address"
            },
            {
              "internalType": "address payable",
              "name": "owner",
              "type": "address"
            },
            {
              "internalType": "uint256",
              "name": "price",
              "type": "uint256"
            },
            {
              "internalType": "bool",
              "name": "sold",
              "type": "bool"
            }
          ],
          "internalType": "struct NFTMarketplace.MarketItem[]",
          "name": "",
          "type": "tuple[]"
        }
      ],
      "stateMutability": "view",
      "type": "function"
    },
    {
      "inputs": [],
      "name": "fetchMyNfts",
      "outputs": [
        {
          "components": [
            {
              "internalType": "uint256",
              "name": "itemId",
              "type": "uint256"
            },
            {
              "internalType": "address",
              "name": "nftContract",
              "type": "address"
            },
            {
              "internalType": "uint256",
              "name": "tokenId",
              "type": "uint256"
            },
            {
              "internalType": "address payable",
              "name": "seller",
              "type": "address"
            },
            {
              "internalType": "address payable",
              "name": "owner",
              "type": "address"
            },
            {
              "internalType": "uint256",
              "name": "price",
              "type": "uint256"
            },
            {
              "internalType": "bool",
              "name": "sold",
              "type": "bool"
            }
          ],
          "internalType": "struct NFTMarketplace.MarketItem[]",
          "name": "",
          "type": "tuple[]"
        }
      ],
      "stateMutability": "view",
      "type": "function"
    },
    {
      "inputs": [],
      "name": "listingPrice",
      "outputs": [
        {
          "internalType": "uint256",
          "name": "",
          "type": "uint256"
        }
      ],
      "stateMutability": "view",
      "type": "function"
    }
  ],
  "bytecode": {
    "object": "0x608060405234801561001057600080fd5b506001600055600380546001600160a01b03191633179055610d42806100376000396000f3fe6080604052600436106100555760003560e01c80630f08efe01461005a578063128ae71214610085578063938c7c3a1461009a578063c78f19f9146100af578063c83e1665146100d8578063e1791445146100eb575b600080fd5b34801561006657600080fd5b5061006f610100565b60405161007c9190610b75565b60405180910390f35b34801561009157600080fd5b5061006f61029e565b6100ad6100a8366004610c25565b610479565b005b3480156100bb57600080fd5b506100ca6602615c87ffe00081565b60405190815260200161007c565b6100ad6100e6366004610c4f565b610738565b3480156100f757600080fd5b5061006f61095e565b6060600061010d60015490565b9050600061011a60025490565b6001546101279190610c98565b90506000808267ffffffffffffffff81111561014557610145610caf565b60405190808252806020026020018201604052801561017e57816020015b61016b610b39565b8152602001906001900390816101635790505b50905060005b8481101561029557600060048161019c846001610cc5565b81526020810191909152604001600020600401546001600160a01b0316036102835760006004816101ce846001610cc5565b81526020808201929092526040908101600090812054808252600480855291839020835160e0810185528154815260018201546001600160a01b0390811696820196909652600282015494810194909452600381015485166060850152918201549093166080830152600581015460a0830152600681015460ff16151560c083015285519293509185908790811061026857610268610cdd565b602090810291909101015261027e600186610cc5565b945050505b8061028d81610cf3565b915050610184565b50949350505050565b606060006102ab60015490565b905060008060005b8381101561030d5733600460006102cb846001610cc5565b81526020810191909152604001600020600401546001600160a01b0316036102fb576102f8600184610cc5565b92505b8061030581610cf3565b9150506102b3565b5060008267ffffffffffffffff81111561032957610329610caf565b60405190808252806020026020018201604052801561036257816020015b61034f610b39565b8152602001906001900390816103475790505b50905060005b84811015610295573360046000610380846001610cc5565b81526020810191909152604001600020600401546001600160a01b0316036104675760006004816103b2846001610cc5565b81526020808201929092526040908101600090812054808252600480855291839020835160e0810185528154815260018201546001600160a01b0390811696820196909652600282015494810194909452600381015485166060850152918201549093166080830152600581015460a0830152600681015460ff16151560c083015285519293509185908790811061044c5761044c610cdd565b6020908102919091010152610462600186610cc5565b945050505b8061047181610cf3565b915050610368565b6002600054036104d05760405162461bcd60e51b815260206004820152601f60248201527f5265656e7472616e637947756172643a207265656e7472616e742063616c6c0060448201526064015b60405180910390fd5b600260008181558281526004602052604090206005810154918101546003909101546001600160a01b031634831461054a5760405162461bcd60e51b815260206004820152601760248201527f616d6f756e74206e6f742061736b696e6720707269636500000000000000000060448201526064016104c7565b336001600160a01b038216036105a25760405162461bcd60e51b815260206004820152601760248201527f63616e6e6f7420627579206173736574206c697374656400000000000000000060448201526064016104c7565b6000848152600460205260408082206003015490516001600160a01b03909116913480156108fc02929091818181858888f193505050501580156105ea573d6000803e3d6000fd5b506040516323b872dd60e01b8152306004820152336024820152604481018390526001600160a01b038616906323b872dd90606401600060405180830381600087803b15801561063957600080fd5b505af115801561064d573d6000803e3d6000fd5b505050600085815260046020819052604090912090810180546001600160a01b03191633179055600601805460ff1916600117905550610691600280546001019055565b6003546040516001600160a01b03909116906000906602615c87ffe0009082818181858883f193505050501580156106cd573d6000803e3d6000fd5b50600354604080516001600160a01b038481168252928316602082015290810185905260016060820152839187169086907ffeb04e399f6ba62d926a65372cbb5f11e3c7a9ff05e62948769d2ee5d5335b84906080015b60405180910390a450506001600055505050565b60026000540361078a5760405162461bcd60e51b815260206004820152601f60248201527f5265656e7472616e637947756172643a207265656e7472616e742063616c6c0060448201526064016104c7565b6002600055806107dc5760405162461bcd60e51b815260206004820181905260248201527f616d6f756e74206d7573742062652067726561746572207468616e207a65726f60448201526064016104c7565b6602615c87ffe00034146108265760405162461bcd60e51b81526020600482015260116024820152706e6f74206c697374696e6720707269636560781b60448201526064016104c7565b610834600180546001019055565b600061083f60015490565b6000818152600460208190526040918290208381556001810180546001600160a01b038a166001600160a01b031991821681179092556002830189905560038301805482163390811790915583850180549092169091556005830188905560068301805460ff1916905593516323b872dd60e01b815292830193909352306024830152604482018790529293506323b872dd90606401600060405180830381600087803b1580156108ef57600080fd5b505af1158015610903573d6000803e3d6000fd5b50506040805133815260006020820181905291810187905260608101919091528692506001600160a01b038816915084907f045dfa01dcba2b36aba1d3dc4a874f4b0c5d2fbeb8d2c4b34a7d88c8d8f929d190608001610724565b6060600061096b60015490565b905060008060005b838110156109cd57336004600061098b846001610cc5565b81526020810191909152604001600020600301546001600160a01b0316036109bb576109b8600184610cc5565b92505b806109c581610cf3565b915050610973565b5060008267ffffffffffffffff8111156109e9576109e9610caf565b604051908082528060200260200182016040528015610a2257816020015b610a0f610b39565b815260200190600190039081610a075790505b50905060005b84811015610295573360046000610a40846001610cc5565b81526020810191909152604001600020600301546001600160a01b031603610b27576000600481610a72846001610cc5565b81526020808201929092526040908101600090812054808252600480855291839020835160e0810185528154815260018201546001600160a01b0390811696820196909652600282015494810194909452600381015485166060850152918201549093166080830152600581015460a0830152600681015460ff16151560c0830152855192935091859087908110610b0c57610b0c610cdd565b6020908102919091010152610b22600186610cc5565b945050505b80610b3181610cf3565b915050610a28565b6040805160e081018252600080825260208201819052918101829052606081018290526080810182905260a0810182905260c081019190915290565b602080825282518282018190526000919060409081850190868401855b82811015610bfc57815180518552868101516001600160a01b039081168887015286820151878701526060808301518216908701526080808301519091169086015260a0808201519086015260c09081015115159085015260e09093019290850190600101610b92565b5091979650505050505050565b80356001600160a01b0381168114610c2057600080fd5b919050565b60008060408385031215610c3857600080fd5b610c4183610c09565b946020939093013593505050565b600080600060608486031215610c6457600080fd5b610c6d84610c09565b95602085013595506040909401359392505050565b634e487b7160e01b600052601160045260246000fd5b600082821015610caa57610caa610c82565b500390565b634e487b7160e01b600052604160045260246000fd5b60008219821115610cd857610cd8610c82565b500190565b634e487b7160e01b600052603260045260246000fd5b600060018201610d0557610d05610c82565b506001019056fea2646970667358221220d61ef98d475cc435e7c48f6b8caab6b018c12aa1ab7134ff1db6cecaab104fd964736f6c634300080f0033",
    "linkReferences": {}
  },
  "methodIdentifiers": {
    "ListItemForSale(address,uint256,uint256)": "c83e1665",
    "buyAsset(address,uint256)": "938c7c3a",
    "fetchItemListed()": "e1791445",
    "fetchMarketItems()": "0f08efe0",
    "fetchMyNfts()": "128ae712",
    "listingPrice()": "c78f19f9"
  },
  "id": 11
}