{
  "abi": [
    {
      "inputs": [],
      "stateMutability": "nonpayable",
      "type": "constructor"
    },
    {
      "inputs": [],
      "name": "OnlyOwnerCanUpDatePrice",
      "type": "error"
    },
    {
      "inputs": [],
      "name": "priceMustBeGreaterThanOneGwei",
      "type": "error"
    },
    {
      "inputs": [],
      "name": "priceMustEqualListingPrice",
      "type": "error"
    },
    {
      "inputs": [],
      "name": "prieMustBeEqualToListingPrice",
      "type": "error"
    },
    {
      "anonymous": false,
      "inputs": [
        {
          "indexed": true,
          "internalType": "address",
          "name": "owner",
          "type": "address"
        },
        {
          "indexed": true,
          "internalType": "address",
          "name": "approved",
          "type": "address"
        },
        {
          "indexed": true,
          "internalType": "uint256",
          "name": "tokenId",
          "type": "uint256"
        }
      ],
      "name": "Approval",
      "type": "event"
    },
    {
      "anonymous": false,
      "inputs": [
        {
          "indexed": true,
          "internalType": "address",
          "name": "owner",
          "type": "address"
        },
        {
          "indexed": true,
          "internalType": "address",
          "name": "operator",
          "type": "address"
        },
        {
          "indexed": false,
          "internalType": "bool",
          "name": "approved",
          "type": "bool"
        }
      ],
      "name": "ApprovalForAll",
      "type": "event"
    },
    {
      "anonymous": false,
      "inputs": [
        {
          "indexed": true,
          "internalType": "uint256",
          "name": "tokenId",
          "type": "uint256"
        },
        {
          "indexed": false,
          "internalType": "address",
          "name": "seller",
          "type": "address"
        },
        {
          "indexed": false,
          "internalType": "address",
          "name": "owner",
          "type": "address"
        },
        {
          "indexed": false,
          "internalType": "uint256",
          "name": "price",
          "type": "uint256"
        },
        {
          "indexed": false,
          "internalType": "bool",
          "name": "sold",
          "type": "bool"
        }
      ],
      "name": "MarketItemCreated",
      "type": "event"
    },
    {
      "anonymous": false,
      "inputs": [
        {
          "indexed": true,
          "internalType": "address",
          "name": "from",
          "type": "address"
        },
        {
          "indexed": true,
          "internalType": "address",
          "name": "to",
          "type": "address"
        },
        {
          "indexed": true,
          "internalType": "uint256",
          "name": "tokenId",
          "type": "uint256"
        }
      ],
      "name": "Transfer",
      "type": "event"
    },
    {
      "inputs": [
        {
          "internalType": "address",
          "name": "to",
          "type": "address"
        },
        {
          "internalType": "uint256",
          "name": "tokenId",
          "type": "uint256"
        }
      ],
      "name": "approve",
      "outputs": [],
      "stateMutability": "nonpayable",
      "type": "function"
    },
    {
      "inputs": [
        {
          "internalType": "address",
          "name": "owner",
          "type": "address"
        }
      ],
      "name": "balanceOf",
      "outputs": [
        {
          "internalType": "uint256",
          "name": "",
          "type": "uint256"
        }
      ],
      "stateMutability": "view",
      "type": "function"
    },
    {
      "inputs": [
        {
          "internalType": "string",
          "name": "tokenURI",
          "type": "string"
        },
        {
          "internalType": "uint256",
          "name": "price",
          "type": "uint256"
        }
      ],
      "name": "createToken",
      "outputs": [
        {
          "internalType": "uint256",
          "name": "",
          "type": "uint256"
        }
      ],
      "stateMutability": "payable",
      "type": "function"
    },
    {
      "inputs": [
        {
          "internalType": "uint256",
          "name": "tokenId",
          "type": "uint256"
        }
      ],
      "name": "getApproved",
      "outputs": [
        {
          "internalType": "address",
          "name": "",
          "type": "address"
        }
      ],
      "stateMutability": "view",
      "type": "function"
    },
    {
      "inputs": [
        {
          "internalType": "address",
          "name": "owner",
          "type": "address"
        },
        {
          "internalType": "address",
          "name": "operator",
          "type": "address"
        }
      ],
      "name": "isApprovedForAll",
      "outputs": [
        {
          "internalType": "bool",
          "name": "",
          "type": "bool"
        }
      ],
      "stateMutability": "view",
      "type": "function"
    },
    {
      "inputs": [],
      "name": "listingPrice",
      "outputs": [
        {
          "internalType": "uint256",
          "name": "",
          "type": "uint256"
        }
      ],
      "stateMutability": "view",
      "type": "function"
    },
    {
      "inputs": [],
      "name": "name",
      "outputs": [
        {
          "internalType": "string",
          "name": "",
          "type": "string"
        }
      ],
      "stateMutability": "view",
      "type": "function"
    },
    {
      "inputs": [
        {
          "internalType": "uint256",
          "name": "tokenId",
          "type": "uint256"
        }
      ],
      "name": "ownerOf",
      "outputs": [
        {
          "internalType": "address",
          "name": "",
          "type": "address"
        }
      ],
      "stateMutability": "view",
      "type": "function"
    },
    {
      "inputs": [
        {
          "internalType": "uint256",
          "name": "tokenId",
          "type": "uint256"
        },
        {
          "internalType": "uint256",
          "name": "price",
          "type": "uint256"
        }
      ],
      "name": "resellPurchasedToken",
      "outputs": [],
      "stateMutability": "payable",
      "type": "function"
    },
    {
      "inputs": [
        {
          "internalType": "address",
          "name": "from",
          "type": "address"
        },
        {
          "internalType": "address",
          "name": "to",
          "type": "address"
        },
        {
          "internalType": "uint256",
          "name": "tokenId",
          "type": "uint256"
        }
      ],
      "name": "safeTransferFrom",
      "outputs": [],
      "stateMutability": "nonpayable",
      "type": "function"
    },
    {
      "inputs": [
        {
          "internalType": "address",
          "name": "from",
          "type": "address"
        },
        {
          "internalType": "address",
          "name": "to",
          "type": "address"
        },
        {
          "internalType": "uint256",
          "name": "tokenId",
          "type": "uint256"
        },
        {
          "internalType": "bytes",
          "name": "data",
          "type": "bytes"
        }
      ],
      "name": "safeTransferFrom",
      "outputs": [],
      "stateMutability": "nonpayable",
      "type": "function"
    },
    {
      "inputs": [
        {
          "internalType": "address",
          "name": "operator",
          "type": "address"
        },
        {
          "internalType": "bool",
          "name": "approved",
          "type": "bool"
        }
      ],
      "name": "setApprovalForAll",
      "outputs": [],
      "stateMutability": "nonpayable",
      "type": "function"
    },
    {
      "inputs": [
        {
          "internalType": "bytes4",
          "name": "interfaceId",
          "type": "bytes4"
        }
      ],
      "name": "supportsInterface",
      "outputs": [
        {
          "internalType": "bool",
          "name": "",
          "type": "bool"
        }
      ],
      "stateMutability": "view",
      "type": "function"
    },
    {
      "inputs": [],
      "name": "symbol",
      "outputs": [
        {
          "internalType": "string",
          "name": "",
          "type": "string"
        }
      ],
      "stateMutability": "view",
      "type": "function"
    },
    {
      "inputs": [
        {
          "internalType": "uint256",
          "name": "tokenId",
          "type": "uint256"
        }
      ],
      "name": "tokenURI",
      "outputs": [
        {
          "internalType": "string",
          "name": "",
          "type": "string"
        }
      ],
      "stateMutability": "view",
      "type": "function"
    },
    {
      "inputs": [
        {
          "internalType": "address",
          "name": "from",
          "type": "address"
        },
        {
          "internalType": "address",
          "name": "to",
          "type": "address"
        },
        {
          "internalType": "uint256",
          "name": "tokenId",
          "type": "uint256"
        }
      ],
      "name": "transferFrom",
      "outputs": [],
      "stateMutability": "nonpayable",
      "type": "function"
    },
    {
      "inputs": [
        {
          "internalType": "uint256",
          "name": "_listingprice",
          "type": "uint256"
        }
      ],
      "name": "updateListingPrice",
      "outputs": [],
      "stateMutability": "payable",
      "type": "function"
    }
  ],
  "bytecode": {
    "object": "0x608060405266354a6ba7a180006009553480156200001c57600080fd5b50604080518082018252600d81526c31b7b232abb434bd3832b932b960991b60208083019182528351808501909452600384526221aba960e91b9084015281519192916200006d916000916200009e565b508051620000839060019060208401906200009e565b5050600a80546001600160a01b031916331790555062000181565b828054620000ac9062000144565b90600052602060002090601f016020900481019282620000d057600085556200011b565b82601f10620000eb57805160ff19168380011785556200011b565b828001600101855582156200011b579182015b828111156200011b578251825591602001919060010190620000fe565b50620001299291506200012d565b5090565b5b808211156200012957600081556001016200012e565b600181811c908216806200015957607f821691505b602082108114156200017b57634e487b7160e01b600052602260045260246000fd5b50919050565b611a6280620001916000396000f3fe6080604052600436106100fe5760003560e01c806372b3b62011610095578063b2c896d911610064578063b2c896d91461029d578063b88d4fde146102b0578063c78f19f9146102d0578063c87b56dd146102e6578063e985e9c51461030657600080fd5b806372b3b6201461024257806395d89b4114610255578063a22cb4651461026a578063ae677aa31461028a57600080fd5b806323b872dd116100d157806323b872dd146101b457806342842e0e146101d45780636352211e146101f457806370a082311461021457600080fd5b806301ffc9a71461010357806306fdde0314610138578063081812fc1461015a578063095ea7b314610192575b600080fd5b34801561010f57600080fd5b5061012361011e3660046114e1565b61034f565b60405190151581526020015b60405180910390f35b34801561014457600080fd5b5061014d6103a1565b60405161012f9190611556565b34801561016657600080fd5b5061017a610175366004611569565b610433565b6040516001600160a01b03909116815260200161012f565b34801561019e57600080fd5b506101b26101ad36600461159e565b6104c0565b005b3480156101c057600080fd5b506101b26101cf3660046115c8565b6105d6565b3480156101e057600080fd5b506101b26101ef3660046115c8565b610607565b34801561020057600080fd5b5061017a61020f366004611569565b610622565b34801561022057600080fd5b5061023461022f366004611604565b610699565b60405190815260200161012f565b6102346102503660046116ab565b61071f565b34801561026157600080fd5b5061014d610761565b34801561027657600080fd5b506101b2610285366004611704565b610770565b6101b2610298366004611569565b61077f565b6101b26102ab366004611740565b6107af565b3480156102bc57600080fd5b506101b26102cb366004611762565b610857565b3480156102dc57600080fd5b5061023460095481565b3480156102f257600080fd5b5061014d610301366004611569565b61088f565b34801561031257600080fd5b506101236103213660046117de565b6001600160a01b03918216600090815260056020908152604080832093909416825291909152205460ff1690565b60006001600160e01b031982166380ac58cd60e01b148061038057506001600160e01b03198216635b5e139f60e01b145b8061039b57506301ffc9a760e01b6001600160e01b03198316145b92915050565b6060600080546103b090611811565b80601f01602080910402602001604051908101604052809291908181526020018280546103dc90611811565b80156104295780601f106103fe57610100808354040283529160200191610429565b820191906000526020600020905b81548152906001019060200180831161040c57829003601f168201915b5050505050905090565b600061043e82610a06565b6104a45760405162461bcd60e51b815260206004820152602c60248201527f4552433732313a20617070726f76656420717565727920666f72206e6f6e657860448201526b34b9ba32b73a103a37b5b2b760a11b60648201526084015b60405180910390fd5b506000908152600460205260409020546001600160a01b031690565b60006104cb82610622565b9050806001600160a01b0316836001600160a01b031614156105395760405162461bcd60e51b815260206004820152602160248201527f4552433732313a20617070726f76616c20746f2063757272656e74206f776e656044820152603960f91b606482015260840161049b565b336001600160a01b038216148061055557506105558133610321565b6105c75760405162461bcd60e51b815260206004820152603860248201527f4552433732313a20617070726f76652063616c6c6572206973206e6f74206f7760448201527f6e6572206e6f7220617070726f76656420666f7220616c6c0000000000000000606482015260840161049b565b6105d18383610a23565b505050565b6105e03382610a91565b6105fc5760405162461bcd60e51b815260040161049b9061184c565b6105d1838383610b7a565b6105d183838360405180602001604052806000815250610857565b6000818152600260205260408120546001600160a01b03168061039b5760405162461bcd60e51b815260206004820152602960248201527f4552433732313a206f776e657220717565727920666f72206e6f6e657869737460448201526832b73a103a37b5b2b760b91b606482015260840161049b565b60006001600160a01b0382166107035760405162461bcd60e51b815260206004820152602960248201527f4552433732313a2061646472657373207a65726f206973206e6f7420612076616044820152683634b21037bbb732b960b91b606482015260840161049b565b506001600160a01b031660009081526003602052604090205490565b600061072f600780546001019055565b600061073a60075490565b90506107463382610d16565b6107508185610d30565b61075a8184610dbb565b9392505050565b6060600180546103b090611811565b61077b338383610e9d565b5050565b600a546001600160a01b031633146107aa57604051633670a5d760e21b815260040160405180910390fd5b600955565b600a546001600160a01b031633146107da57604051633670a5d760e21b815260040160405180910390fd5b6009543414156107fd5760405163c7deb1c760e01b815260040160405180910390fd5b6000828152600b6020526040902060048101805460ff19169055600381018290556002810180546001600160a01b031990811633179091556001820180549091163017905561084c6008610f6c565b6105d1333085610b7a565b6108613383610a91565b61087d5760405162461bcd60e51b815260040161049b9061184c565b61088984848484610fc3565b50505050565b606061089a82610a06565b6109005760405162461bcd60e51b815260206004820152603160248201527f45524337323155524953746f726167653a2055524920717565727920666f72206044820152703737b732bc34b9ba32b73a103a37b5b2b760791b606482015260840161049b565b6000828152600660205260408120805461091990611811565b80601f016020809104026020016040519081016040528092919081815260200182805461094590611811565b80156109925780601f1061096757610100808354040283529160200191610992565b820191906000526020600020905b81548152906001019060200180831161097557829003601f168201915b5050505050905060006109b060408051602081019091526000815290565b90508051600014156109c3575092915050565b8151156109f55780826040516020016109dd92919061189d565b60405160208183030381529060405292505050919050565b6109fe84610ff6565b949350505050565b6000908152600260205260409020546001600160a01b0316151590565b600081815260046020526040902080546001600160a01b0319166001600160a01b0384169081179091558190610a5882610622565b6001600160a01b03167f8c5be1e5ebec7d5bd14f71427d1e84f3dd0314c0f7b2291e5b200ac8c7c3b92560405160405180910390a45050565b6000610a9c82610a06565b610afd5760405162461bcd60e51b815260206004820152602c60248201527f4552433732313a206f70657261746f7220717565727920666f72206e6f6e657860448201526b34b9ba32b73a103a37b5b2b760a11b606482015260840161049b565b6000610b0883610622565b9050806001600160a01b0316846001600160a01b03161480610b4f57506001600160a01b0380821660009081526005602090815260408083209388168352929052205460ff165b806109fe5750836001600160a01b0316610b6884610433565b6001600160a01b031614949350505050565b826001600160a01b0316610b8d82610622565b6001600160a01b031614610bf15760405162461bcd60e51b815260206004820152602560248201527f4552433732313a207472616e736665722066726f6d20696e636f72726563742060448201526437bbb732b960d91b606482015260840161049b565b6001600160a01b038216610c535760405162461bcd60e51b8152602060048201526024808201527f4552433732313a207472616e7366657220746f20746865207a65726f206164646044820152637265737360e01b606482015260840161049b565b610c5e600082610a23565b6001600160a01b0383166000908152600360205260408120805460019290610c879084906118e2565b90915550506001600160a01b0382166000908152600360205260408120805460019290610cb59084906118f9565b909155505060008181526002602052604080822080546001600160a01b0319166001600160a01b0386811691821790925591518493918716917fddf252ad1be2c89b69c2b068fc378daa952ba7f163c4a11628f55a4df523b3ef91a4505050565b61077b8282604051806020016040528060008152506110cd565b610d3982610a06565b610d9c5760405162461bcd60e51b815260206004820152602e60248201527f45524337323155524953746f726167653a2055524920736574206f66206e6f6e60448201526d32bc34b9ba32b73a103a37b5b2b760911b606482015260840161049b565b600082815260066020908152604090912082516105d19284019061142f565b80610dd95760405163ea86949f60e01b815260040160405180910390fd5b6009543414610dfb57604051637768a8a960e11b815260040160405180910390fd5b6000828152600b60205260409020828155600181018054336001600160a01b03199182168117909255600283018054309216821790556003830184905560048301805460ff19169055610e4f919085610b7a565b604080513381523060208201529081018390526000606082015283907fb640004f1d14576d0c209e240cad0410e0d8c0c33a09375861fbadae2588a98d9060800160405180910390a2505050565b816001600160a01b0316836001600160a01b03161415610eff5760405162461bcd60e51b815260206004820152601960248201527f4552433732313a20617070726f766520746f2063616c6c657200000000000000604482015260640161049b565b6001600160a01b03838116600081815260056020908152604080832094871680845294825291829020805460ff191686151590811790915591519182527f17307eab39ab6107e8899845ad3d59bd9653f200f220920489ca2b5937696c31910160405180910390a3505050565b805480610fbb5760405162461bcd60e51b815260206004820152601b60248201527f436f756e7465723a2064656372656d656e74206f766572666c6f770000000000604482015260640161049b565b600019019055565b610fce848484610b7a565b610fda84848484611100565b6108895760405162461bcd60e51b815260040161049b90611911565b606061100182610a06565b6110655760405162461bcd60e51b815260206004820152602f60248201527f4552433732314d657461646174613a2055524920717565727920666f72206e6f60448201526e3732bc34b9ba32b73a103a37b5b2b760891b606482015260840161049b565b600061107c60408051602081019091526000815290565b9050600081511161109c576040518060200160405280600081525061075a565b806110a6846111fe565b6040516020016110b792919061189d565b6040516020818303038152906040529392505050565b6110d783836112fc565b6110e46000848484611100565b6105d15760405162461bcd60e51b815260040161049b90611911565b60006001600160a01b0384163b156111f357604051630a85bd0160e11b81526001600160a01b0385169063150b7a0290611144903390899088908890600401611963565b6020604051808303816000875af192505050801561117f575060408051601f3d908101601f1916820190925261117c918101906119a0565b60015b6111d9573d8080156111ad576040519150601f19603f3d011682016040523d82523d6000602084013e6111b2565b606091505b5080516111d15760405162461bcd60e51b815260040161049b90611911565b805181602001fd5b6001600160e01b031916630a85bd0160e11b1490506109fe565b506001949350505050565b6060816112225750506040805180820190915260018152600360fc1b602082015290565b8160005b811561124c5780611236816119bd565b91506112459050600a836119ee565b9150611226565b60008167ffffffffffffffff8111156112675761126761161f565b6040519080825280601f01601f191660200182016040528015611291576020820181803683370190505b5090505b84156109fe576112a66001836118e2565b91506112b3600a86611a02565b6112be9060306118f9565b60f81b8183815181106112d3576112d3611a16565b60200101906001600160f81b031916908160001a9053506112f5600a866119ee565b9450611295565b6001600160a01b0382166113525760405162461bcd60e51b815260206004820181905260248201527f4552433732313a206d696e7420746f20746865207a65726f2061646472657373604482015260640161049b565b61135b81610a06565b156113a85760405162461bcd60e51b815260206004820152601c60248201527f4552433732313a20746f6b656e20616c7265616479206d696e74656400000000604482015260640161049b565b6001600160a01b03821660009081526003602052604081208054600192906113d19084906118f9565b909155505060008181526002602052604080822080546001600160a01b0319166001600160a01b03861690811790915590518392907fddf252ad1be2c89b69c2b068fc378daa952ba7f163c4a11628f55a4df523b3ef908290a45050565b82805461143b90611811565b90600052602060002090601f01602090048101928261145d57600085556114a3565b82601f1061147657805160ff19168380011785556114a3565b828001600101855582156114a3579182015b828111156114a3578251825591602001919060010190611488565b506114af9291506114b3565b5090565b5b808211156114af57600081556001016114b4565b6001600160e01b0319811681146114de57600080fd5b50565b6000602082840312156114f357600080fd5b813561075a816114c8565b60005b83811015611519578181015183820152602001611501565b838111156108895750506000910152565b600081518084526115428160208601602086016114fe565b601f01601f19169290920160200192915050565b60208152600061075a602083018461152a565b60006020828403121561157b57600080fd5b5035919050565b80356001600160a01b038116811461159957600080fd5b919050565b600080604083850312156115b157600080fd5b6115ba83611582565b946020939093013593505050565b6000806000606084860312156115dd57600080fd5b6115e684611582565b92506115f460208501611582565b9150604084013590509250925092565b60006020828403121561161657600080fd5b61075a82611582565b634e487b7160e01b600052604160045260246000fd5b600067ffffffffffffffff808411156116505761165061161f565b604051601f8501601f19908116603f011681019082821181831017156116785761167861161f565b8160405280935085815286868601111561169157600080fd5b858560208301376000602087830101525050509392505050565b600080604083850312156116be57600080fd5b823567ffffffffffffffff8111156116d557600080fd5b8301601f810185136116e657600080fd5b6116f585823560208401611635565b95602094909401359450505050565b6000806040838503121561171757600080fd5b61172083611582565b91506020830135801515811461173557600080fd5b809150509250929050565b6000806040838503121561175357600080fd5b50508035926020909101359150565b6000806000806080858703121561177857600080fd5b61178185611582565b935061178f60208601611582565b925060408501359150606085013567ffffffffffffffff8111156117b257600080fd5b8501601f810187136117c357600080fd5b6117d287823560208401611635565b91505092959194509250565b600080604083850312156117f157600080fd5b6117fa83611582565b915061180860208401611582565b90509250929050565b600181811c9082168061182557607f821691505b6020821081141561184657634e487b7160e01b600052602260045260246000fd5b50919050565b60208082526031908201527f4552433732313a207472616e736665722063616c6c6572206973206e6f74206f6040820152701ddb995c881b9bdc88185c1c1c9bdd9959607a1b606082015260800190565b600083516118af8184602088016114fe565b8351908301906118c38183602088016114fe565b01949350505050565b634e487b7160e01b600052601160045260246000fd5b6000828210156118f4576118f46118cc565b500390565b6000821982111561190c5761190c6118cc565b500190565b60208082526032908201527f4552433732313a207472616e7366657220746f206e6f6e20455243373231526560408201527131b2b4bb32b91034b6b83632b6b2b73a32b960711b606082015260800190565b6001600160a01b03858116825284166020820152604081018390526080606082018190526000906119969083018461152a565b9695505050505050565b6000602082840312156119b257600080fd5b815161075a816114c8565b60006000198214156119d1576119d16118cc565b5060010190565b634e487b7160e01b600052601260045260246000fd5b6000826119fd576119fd6119d8565b500490565b600082611a1157611a116119d8565b500690565b634e487b7160e01b600052603260045260246000fdfea264697066735822122059b1722613371dc1034299618281041faeaeb64cc5128b261fbf196a846b3b2264736f6c634300080a0033",
    "linkReferences": {}
  }
}